{"abi":[{"type":"function","name":"onStart","inputs":[{"name":"safe","type":"address","internalType":"address"},{"name":"","type":"address","internalType":"address"},{"name":"","type":"uint256","internalType":"uint256"},{"name":"","type":"uint256","internalType":"uint256"},{"name":"data","type":"bytes","internalType":"bytes"}],"outputs":[],"stateMutability":"pure"},{"type":"function","name":"onStop","inputs":[{"name":"safe","type":"address","internalType":"address"},{"name":"token","type":"address","internalType":"address"},{"name":"identifier","type":"uint256","internalType":"uint256"},{"name":"","type":"uint256","internalType":"uint256"},{"name":"","type":"bytes","internalType":"bytes"}],"outputs":[],"stateMutability":"nonpayable"},{"type":"function","name":"onTransaction","inputs":[{"name":"safe","type":"address","internalType":"address"},{"name":"to","type":"address","internalType":"address"},{"name":"value","type":"uint256","internalType":"uint256"},{"name":"data","type":"bytes","internalType":"bytes"}],"outputs":[],"stateMutability":"view"}],"bytecode":{"object":"0x608060405234801561001057600080fd5b506103fc806100206000396000f3fe608060405234801561001057600080fd5b50600436106100415760003560e01c80630747c99514610046578063f5aa1eee1461005d578063f957ee7814610070575b600080fd5b61005b61005436600461021c565b5050505050565b005b61005b61006b36600461021c565b610084565b61005b61007e366004610292565b50505050565b60008180602001905181019061009a91906102fe565b905060005b81518110156100e9578181815181106100ba576100ba6103b0565b60200260200101516001600160a01b0316876001600160a01b0316036100e1575050610054565b60010161009f565b5060405162461bcd60e51b815260206004820152602e60248201527f72656e74616c2077616c6c6574206973206e6f7420617574686f72697a65642060448201526d3337b9103a3434b99037b93232b960911b606482015260840160405180910390fd5b6001600160a01b038116811461016257600080fd5b50565b634e487b7160e01b600052604160045260246000fd5b604051601f8201601f1916810167ffffffffffffffff811182821017156101a4576101a4610165565b604052919050565b600082601f8301126101bd57600080fd5b813567ffffffffffffffff8111156101d7576101d7610165565b6101ea601f8201601f191660200161017b565b8181528460208386010111156101ff57600080fd5b816020850160208301376000918101602001919091529392505050565b600080600080600060a0868803121561023457600080fd5b853561023f8161014d565b9450602086013561024f8161014d565b93506040860135925060608601359150608086013567ffffffffffffffff81111561027957600080fd5b610285888289016101ac565b9150509295509295909350565b600080600080608085870312156102a857600080fd5b84356102b38161014d565b935060208501356102c38161014d565b925060408501359150606085013567ffffffffffffffff8111156102e657600080fd5b6102f2878288016101ac565b91505092959194509250565b6000602080838503121561031157600080fd5b825167ffffffffffffffff8082111561032957600080fd5b818501915085601f83011261033d57600080fd5b81518181111561034f5761034f610165565b8060051b915061036084830161017b565b818152918301840191848101908884111561037a57600080fd5b938501935b838510156103a457845192506103948361014d565b828252938501939085019061037f565b98975050505050505050565b634e487b7160e01b600052603260045260246000fdfea2646970667358221220e7b6321f457acc36ebef44c8ce66460a3a699abf8753df74981e1440e1d8740564736f6c63430008160033","linkReferences":{}},"methodIdentifiers":{"onStart(address,address,uint256,uint256,bytes)":"f5aa1eee","onStop(address,address,uint256,uint256,bytes)":"0747c995","onTransaction(address,address,uint256,bytes)":"f957ee78"},"id":124}