{"abi":[{"type":"constructor","inputs":[{"name":"conduitController","type":"address","internalType":"address"}],"stateMutability":"nonpayable"},{"type":"receive","stateMutability":"payable"},{"type":"function","name":"cancel","inputs":[{"name":"orders","type":"tuple[]","internalType":"struct OrderComponents[]","components":[{"name":"offerer","type":"address","internalType":"address"},{"name":"zone","type":"address","internalType":"address"},{"name":"offer","type":"tuple[]","internalType":"struct OfferItem[]","components":[{"name":"itemType","type":"uint8","internalType":"enum ItemType"},{"name":"token","type":"address","internalType":"address"},{"name":"identifierOrCriteria","type":"uint256","internalType":"uint256"},{"name":"startAmount","type":"uint256","internalType":"uint256"},{"name":"endAmount","type":"uint256","internalType":"uint256"}]},{"name":"consideration","type":"tuple[]","internalType":"struct ConsiderationItem[]","components":[{"name":"itemType","type":"uint8","internalType":"enum ItemType"},{"name":"token","type":"address","internalType":"address"},{"name":"identifierOrCriteria","type":"uint256","internalType":"uint256"},{"name":"startAmount","type":"uint256","internalType":"uint256"},{"name":"endAmount","type":"uint256","internalType":"uint256"},{"name":"recipient","type":"address","internalType":"address payable"}]},{"name":"orderType","type":"uint8","internalType":"enum OrderType"},{"name":"startTime","type":"uint256","internalType":"uint256"},{"name":"endTime","type":"uint256","internalType":"uint256"},{"name":"zoneHash","type":"bytes32","internalType":"bytes32"},{"name":"salt","type":"uint256","internalType":"uint256"},{"name":"conduitKey","type":"bytes32","internalType":"bytes32"},{"name":"counter","type":"uint256","internalType":"uint256"}]}],"outputs":[{"name":"cancelled","type":"bool","internalType":"bool"}],"stateMutability":"nonpayable"},{"type":"function","name":"fulfillAdvancedOrder","inputs":[{"name":"","type":"tuple","internalType":"struct AdvancedOrder","components":[{"name":"parameters","type":"tuple","internalType":"struct OrderParameters","components":[{"name":"offerer","type":"address","internalType":"address"},{"name":"zone","type":"address","internalType":"address"},{"name":"offer","type":"tuple[]","internalType":"struct OfferItem[]","components":[{"name":"itemType","type":"uint8","internalType":"enum ItemType"},{"name":"token","type":"address","internalType":"address"},{"name":"identifierOrCriteria","type":"uint256","internalType":"uint256"},{"name":"startAmount","type":"uint256","internalType":"uint256"},{"name":"endAmount","type":"uint256","internalType":"uint256"}]},{"name":"consideration","type":"tuple[]","internalType":"struct ConsiderationItem[]","components":[{"name":"itemType","type":"uint8","internalType":"enum ItemType"},{"name":"token","type":"address","internalType":"address"},{"name":"identifierOrCriteria","type":"uint256","internalType":"uint256"},{"name":"startAmount","type":"uint256","internalType":"uint256"},{"name":"endAmount","type":"uint256","internalType":"uint256"},{"name":"recipient","type":"address","internalType":"address payable"}]},{"name":"orderType","type":"uint8","internalType":"enum OrderType"},{"name":"startTime","type":"uint256","internalType":"uint256"},{"name":"endTime","type":"uint256","internalType":"uint256"},{"name":"zoneHash","type":"bytes32","internalType":"bytes32"},{"name":"salt","type":"uint256","internalType":"uint256"},{"name":"conduitKey","type":"bytes32","internalType":"bytes32"},{"name":"totalOriginalConsiderationItems","type":"uint256","internalType":"uint256"}]},{"name":"numerator","type":"uint120","internalType":"uint120"},{"name":"denominator","type":"uint120","internalType":"uint120"},{"name":"signature","type":"bytes","internalType":"bytes"},{"name":"extraData","type":"bytes","internalType":"bytes"}]},{"name":"","type":"tuple[]","internalType":"struct CriteriaResolver[]","components":[{"name":"orderIndex","type":"uint256","internalType":"uint256"},{"name":"side","type":"uint8","internalType":"enum Side"},{"name":"index","type":"uint256","internalType":"uint256"},{"name":"identifier","type":"uint256","internalType":"uint256"},{"name":"criteriaProof","type":"bytes32[]","internalType":"bytes32[]"}]},{"name":"fulfillerConduitKey","type":"bytes32","internalType":"bytes32"},{"name":"recipient","type":"address","internalType":"address"}],"outputs":[{"name":"fulfilled","type":"bool","internalType":"bool"}],"stateMutability":"payable"},{"type":"function","name":"fulfillAvailableAdvancedOrders","inputs":[{"name":"","type":"tuple[]","internalType":"struct AdvancedOrder[]","components":[{"name":"parameters","type":"tuple","internalType":"struct OrderParameters","components":[{"name":"offerer","type":"address","internalType":"address"},{"name":"zone","type":"address","internalType":"address"},{"name":"offer","type":"tuple[]","internalType":"struct OfferItem[]","components":[{"name":"itemType","type":"uint8","internalType":"enum ItemType"},{"name":"token","type":"address","internalType":"address"},{"name":"identifierOrCriteria","type":"uint256","internalType":"uint256"},{"name":"startAmount","type":"uint256","internalType":"uint256"},{"name":"endAmount","type":"uint256","internalType":"uint256"}]},{"name":"consideration","type":"tuple[]","internalType":"struct ConsiderationItem[]","components":[{"name":"itemType","type":"uint8","internalType":"enum ItemType"},{"name":"token","type":"address","internalType":"address"},{"name":"identifierOrCriteria","type":"uint256","internalType":"uint256"},{"name":"startAmount","type":"uint256","internalType":"uint256"},{"name":"endAmount","type":"uint256","internalType":"uint256"},{"name":"recipient","type":"address","internalType":"address payable"}]},{"name":"orderType","type":"uint8","internalType":"enum OrderType"},{"name":"startTime","type":"uint256","internalType":"uint256"},{"name":"endTime","type":"uint256","internalType":"uint256"},{"name":"zoneHash","type":"bytes32","internalType":"bytes32"},{"name":"salt","type":"uint256","internalType":"uint256"},{"name":"conduitKey","type":"bytes32","internalType":"bytes32"},{"name":"totalOriginalConsiderationItems","type":"uint256","internalType":"uint256"}]},{"name":"numerator","type":"uint120","internalType":"uint120"},{"name":"denominator","type":"uint120","internalType":"uint120"},{"name":"signature","type":"bytes","internalType":"bytes"},{"name":"extraData","type":"bytes","internalType":"bytes"}]},{"name":"","type":"tuple[]","internalType":"struct CriteriaResolver[]","components":[{"name":"orderIndex","type":"uint256","internalType":"uint256"},{"name":"side","type":"uint8","internalType":"enum Side"},{"name":"index","type":"uint256","internalType":"uint256"},{"name":"identifier","type":"uint256","internalType":"uint256"},{"name":"criteriaProof","type":"bytes32[]","internalType":"bytes32[]"}]},{"name":"","type":"tuple[][]","internalType":"struct FulfillmentComponent[][]","components":[{"name":"orderIndex","type":"uint256","internalType":"uint256"},{"name":"itemIndex","type":"uint256","internalType":"uint256"}]},{"name":"","type":"tuple[][]","internalType":"struct FulfillmentComponent[][]","components":[{"name":"orderIndex","type":"uint256","internalType":"uint256"},{"name":"itemIndex","type":"uint256","internalType":"uint256"}]},{"name":"fulfillerConduitKey","type":"bytes32","internalType":"bytes32"},{"name":"recipient","type":"address","internalType":"address"},{"name":"maximumFulfilled","type":"uint256","internalType":"uint256"}],"outputs":[{"name":"","type":"bool[]","internalType":"bool[]"},{"name":"","type":"tuple[]","internalType":"struct Execution[]","components":[{"name":"item","type":"tuple","internalType":"struct ReceivedItem","components":[{"name":"itemType","type":"uint8","internalType":"enum ItemType"},{"name":"token","type":"address","internalType":"address"},{"name":"identifier","type":"uint256","internalType":"uint256"},{"name":"amount","type":"uint256","internalType":"uint256"},{"name":"recipient","type":"address","internalType":"address payable"}]},{"name":"offerer","type":"address","internalType":"address"},{"name":"conduitKey","type":"bytes32","internalType":"bytes32"}]}],"stateMutability":"payable"},{"type":"function","name":"fulfillAvailableOrders","inputs":[{"name":"","type":"tuple[]","internalType":"struct Order[]","components":[{"name":"parameters","type":"tuple","internalType":"struct OrderParameters","components":[{"name":"offerer","type":"address","internalType":"address"},{"name":"zone","type":"address","internalType":"address"},{"name":"offer","type":"tuple[]","internalType":"struct OfferItem[]","components":[{"name":"itemType","type":"uint8","internalType":"enum ItemType"},{"name":"token","type":"address","internalType":"address"},{"name":"identifierOrCriteria","type":"uint256","internalType":"uint256"},{"name":"startAmount","type":"uint256","internalType":"uint256"},{"name":"endAmount","type":"uint256","internalType":"uint256"}]},{"name":"consideration","type":"tuple[]","internalType":"struct ConsiderationItem[]","components":[{"name":"itemType","type":"uint8","internalType":"enum ItemType"},{"name":"token","type":"address","internalType":"address"},{"name":"identifierOrCriteria","type":"uint256","internalType":"uint256"},{"name":"startAmount","type":"uint256","internalType":"uint256"},{"name":"endAmount","type":"uint256","internalType":"uint256"},{"name":"recipient","type":"address","internalType":"address payable"}]},{"name":"orderType","type":"uint8","internalType":"enum OrderType"},{"name":"startTime","type":"uint256","internalType":"uint256"},{"name":"endTime","type":"uint256","internalType":"uint256"},{"name":"zoneHash","type":"bytes32","internalType":"bytes32"},{"name":"salt","type":"uint256","internalType":"uint256"},{"name":"conduitKey","type":"bytes32","internalType":"bytes32"},{"name":"totalOriginalConsiderationItems","type":"uint256","internalType":"uint256"}]},{"name":"signature","type":"bytes","internalType":"bytes"}]},{"name":"","type":"tuple[][]","internalType":"struct FulfillmentComponent[][]","components":[{"name":"orderIndex","type":"uint256","internalType":"uint256"},{"name":"itemIndex","type":"uint256","internalType":"uint256"}]},{"name":"","type":"tuple[][]","internalType":"struct FulfillmentComponent[][]","components":[{"name":"orderIndex","type":"uint256","internalType":"uint256"},{"name":"itemIndex","type":"uint256","internalType":"uint256"}]},{"name":"fulfillerConduitKey","type":"bytes32","internalType":"bytes32"},{"name":"maximumFulfilled","type":"uint256","internalType":"uint256"}],"outputs":[{"name":"","type":"bool[]","internalType":"bool[]"},{"name":"","type":"tuple[]","internalType":"struct Execution[]","components":[{"name":"item","type":"tuple","internalType":"struct ReceivedItem","components":[{"name":"itemType","type":"uint8","internalType":"enum ItemType"},{"name":"token","type":"address","internalType":"address"},{"name":"identifier","type":"uint256","internalType":"uint256"},{"name":"amount","type":"uint256","internalType":"uint256"},{"name":"recipient","type":"address","internalType":"address payable"}]},{"name":"offerer","type":"address","internalType":"address"},{"name":"conduitKey","type":"bytes32","internalType":"bytes32"}]}],"stateMutability":"payable"},{"type":"function","name":"fulfillBasicOrder","inputs":[{"name":"parameters","type":"tuple","internalType":"struct BasicOrderParameters","components":[{"name":"considerationToken","type":"address","internalType":"address"},{"name":"considerationIdentifier","type":"uint256","internalType":"uint256"},{"name":"considerationAmount","type":"uint256","internalType":"uint256"},{"name":"offerer","type":"address","internalType":"address payable"},{"name":"zone","type":"address","internalType":"address"},{"name":"offerToken","type":"address","internalType":"address"},{"name":"offerIdentifier","type":"uint256","internalType":"uint256"},{"name":"offerAmount","type":"uint256","internalType":"uint256"},{"name":"basicOrderType","type":"uint8","internalType":"enum BasicOrderType"},{"name":"startTime","type":"uint256","internalType":"uint256"},{"name":"endTime","type":"uint256","internalType":"uint256"},{"name":"zoneHash","type":"bytes32","internalType":"bytes32"},{"name":"salt","type":"uint256","internalType":"uint256"},{"name":"offererConduitKey","type":"bytes32","internalType":"bytes32"},{"name":"fulfillerConduitKey","type":"bytes32","internalType":"bytes32"},{"name":"totalOriginalAdditionalRecipients","type":"uint256","internalType":"uint256"},{"name":"additionalRecipients","type":"tuple[]","internalType":"struct AdditionalRecipient[]","components":[{"name":"amount","type":"uint256","internalType":"uint256"},{"name":"recipient","type":"address","internalType":"address payable"}]},{"name":"signature","type":"bytes","internalType":"bytes"}]}],"outputs":[{"name":"fulfilled","type":"bool","internalType":"bool"}],"stateMutability":"payable"},{"type":"function","name":"fulfillBasicOrder_efficient_6GL6yc","inputs":[{"name":"parameters","type":"tuple","internalType":"struct BasicOrderParameters","components":[{"name":"considerationToken","type":"address","internalType":"address"},{"name":"considerationIdentifier","type":"uint256","internalType":"uint256"},{"name":"considerationAmount","type":"uint256","internalType":"uint256"},{"name":"offerer","type":"address","internalType":"address payable"},{"name":"zone","type":"address","internalType":"address"},{"name":"offerToken","type":"address","internalType":"address"},{"name":"offerIdentifier","type":"uint256","internalType":"uint256"},{"name":"offerAmount","type":"uint256","internalType":"uint256"},{"name":"basicOrderType","type":"uint8","internalType":"enum BasicOrderType"},{"name":"startTime","type":"uint256","internalType":"uint256"},{"name":"endTime","type":"uint256","internalType":"uint256"},{"name":"zoneHash","type":"bytes32","internalType":"bytes32"},{"name":"salt","type":"uint256","internalType":"uint256"},{"name":"offererConduitKey","type":"bytes32","internalType":"bytes32"},{"name":"fulfillerConduitKey","type":"bytes32","internalType":"bytes32"},{"name":"totalOriginalAdditionalRecipients","type":"uint256","internalType":"uint256"},{"name":"additionalRecipients","type":"tuple[]","internalType":"struct AdditionalRecipient[]","components":[{"name":"amount","type":"uint256","internalType":"uint256"},{"name":"recipient","type":"address","internalType":"address payable"}]},{"name":"signature","type":"bytes","internalType":"bytes"}]}],"outputs":[{"name":"fulfilled","type":"bool","internalType":"bool"}],"stateMutability":"payable"},{"type":"function","name":"fulfillOrder","inputs":[{"name":"","type":"tuple","internalType":"struct Order","components":[{"name":"parameters","type":"tuple","internalType":"struct OrderParameters","components":[{"name":"offerer","type":"address","internalType":"address"},{"name":"zone","type":"address","internalType":"address"},{"name":"offer","type":"tuple[]","internalType":"struct OfferItem[]","components":[{"name":"itemType","type":"uint8","internalType":"enum ItemType"},{"name":"token","type":"address","internalType":"address"},{"name":"identifierOrCriteria","type":"uint256","internalType":"uint256"},{"name":"startAmount","type":"uint256","internalType":"uint256"},{"name":"endAmount","type":"uint256","internalType":"uint256"}]},{"name":"consideration","type":"tuple[]","internalType":"struct ConsiderationItem[]","components":[{"name":"itemType","type":"uint8","internalType":"enum ItemType"},{"name":"token","type":"address","internalType":"address"},{"name":"identifierOrCriteria","type":"uint256","internalType":"uint256"},{"name":"startAmount","type":"uint256","internalType":"uint256"},{"name":"endAmount","type":"uint256","internalType":"uint256"},{"name":"recipient","type":"address","internalType":"address payable"}]},{"name":"orderType","type":"uint8","internalType":"enum OrderType"},{"name":"startTime","type":"uint256","internalType":"uint256"},{"name":"endTime","type":"uint256","internalType":"uint256"},{"name":"zoneHash","type":"bytes32","internalType":"bytes32"},{"name":"salt","type":"uint256","internalType":"uint256"},{"name":"conduitKey","type":"bytes32","internalType":"bytes32"},{"name":"totalOriginalConsiderationItems","type":"uint256","internalType":"uint256"}]},{"name":"signature","type":"bytes","internalType":"bytes"}]},{"name":"fulfillerConduitKey","type":"bytes32","internalType":"bytes32"}],"outputs":[{"name":"fulfilled","type":"bool","internalType":"bool"}],"stateMutability":"payable"},{"type":"function","name":"getContractOffererNonce","inputs":[{"name":"contractOfferer","type":"address","internalType":"address"}],"outputs":[{"name":"nonce","type":"uint256","internalType":"uint256"}],"stateMutability":"view"},{"type":"function","name":"getCounter","inputs":[{"name":"offerer","type":"address","internalType":"address"}],"outputs":[{"name":"counter","type":"uint256","internalType":"uint256"}],"stateMutability":"view"},{"type":"function","name":"getOrderHash","inputs":[{"name":"","type":"tuple","internalType":"struct OrderComponents","components":[{"name":"offerer","type":"address","internalType":"address"},{"name":"zone","type":"address","internalType":"address"},{"name":"offer","type":"tuple[]","internalType":"struct OfferItem[]","components":[{"name":"itemType","type":"uint8","internalType":"enum ItemType"},{"name":"token","type":"address","internalType":"address"},{"name":"identifierOrCriteria","type":"uint256","internalType":"uint256"},{"name":"startAmount","type":"uint256","internalType":"uint256"},{"name":"endAmount","type":"uint256","internalType":"uint256"}]},{"name":"consideration","type":"tuple[]","internalType":"struct ConsiderationItem[]","components":[{"name":"itemType","type":"uint8","internalType":"enum ItemType"},{"name":"token","type":"address","internalType":"address"},{"name":"identifierOrCriteria","type":"uint256","internalType":"uint256"},{"name":"startAmount","type":"uint256","internalType":"uint256"},{"name":"endAmount","type":"uint256","internalType":"uint256"},{"name":"recipient","type":"address","internalType":"address payable"}]},{"name":"orderType","type":"uint8","internalType":"enum OrderType"},{"name":"startTime","type":"uint256","internalType":"uint256"},{"name":"endTime","type":"uint256","internalType":"uint256"},{"name":"zoneHash","type":"bytes32","internalType":"bytes32"},{"name":"salt","type":"uint256","internalType":"uint256"},{"name":"conduitKey","type":"bytes32","internalType":"bytes32"},{"name":"counter","type":"uint256","internalType":"uint256"}]}],"outputs":[{"name":"orderHash","type":"bytes32","internalType":"bytes32"}],"stateMutability":"view"},{"type":"function","name":"getOrderStatus","inputs":[{"name":"orderHash","type":"bytes32","internalType":"bytes32"}],"outputs":[{"name":"isValidated","type":"bool","internalType":"bool"},{"name":"isCancelled","type":"bool","internalType":"bool"},{"name":"totalFilled","type":"uint256","internalType":"uint256"},{"name":"totalSize","type":"uint256","internalType":"uint256"}],"stateMutability":"view"},{"type":"function","name":"incrementCounter","inputs":[],"outputs":[{"name":"newCounter","type":"uint256","internalType":"uint256"}],"stateMutability":"nonpayable"},{"type":"function","name":"information","inputs":[],"outputs":[{"name":"version","type":"string","internalType":"string"},{"name":"domainSeparator","type":"bytes32","internalType":"bytes32"},{"name":"conduitController","type":"address","internalType":"address"}],"stateMutability":"view"},{"type":"function","name":"matchAdvancedOrders","inputs":[{"name":"","type":"tuple[]","internalType":"struct AdvancedOrder[]","components":[{"name":"parameters","type":"tuple","internalType":"struct OrderParameters","components":[{"name":"offerer","type":"address","internalType":"address"},{"name":"zone","type":"address","internalType":"address"},{"name":"offer","type":"tuple[]","internalType":"struct OfferItem[]","components":[{"name":"itemType","type":"uint8","internalType":"enum ItemType"},{"name":"token","type":"address","internalType":"address"},{"name":"identifierOrCriteria","type":"uint256","internalType":"uint256"},{"name":"startAmount","type":"uint256","internalType":"uint256"},{"name":"endAmount","type":"uint256","internalType":"uint256"}]},{"name":"consideration","type":"tuple[]","internalType":"struct ConsiderationItem[]","components":[{"name":"itemType","type":"uint8","internalType":"enum ItemType"},{"name":"token","type":"address","internalType":"address"},{"name":"identifierOrCriteria","type":"uint256","internalType":"uint256"},{"name":"startAmount","type":"uint256","internalType":"uint256"},{"name":"endAmount","type":"uint256","internalType":"uint256"},{"name":"recipient","type":"address","internalType":"address payable"}]},{"name":"orderType","type":"uint8","internalType":"enum OrderType"},{"name":"startTime","type":"uint256","internalType":"uint256"},{"name":"endTime","type":"uint256","internalType":"uint256"},{"name":"zoneHash","type":"bytes32","internalType":"bytes32"},{"name":"salt","type":"uint256","internalType":"uint256"},{"name":"conduitKey","type":"bytes32","internalType":"bytes32"},{"name":"totalOriginalConsiderationItems","type":"uint256","internalType":"uint256"}]},{"name":"numerator","type":"uint120","internalType":"uint120"},{"name":"denominator","type":"uint120","internalType":"uint120"},{"name":"signature","type":"bytes","internalType":"bytes"},{"name":"extraData","type":"bytes","internalType":"bytes"}]},{"name":"","type":"tuple[]","internalType":"struct CriteriaResolver[]","components":[{"name":"orderIndex","type":"uint256","internalType":"uint256"},{"name":"side","type":"uint8","internalType":"enum Side"},{"name":"index","type":"uint256","internalType":"uint256"},{"name":"identifier","type":"uint256","internalType":"uint256"},{"name":"criteriaProof","type":"bytes32[]","internalType":"bytes32[]"}]},{"name":"","type":"tuple[]","internalType":"struct Fulfillment[]","components":[{"name":"offerComponents","type":"tuple[]","internalType":"struct FulfillmentComponent[]","components":[{"name":"orderIndex","type":"uint256","internalType":"uint256"},{"name":"itemIndex","type":"uint256","internalType":"uint256"}]},{"name":"considerationComponents","type":"tuple[]","internalType":"struct FulfillmentComponent[]","components":[{"name":"orderIndex","type":"uint256","internalType":"uint256"},{"name":"itemIndex","type":"uint256","internalType":"uint256"}]}]},{"name":"recipient","type":"address","internalType":"address"}],"outputs":[{"name":"","type":"tuple[]","internalType":"struct Execution[]","components":[{"name":"item","type":"tuple","internalType":"struct ReceivedItem","components":[{"name":"itemType","type":"uint8","internalType":"enum ItemType"},{"name":"token","type":"address","internalType":"address"},{"name":"identifier","type":"uint256","internalType":"uint256"},{"name":"amount","type":"uint256","internalType":"uint256"},{"name":"recipient","type":"address","internalType":"address payable"}]},{"name":"offerer","type":"address","internalType":"address"},{"name":"conduitKey","type":"bytes32","internalType":"bytes32"}]}],"stateMutability":"payable"},{"type":"function","name":"matchOrders","inputs":[{"name":"","type":"tuple[]","internalType":"struct Order[]","components":[{"name":"parameters","type":"tuple","internalType":"struct OrderParameters","components":[{"name":"offerer","type":"address","internalType":"address"},{"name":"zone","type":"address","internalType":"address"},{"name":"offer","type":"tuple[]","internalType":"struct OfferItem[]","components":[{"name":"itemType","type":"uint8","internalType":"enum ItemType"},{"name":"token","type":"address","internalType":"address"},{"name":"identifierOrCriteria","type":"uint256","internalType":"uint256"},{"name":"startAmount","type":"uint256","internalType":"uint256"},{"name":"endAmount","type":"uint256","internalType":"uint256"}]},{"name":"consideration","type":"tuple[]","internalType":"struct ConsiderationItem[]","components":[{"name":"itemType","type":"uint8","internalType":"enum ItemType"},{"name":"token","type":"address","internalType":"address"},{"name":"identifierOrCriteria","type":"uint256","internalType":"uint256"},{"name":"startAmount","type":"uint256","internalType":"uint256"},{"name":"endAmount","type":"uint256","internalType":"uint256"},{"name":"recipient","type":"address","internalType":"address payable"}]},{"name":"orderType","type":"uint8","internalType":"enum OrderType"},{"name":"startTime","type":"uint256","internalType":"uint256"},{"name":"endTime","type":"uint256","internalType":"uint256"},{"name":"zoneHash","type":"bytes32","internalType":"bytes32"},{"name":"salt","type":"uint256","internalType":"uint256"},{"name":"conduitKey","type":"bytes32","internalType":"bytes32"},{"name":"totalOriginalConsiderationItems","type":"uint256","internalType":"uint256"}]},{"name":"signature","type":"bytes","internalType":"bytes"}]},{"name":"","type":"tuple[]","internalType":"struct Fulfillment[]","components":[{"name":"offerComponents","type":"tuple[]","internalType":"struct FulfillmentComponent[]","components":[{"name":"orderIndex","type":"uint256","internalType":"uint256"},{"name":"itemIndex","type":"uint256","internalType":"uint256"}]},{"name":"considerationComponents","type":"tuple[]","internalType":"struct FulfillmentComponent[]","components":[{"name":"orderIndex","type":"uint256","internalType":"uint256"},{"name":"itemIndex","type":"uint256","internalType":"uint256"}]}]}],"outputs":[{"name":"","type":"tuple[]","internalType":"struct Execution[]","components":[{"name":"item","type":"tuple","internalType":"struct ReceivedItem","components":[{"name":"itemType","type":"uint8","internalType":"enum ItemType"},{"name":"token","type":"address","internalType":"address"},{"name":"identifier","type":"uint256","internalType":"uint256"},{"name":"amount","type":"uint256","internalType":"uint256"},{"name":"recipient","type":"address","internalType":"address payable"}]},{"name":"offerer","type":"address","internalType":"address"},{"name":"conduitKey","type":"bytes32","internalType":"bytes32"}]}],"stateMutability":"payable"},{"type":"function","name":"name","inputs":[],"outputs":[{"name":"","type":"string","internalType":"string"}],"stateMutability":"pure"},{"type":"function","name":"validate","inputs":[{"name":"","type":"tuple[]","internalType":"struct Order[]","components":[{"name":"parameters","type":"tuple","internalType":"struct OrderParameters","components":[{"name":"offerer","type":"address","internalType":"address"},{"name":"zone","type":"address","internalType":"address"},{"name":"offer","type":"tuple[]","internalType":"struct OfferItem[]","components":[{"name":"itemType","type":"uint8","internalType":"enum ItemType"},{"name":"token","type":"address","internalType":"address"},{"name":"identifierOrCriteria","type":"uint256","internalType":"uint256"},{"name":"startAmount","type":"uint256","internalType":"uint256"},{"name":"endAmount","type":"uint256","internalType":"uint256"}]},{"name":"consideration","type":"tuple[]","internalType":"struct ConsiderationItem[]","components":[{"name":"itemType","type":"uint8","internalType":"enum ItemType"},{"name":"token","type":"address","internalType":"address"},{"name":"identifierOrCriteria","type":"uint256","internalType":"uint256"},{"name":"startAmount","type":"uint256","internalType":"uint256"},{"name":"endAmount","type":"uint256","internalType":"uint256"},{"name":"recipient","type":"address","internalType":"address payable"}]},{"name":"orderType","type":"uint8","internalType":"enum OrderType"},{"name":"startTime","type":"uint256","internalType":"uint256"},{"name":"endTime","type":"uint256","internalType":"uint256"},{"name":"zoneHash","type":"bytes32","internalType":"bytes32"},{"name":"salt","type":"uint256","internalType":"uint256"},{"name":"conduitKey","type":"bytes32","internalType":"bytes32"},{"name":"totalOriginalConsiderationItems","type":"uint256","internalType":"uint256"}]},{"name":"signature","type":"bytes","internalType":"bytes"}]}],"outputs":[{"name":"","type":"bool","internalType":"bool"}],"stateMutability":"nonpayable"},{"type":"event","name":"CounterIncremented","inputs":[{"name":"newCounter","type":"uint256","indexed":false,"internalType":"uint256"},{"name":"offerer","type":"address","indexed":true,"internalType":"address"}],"anonymous":false},{"type":"event","name":"OrderCancelled","inputs":[{"name":"orderHash","type":"bytes32","indexed":false,"internalType":"bytes32"},{"name":"offerer","type":"address","indexed":true,"internalType":"address"},{"name":"zone","type":"address","indexed":true,"internalType":"address"}],"anonymous":false},{"type":"event","name":"OrderFulfilled","inputs":[{"name":"orderHash","type":"bytes32","indexed":false,"internalType":"bytes32"},{"name":"offerer","type":"address","indexed":true,"internalType":"address"},{"name":"zone","type":"address","indexed":true,"internalType":"address"},{"name":"recipient","type":"address","indexed":false,"internalType":"address"},{"name":"offer","type":"tuple[]","indexed":false,"internalType":"struct SpentItem[]","components":[{"name":"itemType","type":"uint8","internalType":"enum ItemType"},{"name":"token","type":"address","internalType":"address"},{"name":"identifier","type":"uint256","internalType":"uint256"},{"name":"amount","type":"uint256","internalType":"uint256"}]},{"name":"consideration","type":"tuple[]","indexed":false,"internalType":"struct ReceivedItem[]","components":[{"name":"itemType","type":"uint8","internalType":"enum ItemType"},{"name":"token","type":"address","internalType":"address"},{"name":"identifier","type":"uint256","internalType":"uint256"},{"name":"amount","type":"uint256","internalType":"uint256"},{"name":"recipient","type":"address","internalType":"address payable"}]}],"anonymous":false},{"type":"event","name":"OrderValidated","inputs":[{"name":"orderHash","type":"bytes32","indexed":false,"internalType":"bytes32"},{"name":"orderParameters","type":"tuple","indexed":false,"internalType":"struct OrderParameters","components":[{"name":"offerer","type":"address","internalType":"address"},{"name":"zone","type":"address","internalType":"address"},{"name":"offer","type":"tuple[]","internalType":"struct OfferItem[]","components":[{"name":"itemType","type":"uint8","internalType":"enum ItemType"},{"name":"token","type":"address","internalType":"address"},{"name":"identifierOrCriteria","type":"uint256","internalType":"uint256"},{"name":"startAmount","type":"uint256","internalType":"uint256"},{"name":"endAmount","type":"uint256","internalType":"uint256"}]},{"name":"consideration","type":"tuple[]","internalType":"struct ConsiderationItem[]","components":[{"name":"itemType","type":"uint8","internalType":"enum ItemType"},{"name":"token","type":"address","internalType":"address"},{"name":"identifierOrCriteria","type":"uint256","internalType":"uint256"},{"name":"startAmount","type":"uint256","internalType":"uint256"},{"name":"endAmount","type":"uint256","internalType":"uint256"},{"name":"recipient","type":"address","internalType":"address payable"}]},{"name":"orderType","type":"uint8","internalType":"enum OrderType"},{"name":"startTime","type":"uint256","internalType":"uint256"},{"name":"endTime","type":"uint256","internalType":"uint256"},{"name":"zoneHash","type":"bytes32","internalType":"bytes32"},{"name":"salt","type":"uint256","internalType":"uint256"},{"name":"conduitKey","type":"bytes32","internalType":"bytes32"},{"name":"totalOriginalConsiderationItems","type":"uint256","internalType":"uint256"}]}],"anonymous":false},{"type":"event","name":"OrdersMatched","inputs":[{"name":"orderHashes","type":"bytes32[]","indexed":false,"internalType":"bytes32[]"}],"anonymous":false},{"type":"error","name":"BadContractSignature","inputs":[]},{"type":"error","name":"BadFraction","inputs":[]},{"type":"error","name":"BadReturnValueFromERC20OnTransfer","inputs":[{"name":"token","type":"address","internalType":"address"},{"name":"from","type":"address","internalType":"address"},{"name":"to","type":"address","internalType":"address"},{"name":"amount","type":"uint256","internalType":"uint256"}]},{"type":"error","name":"BadSignatureV","inputs":[{"name":"v","type":"uint8","internalType":"uint8"}]},{"type":"error","name":"CannotCancelOrder","inputs":[]},{"type":"error","name":"ConsiderationCriteriaResolverOutOfRange","inputs":[]},{"type":"error","name":"ConsiderationLengthNotEqualToTotalOriginal","inputs":[]},{"type":"error","name":"ConsiderationNotMet","inputs":[{"name":"orderIndex","type":"uint256","internalType":"uint256"},{"name":"considerationIndex","type":"uint256","internalType":"uint256"},{"name":"shortfallAmount","type":"uint256","internalType":"uint256"}]},{"type":"error","name":"CriteriaNotEnabledForItem","inputs":[]},{"type":"error","name":"ERC1155BatchTransferGenericFailure","inputs":[{"name":"token","type":"address","internalType":"address"},{"name":"from","type":"address","internalType":"address"},{"name":"to","type":"address","internalType":"address"},{"name":"identifiers","type":"uint256[]","internalType":"uint256[]"},{"name":"amounts","type":"uint256[]","internalType":"uint256[]"}]},{"type":"error","name":"InexactFraction","inputs":[]},{"type":"error","name":"InsufficientNativeTokensSupplied","inputs":[]},{"type":"error","name":"Invalid1155BatchTransferEncoding","inputs":[]},{"type":"error","name":"InvalidBasicOrderParameterEncoding","inputs":[]},{"type":"error","name":"InvalidCallToConduit","inputs":[{"name":"conduit","type":"address","internalType":"address"}]},{"type":"error","name":"InvalidConduit","inputs":[{"name":"conduitKey","type":"bytes32","internalType":"bytes32"},{"name":"conduit","type":"address","internalType":"address"}]},{"type":"error","name":"InvalidContractOrder","inputs":[{"name":"orderHash","type":"bytes32","internalType":"bytes32"}]},{"type":"error","name":"InvalidERC721TransferAmount","inputs":[{"name":"amount","type":"uint256","internalType":"uint256"}]},{"type":"error","name":"InvalidFulfillmentComponentData","inputs":[]},{"type":"error","name":"InvalidMsgValue","inputs":[{"name":"value","type":"uint256","internalType":"uint256"}]},{"type":"error","name":"InvalidNativeOfferItem","inputs":[]},{"type":"error","name":"InvalidProof","inputs":[]},{"type":"error","name":"InvalidRestrictedOrder","inputs":[{"name":"orderHash","type":"bytes32","internalType":"bytes32"}]},{"type":"error","name":"InvalidSignature","inputs":[]},{"type":"error","name":"InvalidSigner","inputs":[]},{"type":"error","name":"InvalidTime","inputs":[{"name":"startTime","type":"uint256","internalType":"uint256"},{"name":"endTime","type":"uint256","internalType":"uint256"}]},{"type":"error","name":"MismatchedFulfillmentOfferAndConsiderationComponents","inputs":[{"name":"fulfillmentIndex","type":"uint256","internalType":"uint256"}]},{"type":"error","name":"MissingFulfillmentComponentOnAggregation","inputs":[{"name":"side","type":"uint8","internalType":"enum Side"}]},{"type":"error","name":"MissingItemAmount","inputs":[]},{"type":"error","name":"MissingOriginalConsiderationItems","inputs":[]},{"type":"error","name":"NativeTokenTransferGenericFailure","inputs":[{"name":"account","type":"address","internalType":"address"},{"name":"amount","type":"uint256","internalType":"uint256"}]},{"type":"error","name":"NoContract","inputs":[{"name":"account","type":"address","internalType":"address"}]},{"type":"error","name":"NoReentrantCalls","inputs":[]},{"type":"error","name":"NoSpecifiedOrdersAvailable","inputs":[]},{"type":"error","name":"OfferAndConsiderationRequiredOnFulfillment","inputs":[]},{"type":"error","name":"OfferCriteriaResolverOutOfRange","inputs":[]},{"type":"error","name":"OrderAlreadyFilled","inputs":[{"name":"orderHash","type":"bytes32","internalType":"bytes32"}]},{"type":"error","name":"OrderCriteriaResolverOutOfRange","inputs":[{"name":"side","type":"uint8","internalType":"enum Side"}]},{"type":"error","name":"OrderIsCancelled","inputs":[{"name":"orderHash","type":"bytes32","internalType":"bytes32"}]},{"type":"error","name":"OrderPartiallyFilled","inputs":[{"name":"orderHash","type":"bytes32","internalType":"bytes32"}]},{"type":"error","name":"PartialFillsNotEnabledForOrder","inputs":[]},{"type":"error","name":"TokenTransferGenericFailure","inputs":[{"name":"token","type":"address","internalType":"address"},{"name":"from","type":"address","internalType":"address"},{"name":"to","type":"address","internalType":"address"},{"name":"identifier","type":"uint256","internalType":"uint256"},{"name":"amount","type":"uint256","internalType":"uint256"}]},{"type":"error","name":"UnresolvedConsiderationCriteria","inputs":[{"name":"orderIndex","type":"uint256","internalType":"uint256"},{"name":"considerationIndex","type":"uint256","internalType":"uint256"}]},{"type":"error","name":"UnresolvedOfferCriteria","inputs":[{"name":"orderIndex","type":"uint256","internalType":"uint256"},{"name":"offerIndex","type":"uint256","internalType":"uint256"}]},{"type":"error","name":"UnusedItemParameters","inputs":[]}],"bytecode":{"object":"0x6101c06040523480156200001257600080fd5b506040516200623938038062006239833981016040819052620000359162000245565b808080808080808080806200004962000119565b610120526101005260e05260c081905260a0828152466101408190526040805160009485526020879052948152606091825230608090815292842085825293909152939052610160526001600160a01b038316610180819052630a96ad3960e01b825282519092630a96ad3992600480820193918290030181865afa158015620000d7573d6000803e3d6000fd5b505050506040513d601f19601f82011682018060405250810190620000fd919062000277565b506101a0525050600160005550620002fb975050505050505050565b600080808080806200014560408051808201909152600781526614d9585c1bdc9d60ca1b602082015290565b80519060200120955060405180604001604052806003815260200162312e3560e81b81525080519060200120945060006040518060a00160405280606a8152602001620061cf606a9139905060006040518060c001604052806084815260200162006025608491399050600060405180610100016040528060d48152602001620060fb60d491399050604051806080016040528060528152602001620060a960529139805190602001209650828051906020012095508180519060200120945060008183856040516020016200021e93929190620002ce565b60405160208183030381529060405290508080519060200120945050505050909192939495565b6000602082840312156200025857600080fd5b81516001600160a01b03811681146200027057600080fd5b9392505050565b600080604083850312156200028b57600080fd5b505080516020909101519092909150565b6000815160005b81811015620002bf5760208185018101518683015201620002a3565b50600093019283525090919050565b6000620002f2620002eb620002e484886200029c565b866200029c565b846200029c565b95945050505050565b60805160a05160c05160e05161010051610120516101405161016051610180516101a051615c92620003936000396000612c940152600081816111ce0152612c6301526000612b5a01526000612aa1015260008181610b45015261157f015260008181610ad301526113ad015260008181610a6c01526114f801526000612ad101526000612b1b01526000612af70152615c926000f3fe6080604052600436106100fd5760003560e01c8063a900866b11610095578063f07ec37311610064578063f07ec373146102e6578063f2d12b1214610306578063f47b774014610319578063fb0f3ee114610111578063fd9f1e101461033d57600080fd5b8063a900866b14610277578063b3a34c4c146102ad578063e7acab24146102c0578063ed98a574146102d357600080fd5b806379df72bd116100d157806379df72bd146101f657806387201b41146102165780638814773214610237578063a81744041461025757600080fd5b801561011157806306fdde031461013957806346423aa71461015b5780635b34b966146101d357600080fd5b3661010c5761010a61035d565b005b600080fd5b61012461011f3660046151fb565b610372565b60405190151581526020015b60405180910390f35b34801561014557600080fd5b5061014e610383565b604051610130919061527c565b34801561016757600080fd5b506101b161017636600461528f565b60009081526002602052604090205460ff808216926101008304909116916001600160781b03620100008204811692600160881b9092041690565b6040805194151585529215156020850152918301526060820152608001610130565b3480156101df57600080fd5b506101e8610392565b604051908152602001610130565b34801561020257600080fd5b506101e86102113660046152a8565b61039c565b61022961022436600461534e565b6103d4565b604051610130929190615501565b34801561024357600080fd5b50610124610252366004615551565b61044d565b61026a610265366004615592565b61046c565b60405161013091906155fd565b34801561028357600080fd5b506101e8610292366004615610565b6001600160a01b031660009081526003602052604090205490565b6101246102bb36600461562d565b61050b565b6101246102ce366004615676565b610589565b6102296102e1366004615705565b6105c8565b3480156102f257600080fd5b506101e8610301366004615610565b61066f565b61026a6103143660046157ad565b61068d565b34801561032557600080fd5b5061032e6106d6565b6040516101309392919061585a565b34801561034957600080fd5b50610124610358366004615551565b6106ee565b60036000541461037057610370346106fa565b565b600061037d8261070c565b92915050565b606061038d61093b565b905090565b600061038d610953565b6000806103a960046109c4565b90506103cd6103be826109d55b63ffffffff16565b610140830135610a54565b3590565b9392505050565b6060806104396103ef6103e760046109c4565b610b9b6103b6565b6104066103fe60046020610c05565b610c246103b6565b61041d61041560046040610c05565b610c7e6103b6565b61042c61041560046060610c05565b89338a15028a0189610cd8565b915091509b509b9950505050505050505050565b60006103cd61046761045f60046109c4565b610d116103b6565b610d6b565b606061050061048661047e60046109c4565b610e916103b6565b60408051600080825260208201909252906104e2565b6104cf6040805160a081019091526000808252602082019081526020016000815260200160008152602001606081525090565b81526020019060019003908161049c5790505b506104fa6104f260046020610c05565b610eeb6103b6565b33610f45565b90505b949350505050565b60006103cd61052561051d60046109c4565b610f736103b6565b6040805160008082526020820190925290610581565b61056e6040805160a081019091526000808252602082019081526020016000815260200160008152602001606081525090565b81526020019060019003908161053b5790505b508433610fea565b60006105be6105a361059b60046109c4565b61115c6103b6565b6105b26103fe60046020610c05565b85338615028601610fea565b9695505050505050565b60608061065e6105db61047e60046109c4565b6040805160008082526020820190925290610637565b6106246040805160a081019091526000808252602082019081526020016000815260200160008152602001606081525090565b8152602001906001900390816105f15790505b5061064761041560046020610c05565b61065661041560046040610c05565b883389610cd8565b915091509850989650505050505050565b6001600160a01b03811660009081526001602052604081205461037d565b60606106c861069f6103e760046109c4565b6106ae6103fe60046020610c05565b6106bd6104f260046040610c05565b338615028601610f45565b90505b979650505050505050565b60606000806106e36111b9565b925092509250909192565b60006103cd838361120a565b63a61be9f0600052806020526024601cfd5b600061012435600281901c906003166001821183341582148061073257610732346106fa565b506003841160a0810260240135906502030203010160d01b861a90630101020360d01b871a6107658a888389888861134c565b9450506101c4600582901b0135600086600581111561078657610786615436565b036107bc5760443560243517156107a557636ab37ce76000526004601cfd5b6107af838261164a565b6107b7611703565b610916565b60408051602080825281830190925260009160208201818036833701905050905060028960058111156107f1576107f1615436565b036108305761082b61080960c08d0160a08e01615610565b61081960808e0160608f01615610565b338e60c001358f60e001358787611784565b610901565b600389600581111561084457610844615436565b0361087e5761082b61085c60c08d0160a08e01615610565b61086c60808e0160608f01615610565b338e60c001358f60e0013587876117cf565b600489600581111561089257610892615436565b036108cc5761082b6108a760208d018d615610565b338d60600160208101906108bb9190615610565b8e602001358f604001358787611784565b6109016108dc60208d018d615610565b338d60600160208101906108f09190615610565b8e602001358f6040013587876117cf565b61090b8382611805565b610914816118c3565b505b61092185888c6118ec565b61092b6001600055565b5060019998505050505050505050565b6060602080526707536561706f727460475260606020f35b600061095d611953565b600143034060801c33600052600160205260406000208054820192508281555050336001600160a01b03167f721c20121297512b72821b97f5326877ea8ecf4bb9948fea5bfcb6453074d37f826040516109b991815260200190565b60405180910390a290565b6000813563ffffffff16820161037d565b60006109e961016060408051918201905290565b90506109f88282610140611965565b610a15610a0e610a09846040610c05565b61196e565b6040830152565b6000610a2a610a25846060610c05565b6119c2565b9050610a37816060840152565b610a4a610a42825190565b610140840152565b50919050565b0190565b610140820151604080519084015180516000939284927f000000000000000000000000000000000000000000000000000000000000000092602090910190845b81811015610ac1578251601f1901805186825260c082208652905260209384019390920191600101610a94565b508060051b60405120945050505060007f00000000000000000000000000000000000000000000000000000000000000009150604051602060608901510160005b86811015610b2f578151601f1901805186825260e082208552905260209283019290910190600101610b02565b505060408051600587901b9020601f198a0180517f00000000000000000000000000000000000000000000000000000000000000008252928b01805197815260608c018051938152610140909c019a8b5261018082209390915295909552939097525050925250919050565b60008063ffffffff8335169050600581901b610bc06020820160408051918201905290565b8281529250602083810190850160005b83811015610bfb57610bf3610bed610be88484610c05565b61115c565b82850152565b602001610bd0565b5050505050919050565b60006103cd63ffffffff610c1e6103c98686610a508516565b16840190565b60008063ffffffff8335169050600581901b610c496020820160408051918201905290565b8281529250602083810190850160005b83811015610bfb57610c76610bed610c718484610c05565b611a06565b602001610c59565b60008063ffffffff8335169050600581901b610ca36020820160408051918201905290565b8281529250602083810190850160005b83811015610bfb57610cd0610bed610ccb8484610c05565b611a49565b602001610cb3565b606080600080610cec8b8b6000888a611a8d565b91509150610cff8b8a8a8a8a8787611d8d565b93509350505097509795505050505050565b60008063ffffffff8335169050600581901b610d366020820160408051918201905290565b8281529250602083810190850160005b83811015610bfb57610d63610bed610d5e8484610c05565b611f3f565b602001610d46565b6000610d75611953565b6000806000808551905060005b81811015610e84576000878281518110610d9e57610d9e6158a3565b60209081029190910101518051909150600481608001516004811115610dc657610dc6615436565b03610dd2575050610e7c565b80519450610ddf81611f83565b60008181526002602052604081209850909650610e0190879089906001611fbe565b50865460ff16610e795780610140015181606001515114610e2457610e2461204f565b610e338587846020015161205d565b865460ff191660011787556040517ff280791efe782edcf06ce15c8f4dff17601db3b88eb3805a0db7d77faf757f0490610e7090889084906159ac565b60405180910390a15b50505b600101610d82565b5060019695505050505050565b60008063ffffffff8335169050600581901b610eb66020820160408051918201905290565b8281529250602083810190850160005b83811015610bfb57610ee3610bed610ede8484610c05565b610f73565b602001610ec6565b60008063ffffffff8335169050600581901b610f106020820160408051918201905290565b8281529250602083810190850160005b83811015610bfb57610f3d610bed610f388484610c05565b6120fc565b602001610f20565b6060600080610f59878760018a5188611a8d565b91509150610f6682612130565b6106cb878684878561216f565b6000610f8761020060408051918201905290565b60a08101808252909150610fa3610f9d846109c4565b82612282565b610faf60016020840152565b610fbb60016040840152565b610fd8610fd1610fcc856020610c05565b6122b8565b6060840152565b610a4a610fe36122e0565b6080840152565b600061100e6004865160800151600481111561100857611008615436565b146122fc565b600080600061101e88600161230c565b604080516001808252818301909252939650919450925060009190816020015b611046615107565b81526020019060019003908161103e579050509050888160008151811061106f5761106f6158a3565b6020026020010181905250611084818961253a565b600081600081518110611099576110996158a3565b602002602001015160000151905060006110b68286868c8c61271c565b604080516001808252818301909252919250600091906020808301908036833701905050905086816000815181106110f0576110f06158a3565b60200260200101818152505061112284600081518110611112576111126158a3565b602002602001015183838a612974565b61114087846000015185602001518c87604001518860600151612a38565b61114a6001600055565b5060019b9a5050505050505050505050565b600061117061020060408051918201905290565b905061118460208381019083016040611965565b60a08101808252611197610f9d846109c4565b6111a8610fd1610fcc856060610c05565b610a4a610fe3610fcc856080610c05565b606060008060006111c8612a9d565b905060007f00000000000000000000000000000000000000000000000000000000000000009050606060005281602052806040526303312e3560635260a06000f35b6000611214611953565b60008083815b818110156113315736878783818110611235576112356158a3565b90506020028101906112479190615a8f565b905060006112586020830183615610565b9050600061126c6040840160208501615610565b9050600061128060a0850160808601615ab0565b9050813314833314171560048214178717965060006112b56112aa6112a28790565b6109d56103b6565b866101400135610a54565b60008181526002602052604090819020805461ffff19166101001781559051909a509091506001600160a01b0380851691908616907f6bacc01dbe442496068f7d234edd811f1a5f833243e0aec824f86ab861f3c90d906113199085815260200190565b60405180910390a3856001019550505050505061121a565b5050801561134157611341612b7c565b506001949350505050565b600061135860006122fc565b611360612b8a565b42610164351115426101443511171561138f576321ccfeb760005261014435602052610164356040526044601cfd5b610204356102643510156113ab5763466aa6166000526004601cfd5b7f0000000000000000000000000000000000000000000000000000000000000000608081905260a08690526060602460c037604060646101203760e060802061016052610264358060051b6102a0016001820181526020810190508781526080602460208301376101608760a0528660c052600060e052600061020435935060005b84811015611481578060400261028401602081610100376040816101203760208101358317925060208401935060e0608020845260a0850194508a855289602086015260408160608701375060010161142d565b6001850160051b610160206060526102643594505b848110156114d1578060400261028401925060a084019350898452886020850152604083606086013760208301359190911790600101611496565b506001600160a01b038111156114ef576339f3e3fd6000526004601cfd5b505050505060007f00000000000000000000000000000000000000000000000000000000000000009050806080528260a052606060c460c03760206101046101203760c0608020600052602060002060e0526102643560051b6102000160018152836020820152606060c4604083013750506084356001600160a01b0381166000908152600160205260408120547f000000000000000000000000000000000000000000000000000000000000000060808190529091506040608460a03760605161010052886101205260a061014461014037816101e05261018060802093505050506102643560051b6101800181815233602082015260806040820152610120606082015260a061026435026101e00160a4356084357f9d9af8e38d66c62e2c12f0225249fd9d721c54b83f48d9352c97c6cacdcb6f318385a36000606052016040526105be816116456102208a018a615ad1565b612bd8565b60c43560843560e4356101043584156116b35760006040519050632671a55160e11b815260206004820152600160248201528660448201528460648201528360848201523360a48201528260c48201528160e48201526116ad8682610104612c5d565b506116fb565b60028660058111156116c7576116c7615436565b036116ee57806001146116dd576116dd81612d1a565b6116e984843385612d2c565b6116fb565b6116fb8484338585612de9565b505050505050565b346064356084356102643560061b600080805b838110156117555761028481013592506102a481013591508683111561173e5761173e612ec9565b828703965061174d8284612ed7565b604001611716565b508585111561176657611766612ec9565b6117708486612ed7565b848611156116fb576116fb33868803612ed7565b61178e8183612f11565b816117b557826001146117a4576117a483612d1a565b6117b087878787612d2c565b6117c6565b6117c6828260028a8a8a8a8a612f30565b50505050505050565b6117d883612fb0565b6117e28183612f11565b816117f4576117b08787878787612de9565b6117c6828260038a8a8a8a8a612f30565b6000806000806000861561182d57505060843592503391505060c4356101043560e435611842565b50339350506084359150506024356064356044355b801561185057611850612fc3565b50600586901b6101e403356102643560061b600080805b838110156118a85761028481013592506102a481013591508a156118925761188f8387615b2d565b95505b6118a0878a8486898f612fd1565b604001611867565b506118b786898988888e612fd1565b50505050505050505050565b60408151146118cf5750565b60006118dc826020015190565b90506118e88183613007565b5050565b6119148261190060a0840160808501615610565b331415600182116004909210919091161690565b1561194e57600080611926858461302b565b909250905061194b61193e60a0850160808601615610565b86848463fb5014fc61310b565b50505b505050565b60016000541461037057610370613160565b80838337505050565b600063ffffffff8235166040519150808252602082018160051b81018060a084026020870183378293505b818410156119b25780845260209093019260a001611999565b60405250919392505050565b9052565b600063ffffffff8235166040519150808252602082018160051b81018060c084026020870183378293505b818410156119b25780845260209093019260c0016119ed565b6000611a1960a060408051918201905290565b9050611a2782826080611965565b611a44611a3d611a38846080610c05565b61316e565b6080830152565b919050565b600063ffffffff8235166040519150808252602082018160051b8101808360061b6020870183378293505b818410156119b257808452602090930192604001611a74565b60606000611a9b60016122fc565b600160e61b60003516611aac615107565b8851600090806001600160401b03811115611ac957611ac961588d565b604051908082528060200260200182016040528015611af2578160200160208202803683370190505b50955060010160051b905060608060205b83811015611d0b57808d0151945089600003611b255760006020860152611d03565b6000806000611b34888f61230c565b92509250925081600003611b515750506000602087015250611d03565b82848c01528c600190039c506000886000015160a0015190506000896000015160c001519050896000015160400151975060008851905060008b60000151608001519050600481108060005250600181118e179d505060005b81811015611c4b5760008a8281518110611bc657611bc66158a3565b602002602001015190506000518151108e179d506000611beb888884608001516131a6565b90508160800151826060015103611c085760608201819052611c1d565b611c17888884606001516131a6565b60608301525b6000611c31836060015183898960006131e5565b606084018190526080909301929092525050600101611baa565b508a5160600151805190985060005b81811015611cfa5760008a8281518110611c7657611c766158a3565b602002602001015190506000611c91898984608001516131a6565b90508160800151826060015103611cae5760608201819052611cc3565b611cbd898984606001516131a6565b60608301525b6000611cd78360600151838a8a60016131e5565b6060840181905260a0840180516080909501949094529092525050600101611c5a565b50505050505050505b602001611b03565b5050506001600160e61b018303611d2457611d2461323a565b611d2e8a8a61253a565b600060205b82811015611d7e578681015191508115611d7657808c01519350600084600001519050611d7483826000015183602001518c85604001518660600151612a38565b505b602001611d33565b50505050509550959350505050565b855185516060918291611da08183615b40565b6001600160401b03811115611db757611db761588d565b604051908082528060200260200182016040528015611df057816020015b611ddd61513b565b815260200190600190039081611dd55790505b5092506000805b83811015611e79576000611e288e60008f8581518110611e1957611e196158a3565b60200260200101518e8e613248565b805180516020830151608090920151929350151591141615611e4f57826001019250611e70565b808684840381518110611e6457611e646158a3565b60200260200101819052505b50600101611df7565b5060005b82811015611f02576000611eaf8e60018e8581518110611e9f57611e9f6158a3565b60200260200101518e6000613248565b805180516020830151608090920151929350151591141615611ed657826001019250611ef9565b8086848785010381518110611eed57611eed6158a3565b60200260200101819052505b50600101611e7d565b508015611f10578084510384525b508251600003611f2257611f226132de565b611f2f8b84888a896132ec565b9350505097509795505050505050565b6000611f516040808051918201905290565b9050611f6b611f67611f62846109c4565b6137be565b8252565b611a44611f7c610fcc846020610c05565b6020830152565b6000611f998260600151518361014001516137de565b81516001600160a01b031660009081526001602052604090205461037d908390610a54565b8254600090610100900460ff1615611fe7578115611fdf57611fdf856137ee565b506000610503565b83546201000090046001600160781b031680156120435783156120125761200d86613800565b612043565b8454600160881b90046001600160781b031681106120435782156120395761203986613812565b6000915050610503565b50600195945050505050565b632165628a6000526004601cfd5b338314801561206c5750505050565b6000612076612a9d565b61190160f01b60009081526002828152602287815260428320908390528651939450929190601f601d840116106102e260621984011016156120e2576120bc8688613824565b61190160f01b6000908152600286905260228281526042822091905290975090506120e5565b50815b6120f2888285858a6138c0565b5050505050505050565b600061210e6040808051918201905290565b905061211f611f67610ccb846109c4565b611a44611f7c610ccb846020610c05565b80518060051b6040019050602082038051602082527f4b9f2d36e1b4c93de62cc077b00b1a91d84b6c31b4a14e012718dcca230689e78383a190525050565b8351606090806001600160401b0381111561218c5761218c61588d565b6040519080825280602002602001820160405280156121c557816020015b6121b261513b565b8152602001906001900390816121aa5790505b5091506000805b8281101561225a5760008882815181106121e8576121e86158a3565b6020026020010151905060006122088b8360000151846020015186613a18565b80518051602083015160809092015192935015159114161561222f57836001019350612250565b808685850381518110612244576122446158a3565b60200260200101819052505b50506001016121cc565b508015612268578083510383525b5061227687838787876132ec565b50505b95945050505050565b61228f8282610160611965565b6122a0610a0e610a09846040610c05565b6118e86122b1610a25846060610c05565b6060830152565b6040518135601f0163ffffffe01660200180838337913563ffffffff16815290810160405290565b60006122f3602060408051918201905290565b60008152905090565b612304611953565b600201600055565b6000806000808560000151905061232c8160a001518260c0015187613c29565b612340575060009250829150819050612533565b602086015160408701516001600160781b039182169450169150600060048260800151600481111561237457612374615436565b036123ab576001838502189050801561238f5761238f613c4c565b61239e82886080015188613c5a565b9450945094505050612533565b5081831183151780156123c0576123c0613c4c565b60808201516001161584841116156123da576123da613e77565b6123e382611f83565b600081815260026020526040812091965061240290879083908a611fbe565b612416575060009350839250612533915050565b805460ff16612432576124328360000151878a6060015161205d565b8080548060881c806124465787915061251e565b6001600160781b038260101c1691506001870361246b5790810396509450848061251e565b8087036124895790870186810387821102978890039790039061251e565b80870297810291909602810187810388821102918290039796919003906001600160781b03808311908811171561251e576124d3565b60005b8215610a4a579082900691906124c2565b6124e66124e088846124bf565b896124bf565b80150197889004979687900496909104906001600160781b03808311908811171561251e57634e487b7160005260116020526024601cfd5b508560881b8160101b17600117825550505050505b9250925092565b8051825160005b8281101561263257600084828151811061255d5761255d6158a3565b60200260200101519050600081600001519050838110612584576125848260200151613e85565b6000878281518110612598576125986158a3565b6020026020010151905080602001516001600160781b03166000036125bf5750505061262a565b80516040808201519085015163bfb3f8ce6000876020015160018111156125e8576125e8615436565b146126055760006125fa856060613e97565b9350636088d7de9150505b8251821061261757806000526004601cfd5b612622838389613ea3565b505050505050505b600101612541565b5060005b8181101561194b576000858281518110612652576126526158a3565b6020026020010151905080602001516001600160781b03166000036126775750612714565b805160608101515160005b818110156126cc576126b5836060015182815181106126a3576126a36158a3565b60200260200101516000015160031090565b156126c4576126c48582613f59565b600101612682565b505060408101515160005b8181101561270f576126f8836040015182815181106126a3576126a36158a3565b15612707576127078582613f6f565b6001016126d7565b505050505b600101612636565b60608560600151518660400151516127349190615b40565b6001600160401b0381111561274b5761274b61588d565b6040519080825280602002602001820160405280156127a457816020015b6040805160a0810182526000808252602080830182905292820181905260608201819052608082015282526000199092019101816127695790505b5060a087015160c0880151604080516020808252818301909252939450919290916000919060208201818036833750505060408a0151519091506000805b828110156128635760008c604001518281518110612802576128026158a3565b60200260200101519050600081600001519050801584179350506000612836826060015183608001518f8f8c8c6000613f85565b606083015250608081018990528c516101208e015161285a91839188613fc16103b6565b506001016127e2565b5060808b0151600481108216801561287d5761287d61323a565b50505060608a01515160009150815b818110156129295760008c6060015182815181106128ac576128ac6158a3565b6020026020010151905060006128d0826060015183608001518f8f8c8c6001613f85565b6060830181905260a0830151608084015290506000825160058111156128f8576128f8615436565b03612910574794508481111561291057612910612ec9565b61291f82338d89613fc16103b6565b505060010161288c565b5050612934826118c3565b50478015612946576129463382612ed7565b612967858b604081015151829060208201906000906140b19060051b830190565b5050505095945050505050565b8351608081015160208201516000928392839283929160048110600190911116339091141516156129c8576129b08689838c608001518b61417f565b60208301519194509250945063fb5014fc9350612a1f565b6004816080015160048111156129e0576129e0615436565b03612a15578051945060008560601b9050612a0287838c608001518b856142d2565b639397928596509094509250612a1f9050565b5050505050612a32565b612a2c858785858861310b565b50505050505b50505050565b60608290506060829050856001600160a01b0316876001600160a01b03167f9d9af8e38d66c62e2c12f0225249fd9d721c54b83f48d9352c97c6cacdcb6f318a888686604051612a8b9493929190615b8e565b60405180910390a35050505050505050565b60007f00000000000000000000000000000000000000000000000000000000000000004614612b57575060408051608080517f000000000000000000000000000000000000000000000000000000000000000060009081527f00000000000000000000000000000000000000000000000000000000000000006020527f0000000000000000000000000000000000000000000000000000000000000000855246606090815230845260a08220949095529093529190915290565b507f000000000000000000000000000000000000000000000000000000000000000090565b63fed398fc6000526004601cfd5b600435602014610224356102401416610244356102606102643560061b01141660186101243510600160a01b60843560a4351760c435602435171710161680612bd557612bd56143a4565b50565b600083815260026020526040902060843590612bf78582600180611fbe565b50805460ff16612c4257612c42828686868080601f01602080910402602001604051908101604052809392919081815260200183838082843760009201919091525061205d92505050565b71010000000000000000000000000000010001905550505050565b604080517f000000000000000000000000000000000000000000000000000000000000000060ff60a01b17600090815260208690527f000000000000000000000000000000000000000000000000000000000000000083526055600b20919092526001600160a01b03169050600080600080526020600085876000875af19150600051905081612cf857612cef6143b2565b612cf8836143f9565b6001600160e01b03198116632671a55160e11b146116fb576116fb868461440b565b6369f95827600052806020526024601cfd5b833b612d4457635f15d672600052836020526024601cfd5b6040516323b872dd60e01b6000528360045282602452816044526000806064600080895af180612dda573d15612db757601f3d0160051c8260051c8160030281831115612d9e578183036003028280028480020360091c01015b5a602082011015612db3573d6000803e3d6000fd5b5050505b63f486bc8760005285602052846040528360605282608052600160a05260a4601cfd5b50604052505060006060525050565b843b612e0157635f15d672600052846020526024601cfd5b60405160805160a05160c051637921219560e11b6000528760045286602452856044528460645260a0608452600060a45260008060c46000808d5af180612ead573d15612e8b57601f3d0160051c8560051c8160030281831115612e72578183036003028280028480020360091c01015b5a602082011015612e87573d6000803e3d6000fd5b5050505b63f486bc87600052896020528860405287606052866080528560a05260a4601cfd5b5060809290925260a05260c05260405250506000606052505050565b638ffff9806000526004601cfd5b612ee081612fb0565b600080600080600085875af190508061194e57612efb6143b2565b63bc806b9660005282602052816040526044601cfd5b6000612f1e836020015190565b905081811461194e5761194e836118c3565b60006020885103612f6b5750604080885260208089018a9052632671a55160e11b918901919091526044880152600160648801819052612f7a565b50606487018051600101908190525b603c60c082028901038781528660208201528560408201528460608201528360808201528260a082015250505050505050505050565b80612bd5576391b3e5146000526004601cfd5b636ab37ce76000526004601cfd5b612fda83612fb0565b612fe48183612f11565b81612ff5576116e986868686614421565b6116fb8282600189898960008a612f30565b6064810151604082019060c002604401613022848383612c5d565b50506020905250565b600080613036614520565b6317b1f942815260208082015260408101858152336060830152601c909101925061306a610a0e6080860160608701615610565b61307b61014460e083016060611965565b610140613089816060840152565b61309760a082016080840152565b61026435602081026102000160a08202610160016130b8828587018361452b565b9290920191506130cb90508160a0840152565b6130d6600082840152565b6020016130e48160c0840152565b6130ef600182840152565b6130fc8682840160200152565b80606401925050509250929050565b6000806001600160e01b03198551166000805260206000868860008c5af16000519093501490508161314d5761313f6143b2565b82600052856020526024601cfd5b806117c65782600052856020526024601cfd5b637fa8a9876000526004601cfd5b60008063ffffffff83351690506001810160051b6131928160408051918201905290565b925061319f848483611965565b5050919050565b60008284036131b65750806103cd565b82848309156131cd5763c63cf0896000526004601cfd5b60006131d98584615c2c565b93909304949350505050565b600084861461323057838303428590038082036000613204838a615c2c565b61320e838c615c2c565b6132189190615b40565b90508584878303040181151502945050505050612279565b5092949350505050565b6312d3f5a36000526004601cfd5b61325061513b565b83516000036132625761326285614542565b8051600086600181111561327857613278615436565b0361329c576001600160a01b0383166080820152613297878684614554565b6132b5565b6132a78786846146bf565b336020830152604082018490525b80606001516000036132d4576000602083018190526080820152600181525b5095945050505050565b63d5da9a1b6000526004601cfd5b84516060906000816001600160401b0381111561330b5761330b61588d565b604051908082528060200260200182016040528015613334578160200160208202803683370190505b5090506000613342896147e0565b905060008189516133539190615b40565b6001600160401b0381111561336a5761336a61588d565b6040519080825280602002602001820160405280156133c357816020015b6040805160a0810182526000808252602080830182905292820181905260608201819052608082015282526000199092019101816133885790505b5060408051602080825281830190925291925060009190602082018180368337019050508a51909150600090815b8181101561348a5760008d828151811061340d5761340d6158a3565b6020908102919091010151805190915060008151600581111561343257613432615436565b0361344e57479450848160600151111561344e5761344e612ec9565b80878481518110613461576134616158a3565b6020026020010181905250613480818360200151846040015189613fc1565b50506001016133f1565b50508a5189915060005b8781101561370f5760008e82815181106134b0576134b06158a3565b6020026020010151905080602001516001600160781b03166000036134f95760008883815181106134e3576134e36158a3565b9115156020928302919091019091015250613707565b600188838151811061350d5761350d6158a3565b9115156020928302919091019091015280516040810151805160005b8181101561369e576000838281518110613545576135456158a3565b60200260200101519050806060015160001461368b5780600001518b8981518110613572576135726158a3565b602002602001015160000190600581111561358f5761358f615436565b908160058111156135a2576135a2615436565b8152505080602001518b89815181106135bd576135bd6158a3565b6020026020010151602001906001600160a01b031690816001600160a01b03168152505080604001518b89815181106135f8576135f86158a3565b6020026020010151604001818152505080606001518b898151811061361f5761361f6158a3565b60200260200101516060018181525050888b8981518110613642576136426158a3565b60209081029190910101516001600160a01b039190911660809182015281018051908a9052855161012087015160019a909a01996136859184918e613fc16103b6565b60808201525b6080810151606090910152600101613529565b5050506060810151805160005b818110156137015760008382815181106136c7576136c76158a3565b60200260200101519050600081606001519050806000146136ed576136ed888483614879565b5060a08101516060909101526001016136ab565b50505050505b600101613494565b505061371a826118c3565b47801561372b5761372b3382612ed7565b88156137a35760005b878110156137a15786818151811061374e5761374e6158a3565b602002602001015115613799576137998e8281518110613770576137706158a3565b6020026020010151868e8f858151811061378c5761378c6158a3565b6020026020010151612974565b600101613734565b505b6137ad6001600055565b50939b9a5050505050505050505050565b60006137d261016060408051918201905290565b9050611a448282612282565b808210156118e8576118e8614893565b631a515574600052806020526024601cfd5b63ee9e0e63600052806020526024601cfd5b6310fda3e1600052806020526024601cfd5b600080600084516001811660410380820360051c9250808752806020018701915050805160e81c6003820191506001811660051b868152825160208218525060015b8381101561389357604060002082821c60051b602090811691825293840180519190941852600101613866565b5050506040600020915060006138a8826148a1565b60009081526020939093525050604090209392505050565b600080600052815160208303805182604103600060018211613929576040870151606088015160001a831561390857601b8260ff1c0190506001600160ff1b03821660408a01525b88528a85526020600060808760015afa508385528588526040880152506000515b8a148a15151694508490506139fa57858552604082526044850380516040870351630b135d3f60e11b83528960408903526020600060648b01858f5afa965086156139ee57630b135d3f60e11b600051146139ee578b3b1561399357634f7fb80d6000526004601cfd5b60018660410311156139ad57638baa579f6000526004601cfd5b640101000000606089015160001a1a156041871416156139e057631f003d0a600052606088015160001a6020526024601cfd5b63815e1d646000526004601cfd5b8385529152603f198601525b505050806116fb57613a0a6143b2565b634f7fb80d6000526004601cfd5b613a2061513b565b83511580613a2d57508251155b15613a3a57613a3a614cb2565b613a4261513b565b613a4d8685836146bf565b80516060810151600003613a7857506000602082018190528151608001528051600190529050610503565b613a83878785614554565b80604001518360000151604001511881602001518460000151602001511882600001516005811115613ab757613ab7615436565b8551516005811115613acb57613acb615436565b1860ff16176001600160a01b031617600014613aea57613aea84614cc0565b82600001516060015181606001511115613b7d57600085600081518110613b1357613b136158a3565b6020026020010151905083600001516060015182606001510388826000015181518110613b4257613b426158a3565b60200260200101516000015160600151826020015181518110613b6757613b676158a3565b6020026020010151606001818152505050613c0a565b600086600081518110613b9257613b926158a3565b6020026020010151905081606001518460000151606001510388826000015181518110613bc157613bc16158a3565b60200260200101516000015160400151826020015181518110613be657613be66158a3565b60200260200101516060018181525050816060015184600001516060018181525050505b60809081015183516001600160a01b0390911691015250949350505050565b428084111590831116818015613c3d575080155b156103cd576103cd8484614cd2565b635a052b326000526004601cfd5b600080600085610140015186606001515114613c7857613c7861204f565b855160008080613c888a8a614ce8565b9150915060008082846000885af16001600160a01b0385166000908152600360205260409020805460018101909155606086901b189750925082613cdf57613cd08888614d98565b96509650965050505050613e6e565b505050506000806000613cf46103b6614dba90565b92509250925082600014613d0b57613d0b86614efe565b604089015151825180821115613d2457613d2488614efe565b60005b82811015613da5576000613d558d604001518381518110613d4a57613d4a6158a3565b602002602001015190565b90506000613d6e878481518110613d4a57613d4a6158a3565b9050613d7a8282614f10565b613d95613d88606084015190565b60608501511190565b1190565b1797909717965050600101613d27565b50505060408901829052606089015181518151811115613dc857613dc888614efe565b60005b81811015613e4a576000613dea848381518110613d4a57613d4a6158a3565b90506000613e03868481518110613d4a57613d4a6158a3565b9050613e21613e1360a084015190565b60a083015181159114171590565b613e2b8383614f10565b613e39613d88606086015190565b171797909717965050600101613dcb565b505050606089018190528215613e6357613e6386614efe565b506001935083925050505b93509350939050565b63a11b63ff6000526004601cfd5b63133c37c6600052806020526024601cfd5b60006103cd8284015190565b6000838381518110613eb757613eb76158a3565b60200260200101519050600081600001519050613ed48160031090565b613ee057613ee0614f6d565b60408201518015613f0357613efe8460600151828660800151614f7b565b613f16565b60808401515115613f1657613f16614fc9565b6004821460030383816005811115613f3057613f30615436565b90816005811115613f4357613f43615436565b9052505050606090920151604090910152505050565b63a8930e9a60005281602052806040526044601cfd5b63d692933260005281602052806040526044601cfd5b6000868803613fa057613f998686896131a6565b90506106cb565b6106c8613fae87878b6131a6565b613fb988888b6131a6565b8686866131e5565b600084516005811115613fd657613fd6615436565b0361401357604084015160208501516001600160a01b03161715613ffc57613ffc612fc3565b61400e84608001518560600151612ed7565b612a32565b60018451600581111561402857614028615436565b036140595760408401511561403f5761403f612fc3565b61400e846020015184866080015187606001518686612fd1565b60028451600581111561406e5761406e615436565b036140925761400e8460200151848660800151876040015188606001518787611784565b612a3284602001518486608001518760400151886060015187876117cf565b905060006140d16005866060015151901b83610a5090919063ffffffff16565b9050600085905060006140ee6140e8604084015190565b60200190565b905060006141006140e8606085015190565b90505b61410d8686613d91565b1561414757600061411d87614fd7565b90506141358160a061412e86614fd7565b919061452b565b60208701965060208301925050614103565b6141518685613d91565b15612a2c57600061416187614fd7565b90506141728160a061412e85614fd7565b5060209586019501614147565b60008061418a614520565b6264e1d4815260208082015260408101888152336060830152601c909101925085516040820152856141c86141c060a083015190565b610100840152565b6141de6141d660c083015190565b610120840152565b6141ec610a4260e083015190565b6142026141fa608083015190565b610160840152565b610180614210816060850152565b600061421d604084015190565b9050600061422d82848701614fe1565b9290920191506142409050816080850152565b600061424d606084015190565b9050600061425d82848701615048565b92909201915061427090508160a0850152565b600061427e8a838601615048565b91909101905061428f8160c0850152565b600061429d888386016150b6565b9190910190506142ae8160e0850152565b60006142bc878386016150d6565b959b919095016024019950975050505050505050565b6000806142dd614520565b63f4dd92ce815287841860a0820152601c8101925060200160a0808252876000614308604083015190565b9050600061431882858701614fe1565b938401939050614329846020870152565b6000614336606085015190565b9050600061434682878901615048565b958601959050614357866040890152565b60006143658d888a016150b6565b9687019690506143768760608a0152565b60006143848d898b016150d6565b905080880197508760040199505050505050505050509550959350505050565b6339f3e3fd6000526004601cfd5b3d1561037057601f3d0160051c60405160051c81600302818311156143e4578183036003028280028480020360091c01015b5a60208201101561194e573d6000803e3d6000fd5b63d13d53d4600052806020526024601cfd5b631cf99b2660005281602052806040526044601cfd5b6040516323b872dd60e01b600052836004528260245281604452602060006064600080895af1803d15601f3d116001600051141617163d151581166145105780873b15151661451057806144fe57816144e0573d156144bd57601f3d0160051c8360051c81600302818311156144a4578183036003028280028480020360091c01015b5a6020820110156144b9573d6000803e3d6000fd5b5050505b63f486bc8760005286602052856040528460605260006080528360a05260a4601cfd5b6398891923600052866020528560405284606052836080526084601cfd5b635f15d672600052866020526024601cfd5b5050604052505060006060525050565b600061038d60405190565b8082828560045afa80153d151715612a3257600080fd5b63375c24c1600052806020526024601cfd5b600080600084855160051b86015b8082101561467057602082019150815151885181106145835761458361469e565b8060051b60208a0101519050805160208451015160006040830151602085015115815184101517156145b9575050505050614562565b8260051b60208201015191505060608101935083518901915083511589831060011b178817975081985060008452895193508615600181146146235760608220881860408c01516101208601511860208d015186511817171561461e5761461e61469e565b614666565b815185526020820151602086015260408201516040860152835160208c015261012084015160408c015260608520975060208c0192508683181561466657865183525b5050505050614562565b50505081606084510152801561194b5760018103614696576391b3e5146000526004601cfd5b61194b6146ac565b637fda72796000526004601cfd5b634e487b7160005260116020526024601cfd5b600080600084855160051b86015b808210156147b957602082019150815151885181106146ee576146ee61469e565b8060051b60208a010151905060208351015160006060835101516020840151158151841015171561472257505050506146cd565b8260051b60208201015191505060608101925082518801915082511588831060011b178717965081975060008352885192508515600181146147755760a0822087146147705761477061469e565b6147b0565b8151845260208201516020850152604082015160408501526080820151608085015260a08220965060208b019250858318156147b057855183525b505050506146cd565b5050835160600183905250801561194b5760018103614696576391b3e5146000526004601cfd5b6000805b8251811015610a4a576000838281518110614801576148016158a3565b60200260200101519050600081600001516040015151905060005b8181101561486b5760008360000151604001518281518110614840576148406158a3565b6020026020010151905080606001516000146148625761485f86615c43565b95505b5060010161481c565b5050508060010190506147e4565b63a5f542086000528260205281604052806060526064601cfd5b63466aa6166000526004601cfd5b6000614ca9565b60006009821015614a0257600582101561495f576003821015614912577f832c58a5b611aadcfa6a082ac9d04bace53d8278387f10040347b7e98eb5b30260018314027fbf8e29b89f29ed9b529c154a63038ffca562f8d7cd1e2545dda53a1b582dde301861037d565b7ff3e8417a785f980bdaf134fa0274a6bf891eeb8195cd94b09d2aa651046e28bc60038314027fa02eb7ff164c884e5e2c336dc85f81c6a93329d8e9adf214b32729b894de2af11861037d565b60078210156149b5577f25d02425402d882d211a7ab774c0ed6eca048c4d03d9af40132475744753b2a360058314027f1c19f71958cdd8f081b4c31f7caf5c010b29d12950be2fa1c95070dc47e30b551861037d565b7fb58d772fb09b426b9dece637f61ca9065f2b994f1464b51e9207f55f7c8f594860078314027f7ff98d9d4e55d876c5cfac10b43c04039522f3ddfb0ea9bfe70c68cfb5c7cc141861037d565b6011821015614b5a57600d821015614ab757600b821015614a6a577f6f0ec38c21f6f583ab7f3c5413c773ffd5344c34fde1d390958e438bf667448f60098314027fd1d97d1ef5eaa37a4ee5fbf234e6f6d64eb511eb562221cd7edfbdde0848da051861037d565b7f32f4e7485d6485f9f6c255929b9905c62ba919758bbe231f231eaeecf33d810c600b8314027fbb98d87cc12922b83759626c5f07d72266da9702d19ffad6a514c73a89002f5f1861037d565b600f821015614b0d577f8df51df98847160517f5b1186b4bc3f418d98b8a7f17f1292f392d79d600d79e600d8314027f6b5b04cbae4fcb1a9d78e7b2dfc51a36933d023cf6e347e03d517b472a8525901861037d565b7fcc4886e37eedd9aacd6c1c2c9247197a621a71282e87a7cbc673f3736d9aa141600f8314027f1da3eed3ecef6ebaa6e5023c057ec2c75150693fd0dac5c90f4a142f9879fde81861037d565b6015821015614c06576013821015614bb9577f2d7a3ed6dab270fdb8e054b2ad525f0ce2a8b89cc76c17f0965434740f673a5560118314027fc3939feff011e53ab8c35ca3370aad54c5df1fc2938cd62543174fa6e7d858771861037d565b7f54b3212a178782f104e0d514b41a9a5c4ca9c980bf6597c3cecbf280917e202a60138314027f5a4f867d3d458dabecad65f6201ceeaba0096df2d0c491cc32e6ea4e643500171861037d565b6017821015614c5c577fbb40bf8cea3a5a716e2b6eb08bbdac8ec159f82f380783db3c56904f15a43d0460158314027f3bd8cff538aba49a9c374c806d277181e9651624b3e31111bc0624574f8bca1d1861037d565b7f403be09941a31d05cfc2f896505811353d45d38743288b016630cce39435476a60178314027f1d51df90cba8de7637ca3e8fe1e3511d1dc2f23487d05dbdecb781860c21ac1c1861037d565b61037d826148a8565b6398e9db6e6000526004601cfd5b63bced929d600052806020526024601cfd5b6321ccfeb760005281602052806040526044601cfd5b60008083614cf4614520565b639891976581523360208201908152608060408301819052601c9092019450906000614d21604085015190565b90506000614d3182848601614fe1565b928301929050614d42836040860152565b6000614d4f606087015190565b90506000614d5f82868801614fe1565b948501949050614d70856060880152565b896000614d7f828989016150b6565b9a9d96909a016004019b50949950505050505050505050565b60008060008415614dac57614dac84614efe565b509193600093508392509050565b60803d106000808080808086614e1c5760406000803e6000516020513d81113d8311179850909450925086614e1c5760208460003e600051915060208360203e506020516000805261ffff828217113d608060a08402600786901b0101111796505b86614e4057614e2e8260208601614e49565b9550614e3d8160208501614ea8565b94505b50505050909192565b6000604051905060c08302602001810160405282815260208360010160051b8083015b81831015614e9f578083850152608085823e6060810151608082015260808501945060a081019050602083019250614e6c565b50505092915050565b6000604051905060e08302602001810160405282815260208360010160051b8083015b81831015614e9f578083850152608085823e604060608601608083013e60a094909401936020929092019160c001614ecb565b6393979285600052806020526024601cfd5b6000825160408401518015600383111615614f3657600482146003039150604084015190505b6060850151606085015150608086015181146040860151831416855184146020870151602089015114161615935050505092915050565b6394eb6af66000526004601cfd5b600083600052602060002060208301835160051b81015b80821015614fba57815180841160051b93845260209384185260406000209290910190614f92565b50508314905080612a3257612a325b6309bde3396000526004601cfd5b600061037d825190565b6000825180835260208401602084018260051b82015b808310156150355782518051835260208101516020840152604081015160408401526060810151606084015250602083019250608082019150614ff7565b5050508060071b60200191505092915050565b600080615053845190565b8084529050602084810190600583901b860181019085015b6150758383613d91565b156150a357600061508584614fd7565b9050615093818360a061452b565b506020929092019160a00161506b565b60a0840260200194505050505092915050565b600063ffffffe0603f6150c7855190565b0116905061037d83838361452b565b6000806150e1845190565b8084529050600581901b6150fc60208501826020880161412e565b602001949350505050565b6040518060a0016040528061511a61517e565b81526000602082018190526040820152606080820181905260809091015290565b60408051610100810182526000606082018181526080830182905260a0830182905260c0830182905260e083018290528252602082018190529181019190915290565b60405180610160016040528060006001600160a01b0316815260200160006001600160a01b031681526020016060815260200160608152602001600060048111156151cb576151cb615436565b815260006020820181905260408201819052606082018190526080820181905260a0820181905260c09091015290565b60006020828403121561520d57600080fd5b81356001600160401b0381111561522357600080fd5b820161024081850312156103cd57600080fd5b6000815180845260005b8181101561525c57602081850181015186830182015201615240565b506000602082860101526020601f19601f83011685010191505092915050565b6020815260006103cd6020830184615236565b6000602082840312156152a157600080fd5b5035919050565b6000602082840312156152ba57600080fd5b81356001600160401b038111156152d057600080fd5b820161016081850312156103cd57600080fd5b60008083601f8401126152f557600080fd5b5081356001600160401b0381111561530c57600080fd5b6020830191508360208260051b850101111561532757600080fd5b9250929050565b6001600160a01b0381168114612bd557600080fd5b8035611a448161532e565b600080600080600080600080600080600060e08c8e03121561536f57600080fd5b6001600160401b03808d35111561538557600080fd5b6153928e8e358f016152e3565b909c509a5060208d01358110156153a857600080fd5b6153b88e60208f01358f016152e3565b909a50985060408d01358110156153ce57600080fd5b6153de8e60408f01358f016152e3565b909850965060608d01358110156153f457600080fd5b506154058d60608e01358e016152e3565b909550935060808c0135925061541d60a08d01615343565b915060c08c013590509295989b509295989b9093969950565b634e487b7160e01b600052602160045260246000fd5b600681106119be576119be615436565b61546782825161544c565b6020818101516001600160a01b0390811691840191909152604080830151908401526060808301519084015260809182015116910152565b60008151808452602080850194506020840160005b838110156154f65781516154c988825161545c565b808401516001600160a01b031660a08901526040015160c088015260e090960195908201906001016154b4565b509495945050505050565b604080825283519082018190526000906020906060840190828701845b8281101561553c57815115158452928401929084019060010161551e565b50505083810360208501526105be818661549f565b6000806020838503121561556457600080fd5b82356001600160401b0381111561557a57600080fd5b615586858286016152e3565b90969095509350505050565b600080600080604085870312156155a857600080fd5b84356001600160401b03808211156155bf57600080fd5b6155cb888389016152e3565b909650945060208701359150808211156155e457600080fd5b506155f1878288016152e3565b95989497509550505050565b6020815260006103cd602083018461549f565b60006020828403121561562257600080fd5b81356103cd8161532e565b6000806040838503121561564057600080fd5b82356001600160401b0381111561565657600080fd5b83016040818603121561566857600080fd5b946020939093013593505050565b60008060008060006080868803121561568e57600080fd5b85356001600160401b03808211156156a557600080fd5b9087019060a0828a0312156156b957600080fd5b909550602087013590808211156156cf57600080fd5b506156dc888289016152e3565b9095509350506040860135915060608601356156f78161532e565b809150509295509295909350565b60008060008060008060008060a0898b03121561572157600080fd5b88356001600160401b038082111561573857600080fd5b6157448c838d016152e3565b909a50985060208b013591508082111561575d57600080fd5b6157698c838d016152e3565b909850965060408b013591508082111561578257600080fd5b5061578f8b828c016152e3565b999c989b509699959896976060870135966080013595509350505050565b60008060008060008060006080888a0312156157c857600080fd5b87356001600160401b03808211156157df57600080fd5b6157eb8b838c016152e3565b909950975060208a013591508082111561580457600080fd5b6158108b838c016152e3565b909750955060408a013591508082111561582957600080fd5b506158368a828b016152e3565b909450925050606088013561584a8161532e565b8091505092959891949750929550565b60608152600061586d6060830186615236565b6020830194909452506001600160a01b0391909116604090910152919050565b634e487b7160e01b600052604160045260246000fd5b634e487b7160e01b600052603260045260246000fd5b60008151808452602080850194506020840160005b838110156154f65781516158e388825161544c565b838101516001600160a01b03168885015260408082015190890152606080820151908901526080908101519088015260a090960195908201906001016158ce565b60008151808452602080850194506020840160005b838110156154f657815161594e88825161544c565b808401516001600160a01b0390811689860152604080830151908a0152606080830151908a0152608080830151908a015260a091820151169088015260c09096019590820190600101615939565b600581106119be576119be615436565b828152604060208201526159cc6040820183516001600160a01b03169052565b600060208301516159e860608401826001600160a01b03169052565b506040830151610160806080850152615a056101a08501836158b9565b91506060850151603f198584030160a0860152615a228382615924565b9250506080850151615a3760c086018261599c565b5060a085015160e085015260c0850151610100818187015260e0870151915061012082818801528188015192506101409150828288015280880151848801525080870151610180870152505050809150509392505050565b6000823561015e19833603018112615aa657600080fd5b9190910192915050565b600060208284031215615ac257600080fd5b8135600581106103cd57600080fd5b6000808335601e19843603018112615ae857600080fd5b8301803591506001600160401b03821115615b0257600080fd5b60200191503681900382131561532757600080fd5b634e487b7160e01b600052601160045260246000fd5b8181038181111561037d5761037d615b17565b8082018082111561037d5761037d615b17565b60008151808452602080850194506020840160005b838110156154f657615b7b87835161545c565b60a0969096019590820190600101615b68565b60006080808301878452602060018060a01b03808916602087015260406080604088015283895180865260a08901915060208b01955060005b81811015615c08578651615bdc84825161544c565b808701518616848801528481015185850152606090810151908401529585019591870191600101615bc7565b50508781036060890152615c1c818a615b53565b9c9b505050505050505050505050565b808202811582820484141761037d5761037d615b17565b600060018201615c5557615c55615b17565b506001019056fea264697066735822122086d68c152b6f5f4805b604801d8b985e4a588830c7f8da0feda3447f3f585ba964736f6c63430008160033436f6e73696465726174696f6e4974656d2875696e7438206974656d547970652c6164647265737320746f6b656e2c75696e74323536206964656e7469666965724f7243726974657269612c75696e74323536207374617274416d6f756e742c75696e7432353620656e64416d6f756e742c6164647265737320726563697069656e7429454950373132446f6d61696e28737472696e67206e616d652c737472696e672076657273696f6e2c75696e7432353620636861696e49642c6164647265737320766572696679696e67436f6e7472616374294f72646572436f6d706f6e656e74732861646472657373206f6666657265722c61646472657373207a6f6e652c4f666665724974656d5b5d206f666665722c436f6e73696465726174696f6e4974656d5b5d20636f6e73696465726174696f6e2c75696e7438206f72646572547970652c75696e7432353620737461727454696d652c75696e7432353620656e6454696d652c62797465733332207a6f6e65486173682c75696e743235362073616c742c6279746573333220636f6e647569744b65792c75696e7432353620636f756e746572294f666665724974656d2875696e7438206974656d547970652c6164647265737320746f6b656e2c75696e74323536206964656e7469666965724f7243726974657269612c75696e74323536207374617274416d6f756e742c75696e7432353620656e64416d6f756e7429","linkReferences":{}},"methodIdentifiers":{"cancel((address,address,(uint8,address,uint256,uint256,uint256)[],(uint8,address,uint256,uint256,uint256,address)[],uint8,uint256,uint256,bytes32,uint256,bytes32,uint256)[])":"fd9f1e10","fulfillAdvancedOrder(((address,address,(uint8,address,uint256,uint256,uint256)[],(uint8,address,uint256,uint256,uint256,address)[],uint8,uint256,uint256,bytes32,uint256,bytes32,uint256),uint120,uint120,bytes,bytes),(uint256,uint8,uint256,uint256,bytes32[])[],bytes32,address)":"e7acab24","fulfillAvailableAdvancedOrders(((address,address,(uint8,address,uint256,uint256,uint256)[],(uint8,address,uint256,uint256,uint256,address)[],uint8,uint256,uint256,bytes32,uint256,bytes32,uint256),uint120,uint120,bytes,bytes)[],(uint256,uint8,uint256,uint256,bytes32[])[],(uint256,uint256)[][],(uint256,uint256)[][],bytes32,address,uint256)":"87201b41","fulfillAvailableOrders(((address,address,(uint8,address,uint256,uint256,uint256)[],(uint8,address,uint256,uint256,uint256,address)[],uint8,uint256,uint256,bytes32,uint256,bytes32,uint256),bytes)[],(uint256,uint256)[][],(uint256,uint256)[][],bytes32,uint256)":"ed98a574","fulfillBasicOrder((address,uint256,uint256,address,address,address,uint256,uint256,uint8,uint256,uint256,bytes32,uint256,bytes32,bytes32,uint256,(uint256,address)[],bytes))":"fb0f3ee1","fulfillBasicOrder_efficient_6GL6yc((address,uint256,uint256,address,address,address,uint256,uint256,uint8,uint256,uint256,bytes32,uint256,bytes32,bytes32,uint256,(uint256,address)[],bytes))":"00000000","fulfillOrder(((address,address,(uint8,address,uint256,uint256,uint256)[],(uint8,address,uint256,uint256,uint256,address)[],uint8,uint256,uint256,bytes32,uint256,bytes32,uint256),bytes),bytes32)":"b3a34c4c","getContractOffererNonce(address)":"a900866b","getCounter(address)":"f07ec373","getOrderHash((address,address,(uint8,address,uint256,uint256,uint256)[],(uint8,address,uint256,uint256,uint256,address)[],uint8,uint256,uint256,bytes32,uint256,bytes32,uint256))":"79df72bd","getOrderStatus(bytes32)":"46423aa7","incrementCounter()":"5b34b966","information()":"f47b7740","matchAdvancedOrders(((address,address,(uint8,address,uint256,uint256,uint256)[],(uint8,address,uint256,uint256,uint256,address)[],uint8,uint256,uint256,bytes32,uint256,bytes32,uint256),uint120,uint120,bytes,bytes)[],(uint256,uint8,uint256,uint256,bytes32[])[],((uint256,uint256)[],(uint256,uint256)[])[],address)":"f2d12b12","matchOrders(((address,address,(uint8,address,uint256,uint256,uint256)[],(uint8,address,uint256,uint256,uint256,address)[],uint8,uint256,uint256,bytes32,uint256,bytes32,uint256),bytes)[],((uint256,uint256)[],(uint256,uint256)[])[])":"a8174404","name()":"06fdde03","validate(((address,address,(uint8,address,uint256,uint256,uint256)[],(uint8,address,uint256,uint256,uint256,address)[],uint8,uint256,uint256,bytes32,uint256,bytes32,uint256),bytes)[])":"88147732"},"id":60}