{"abi":[{"type":"constructor","inputs":[{"name":"_executor","type":"address","internalType":"address"},{"name":"_admin","type":"address","internalType":"address"}],"stateMutability":"nonpayable"},{"type":"function","name":"activePolicies","inputs":[{"name":"","type":"uint256","internalType":"uint256"}],"outputs":[{"name":"","type":"address","internalType":"contract Policy"}],"stateMutability":"view"},{"type":"function","name":"admin","inputs":[],"outputs":[{"name":"","type":"address","internalType":"address"}],"stateMutability":"view"},{"type":"function","name":"allKeycodes","inputs":[{"name":"","type":"uint256","internalType":"uint256"}],"outputs":[{"name":"","type":"bytes5","internalType":"Keycode"}],"stateMutability":"view"},{"type":"function","name":"executeAction","inputs":[{"name":"action_","type":"uint8","internalType":"enum Actions"},{"name":"target_","type":"address","internalType":"address"}],"outputs":[],"stateMutability":"nonpayable"},{"type":"function","name":"executor","inputs":[],"outputs":[{"name":"","type":"address","internalType":"address"}],"stateMutability":"view"},{"type":"function","name":"getDependentIndex","inputs":[{"name":"","type":"bytes5","internalType":"Keycode"},{"name":"","type":"address","internalType":"contract Policy"}],"outputs":[{"name":"","type":"uint256","internalType":"uint256"}],"stateMutability":"view"},{"type":"function","name":"getKeycodeForModule","inputs":[{"name":"","type":"address","internalType":"contract Module"}],"outputs":[{"name":"","type":"bytes5","internalType":"Keycode"}],"stateMutability":"view"},{"type":"function","name":"getModuleForKeycode","inputs":[{"name":"","type":"bytes5","internalType":"Keycode"}],"outputs":[{"name":"","type":"address","internalType":"contract Module"}],"stateMutability":"view"},{"type":"function","name":"getPolicyIndex","inputs":[{"name":"","type":"address","internalType":"contract Policy"}],"outputs":[{"name":"","type":"uint256","internalType":"uint256"}],"stateMutability":"view"},{"type":"function","name":"grantRole","inputs":[{"name":"role_","type":"bytes32","internalType":"Role"},{"name":"addr_","type":"address","internalType":"address"}],"outputs":[],"stateMutability":"nonpayable"},{"type":"function","name":"hasRole","inputs":[{"name":"","type":"address","internalType":"address"},{"name":"","type":"bytes32","internalType":"Role"}],"outputs":[{"name":"","type":"bool","internalType":"bool"}],"stateMutability":"view"},{"type":"function","name":"isRole","inputs":[{"name":"","type":"bytes32","internalType":"Role"}],"outputs":[{"name":"","type":"bool","internalType":"bool"}],"stateMutability":"view"},{"type":"function","name":"moduleDependents","inputs":[{"name":"","type":"bytes5","internalType":"Keycode"},{"name":"","type":"uint256","internalType":"uint256"}],"outputs":[{"name":"","type":"address","internalType":"contract Policy"}],"stateMutability":"view"},{"type":"function","name":"modulePermissions","inputs":[{"name":"","type":"bytes5","internalType":"Keycode"},{"name":"","type":"address","internalType":"contract Policy"},{"name":"","type":"bytes4","internalType":"bytes4"}],"outputs":[{"name":"","type":"bool","internalType":"bool"}],"stateMutability":"view"},{"type":"function","name":"revokeRole","inputs":[{"name":"role_","type":"bytes32","internalType":"Role"},{"name":"addr_","type":"address","internalType":"address"}],"outputs":[],"stateMutability":"nonpayable"},{"type":"event","name":"ActionExecuted","inputs":[{"name":"action_","type":"uint8","indexed":true,"internalType":"enum Actions"},{"name":"target_","type":"address","indexed":true,"internalType":"address"}],"anonymous":false},{"type":"event","name":"PermissionsUpdated","inputs":[{"name":"keycode_","type":"bytes5","indexed":true,"internalType":"Keycode"},{"name":"policy_","type":"address","indexed":true,"internalType":"contract Policy"},{"name":"funcSelector_","type":"bytes4","indexed":false,"internalType":"bytes4"},{"name":"granted_","type":"bool","indexed":false,"internalType":"bool"}],"anonymous":false},{"type":"event","name":"RoleGranted","inputs":[{"name":"role_","type":"bytes32","indexed":true,"internalType":"Role"},{"name":"addr_","type":"address","indexed":true,"internalType":"address"}],"anonymous":false},{"type":"event","name":"RoleRevoked","inputs":[{"name":"role_","type":"bytes32","indexed":true,"internalType":"Role"},{"name":"addr_","type":"address","indexed":true,"internalType":"address"}],"anonymous":false},{"type":"error","name":"Kernel_AddressAlreadyHasRole","inputs":[{"name":"addr_","type":"address","internalType":"address"},{"name":"role_","type":"bytes32","internalType":"Role"}]},{"type":"error","name":"Kernel_AddressDoesNotHaveRole","inputs":[{"name":"addr_","type":"address","internalType":"address"},{"name":"role_","type":"bytes32","internalType":"Role"}]},{"type":"error","name":"Kernel_InvalidKeycode","inputs":[{"name":"keycode_","type":"bytes5","internalType":"Keycode"}]},{"type":"error","name":"Kernel_InvalidModuleUpgrade","inputs":[{"name":"module_","type":"bytes5","internalType":"Keycode"}]},{"type":"error","name":"Kernel_InvalidRole","inputs":[{"name":"role_","type":"bytes32","internalType":"Role"}]},{"type":"error","name":"Kernel_ModuleAlreadyInstalled","inputs":[{"name":"module_","type":"bytes5","internalType":"Keycode"}]},{"type":"error","name":"Kernel_OnlyAdmin","inputs":[{"name":"caller_","type":"address","internalType":"address"}]},{"type":"error","name":"Kernel_OnlyExecutor","inputs":[{"name":"caller_","type":"address","internalType":"address"}]},{"type":"error","name":"Kernel_PolicyAlreadyApproved","inputs":[{"name":"policy_","type":"address","internalType":"address"}]},{"type":"error","name":"Kernel_PolicyNotApproved","inputs":[{"name":"policy_","type":"address","internalType":"address"}]},{"type":"error","name":"Kernel_RoleDoesNotExist","inputs":[{"name":"role_","type":"bytes32","internalType":"Role"}]},{"type":"error","name":"Kernel_TargetNotAContract","inputs":[{"name":"target_","type":"address","internalType":"address"}]}],"bytecode":{"object":"0x60806040523480156200001157600080fd5b5060405162001cab38038062001cab833981016040819052620000349162000083565b600080546001600160a01b039384166001600160a01b03199182161790915560018054929093169116179055620000bb565b80516001600160a01b03811681146200007e57600080fd5b919050565b600080604083850312156200009757600080fd5b620000a28362000066565b9150620000b26020840162000066565b90509250929050565b611be080620000cb6000396000f3fe608060405234801561001057600080fd5b50600436106100f45760003560e01c8063ae5f76fa11610097578063d547741f11610066578063d547741f14610296578063dbb61ee7146102a9578063f166d9eb146102bc578063f851a440146102f057600080fd5b8063ae5f76fa1461020b578063b4dc00b414610247578063c34c08e514610270578063c4d1f8f11461028357600080fd5b80632f2ff15d116100d35780632f2ff15d146101955780635af099c9146101aa57806363a6e3b5146101bd578063ac4ab3fb146101dd57600080fd5b80620dd95d146100f957806303c02f421461012957806311f944e114610162575b600080fd5b61010c610107366004611777565b610303565b6040516001600160a01b0390911681526020015b60405180910390f35b6101546101373660046117b8565b600660209081526000928352604080842090915290825290205481565b604051908152602001610120565b6101856101703660046117f1565b600b6020526000908152604090205460ff1681565b6040519015158152602001610120565b6101a86101a336600461180a565b61033b565b005b61010c6101b83660046117f1565b610456565b6101546101cb36600461182f565b60096020526000908152604090205481565b6101856101eb366004611853565b600a60209081526000928352604080842090915290825290205460ff1681565b61022e61021936600461182f565b60046020526000908152604090205460d81b81565b6040516001600160d81b03199091168152602001610120565b61010c610255366004611871565b6003602052600090815260409020546001600160a01b031681565b60005461010c906001600160a01b031681565b6101a861029136600461188e565b610480565b6101a86102a436600461180a565b6106ea565b61022e6102b73660046117f1565b6107f5565b6101856102ca3660046118c6565b600760209081526000938452604080852082529284528284209052825290205460ff1681565b60015461010c906001600160a01b031681565b6005602052816000526040600020818154811061031f57600080fd5b6000918252602090912001546001600160a01b03169150829050565b6001546001600160a01b0316331461036d576040516307dda43b60e01b81523360048201526024015b60405180910390fd5b6001600160a01b0381166000908152600a6020908152604080832085845290915290205460ff16156103c457604051631ad5d88160e01b81526001600160a01b038216600482015260248101839052604401610364565b6103cd8261082c565b6000828152600b602052604090205460ff166103fd576000828152600b60205260409020805460ff191660011790555b6001600160a01b0381166000818152600a60209081526040808320868452909152808220805460ff191660011790555184917f2ae6a113c0ed5b78a53413ffbb7679881f11145ccfba4fb92e863dfcd5a1d2f391a35050565b6008818154811061046657600080fd5b6000918252602090912001546001600160a01b0316905081565b6000546001600160a01b031633146104ac576040516237c7b360e01b8152336004820152602401610364565b60008260068111156104c0576104c0611911565b03610546576104ce816108da565b610538816001600160a01b0316631ae7ec2e6040518163ffffffff1660e01b8152600401602060405180830381865afa15801561050f573d6000803e3d6000fd5b505050506040513d601f19601f820116820180604052508101906105339190611927565b61090d565b61054181610990565b6106a1565b600182600681111561055a5761055a611911565b036105b257610568816108da565b6105a9816001600160a01b0316631ae7ec2e6040518163ffffffff1660e01b8152600401602060405180830381865afa15801561050f573d6000803e3d6000fd5b61054181610b44565b60028260068111156105c6576105c6611911565b036105dd576105d4816108da565b61054181610ccd565b60038260068111156105f1576105f1611911565b03610608576105ff816108da565b61054181610fc1565b600682600681111561061c5761061c611911565b036106335761062a816108da565b610541816111e9565b600482600681111561064757610647611911565b0361066c57600080546001600160a01b0319166001600160a01b0383161790556106a1565b600582600681111561068057610680611911565b036106a157600180546001600160a01b0319166001600160a01b0383161790555b806001600160a01b03168260068111156106bd576106bd611911565b6040517f6560dd86d70bf03c0005b3533cc115fa8b8a12b4ee11c7342ae7b32d82267c9090600090a35050565b6001546001600160a01b03163314610717576040516307dda43b60e01b8152336004820152602401610364565b6000828152600b602052604090205460ff1661074957604051630c2d328960e11b815260048101839052602401610364565b6001600160a01b0381166000908152600a6020908152604080832085845290915290205460ff1661079f576040516344d7183f60e11b81526001600160a01b038216600482015260248101839052604401610364565b6001600160a01b0381166000818152600a60209081526040808320868452909152808220805460ff191690555184917f155aaafb6329a2098580462df33ec4b7441b19729b9601c5fc17ae1cf99a8a5291a35050565b6002818154811061080557600080fd5b9060005260206000209060069182820401919006600502915054906101000a900460d81b81565b8060005b60208110156108d557600082826020811061084d5761084d611944565b1a60f81b9050604160f81b6001600160f81b03198216108061087c5750602d60f91b6001600160f81b03198216115b80156108965750605f60f81b6001600160f81b0319821614155b80156108ab57506001600160f81b0319811615155b156108cc576040516352ff55b160e01b815260048101859052602401610364565b50600101610830565b505050565b803b600081900361090957604051630fc3c49b60e11b81526001600160a01b0383166004820152602401610364565b5050565b8060005b60058110156108d557600082826005811061092e5761092e611944565b1a60f81b9050604160f81b6001600160f81b03198216108061095d5750602d60f91b6001600160f81b03198216115b15610987576040516360e4b6d160e11b81526001600160d81b031985166004820152602401610364565b50600101610911565b6000816001600160a01b0316631ae7ec2e6040518163ffffffff1660e01b8152600401602060405180830381865afa1580156109d0573d6000803e3d6000fd5b505050506040513d601f19601f820116820180604052508101906109f49190611927565b6001600160d81b031981166000908152600360205260409020549091506001600160a01b031615610a4457604051634403633360e11b81526001600160d81b031982166004820152602401610364565b6001600160d81b03198116600090815260036020908152604080832080546001600160a01b0319166001600160a01b038716908117909155808452600492839052818420805464ffffffffff191660d887901c908117909155600280546001810182559086527f405787fa12a823e0f2b7631cc41b3ba8828b3321ca811111fa75cd3aa3bb5ace600680830491909101805464ffffffffff929093066005026101000a9182021990921692029190911790558151633a990e4560e21b81529151909363ea643914938381019391929182900301818387803b158015610b2857600080fd5b505af1158015610b3c573d6000803e3d6000fd5b505050505050565b6000816001600160a01b0316631ae7ec2e6040518163ffffffff1660e01b8152600401602060405180830381865afa158015610b84573d6000803e3d6000fd5b505050506040513d601f19601f82011682018060405250810190610ba89190611927565b6001600160d81b031981166000908152600360205260409020549091506001600160a01b0316801580610bec5750826001600160a01b0316816001600160a01b0316145b15610c165760405163073e073160e01b81526001600160d81b031983166004820152602401610364565b6001600160a01b038181166000908152600460208181526040808420805464ffffffffff19908116909155948816808552818520805490961660d889901c179095556001600160d81b031987168452600390915280832080546001600160a01b031916851790558051633a990e4560e21b8152905163ea6439149382840193909282900301818387803b158015610cac57600080fd5b505af1158015610cc0573d6000803e3d6000fd5b505050506108d5826113b0565b806001600160a01b03166322f3e2d46040518163ffffffff1660e01b8152600401602060405180830381865afa158015610d0b573d6000803e3d6000fd5b505050506040513d601f19601f82011682018060405250810190610d2f919061195a565b15610d58576040516330d76de360e21b81526001600160a01b0382166004820152602401610364565b6000816001600160a01b0316635924be706040518163ffffffff1660e01b8152600401600060405180830381865afa158015610d98573d6000803e3d6000fd5b505050506040513d6000823e601f3d908101601f19168201604052610dc09190810190611a10565b9050610dce828260016114bb565b600880546001808201835560008390527ff3f7a9fe364faab93b216da50a3214154f22a0a2b415b23a84c8169e8b636ee390910180546001600160a01b0319166001600160a01b0386161790559054610e279190611ade565b6001600160a01b038316600081815260096020526040808220939093558251639459b87560e01b815292519092639459b8759160048083019286929190829003018183875af1158015610e7e573d6000803e3d6000fd5b505050506040513d6000823e601f3d908101601f19168201604052610ea69190810190611b05565b805190915060005b81811015610f5f576000838281518110610eca57610eca611944565b6020908102919091018101516001600160d81b03198116600081815260058452604081208054600180820183558284529583200180546001600160a01b0319166001600160a01b038d1617905591905254909250610f289190611ade565b6001600160d81b031990911660009081526006602090815260408083206001600160a01b038a168452909152902055600101610eae565b5060405163ec7404b160e01b8152600160048201526001600160a01b0385169063ec7404b1906024015b600060405180830381600087803b158015610fa357600080fd5b505af1158015610fb7573d6000803e3d6000fd5b5050505050505050565b806001600160a01b03166322f3e2d46040518163ffffffff1660e01b8152600401602060405180830381865afa158015610fff573d6000803e3d6000fd5b505050506040513d601f19601f82011682018060405250810190611023919061195a565b61104b57604051630941f10360e21b81526001600160a01b0382166004820152602401610364565b6000816001600160a01b0316635924be706040518163ffffffff1660e01b8152600401600060405180830381865afa15801561108b573d6000803e3d6000fd5b505050506040513d6000823e601f3d908101601f191682016040526110b39190810190611a10565b90506110c1828260006114bb565b6001600160a01b038216600090815260096020526040812054600880549192916110ed90600190611ade565b815481106110fd576110fd611944565b600091825260209091200154600880546001600160a01b03909216925082918490811061112c5761112c611944565b9060005260206000200160006101000a8154816001600160a01b0302191690836001600160a01b03160217905550600880548061116b5761116b611b94565b60008281526020808220830160001990810180546001600160a01b03191690559092019092556001600160a01b0383811683526009909152604080832085905590861682528120556111bc84611594565b60405163ec7404b160e01b8152600060048201526001600160a01b0385169063ec7404b190602401610f89565b60025460005b818110156112b7576000600360006002848154811061121057611210611944565b6000918252602080832060068084049091015492066005026101000a90910460d81b6001600160d81b03191683528201929092526040908101909120549051631195ecdb60e21b81526001600160a01b03868116600483015290911691508190634657b36c90602401600060405180830381600087803b15801561129357600080fd5b505af11580156112a7573d6000803e3d6000fd5b50505050508060010190506111ef565b5060085460005b818110156113aa576000600882815481106112db576112db611944565b600091825260208220015460405163ec7404b160e01b815260048101929092526001600160a01b03169150819063ec7404b190602401600060405180830381600087803b15801561132b57600080fd5b505af115801561133f573d6000803e3d6000fd5b5050604051631195ecdb60e21b81526001600160a01b03888116600483015284169250634657b36c9150602401600060405180830381600087803b15801561138657600080fd5b505af115801561139a573d6000803e3d6000fd5b50505050508060010190506112be565b50505050565b6001600160d81b0319811660009081526005602090815260408083208054825181850281018501909352808352919290919083018282801561141b57602002820191906000526020600020905b81546001600160a01b031681526001909101906020018083116113fd575b505083519394506000925050505b818110156113aa5782818151811061144357611443611944565b60200260200101516001600160a01b0316639459b8756040518163ffffffff1660e01b81526004016000604051808303816000875af115801561148a573d6000803e3d6000fd5b505050506040513d6000823e601f3d908101601f191682016040526114b29190810190611b05565b50600101611429565b815160005b8181101561158d5760008482815181106114dc576114dc611944565b60209081029190910181015180516001600160d81b031990811660009081526007845260408082206001600160a01b038c1680845290865281832085870180516001600160e01b0319908116865291885293839020805460ff19168c1515908117909155865194518451921682529681019690965293955092939116917ff3cdd20c5574ce87c347ea71e37b8fa7a095894be4b7f2bb1533e8d2342965f1910160405180910390a3506001016114c0565b5050505050565b6000816001600160a01b0316639459b8756040518163ffffffff1660e01b81526004016000604051808303816000875af11580156115d6573d6000803e3d6000fd5b505050506040513d6000823e601f3d908101601f191682016040526115fe9190810190611b05565b805190915060005b818110156113aa57600083828151811061162257611622611944565b6020908102919091018101516001600160d81b031981166000908152600583526040808220600685528183206001600160a01b038b168452909452812054835492945091839061167490600190611ade565b8154811061168457611684611944565b9060005260206000200160009054906101000a90046001600160a01b03169050808383815481106116b7576116b7611944565b9060005260206000200160006101000a8154816001600160a01b0302191690836001600160a01b03160217905550828054806116f5576116f5611b94565b60008281526020808220600019908401810180546001600160a01b03191690559092019092556001600160d81b03199590951681526006855260408082206001600160a01b03938416835290955284812092909255871681529182209190915550600101611606565b6001600160d81b03198116811461177457600080fd5b50565b6000806040838503121561178a57600080fd5b82356117958161175e565b946020939093013593505050565b6001600160a01b038116811461177457600080fd5b600080604083850312156117cb57600080fd5b82356117d68161175e565b915060208301356117e6816117a3565b809150509250929050565b60006020828403121561180357600080fd5b5035919050565b6000806040838503121561181d57600080fd5b8235915060208301356117e6816117a3565b60006020828403121561184157600080fd5b813561184c816117a3565b9392505050565b6000806040838503121561186657600080fd5b8235611795816117a3565b60006020828403121561188357600080fd5b813561184c8161175e565b600080604083850312156118a157600080fd5b8235600781106117d657600080fd5b6001600160e01b03198116811461177457600080fd5b6000806000606084860312156118db57600080fd5b83356118e68161175e565b925060208401356118f6816117a3565b91506040840135611906816118b0565b809150509250925092565b634e487b7160e01b600052602160045260246000fd5b60006020828403121561193957600080fd5b815161184c8161175e565b634e487b7160e01b600052603260045260246000fd5b60006020828403121561196c57600080fd5b8151801515811461184c57600080fd5b634e487b7160e01b600052604160045260246000fd5b6040805190810167ffffffffffffffff811182821017156119b5576119b561197c565b60405290565b604051601f8201601f1916810167ffffffffffffffff811182821017156119e4576119e461197c565b604052919050565b600067ffffffffffffffff821115611a0657611a0661197c565b5060051b60200190565b60006020808385031215611a2357600080fd5b825167ffffffffffffffff811115611a3a57600080fd5b8301601f81018513611a4b57600080fd5b8051611a5e611a59826119ec565b6119bb565b81815260069190911b82018301908381019087831115611a7d57600080fd5b928401925b82841015611ad35760408489031215611a9b5760008081fd5b611aa3611992565b8451611aae8161175e565b815284860151611abd816118b0565b8187015282526040939093019290840190611a82565b979650505050505050565b81810381811115611aff57634e487b7160e01b600052601160045260246000fd5b92915050565b60006020808385031215611b1857600080fd5b825167ffffffffffffffff811115611b2f57600080fd5b8301601f81018513611b4057600080fd5b8051611b4e611a59826119ec565b81815260059190911b82018301908381019087831115611b6d57600080fd5b928401925b82841015611ad3578351611b858161175e565b82529284019290840190611b72565b634e487b7160e01b600052603160045260246000fdfea26469706673582212204516a0d14801a312dbe81a9bed9836a17f234353d8b5826aae92ea7ffd92ac2a64736f6c63430008160033","linkReferences":{}},"methodIdentifiers":{"activePolicies(uint256)":"5af099c9","admin()":"f851a440","allKeycodes(uint256)":"dbb61ee7","executeAction(uint8,address)":"c4d1f8f1","executor()":"c34c08e5","getDependentIndex(bytes5,address)":"03c02f42","getKeycodeForModule(address)":"ae5f76fa","getModuleForKeycode(bytes5)":"b4dc00b4","getPolicyIndex(address)":"63a6e3b5","grantRole(bytes32,address)":"2f2ff15d","hasRole(address,bytes32)":"ac4ab3fb","isRole(bytes32)":"11f944e1","moduleDependents(bytes5,uint256)":"000dd95d","modulePermissions(bytes5,address,bytes4)":"f166d9eb","revokeRole(bytes32,address)":"d547741f"},"id":112}