{"abi":[{"type":"constructor","inputs":[{"name":"_createPolicy","type":"address","internalType":"address"},{"name":"_rentedToken","type":"address","internalType":"address"},{"name":"_tokenToMint","type":"address","internalType":"address"}],"stateMutability":"nonpayable"},{"type":"function","name":"createPolicy","inputs":[],"outputs":[{"name":"","type":"address","internalType":"address"}],"stateMutability":"view"},{"type":"function","name":"onStart","inputs":[{"name":"safe","type":"address","internalType":"address"},{"name":"token","type":"address","internalType":"address"},{"name":"","type":"uint256","internalType":"uint256"},{"name":"","type":"uint256","internalType":"uint256"},{"name":"","type":"bytes","internalType":"bytes"}],"outputs":[],"stateMutability":"nonpayable"},{"type":"function","name":"onStop","inputs":[{"name":"safe","type":"address","internalType":"address"},{"name":"token","type":"address","internalType":"address"},{"name":"identifier","type":"uint256","internalType":"uint256"},{"name":"","type":"uint256","internalType":"uint256"},{"name":"","type":"bytes","internalType":"bytes"}],"outputs":[],"stateMutability":"view"},{"type":"function","name":"onTransaction","inputs":[{"name":"safe","type":"address","internalType":"address"},{"name":"to","type":"address","internalType":"address"},{"name":"","type":"uint256","internalType":"uint256"},{"name":"data","type":"bytes","internalType":"bytes"}],"outputs":[],"stateMutability":"view"},{"type":"function","name":"rentedToken","inputs":[],"outputs":[{"name":"","type":"address","internalType":"address"}],"stateMutability":"view"},{"type":"function","name":"tokenToMint","inputs":[],"outputs":[{"name":"","type":"address","internalType":"address"}],"stateMutability":"view"}],"bytecode":{"object":"0x608060405234801561001057600080fd5b506040516104d03803806104d083398101604081905261002f9161008d565b600080546001600160a01b039485166001600160a01b0319918216179091556001805493851693821693909317909255600280549190931691161790556100d0565b80516001600160a01b038116811461008857600080fd5b919050565b6000806000606084860312156100a257600080fd5b6100ab84610071565b92506100b960208501610071565b91506100c760408501610071565b90509250925092565b6103f1806100df6000396000f3fe608060405234801561001057600080fd5b50600436106100625760003560e01c80630747c995146100675780631b4bdfcc1461007e578063a5a0b92c146100ad578063a91a0ca3146100c0578063f5aa1eee146100d3578063f957ee78146100e6575b600080fd5b61007c6100753660046102e1565b5050505050565b005b600254610091906001600160a01b031681565b6040516001600160a01b03909116815260200160405180910390f35b600154610091906001600160a01b031681565b600054610091906001600160a01b031681565b61007c6100e13660046102e1565b6100fa565b61007c6100f4366004610353565b50505050565b6000546001600160a01b031633146101635760405162461bcd60e51b815260206004820152602160248201527f6e6f742063616c6c61626c6520756e6c6573732063726561746520706f6c69636044820152607960f81b60648201526084015b60405180910390fd5b60015484906001600160a01b038083169116146101bb5760405162461bcd60e51b81526020600482015260166024820152751d1bdad95b881a5cc81b9bdd081cdd5c1c1bdc9d195960521b604482015260640161015a565b6002546040516335313c2160e11b81526001600160a01b03888116600483015290911690636a62784290602401600060405180830381600087803b15801561020257600080fd5b505af1158015610216573d6000803e3d6000fd5b50505050505050505050565b80356001600160a01b038116811461023957600080fd5b919050565b634e487b7160e01b600052604160045260246000fd5b600082601f83011261026557600080fd5b813567ffffffffffffffff808211156102805761028061023e565b604051601f8301601f19908116603f011681019082821181831017156102a8576102a861023e565b816040528381528660208588010111156102c157600080fd5b836020870160208301376000602085830101528094505050505092915050565b600080600080600060a086880312156102f957600080fd5b61030286610222565b945061031060208701610222565b93506040860135925060608601359150608086013567ffffffffffffffff81111561033a57600080fd5b61034688828901610254565b9150509295509295909350565b6000806000806080858703121561036957600080fd5b61037285610222565b935061038060208601610222565b925060408501359150606085013567ffffffffffffffff8111156103a357600080fd5b6103af87828801610254565b9150509295919450925056fea2646970667358221220052bbfbbdbdb89575fff439fa8abb23d7f5e3901fa32f5374853d3c364997e2764736f6c63430008160033","linkReferences":{}},"methodIdentifiers":{"createPolicy()":"a91a0ca3","onStart(address,address,uint256,uint256,bytes)":"f5aa1eee","onStop(address,address,uint256,uint256,bytes)":"0747c995","onTransaction(address,address,uint256,bytes)":"f957ee78","rentedToken()":"a5a0b92c","tokenToMint()":"1b4bdfcc"},"id":113}