{"abi":[{"type":"constructor","inputs":[{"name":"kernel_","type":"address","internalType":"contract Kernel"}],"stateMutability":"nonpayable"},{"type":"function","name":"ESCRW","inputs":[],"outputs":[{"name":"","type":"address","internalType":"contract PaymentEscrow"}],"stateMutability":"view"},{"type":"function","name":"STORE","inputs":[],"outputs":[{"name":"","type":"address","internalType":"contract Storage"}],"stateMutability":"view"},{"type":"function","name":"changeKernel","inputs":[{"name":"newKernel_","type":"address","internalType":"contract Kernel"}],"outputs":[],"stateMutability":"nonpayable"},{"type":"function","name":"configureDependencies","inputs":[],"outputs":[{"name":"dependencies","type":"bytes5[]","internalType":"Keycode[]"}],"stateMutability":"nonpayable"},{"type":"function","name":"isActive","inputs":[],"outputs":[{"name":"","type":"bool","internalType":"bool"}],"stateMutability":"view"},{"type":"function","name":"kernel","inputs":[],"outputs":[{"name":"","type":"address","internalType":"contract Kernel"}],"stateMutability":"view"},{"type":"function","name":"reclaimRentalOrder","inputs":[{"name":"rentalOrder","type":"tuple","internalType":"struct RentalOrder","components":[{"name":"seaportOrderHash","type":"bytes32","internalType":"bytes32"},{"name":"items","type":"tuple[]","internalType":"struct Item[]","components":[{"name":"itemType","type":"uint8","internalType":"enum ItemType"},{"name":"settleTo","type":"uint8","internalType":"enum SettleTo"},{"name":"token","type":"address","internalType":"address"},{"name":"amount","type":"uint256","internalType":"uint256"},{"name":"identifier","type":"uint256","internalType":"uint256"}]},{"name":"hooks","type":"tuple[]","internalType":"struct Hook[]","components":[{"name":"target","type":"address","internalType":"address"},{"name":"itemIndex","type":"uint256","internalType":"uint256"},{"name":"extraData","type":"bytes","internalType":"bytes"}]},{"name":"orderType","type":"uint8","internalType":"enum OrderType"},{"name":"lender","type":"address","internalType":"address"},{"name":"renter","type":"address","internalType":"address"},{"name":"rentalWallet","type":"address","internalType":"address"},{"name":"startTimestamp","type":"uint256","internalType":"uint256"},{"name":"endTimestamp","type":"uint256","internalType":"uint256"}]}],"outputs":[],"stateMutability":"nonpayable"},{"type":"function","name":"requestPermissions","inputs":[],"outputs":[{"name":"requests","type":"tuple[]","internalType":"struct Permissions[]","components":[{"name":"keycode","type":"bytes5","internalType":"Keycode"},{"name":"funcSelector","type":"bytes4","internalType":"bytes4"}]}],"stateMutability":"view"},{"type":"function","name":"setActiveStatus","inputs":[{"name":"activate_","type":"bool","internalType":"bool"}],"outputs":[],"stateMutability":"nonpayable"},{"type":"function","name":"stopRent","inputs":[{"name":"order","type":"tuple","internalType":"struct RentalOrder","components":[{"name":"seaportOrderHash","type":"bytes32","internalType":"bytes32"},{"name":"items","type":"tuple[]","internalType":"struct Item[]","components":[{"name":"itemType","type":"uint8","internalType":"enum ItemType"},{"name":"settleTo","type":"uint8","internalType":"enum SettleTo"},{"name":"token","type":"address","internalType":"address"},{"name":"amount","type":"uint256","internalType":"uint256"},{"name":"identifier","type":"uint256","internalType":"uint256"}]},{"name":"hooks","type":"tuple[]","internalType":"struct Hook[]","components":[{"name":"target","type":"address","internalType":"address"},{"name":"itemIndex","type":"uint256","internalType":"uint256"},{"name":"extraData","type":"bytes","internalType":"bytes"}]},{"name":"orderType","type":"uint8","internalType":"enum OrderType"},{"name":"lender","type":"address","internalType":"address"},{"name":"renter","type":"address","internalType":"address"},{"name":"rentalWallet","type":"address","internalType":"address"},{"name":"startTimestamp","type":"uint256","internalType":"uint256"},{"name":"endTimestamp","type":"uint256","internalType":"uint256"}]}],"outputs":[],"stateMutability":"nonpayable"},{"type":"function","name":"stopRentBatch","inputs":[{"name":"orders","type":"tuple[]","internalType":"struct RentalOrder[]","components":[{"name":"seaportOrderHash","type":"bytes32","internalType":"bytes32"},{"name":"items","type":"tuple[]","internalType":"struct Item[]","components":[{"name":"itemType","type":"uint8","internalType":"enum ItemType"},{"name":"settleTo","type":"uint8","internalType":"enum SettleTo"},{"name":"token","type":"address","internalType":"address"},{"name":"amount","type":"uint256","internalType":"uint256"},{"name":"identifier","type":"uint256","internalType":"uint256"}]},{"name":"hooks","type":"tuple[]","internalType":"struct Hook[]","components":[{"name":"target","type":"address","internalType":"address"},{"name":"itemIndex","type":"uint256","internalType":"uint256"},{"name":"extraData","type":"bytes","internalType":"bytes"}]},{"name":"orderType","type":"uint8","internalType":"enum OrderType"},{"name":"lender","type":"address","internalType":"address"},{"name":"renter","type":"address","internalType":"address"},{"name":"rentalWallet","type":"address","internalType":"address"},{"name":"startTimestamp","type":"uint256","internalType":"uint256"},{"name":"endTimestamp","type":"uint256","internalType":"uint256"}]}],"outputs":[],"stateMutability":"nonpayable"},{"type":"event","name":"RentalOrderStopped","inputs":[{"name":"seaportOrderHash","type":"bytes32","indexed":false,"internalType":"bytes32"},{"name":"stopper","type":"address","indexed":false,"internalType":"address"}],"anonymous":false},{"type":"error","name":"KernelAdapter_OnlyKernel","inputs":[{"name":"caller_","type":"address","internalType":"address"}]},{"type":"error","name":"Policy_ModuleDoesNotExist","inputs":[{"name":"keycode_","type":"bytes5","internalType":"Keycode"}]},{"type":"error","name":"ReclaimerPackage_OnlyDelegateCallAllowed","inputs":[]},{"type":"error","name":"ReclaimerPackage_OnlyRentalSafeAllowed","inputs":[{"name":"reclaimer","type":"address","internalType":"address"}]},{"type":"error","name":"Shared_HookFailBytes","inputs":[{"name":"revertData","type":"bytes","internalType":"bytes"}]},{"type":"error","name":"Shared_HookFailString","inputs":[{"name":"revertReason","type":"string","internalType":"string"}]},{"type":"error","name":"Shared_NonRentalHookItem","inputs":[{"name":"itemIndex","type":"uint256","internalType":"uint256"}]},{"type":"error","name":"Shared_OrderTypeNotSupported","inputs":[{"name":"orderType","type":"uint8","internalType":"uint8"}]},{"type":"error","name":"StopPolicy_CannotStopOrder","inputs":[{"name":"timestamp","type":"uint256","internalType":"uint256"},{"name":"stopper","type":"address","internalType":"address"}]},{"type":"error","name":"StopPolicy_OrderDoesNotExist","inputs":[{"name":"orderHash","type":"bytes32","internalType":"bytes32"}]},{"type":"error","name":"StopPolicy_ReclaimFailed","inputs":[]},{"type":"error","name":"StopPolicy_StoppedTooSoon","inputs":[]}],"bytecode":{"object":"0x6102006040523480156200001257600080fd5b506040516200312d3803806200312d83398101604081905262000035916200063e565b600080546001600160a01b0319166001600160a01b0383161790556200005a62000099565b6101005260c05260a05260805262000071620001c3565b6101c0526101a05261018052610160526101405261012052504660e052306101e052620006cf565b604080518082018252600d81526c52654e46542d52656e74616c7360981b6020918201528151808301835260058152640312e302e360dc1b9082015290517f9650e8727fbb774f0b68cbf8b082cb7c4c4d1bef28b4ac9e17b87fd4da697c0e917f06c015bd22b4c69690933c1058878ebdfef31f9aaae40bbe86d8a09fe1b2972c9160009182916200019091017f454950373132446f6d61696e28737472696e67206e616d652c737472696e672081527f76657273696f6e2c75696e7432353620636861696e49642c6164647265737320602082015271766572696679696e67436f6e74726163742960701b604082015260520190565b604051602081830303815290604052805190602001209150620001bb828585620005f560201b60201c565b905090919293565b60008060008060008060006040516020016200024e907f4974656d2875696e7438206974656d547970652c75696e743820736574746c6581527f546f2c6164647265737320746f6b656e2c75696e7432353620616d6f756e742c60208201527f75696e74323536206964656e7469666965722900000000000000000000000000604082015260530190565b60405160208183030381529060405290506000604051602001620002bb907f486f6f6b2861646472657373207461726765742c75696e74323536206974656d81527f496e6465782c6279746573206578747261446174612900000000000000000000602082015260360190565b60405160208183030381529060405290506000604051602001620003b1907f52656e74616c4f72646572286279746573333220736561706f72744f7264657281527f486173682c4974656d5b5d206974656d732c486f6f6b5b5d20686f6f6b732c7560208201527f696e7438206f72646572547970652c61646472657373206c656e6465722c616460408201527f64726573732072656e7465722c616464726573732072656e74616c57616c6c6560608201527f742c75696e7432353620737461727454696d657374616d702c75696e7432353660808201526d20656e6454696d657374616d702960901b60a082015260ae0190565b60405160208183030381529060405290508280519060200120985081805190602001209750808284604051602001620003ed93929190620006a2565b604051602081830303815290604052805190602001209650600060405160200162000447907f4f7264657246756c66696c6c6d656e74286164647265737320726563697069658152626e742960e81b602082015260230190565b60405160208183030381529060405290506000604051602001620004da907f4f726465724d657461646174612875696e7438206f72646572547970652c756981527f6e743235362072656e744475726174696f6e2c486f6f6b5b5d20686f6f6b732c60208201527f627974657320656d697474656445787472614461746129000000000000000000604082015260570190565b6040516020818303038152906040529050600060405160200162000593907f52656e745061796c6f61642862797465733332206f72646572486173682c4f7281527f64657246756c66696c6c6d656e742066756c66696c6c6d656e742c4f7264657260208201527f4d65746164617461206d657461646174612c75696e743235362065787069726160408201527f74696f6e2c6164647265737320696e74656e64656446756c66696c6c657229006060820152607f0190565b6040516020818303038152906040529050808383604051602001620005bb93929190620006a2565b6040516020818303038152906040528051906020012096508280519060200120985081805190602001209750505050505050909192939495565b6040805160208101859052908101839052606081018290524660808201523060a082015260009060c0016040516020818303038152906040528051906020012090509392505050565b6000602082840312156200065157600080fd5b81516001600160a01b03811681146200066957600080fd5b9392505050565b6000815160005b8181101562000693576020818501810151868301520162000677565b50600093019283525090919050565b6000620006c6620006bf620006b8848862000670565b8662000670565b8462000670565b95945050505050565b60805160a05160c05160e05161010051610120516101405161016051610180516101a0516101c0516101e0516129e46200074960003960006102110152600050506000505060005050600061113d01526000611940015260006118be015260005050600050506000505060005050600050506129e46000f3fe608060405234801561001057600080fd5b50600436106100a95760003560e01c80638dba9561116100715780638dba95611461013f5780639459b87514610152578063ca540d2f14610167578063d4aae0c41461017a578063ec7404b11461018d578063f1c9e188146101a057600080fd5b806322f3e2d4146100ae5780634657b36c146100d75780634b251fe3146100ec578063507f1465146100ff5780635924be701461012a575b600080fd5b6000546100c290600160a01b900460ff1681565b60405190151581526020015b60405180910390f35b6100ea6100e5366004611a2f565b6101b3565b005b6100ea6100fa366004611a4c565b610207565b600154610112906001600160a01b031681565b6040516001600160a01b0390911681526020016100ce565b610132610378565b6040516100ce9190611a87565b600254610112906001600160a01b031681565b61015a610538565b6040516100ce9190611aea565b6100ea610175366004611b38565b61065e565b600054610112906001600160a01b031681565b6100ea61019b366004611bba565b610baa565b6100ea6101ae366004611a4c565b610bf5565b6000546001600160a01b031633146101e55760405163053e900f60e21b81523360048201526024015b60405180910390fd5b600080546001600160a01b0319166001600160a01b0392909216919091179055565b6001600160a01b037f000000000000000000000000000000000000000000000000000000000000000016300361025057604051635b04ddff60e01b815260040160405180910390fd5b61026060e0820160c08301611a2f565b6001600160a01b0316306001600160a01b0316146102ad5761028860e0820160c08301611a2f565b604051635f595f6f60e01b81526001600160a01b0390911660048201526024016101dc565b60006102bc6020830183611be7565b9050905060005b818110156103735760006102da6020850185611be7565b838181106102ea576102ea611c36565b905060a002018036038101906103009190611d8b565b905060008151600281111561031757610317611da7565b036103365761033661032f60a0860160808701611a2f565b8290610e62565b60018151600281111561034b5761034b611da7565b0361036a5761036a61036360a0860160808701611a2f565b8290610eda565b506001016102c3565b505050565b6000546060906001600160a01b031633146103a85760405163053e900f60e21b81523360048201526024016101dc565b60408051600480825260a0820190925290816020015b60408051808201909152600080825260208201528152602001906001900390816103be57905050905060405180604001604052806104016453544f524560d81b90565b6001600160d81b0319168152631fecd9f760e11b6020909101528151829060009061042e5761042e611c36565b602002602001018190525060405180604001604052806104536453544f524560d81b90565b6001600160d81b0319168152635539bb9f60e11b60209091015281518290600190811061048257610482611c36565b602002602001018190525060405180604001604052806104a764455343525760d81b90565b6001600160d81b03191681526304c10ea560e01b6020909101528151829060029081106104d6576104d6611c36565b602002602001018190525060405180604001604052806104fb64455343525760d81b90565b6001600160d81b0319168152633193dc0160e11b60209091015281518290600390811061052a5761052a611c36565b602002602001018190525090565b6000546060906001600160a01b031633146105685760405163053e900f60e21b81523360048201526024016101dc565b60408051600280825260608201835290916020830190803683370190505090506453544f524560d81b816000815181106105a4576105a4611c36565b6001600160d81b0319909216602092830291909101909101526105d46105cf6453544f524560d81b90565b610f3a565b600180546001600160a01b0319166001600160a01b039290921691909117905564455343525760d81b8160018151811061061057610610611c36565b6001600160d81b03199092166020928302919091019091015261063b6105cf64455343525760d81b90565b600280546001600160a01b0319166001600160a01b039290921691909117905590565b60005b818110156103735760006106a084848481811061068057610680611c36565b90506020028101906106929190611dbd565b61069b90611fcc565b610fec565b6001546040516309c3f1e960e41b8152600481018390529192506001600160a01b031690639c3f1e9090602401602060405180830381865afa1580156106ea573d6000803e3d6000fd5b505050506040513d601f19601f8201168201806040525081019061070e919061209d565b61072e5760405163155b906d60e21b8152600481018290526024016101dc565b6107f184848481811061074357610743611c36565b90506020028101906107559190611dbd565b6107669060808101906060016120ba565b85858581811061077857610778611c36565b905060200281019061078a9190611dbd565b60e001358686868181106107a0576107a0611c36565b90506020028101906107b29190611dbd565b61010001358787878181106107c9576107c9611c36565b90506020028101906107db9190611dbd565b6107ec9060a0810190608001611a2f565b611206565b60408051600080825260208201909252905b85858581811061081557610815611c36565b90506020028101906108279190611dbd565b610835906020810190611be7565b90508110156109965761089e86868681811061085357610853611c36565b90506020028101906108659190611dbd565b610873906020810190611be7565b8381811061088357610883611c36565b905060a002018036038101906108999190611d8b565b611304565b1561098e5761098e8261093d8888888181106108bc576108bc611c36565b90506020028101906108ce9190611dbd565b6108df9060e081019060c001611a2f565b8989898181106108f1576108f1611c36565b90506020028101906109039190611dbd565b610911906020810190611be7565b8681811061092157610921611c36565b905060a002018036038101906109379190611d8b565b9061131e565b88888881811061094f5761094f611c36565b90506020028101906109619190611dbd565b61096f906020810190611be7565b8581811061097f5761097f611c36565b905060a0020160600135611387565b600101610803565b506109cc8585858181106109ac576109ac611c36565b90506020028101906109be9190611dbd565b6109c790611fcc565b6113c9565b6002546001600160a01b03166304c10ea58686868181106109ef576109ef611c36565b9050602002810190610a019190611dbd565b6040518263ffffffff1660e01b8152600401610a1d919061231e565b600060405180830381600087803b158015610a3757600080fd5b505af1158015610a4b573d6000803e3d6000fd5b505050506000858585818110610a6357610a63611c36565b9050602002810190610a759190611dbd565b610a8390604081019061240f565b90501115610b2c57610b2c858585818110610aa057610aa0611c36565b9050602002810190610ab29190611dbd565b610ac090604081019061240f565b878787818110610ad257610ad2611c36565b9050602002810190610ae49190611dbd565b610af2906020810190611be7565b898989818110610b0457610b04611c36565b9050602002810190610b169190611dbd565b610b279060e081019060c001611a2f565b6114ab565b6001546001600160a01b0316633fd9b3ee83610b47846117a9565b6040518363ffffffff1660e01b8152600401610b64929190612458565b600060405180830381600087803b158015610b7e57600080fd5b505af1158015610b92573d6000803e3d6000fd5b50505050610ba08233611875565b5050600101610661565b6000546001600160a01b03163314610bd75760405163053e900f60e21b81523360048201526024016101dc565b60008054911515600160a01b0260ff60a01b19909216919091179055565b6000610c0361069b83611fcc565b6001546040516309c3f1e960e41b8152600481018390529192506001600160a01b031690639c3f1e9090602401602060405180830381865afa158015610c4d573d6000803e3d6000fd5b505050506040513d601f19601f82011682018060405250810190610c71919061209d565b610c915760405163155b906d60e21b8152600481018290526024016101dc565b610cbf610ca460808401606085016120ba565b60e08401356101008501356107ec60a0870160808801611a2f565b60408051600080825260208201909252905b610cde6020850185611be7565b9050811015610d3557610cf76108736020860186611be7565b15610d2d57610d2d82610d20610d1360e0880160c08901611a2f565b6109116020890189611be7565b61096f6020880188611be7565b600101610cd1565b50610d426109c784611fcc565b6002546040516304c10ea560e01b81526001600160a01b03909116906304c10ea590610d7290869060040161231e565b600060405180830381600087803b158015610d8c57600080fd5b505af1158015610da0573d6000803e3d6000fd5b5060009250610db5915050604085018561240f565b90501115610dea57610dea610dcd604085018561240f565b610dda6020870187611be7565b610b2760e0890160c08a01611a2f565b6001546001600160a01b0316633fd9b3ee83610e05846117a9565b6040518363ffffffff1660e01b8152600401610e22929190612458565b600060405180830381600087803b158015610e3c57600080fd5b505af1158015610e50573d6000803e3d6000fd5b50505050610373836000013533611875565b60408083015160808401519151632142170760e11b81523060048201526001600160a01b03848116602483015260448201939093529116906342842e0e906064015b600060405180830381600087803b158015610ebe57600080fd5b505af1158015610ed2573d6000803e3d6000fd5b505050505050565b604082810151608084015160608501519251637921219560e11b81523060048201526001600160a01b0385811660248301526044820192909252606481019390935260a06084840152600060a4840152169063f242432a9060c401610ea4565b60008054604051632d37002d60e21b81526001600160d81b03198416600482015282916001600160a01b03169063b4dc00b490602401602060405180830381865afa158015610f8d573d6000803e3d6000fd5b505050506040513d601f19601f82011682018060405250810190610fb191906124b3565b90506001600160a01b038116610fe657604051635c3fa9cd60e01b81526001600160d81b0319841660048201526024016101dc565b92915050565b6000808260200151516001600160401b0381111561100c5761100c611c4c565b604051908082528060200260200182016040528015611035578160200160208202803683370190505b50905060008360400151516001600160401b0381111561105757611057611c4c565b604051908082528060200260200182016040528015611080578160200160208202803683370190505b50905060005b8460200151518110156110de576110b9856020015182815181106110ac576110ac611c36565b60200260200101516118ba565b8382815181106110cb576110cb611c36565b6020908102919091010152600101611086565b5060005b84604001515181101561113a576111158560400151828151811061110857611108611c36565b6020026020010151611928565b82828151811061112757611127611c36565b60209081029190910101526001016110e2565b507f000000000000000000000000000000000000000000000000000000000000000084600001518360405160200161117291906124d0565b604051602081830303815290604052805190602001208360405160200161119991906124d0565b60405160208183030381529060405280519060200120876060015188608001518960a001518a60c001518b60e001518c61010001516040516020016111e79a99989796959493929190612506565b6040516020818303038152906040528051906020012092505050919050565b4280831115906001600160a01b038316331490850361123857604051631ece041f60e11b815260040160405180910390fd5b61125286600281111561124d5761124d611da7565b61198d565b15611282578161127d57604051637f5c691b60e11b81524260048201523360248201526044016101dc565b610ed2565b61129c86600281111561129757611297611da7565b6119aa565b156112d357801580156112ad575081155b1561127d57604051637f5c691b60e11b81524260048201523360248201526044016101dc565b8560028111156112e5576112e5611da7565b604051635109fe9b60e11b815260ff90911660048201526024016101dc565b600061130f826119b3565b80610fe65750610fe6826119ca565b600061138082846040015185608001516040516bffffffffffffffffffffffff19606085811b8216602084015284901b166034820152604881018290526000906068016040516020818303038152906040528051906020012090509392505050565b9392505050565b8251829061139b5760208452600084602001525b8351602080860180516040938401885260010190819052820290950191825293810191909152820190915250565b60008160c001516001600160a01b031663468721a7306000634b251fe360e01b866040516024016113fa91906126a6565b60408051601f198184030181529181526020820180516001600160e01b03166001600160e01b03199485161790525160e086901b9092168252611444939291600190600401612761565b6020604051808303816000875af1158015611463573d6000803e3d6000fd5b505050506040513d601f19601f82011682018060405250810190611487919061209d565b9050806114a757604051630fde4bcf60e31b815260040160405180910390fd5b5050565b6040805160a0810182526000808252602082018190529181018290526060810182905260808101829052819060005b8781101561179e578888828181106114f4576114f4611c36565b905060200281019061150691906127a2565b611514906020810190611a2f565b600154604051631cf8b73760e11b81526001600160a01b0380841660048301529296509116906339f16e6e90602401602060405180830381865afa158015611560573d6000803e3d6000fd5b505050506040513d601f19601f82011682018060405250810190611584919061209d565b156117965788888281811061159b5761159b611c36565b90506020028101906115ad91906127a2565b6020013592508686848181106115c5576115c5611c36565b905060a002018036038101906115db9190611d8b565b91506115e682611304565b611606576040516335916f2360e11b8152600481018490526024016101dc565b836001600160a01b0316630747c995868460400151856080015186606001518e8e8881811061163757611637611c36565b905060200281019061164991906127a2565b6116579060408101906127b8565b6040518763ffffffff1660e01b8152600401611678969594939291906127fe565b600060405180830381600087803b15801561169257600080fd5b505af19250505080156116a3575060015b611796576116af612845565b806308c379a0036116e957506116c3612861565b806116ce575061174b565b8060405163508b5be960e11b81526004016101dc91906128ea565b634e487b710361174b576116fb6128fd565b90611706575061174b565b6000611711826119d3565b905080604051602001611724919061291d565b60408051601f198184030181529082905263508b5be960e11b82526101dc916004016128ea565b3d808015611775576040519150601f19603f3d011682016040523d82523d6000602084013e61177a565b606091505b5080604051635871576160e01b81526004016101dc91906128ea565b6001016114da565b505050505050505050565b60208101805160609190806001600160401b038111156117cb576117cb611c4c565b60405190808252806020026020018201604052801561181057816020015b60408051808201909152600080825260208201528152602001906001900390816117e95790505b50925060005b8181101561186d576040818102840160208181015191830151835180850190945282845290830181905286519192909187908590811061185857611858611c36565b60209081029190910101525050600101611816565b505050919050565b604080518381526001600160a01b03831660208201527f93ec3857013e8ed6a6948c31a37c12a335c730d3f5894c07c4474b4fe755c487910160405180910390a15050565b60007f00000000000000000000000000000000000000000000000000000000000000008260000151836020015184604001518560600151866080015160405160200161190b96959493929190612962565b604051602081830303815290604052805190602001209050919050565b805160208083015160408085015180519084012081517f0000000000000000000000000000000000000000000000000000000000000000948101949094526001600160a01b03909416908301526060820152608081019190915260009060a00161190b565b6000805b8260028111156119a3576119a3611da7565b1492915050565b60006001611991565b6000805b825160028111156119a3576119a3611da7565b600060016119b7565b60606080604051019050602081016040526000815280600019835b928101926030600a8206018453600a9004806119ee575050819003601f19909101908152919050565b6001600160a01b0381168114611a2c57600080fd5b50565b600060208284031215611a4157600080fd5b813561138081611a17565b600060208284031215611a5e57600080fd5b81356001600160401b03811115611a7457600080fd5b8201610120818503121561138057600080fd5b602080825282518282018190526000919060409081850190868401855b82811015611add57815180516001600160d81b03191685528601516001600160e01b031916868501529284019290850190600101611aa4565b5091979650505050505050565b6020808252825182820181905260009190848201906040850190845b81811015611b2c5783516001600160d81b03191683529284019291840191600101611b06565b50909695505050505050565b60008060208385031215611b4b57600080fd5b82356001600160401b0380821115611b6257600080fd5b818501915085601f830112611b7657600080fd5b813581811115611b8557600080fd5b8660208260051b8501011115611b9a57600080fd5b60209290920196919550909350505050565b8015158114611a2c57600080fd5b600060208284031215611bcc57600080fd5b813561138081611bac565b8035611be281611a17565b919050565b6000808335601e19843603018112611bfe57600080fd5b8301803591506001600160401b03821115611c1857600080fd5b602001915060a081023603821315611c2f57600080fd5b9250929050565b634e487b7160e01b600052603260045260246000fd5b634e487b7160e01b600052604160045260246000fd5b606081018181106001600160401b0382111715611c8157611c81611c4c565b60405250565b601f8201601f191681016001600160401b0381118282101715611cac57611cac611c4c565b6040525050565b60405161012081016001600160401b0381118282101715611cd657611cd6611c4c565b60405290565b60038110611a2c57600080fd5b8035611be281611cdc565b803560028110611be257600080fd5b600060a08284031215611d1557600080fd5b60405160a081018181106001600160401b0382111715611d3757611d37611c4c565b6040529050808235611d4881611cdc565b8152611d5660208401611cf4565b60208201526040830135611d6981611a17565b8060408301525060608301356060820152608083013560808201525092915050565b600060a08284031215611d9d57600080fd5b6113808383611d03565b634e487b7160e01b600052602160045260246000fd5b6000823561011e19833603018112611dd457600080fd5b9190910192915050565b60006001600160401b03821115611df757611df7611c4c565b5060051b60200190565b600082601f830112611e1257600080fd5b81356020611e1f82611dde565b604051611e2c8282611c87565b838152602060a09485028701810194908201925087851115611e4d57600080fd5b602087015b85811015611e7157611e648982611d03565b8452928401928101611e52565b5090979650505050505050565b600082601f830112611e8f57600080fd5b81356020611e9c82611dde565b60408051611eaa8382611c87565b84815260059490941b8601830193838101925087851115611eca57600080fd5b8387015b85811015611fc05780356001600160401b0380821115611eee5760008081fd5b908901906060601f19838d038101821315611f095760008081fd5b8651611f1481611c62565b89850135611f2181611a17565b8152848801358a820152918401359183831115611f3e5760008081fd5b82850194508d603f860112611f5557600092508283fd5b89850135925083831115611f6b57611f6b611c4c565b87519350611f808a83601f8601160185611c87565b8284528d88848701011115611f9757600091508182fd5b828886018b86013760009284018a01929092525080860191909152855250928401928401611ece565b50979650505050505050565b60006101208236031215611fdf57600080fd5b611fe7611cb3565b8235815260208301356001600160401b038082111561200557600080fd5b61201136838701611e01565b6020840152604085013591508082111561202a57600080fd5b5061203736828601611e7e565b60408301525061204960608401611ce9565b606082015261205a60808401611bd7565b608082015261206b60a08401611bd7565b60a082015261207c60c08401611bd7565b60c082015260e0838101359082015261010092830135928101929092525090565b6000602082840312156120af57600080fd5b815161138081611bac565b6000602082840312156120cc57600080fd5b813561138081611cdc565b6000808335601e198436030181126120ee57600080fd5b83016020810192503590506001600160401b0381111561210d57600080fd5b60a081023603821315611c2f57600080fd5b60038110611a2c57611a2c611da7565b60028110611a2c57611a2c611da7565b8183526000602080850194508260005b858110156121c757813561216281611cdc565b61216b8161211f565b8752612178828401611cf4565b6121818161212f565b8784015260408281013561219481611a17565b6001600160a01b031690880152606082810135908801526080808301359088015260a0968701969091019060010161214f565b509495945050505050565b6000808335601e198436030181126121e957600080fd5b83016020810192503590506001600160401b0381111561220857600080fd5b8060051b3603821315611c2f57600080fd5b81835281816020850137506000828201602090810191909152601f909101601f19169091010190565b60008383855260208086019550808560051b8301018460005b87811015611e7157848303601f19018952813536889003605e1901811261228257600080fd5b87016060813561229181611a17565b6001600160a01b03168552818601358686015260408083013536849003601e190181126122bd57600080fd5b9092018681019290356001600160401b038111156122da57600080fd5b8036038413156122e957600080fd5b82828801526122fb838801828661221a565b9c88019c9650505092850192505060010161225c565b61231a8161211f565b9052565b6020815281356020820152600061233860208401846120d7565b6101208060408601526123506101408601838561213f565b925061235f60408701876121d2565b868503601f190160608801529250612378848483612243565b93505061238760608701611ce9565b91506123966080860183612311565b6123a260808701611bd7565b6001600160a01b03811660a087015291506123bf60a08701611bd7565b6001600160a01b03811660c087015291506123dc60c08701611bd7565b6001600160a01b03811660e08701529150610100915060e086013582860152818601358186015250508091505092915050565b6000808335601e1984360301811261242657600080fd5b8301803591506001600160401b0382111561244057600080fd5b6020019150600581901b3603821315611c2f57600080fd5b6000604080830185845260206040602086015281865180845260608701915060208801935060005b818110156124a557845180518452840151848401529383019391850191600101612480565b509098975050505050505050565b6000602082840312156124c557600080fd5b815161138081611a17565b815160009082906020808601845b838110156124fa578151855293820193908201906001016124de565b50929695505050505050565b6000610140820190508b82528a602083015289604083015288606083015261252d8861211f565b60808201979097526001600160a01b0395861660a082015293851660c08501529190931660e08301526101008201929092526101200152949350505050565b60008151808452602080850194506020840160005b838110156121c757815180516125968161211f565b8852808401516125a58161212f565b888501526040818101516001600160a01b031690890152606080820151908901526080908101519088015260a09096019590820190600101612581565b60005b838110156125fd5781810151838201526020016125e5565b50506000910152565b6000815180845261261e8160208601602086016125e2565b601f01601f19169290920160200192915050565b600082825180855260208086019550808260051b84010181860160005b84811015611e7157858303601f19018952815180516001600160a01b03168452848101518585015260409081015160609185018290529061269281860183612606565b9a86019a945050509083019060010161264f565b6020815281516020820152600060208301516101208060408501526126cf61014085018361256c565b91506040850151601f198584030160608601526126ec8382612632565b92505060608501516127016080860182612311565b5060808501516001600160a01b03811660a08601525060a08501516001600160a01b03811660c08601525060c08501516001600160a01b03811660e08601525060e085015161010085810191909152909401519390920192909252919050565b60018060a01b03851681528360208201526080604082015260006127886080830185612606565b90506127938361212f565b82606083015295945050505050565b60008235605e19833603018112611dd457600080fd5b6000808335601e198436030181126127cf57600080fd5b8301803591506001600160401b038211156127e957600080fd5b602001915036819003821315611c2f57600080fd5b6001600160a01b03878116825286166020820152604081018590526060810184905260a060808201819052600090612839908301848661221a565b98975050505050505050565b600060033d111561285e5760046000803e5060005160e01c5b90565b600060443d101561286f5790565b6040516003193d81016004833e81513d6001600160401b03816024840111818411171561289e57505050505090565b82850191508151818111156128b65750505050505090565b843d87010160208285010111156128d05750505050505090565b6128df60208286010187611c87565b509095945050505050565b6020815260006113806020830184612606565b60008060233d1115612919576020600460003e50506000516001905b9091565b7f486f6f6b2072657665727465643a2050616e696320636f64652000000000000081526000825161295581601a8501602087016125e2565b91909101601a0192915050565b86815260c081016129728761211f565b8660208301526129818661212f565b60408201959095526001600160a01b03939093166060840152608083019190915260a0909101529291505056fea2646970667358221220f58f1ca8ccb4e36e043460698acf951e5725fdfe0947b18696fb3a1f95127db564736f6c63430008160033","linkReferences":{}},"methodIdentifiers":{"ESCRW()":"8dba9561","STORE()":"507f1465","changeKernel(address)":"4657b36c","configureDependencies()":"9459b875","isActive()":"22f3e2d4","kernel()":"d4aae0c4","reclaimRentalOrder((bytes32,(uint8,uint8,address,uint256,uint256)[],(address,uint256,bytes)[],uint8,address,address,address,uint256,uint256))":"4b251fe3","requestPermissions()":"5924be70","setActiveStatus(bool)":"ec7404b1","stopRent((bytes32,(uint8,uint8,address,uint256,uint256)[],(address,uint256,bytes)[],uint8,address,address,address,uint256,uint256))":"f1c9e188","stopRentBatch((bytes32,(uint8,uint8,address,uint256,uint256)[],(address,uint256,bytes)[],uint8,address,address,address,uint256,uint256)[])":"ca540d2f"},"id":204}