{"abi":[{"type":"function","name":"proxiableUUID","inputs":[],"outputs":[{"name":"","type":"bytes32","internalType":"bytes32"}],"stateMutability":"pure"}],"bytecode":{"object":"0x6080604052348015600f57600080fd5b5060968061001e6000396000f3fe6080604052348015600f57600080fd5b506004361060285760003560e01c806352d1902d14602d575b600080fd5b7fd7fb6cdceefa0a6bb0b91b86f7ff6d375469d9082e12d9851a1d8d6e0d794a2160405190815260200160405180910390f3fea26469706673582212204965f115733ae1f4be104ddbfb6fdc618af675d8c79f381d6635b9f3ef0e9a4964736f6c63430008160033","linkReferences":{}},"methodIdentifiers":{"proxiableUUID()":"52d1902d"},"id":255}