{"abi":[{"type":"constructor","inputs":[{"name":"_newPolicy","type":"address","internalType":"address"}],"stateMutability":"nonpayable"},{"type":"function","name":"newPolicy","inputs":[],"outputs":[{"name":"","type":"address","internalType":"address"}],"stateMutability":"view"},{"type":"function","name":"upgrade","inputs":[],"outputs":[],"stateMutability":"nonpayable"},{"type":"event","name":"UpgradedPolicy","inputs":[{"name":"rentalSafe","type":"address","indexed":false,"internalType":"address"},{"name":"newPolicy","type":"address","indexed":false,"internalType":"address"}],"anonymous":false}],"bytecode":{"object":"0x60c060405234801561001057600080fd5b506040516102d33803806102d383398101604081905261002f91610044565b306080526001600160a01b031660a052610074565b60006020828403121561005657600080fd5b81516001600160a01b038116811461006d57600080fd5b9392505050565b60805160a05161022e6100a56000396000818160400152818161013201526101a3015260006092015261022e6000f3fe608060405234801561001057600080fd5b50600436106100365760003560e01c80633bf90c281461003b578063d55ec6971461007e575b600080fd5b6100627f000000000000000000000000000000000000000000000000000000000000000081565b6040516001600160a01b03909116815260200160405180910390f35b610086610088565b005b6001600160a01b037f000000000000000000000000000000000000000000000000000000000000000016300361011b5760405162461bcd60e51b815260206004820152602e60248201527f557067726164652073686f756c64206f6e6c792062652063616c6c656420766960448201526d184819195b1959d85d1958d85b1b60921b606482015260840160405180910390fd5b60405163f08a032360e01b81526001600160a01b037f0000000000000000000000000000000000000000000000000000000000000000166004820152309063f08a032390602401600060405180830381600087803b15801561017c57600080fd5b505af1158015610190573d6000803e3d6000fd5b5050604080513081526001600160a01b037f00000000000000000000000000000000000000000000000000000000000000001660208201527f26fc247aee7b985aaf7fe1e35c38aa21cce58f1d1bb493251d8f121c2558d070935001905060405180910390a156fea26469706673582212209a2a63bad6b1d168357adb73635334e68932168ed2e61af972e0e47ac4822db064736f6c63430008160033","linkReferences":{}},"methodIdentifiers":{"newPolicy()":"3bf90c28","upgrade()":"d55ec697"},"id":171}