{"abi":[{"type":"constructor","inputs":[{"name":"kernel_","type":"address","internalType":"contract Kernel"}],"stateMutability":"nonpayable"},{"type":"function","name":"STORE","inputs":[],"outputs":[{"name":"","type":"address","internalType":"contract Storage"}],"stateMutability":"view"},{"type":"function","name":"changeKernel","inputs":[{"name":"newKernel_","type":"address","internalType":"contract Kernel"}],"outputs":[],"stateMutability":"nonpayable"},{"type":"function","name":"configureDependencies","inputs":[],"outputs":[{"name":"dependencies","type":"bytes5[]","internalType":"Keycode[]"}],"stateMutability":"nonpayable"},{"type":"function","name":"getMessageHashForSafe","inputs":[{"name":"safe","type":"address","internalType":"contract Safe"},{"name":"message","type":"bytes","internalType":"bytes"}],"outputs":[{"name":"messageHash","type":"bytes32","internalType":"bytes32"}],"stateMutability":"view"},{"type":"function","name":"isActive","inputs":[],"outputs":[{"name":"","type":"bool","internalType":"bool"}],"stateMutability":"view"},{"type":"function","name":"isValidSignature","inputs":[{"name":"dataHash","type":"bytes32","internalType":"bytes32"},{"name":"signature","type":"bytes","internalType":"bytes"}],"outputs":[{"name":"","type":"bytes4","internalType":"bytes4"}],"stateMutability":"view"},{"type":"function","name":"isValidSignature","inputs":[{"name":"data","type":"bytes","internalType":"bytes"},{"name":"signature","type":"bytes","internalType":"bytes"}],"outputs":[{"name":"","type":"bytes4","internalType":"bytes4"}],"stateMutability":"view"},{"type":"function","name":"kernel","inputs":[],"outputs":[{"name":"","type":"address","internalType":"contract Kernel"}],"stateMutability":"view"},{"type":"function","name":"onERC1155BatchReceived","inputs":[{"name":"","type":"address","internalType":"address"},{"name":"","type":"address","internalType":"address"},{"name":"","type":"uint256[]","internalType":"uint256[]"},{"name":"","type":"uint256[]","internalType":"uint256[]"},{"name":"","type":"bytes","internalType":"bytes"}],"outputs":[{"name":"","type":"bytes4","internalType":"bytes4"}],"stateMutability":"pure"},{"type":"function","name":"onERC1155Received","inputs":[{"name":"","type":"address","internalType":"address"},{"name":"","type":"address","internalType":"address"},{"name":"","type":"uint256","internalType":"uint256"},{"name":"","type":"uint256","internalType":"uint256"},{"name":"","type":"bytes","internalType":"bytes"}],"outputs":[{"name":"","type":"bytes4","internalType":"bytes4"}],"stateMutability":"pure"},{"type":"function","name":"onERC721Received","inputs":[{"name":"","type":"address","internalType":"address"},{"name":"","type":"address","internalType":"address"},{"name":"","type":"uint256","internalType":"uint256"},{"name":"","type":"bytes","internalType":"bytes"}],"outputs":[{"name":"","type":"bytes4","internalType":"bytes4"}],"stateMutability":"pure"},{"type":"function","name":"requestPermissions","inputs":[],"outputs":[{"name":"requests","type":"tuple[]","internalType":"struct Permissions[]","components":[{"name":"keycode","type":"bytes5","internalType":"Keycode"},{"name":"funcSelector","type":"bytes4","internalType":"bytes4"}]}],"stateMutability":"view"},{"type":"function","name":"setActiveStatus","inputs":[{"name":"activate_","type":"bool","internalType":"bool"}],"outputs":[],"stateMutability":"nonpayable"},{"type":"function","name":"supportsInterface","inputs":[{"name":"interfaceId","type":"bytes4","internalType":"bytes4"}],"outputs":[{"name":"","type":"bool","internalType":"bool"}],"stateMutability":"view"},{"type":"function","name":"tokensReceived","inputs":[{"name":"","type":"address","internalType":"address"},{"name":"","type":"address","internalType":"address"},{"name":"","type":"address","internalType":"address"},{"name":"","type":"uint256","internalType":"uint256"},{"name":"","type":"bytes","internalType":"bytes"},{"name":"","type":"bytes","internalType":"bytes"}],"outputs":[],"stateMutability":"nonpayable"},{"type":"function","name":"upgradeSuccess","inputs":[],"outputs":[{"name":"","type":"bool","internalType":"bool"}],"stateMutability":"pure"},{"type":"error","name":"FallbackPolicy_Deactivated","inputs":[]},{"type":"error","name":"FallbackPolicy_HashNotSigned","inputs":[{"name":"messageHash","type":"bytes32","internalType":"bytes32"}]},{"type":"error","name":"FallbackPolicy_UnauthorizedSender","inputs":[{"name":"sender","type":"address","internalType":"address"}]},{"type":"error","name":"KernelAdapter_OnlyKernel","inputs":[{"name":"caller_","type":"address","internalType":"address"}]},{"type":"error","name":"Policy_ModuleDoesNotExist","inputs":[{"name":"keycode_","type":"bytes5","internalType":"Keycode"}]}],"bytecode":{"object":"0x608060405234801561001057600080fd5b5060405161102338038061102383398101604081905261002f91610054565b600080546001600160a01b0319166001600160a01b0392909216919091179055610084565b60006020828403121561006657600080fd5b81516001600160a01b038116811461007d57600080fd5b9392505050565b610f90806100936000396000f3fe608060405234801561001057600080fd5b50600436106100ff5760003560e01c80635924be7011610097578063bc197c8111610066578063bc197c8114610248578063d4aae0c41461026a578063ec7404b11461027d578063f23a6e611461029057600080fd5b80635924be70146101f65780636ac247841461020b5780639459b8751461022c578063945c9e731461024157600080fd5b806320c13b0b116100d357806320c13b0b1461019157806322f3e2d4146101a45780634657b36c146101b8578063507f1465146101cb57600080fd5b806223de291461010457806301ffc9a71461011e578063150b7a02146101465780631626ba7e1461017e575b600080fd5b61011c610112366004610930565b5050505050505050565b005b61013161012c3660046109e1565b6102b0565b60405190151581526020015b60405180910390f35b610165610154366004610a12565b630a85bd0160e11b95945050505050565b6040516001600160e01b0319909116815260200161013d565b61016561018c366004610a85565b610302565b61016561019f366004610b74565b610392565b60005461013190600160a01b900460ff1681565b61011c6101c6366004610bd8565b61057f565b6001546101de906001600160a01b031681565b6040516001600160a01b03909116815260200161013d565b6101fe6105ce565b60405161013d9190610bf5565b61021e610219366004610c58565b610601565b60405190815260200161013d565b610234610719565b60405161013d9190610c9e565b6001610131565b610165610256366004610d31565b63bc197c8160e01b98975050505050505050565b6000546101de906001600160a01b031681565b61011c61028b366004610ddd565b6107d8565b61016561029e366004610dfa565b63f23a6e6160e01b9695505050505050565b60006001600160e01b03198216630a85bd0160e11b14806102e157506001600160e01b03198216630271189760e51b145b806102fc57506001600160e01b031982166301ffc9a760e01b145b92915050565b60008061035f8560405160200161031b91815260200190565b60408051601f198184030181526020601f88018190048102840181019092528683529190879087908190840183828082843760009201919091525061039292505050565b90506001600160e01b031981166320c13b0b60e01b14610380576000610389565b630b135d3f60e11b5b95945050505050565b60008054600160a01b900460ff166103bd5760405163081ea1f960e41b815260040160405180910390fd5b600036601319013560601c6001546040516308d43bf760e21b81526001600160a01b038084166004830152929350911690632350efdc90602401602060405180830381865afa158015610414573d6000803e3d6000fd5b505050506040513d601f19601f820116820180604052508101906104389190610e76565b15610466576040516333d86ec760e11b81526001600160a01b03821660048201526024015b60405180910390fd5b3360006104738287610601565b9050845160001480156104ec5750604051635ae6bd3760e01b8152600481018290526001600160a01b03831690635ae6bd3790602401602060405180830381865afa1580156104c6573d6000803e3d6000fd5b505050506040513d601f19601f820116820180604052508101906104ea9190610e93565b155b1561050d57604051631256025d60e11b81526004810182905260240161045d565b60405163934f3a1160e01b81526001600160a01b0383169063934f3a119061053d9084908a908a90600401610ef2565b60006040518083038186803b15801561055557600080fd5b505afa158015610569573d6000803e3d6000fd5b506320c13b0b60e01b9998505050505050505050565b6000546001600160a01b031633146105ac5760405163053e900f60e21b815233600482015260240161045d565b600080546001600160a01b0319166001600160a01b0392909216919091179055565b6000546060906001600160a01b031633146105fe5760405163053e900f60e21b815233600482015260240161045d565b90565b6000807f60b3cbf8b4a223d68d641b3b6ddf9a298e7f33710cf3d3a9d1146b5a6150fbca60001b838051906020012060405160200161064a929190918252602082015260400190565b604051602081830303815290604052805190602001209050601960f81b600160f81b856001600160a01b031663f698da256040518163ffffffff1660e01b8152600401602060405180830381865afa1580156106aa573d6000803e3d6000fd5b505050506040513d601f19601f820116820180604052508101906106ce9190610e93565b6040516001600160f81b031993841660208201529290911660218301526022820152604281018290526062016040516020818303038152906040528051906020012091505092915050565b6000546060906001600160a01b031633146107495760405163053e900f60e21b815233600482015260240161045d565b60408051600180825281830190925290602080830190803683370190505090506453544f524560d81b8160008151811061078557610785610f27565b6001600160d81b0319909216602092830291909101909101526107b56107b06453544f524560d81b90565b610823565b600180546001600160a01b0319166001600160a01b039290921691909117905590565b6000546001600160a01b031633146108055760405163053e900f60e21b815233600482015260240161045d565b60008054911515600160a01b0260ff60a01b19909216919091179055565b60008054604051632d37002d60e21b81526001600160d81b03198416600482015282916001600160a01b03169063b4dc00b490602401602060405180830381865afa158015610876573d6000803e3d6000fd5b505050506040513d601f19601f8201168201806040525081019061089a9190610f3d565b90506001600160a01b0381166102fc57604051635c3fa9cd60e01b81526001600160d81b03198416600482015260240161045d565b6001600160a01b03811681146108e457600080fd5b50565b60008083601f8401126108f957600080fd5b50813567ffffffffffffffff81111561091157600080fd5b60208301915083602082850101111561092957600080fd5b9250929050565b60008060008060008060008060c0898b03121561094c57600080fd5b8835610957816108cf565b97506020890135610967816108cf565b96506040890135610977816108cf565b955060608901359450608089013567ffffffffffffffff8082111561099b57600080fd5b6109a78c838d016108e7565b909650945060a08b01359150808211156109c057600080fd5b506109cd8b828c016108e7565b999c989b5096995094979396929594505050565b6000602082840312156109f357600080fd5b81356001600160e01b031981168114610a0b57600080fd5b9392505050565b600080600080600060808688031215610a2a57600080fd5b8535610a35816108cf565b94506020860135610a45816108cf565b935060408601359250606086013567ffffffffffffffff811115610a6857600080fd5b610a74888289016108e7565b969995985093965092949392505050565b600080600060408486031215610a9a57600080fd5b83359250602084013567ffffffffffffffff811115610ab857600080fd5b610ac4868287016108e7565b9497909650939450505050565b634e487b7160e01b600052604160045260246000fd5b600082601f830112610af857600080fd5b813567ffffffffffffffff80821115610b1357610b13610ad1565b604051601f8301601f19908116603f01168101908282118183101715610b3b57610b3b610ad1565b81604052838152866020858801011115610b5457600080fd5b836020870160208301376000602085830101528094505050505092915050565b60008060408385031215610b8757600080fd5b823567ffffffffffffffff80821115610b9f57600080fd5b610bab86838701610ae7565b93506020850135915080821115610bc157600080fd5b50610bce85828601610ae7565b9150509250929050565b600060208284031215610bea57600080fd5b8135610a0b816108cf565b602080825282518282018190526000919060409081850190868401855b82811015610c4b57815180516001600160d81b03191685528601516001600160e01b031916868501529284019290850190600101610c12565b5091979650505050505050565b60008060408385031215610c6b57600080fd5b8235610c76816108cf565b9150602083013567ffffffffffffffff811115610c9257600080fd5b610bce85828601610ae7565b6020808252825182820181905260009190848201906040850190845b81811015610ce05783516001600160d81b03191683529284019291840191600101610cba565b50909695505050505050565b60008083601f840112610cfe57600080fd5b50813567ffffffffffffffff811115610d1657600080fd5b6020830191508360208260051b850101111561092957600080fd5b60008060008060008060008060a0898b031215610d4d57600080fd5b8835610d58816108cf565b97506020890135610d68816108cf565b9650604089013567ffffffffffffffff80821115610d8557600080fd5b610d918c838d01610cec565b909850965060608b0135915080821115610daa57600080fd5b610db68c838d01610cec565b909650945060808b01359150808211156109c057600080fd5b80151581146108e457600080fd5b600060208284031215610def57600080fd5b8135610a0b81610dcf565b60008060008060008060a08789031215610e1357600080fd5b8635610e1e816108cf565b95506020870135610e2e816108cf565b94506040870135935060608701359250608087013567ffffffffffffffff811115610e5857600080fd5b610e6489828a016108e7565b979a9699509497509295939492505050565b600060208284031215610e8857600080fd5b8151610a0b81610dcf565b600060208284031215610ea557600080fd5b5051919050565b6000815180845260005b81811015610ed257602081850181015186830182015201610eb6565b506000602082860101526020601f19601f83011685010191505092915050565b838152606060208201526000610f0b6060830185610eac565b8281036040840152610f1d8185610eac565b9695505050505050565b634e487b7160e01b600052603260045260246000fd5b600060208284031215610f4f57600080fd5b8151610a0b816108cf56fea2646970667358221220524bd62fe48573c1cc2c0b6a9117a5ec27d447ef6b25ed085746a2c9c040f92864736f6c63430008160033","linkReferences":{}},"methodIdentifiers":{"STORE()":"507f1465","changeKernel(address)":"4657b36c","configureDependencies()":"9459b875","getMessageHashForSafe(address,bytes)":"6ac24784","isActive()":"22f3e2d4","isValidSignature(bytes,bytes)":"20c13b0b","isValidSignature(bytes32,bytes)":"1626ba7e","kernel()":"d4aae0c4","onERC1155BatchReceived(address,address,uint256[],uint256[],bytes)":"bc197c81","onERC1155Received(address,address,uint256,uint256,bytes)":"f23a6e61","onERC721Received(address,address,uint256,bytes)":"150b7a02","requestPermissions()":"5924be70","setActiveStatus(bool)":"ec7404b1","supportsInterface(bytes4)":"01ffc9a7","tokensReceived(address,address,address,uint256,bytes,bytes)":"0023de29","upgradeSuccess()":"945c9e73"},"id":171}