{"abi":[{"type":"constructor","inputs":[{"name":"_gameToken","type":"address","internalType":"address"}],"stateMutability":"nonpayable"},{"type":"function","name":"changeTeam","inputs":[{"name":"newTeam","type":"uint8","internalType":"enum Team"}],"outputs":[],"stateMutability":"nonpayable"},{"type":"function","name":"gameToken","inputs":[],"outputs":[{"name":"","type":"address","internalType":"address"}],"stateMutability":"view"},{"type":"function","name":"isRetired","inputs":[{"name":"tokenId","type":"uint256","internalType":"uint256"}],"outputs":[{"name":"","type":"bool","internalType":"bool"}],"stateMutability":"view"},{"type":"function","name":"levelOf","inputs":[{"name":"tokenId","type":"uint256","internalType":"uint256"}],"outputs":[{"name":"","type":"uint256","internalType":"uint256"}],"stateMutability":"view"},{"type":"function","name":"retire","inputs":[{"name":"tokenId","type":"uint256","internalType":"uint256"}],"outputs":[],"stateMutability":"nonpayable"},{"type":"function","name":"teamOf","inputs":[{"name":"tokenId","type":"uint256","internalType":"uint256"}],"outputs":[{"name":"","type":"uint8","internalType":"enum Team"}],"stateMutability":"view"},{"type":"function","name":"train","inputs":[{"name":"tokenId","type":"uint256","internalType":"uint256"}],"outputs":[],"stateMutability":"nonpayable"}],"bytecode":{"object":"0x608060405234801561001057600080fd5b5060405161065f38038061065f83398101604081905261002f91610054565b600080546001600160a01b0319166001600160a01b0392909216919091179055610084565b60006020828403121561006657600080fd5b81516001600160a01b038116811461007d57600080fd5b9392505050565b6105cc806100936000396000f3fe608060405234801561001057600080fd5b506004361061007d5760003560e01c80636ee8f16f1161005b5780636ee8f16f146100dd578063c3dfdae6146100f0578063cf6ebee71461011b578063fbc3a0971461014e57600080fd5b8063368004ed146100825780633790cf57146100975780636d5e3032146100aa575b600080fd5b6100956100903660046104c7565b61016e565b005b6100956100a53660046104c7565b6102a4565b6100ca6100b83660046104c7565b60009081526001602052604090205490565b6040519081526020015b60405180910390f35b6100956100eb3660046104e0565b610379565b600054610103906001600160a01b031681565b6040516001600160a01b0390911681526020016100d4565b61013e6101293660046104c7565b60009081526002602052604090205460ff1690565b60405190151581526020016100d4565b61016161015c3660046104c7565b610437565b6040516100d4919061051e565b6000546040516331a9108f60e11b81526004810183905282916001600160a01b031690636352211e90602401602060405180830381865afa1580156101b7573d6000803e3d6000fd5b505050506040513d601f19601f820116820180604052508101906101db9190610546565b6001600160a01b0316336001600160a01b03161461022c5760405162461bcd60e51b81526020600482015260096024820152683737ba1037bbb732b960b91b60448201526064015b60405180910390fd5b600082815260026020526040902054829060ff16156102805760405162461bcd60e51b815260206004820152601060248201526f1d1bdad95b881a5cc81c995d1a5c995960821b6044820152606401610223565b600083815260016020526040812080549161029a8361056f565b9190505550505050565b6000546040516331a9108f60e11b81526004810183905282916001600160a01b031690636352211e90602401602060405180830381865afa1580156102ed573d6000803e3d6000fd5b505050506040513d601f19601f820116820180604052508101906103119190610546565b6001600160a01b0316336001600160a01b03161461035d5760405162461bcd60e51b81526020600482015260096024820152683737ba1037bbb732b960b91b6044820152606401610223565b506000908152600260205260409020805460ff19166001179055565b3360009081526003602081905260409091205460ff169081111561039f5761039f610508565b8160038111156103b1576103b1610508565b036103fe5760405162461bcd60e51b815260206004820152601860248201527f63616e74206368616e676520746f2073616d65207465616d00000000000000006044820152606401610223565b3360009081526003602081905260409091208054839260ff1990911690600190849081111561042f5761042f610508565b021790555050565b600080546040516331a9108f60e11b81526004810184905282916001600160a01b031690636352211e90602401602060405180830381865afa158015610481573d6000803e3d6000fd5b505050506040513d601f19601f820116820180604052508101906104a59190610546565b6001600160a01b031660009081526003602052604090205460ff169392505050565b6000602082840312156104d957600080fd5b5035919050565b6000602082840312156104f257600080fd5b81356004811061050157600080fd5b9392505050565b634e487b7160e01b600052602160045260246000fd5b602081016004831061054057634e487b7160e01b600052602160045260246000fd5b91905290565b60006020828403121561055857600080fd5b81516001600160a01b038116811461050157600080fd5b60006001820161058f57634e487b7160e01b600052601160045260246000fd5b506001019056fea264697066735822122066690341f5e1990e2c16076b12d9bc5c6c392bfd0afbe757cac4ac9ebb309fd564736f6c63430008160033","linkReferences":{}},"methodIdentifiers":{"changeTeam(uint8)":"6ee8f16f","gameToken()":"c3dfdae6","isRetired(uint256)":"cf6ebee7","levelOf(uint256)":"6d5e3032","retire(uint256)":"3790cf57","teamOf(uint256)":"fbc3a097","train(uint256)":"368004ed"},"id":115}