{"abi":[{"type":"constructor","inputs":[],"stateMutability":"payable"},{"type":"function","name":"approve","inputs":[{"name":"to","type":"address","internalType":"address"},{"name":"tokenId","type":"uint256","internalType":"uint256"}],"outputs":[],"stateMutability":"nonpayable"},{"type":"function","name":"balanceOf","inputs":[{"name":"owner","type":"address","internalType":"address"}],"outputs":[{"name":"","type":"uint256","internalType":"uint256"}],"stateMutability":"view"},{"type":"function","name":"burn","inputs":[{"name":"tokenId","type":"uint256","internalType":"uint256"}],"outputs":[],"stateMutability":"nonpayable"},{"type":"function","name":"getApproved","inputs":[{"name":"tokenId","type":"uint256","internalType":"uint256"}],"outputs":[{"name":"","type":"address","internalType":"address"}],"stateMutability":"view"},{"type":"function","name":"isApprovedForAll","inputs":[{"name":"owner","type":"address","internalType":"address"},{"name":"operator","type":"address","internalType":"address"}],"outputs":[{"name":"","type":"bool","internalType":"bool"}],"stateMutability":"view"},{"type":"function","name":"mint","inputs":[{"name":"to","type":"address","internalType":"address"}],"outputs":[],"stateMutability":"nonpayable"},{"type":"function","name":"name","inputs":[],"outputs":[{"name":"","type":"string","internalType":"string"}],"stateMutability":"view"},{"type":"function","name":"ownerOf","inputs":[{"name":"tokenId","type":"uint256","internalType":"uint256"}],"outputs":[{"name":"","type":"address","internalType":"address"}],"stateMutability":"view"},{"type":"function","name":"safeTransferFrom","inputs":[{"name":"","type":"address","internalType":"address"},{"name":"","type":"address","internalType":"address"},{"name":"","type":"uint256","internalType":"uint256"}],"outputs":[],"stateMutability":"pure"},{"type":"function","name":"safeTransferFrom","inputs":[{"name":"from","type":"address","internalType":"address"},{"name":"to","type":"address","internalType":"address"},{"name":"tokenId","type":"uint256","internalType":"uint256"},{"name":"data","type":"bytes","internalType":"bytes"}],"outputs":[],"stateMutability":"nonpayable"},{"type":"function","name":"setApprovalForAll","inputs":[{"name":"operator","type":"address","internalType":"address"},{"name":"approved","type":"bool","internalType":"bool"}],"outputs":[],"stateMutability":"nonpayable"},{"type":"function","name":"supportsInterface","inputs":[{"name":"interfaceId","type":"bytes4","internalType":"bytes4"}],"outputs":[{"name":"","type":"bool","internalType":"bool"}],"stateMutability":"view"},{"type":"function","name":"symbol","inputs":[],"outputs":[{"name":"","type":"string","internalType":"string"}],"stateMutability":"view"},{"type":"function","name":"tokenURI","inputs":[{"name":"tokenId","type":"uint256","internalType":"uint256"}],"outputs":[{"name":"","type":"string","internalType":"string"}],"stateMutability":"view"},{"type":"function","name":"totalSupply","inputs":[],"outputs":[{"name":"","type":"uint256","internalType":"uint256"}],"stateMutability":"view"},{"type":"function","name":"transferFrom","inputs":[{"name":"","type":"address","internalType":"address"},{"name":"","type":"address","internalType":"address"},{"name":"","type":"uint256","internalType":"uint256"}],"outputs":[],"stateMutability":"pure"},{"type":"event","name":"Approval","inputs":[{"name":"owner","type":"address","indexed":true,"internalType":"address"},{"name":"approved","type":"address","indexed":true,"internalType":"address"},{"name":"tokenId","type":"uint256","indexed":true,"internalType":"uint256"}],"anonymous":false},{"type":"event","name":"ApprovalForAll","inputs":[{"name":"owner","type":"address","indexed":true,"internalType":"address"},{"name":"operator","type":"address","indexed":true,"internalType":"address"},{"name":"approved","type":"bool","indexed":false,"internalType":"bool"}],"anonymous":false},{"type":"event","name":"Transfer","inputs":[{"name":"from","type":"address","indexed":true,"internalType":"address"},{"name":"to","type":"address","indexed":true,"internalType":"address"},{"name":"tokenId","type":"uint256","indexed":true,"internalType":"uint256"}],"anonymous":false},{"type":"error","name":"ERC721IncorrectOwner","inputs":[{"name":"sender","type":"address","internalType":"address"},{"name":"tokenId","type":"uint256","internalType":"uint256"},{"name":"owner","type":"address","internalType":"address"}]},{"type":"error","name":"ERC721InsufficientApproval","inputs":[{"name":"operator","type":"address","internalType":"address"},{"name":"tokenId","type":"uint256","internalType":"uint256"}]},{"type":"error","name":"ERC721InvalidApprover","inputs":[{"name":"approver","type":"address","internalType":"address"}]},{"type":"error","name":"ERC721InvalidOperator","inputs":[{"name":"operator","type":"address","internalType":"address"}]},{"type":"error","name":"ERC721InvalidOwner","inputs":[{"name":"owner","type":"address","internalType":"address"}]},{"type":"error","name":"ERC721InvalidReceiver","inputs":[{"name":"receiver","type":"address","internalType":"address"}]},{"type":"error","name":"ERC721InvalidSender","inputs":[{"name":"sender","type":"address","internalType":"address"}]},{"type":"error","name":"ERC721NonexistentToken","inputs":[{"name":"tokenId","type":"uint256","internalType":"uint256"}]}],"bytecode":{"object":"0x601660809081527f4d6f636b416c776179735265766572744552433732310000000000000000000060a052610100604052600b60c09081526a4d5f41525f45524337323160a81b60e052600062000057838262000116565b50600162000066828262000116565b505050620001e2565b634e487b7160e01b600052604160045260246000fd5b600181811c908216806200009a57607f821691505b602082108103620000bb57634e487b7160e01b600052602260045260246000fd5b50919050565b601f82111562000111576000816000526020600020601f850160051c81016020861015620000ec5750805b601f850160051c820191505b818110156200010d57828155600101620000f8565b5050505b505050565b81516001600160401b038111156200013257620001326200006f565b6200014a8162000143845462000085565b84620000c1565b602080601f831160018114620001825760008415620001695750858301515b600019600386901b1c1916600185901b1785556200010d565b600085815260208120601f198616915b82811015620001b35788860151825594840194600190910190840162000192565b5085821015620001d25787850151600019600388901b60f8161c191681555b5050505050600190811b01905550565b61124580620001f26000396000f3fe608060405234801561001057600080fd5b50600436106101005760003560e01c80636352211e11610097578063a22cb46511610066578063a22cb4651461020e578063b88d4fde14610221578063c87b56dd14610234578063e985e9c51461024757600080fd5b80636352211e146101cd5780636a627842146101e057806370a08231146101f357806395d89b411461020657600080fd5b806318160ddd116100d357806318160ddd1461018257806323b872dd1461019457806342842e0e146101a757806342966c68146101ba57600080fd5b806301ffc9a71461010557806306fdde031461012d578063081812fc14610142578063095ea7b31461016d575b600080fd5b610118610113366004610e73565b61025a565b60405190151581526020015b60405180910390f35b6101356102ac565b6040516101249190610ee0565b610155610150366004610ef3565b61033e565b6040516001600160a01b039091168152602001610124565b61018061017b366004610f28565b610365565b005b6006545b604051908152602001610124565b6101806101a2366004610f52565b610403565b6101806101b5366004610f52565b610443565b6101806101c8366004610ef3565b61048b565b6101556101db366004610ef3565b610503565b6101806101ee366004610f8e565b61053c565b610186610201366004610f8e565b610560565b6101356105a8565b61018061021c366004610fa9565b6105b7565b61018061022f366004610ffb565b6105c6565b610135610242366004610ef3565b610608565b6101186102553660046110d7565b61067c565b60006001600160e01b031982166380ac58cd60e01b148061028b57506001600160e01b03198216635b5e139f60e01b145b806102a657506301ffc9a760e01b6001600160e01b03198316145b92915050565b6060600080546102bb9061110a565b80601f01602080910402602001604051908101604052809291908181526020018280546102e79061110a565b80156103345780601f1061030957610100808354040283529160200191610334565b820191906000526020600020905b81548152906001019060200180831161031757829003601f168201915b5050505050905090565b6000610349826106aa565b506000908152600460205260409020546001600160a01b031690565b600061037082610503565b9050806001600160a01b0316836001600160a01b0316036103b457604051630b61174360e31b81526001600160a01b03821660048201526024015b60405180910390fd5b336001600160a01b038216148015906103d457506103d2813361067c565b155b156103f45760405163a9fbf51f60e01b81523360048201526024016103ab565b6103fe83836106e2565b505050565b60405162461bcd60e51b81526020600482015260156024820152741d1c985b9cd9995c919c9bdb4a0a481c995d995c9d605a1b60448201526064016103ab565b60405162461bcd60e51b815260206004820152601960248201527f736166655472616e7366657246726f6d2829207265766572740000000000000060448201526064016103ab565b6104953382610750565b6104f75760405162461bcd60e51b815260206004820152602d60248201527f4552433732313a206275726e2063616c6c6572206973206e6f74206f776e657260448201526c081b9bdc88185c1c1c9bdd9959609a1b60648201526084016103ab565b610500816107af565b50565b6000818152600260205260408120546001600160a01b0316806102a657604051637e27328960e01b8152600481018490526024016103ab565b61054881600654610867565b600680549060006105588361115a565b919050555050565b60006001600160a01b03821661058c576040516322718ad960e21b8152600060048201526024016103ab565b506001600160a01b031660009081526003602052604090205490565b6060600180546102bb9061110a565b6105c233838361096e565b5050565b6105d03383610750565b6105f65760405163177e802f60e01b8152336004820152602481018390526044016103ab565b61060284848484610a18565b50505050565b6060610613826106aa565b600061062a60408051602081019091526000815290565b9050600081511161064a5760405180602001604052806000815250610675565b8061065484610a57565b604051602001610665929190611173565b6040516020818303038152906040525b9392505050565b6001600160a01b03918216600090815260056020908152604080832093909416825291909152205460ff1690565b6000818152600260205260409020546001600160a01b031661050057604051637e27328960e01b8152600481018290526024016103ab565b600081815260046020526040902080546001600160a01b0319166001600160a01b038416908117909155819061071782610503565b6001600160a01b03167f8c5be1e5ebec7d5bd14f71427d1e84f3dd0314c0f7b2291e5b200ac8c7c3b92560405160405180910390a45050565b60008061075c83610503565b9050806001600160a01b0316846001600160a01b031614806107835750610783818561067c565b806107a75750836001600160a01b031661079c8461033e565b6001600160a01b0316145b949350505050565b60006107ba82610503565b90506107c582610503565b600083815260046020908152604080832080546001600160a01b03191690556001600160a01b038416835260039091528120805492935060019290919061080d9084906111a2565b909155505060008281526002602052604080822080546001600160a01b0319169055518391906001600160a01b038416907fddf252ad1be2c89b69c2b068fc378daa952ba7f163c4a11628f55a4df523b3ef908390a45050565b6001600160a01b03821661089157604051633250574960e11b8152600060048201526024016103ab565b6000818152600260205260409020546001600160a01b0316156108ca576040516339e3563760e11b8152600060048201526024016103ab565b6000818152600260205260409020546001600160a01b031615610903576040516339e3563760e11b8152600060048201526024016103ab565b6001600160a01b038216600081815260036020908152604080832080546001019055848352600290915280822080546001600160a01b0319168417905551839291907fddf252ad1be2c89b69c2b068fc378daa952ba7f163c4a11628f55a4df523b3ef908290a45050565b816001600160a01b0316836001600160a01b0316036109ab57604051630b61174360e31b81526001600160a01b03841660048201526024016103ab565b6001600160a01b03838116600081815260056020908152604080832094871680845294825291829020805460ff191686151590811790915591519182527f17307eab39ab6107e8899845ad3d59bd9653f200f220920489ca2b5937696c31910160405180910390a3505050565b610a23848484610aea565b610a2f84848484610c78565b61060257604051633250574960e11b81526001600160a01b03841660048201526024016103ab565b60606000610a6483610d85565b600101905060008167ffffffffffffffff811115610a8457610a84610fe5565b6040519080825280601f01601f191660200182016040528015610aae576020820181803683370190505b5090508181016020015b600019016f181899199a1a9b1b9c1cb0b131b232b360811b600a86061a8153600a8504945084610ab857509392505050565b6000610af582610503565b9050836001600160a01b0316816001600160a01b031614610b43576040516364283d7b60e01b81526001600160a01b03808616600483015260248201849052821660448201526064016103ab565b6001600160a01b038316610b6d57604051633250574960e11b8152600060048201526024016103ab565b610b7682610503565b9050836001600160a01b0316816001600160a01b031614610bc4576040516364283d7b60e01b81526001600160a01b03808616600483015260248201849052821660448201526064016103ab565b600082815260046020908152604080832080546001600160a01b03191690556001600160a01b038716835260039091528120805460019290610c079084906111a2565b90915550506001600160a01b03808416600081815260036020908152604080832080546001019055868352600290915280822080546001600160a01b031916841790555185938816917fddf252ad1be2c89b69c2b068fc378daa952ba7f163c4a11628f55a4df523b3ef91a4610602565b60006001600160a01b0384163b15610d7a57604051630a85bd0160e11b81526001600160a01b0385169063150b7a0290610cbc9033908990889088906004016111b5565b6020604051808303816000875af1925050508015610cf7575060408051601f3d908101601f19168201909252610cf4918101906111f2565b60015b610d60573d808015610d25576040519150601f19603f3d011682016040523d82523d6000602084013e610d2a565b606091505b508051600003610d5857604051633250574960e11b81526001600160a01b03861660048201526024016103ab565b805181602001fd5b6001600160e01b031916630a85bd0160e11b1490506107a7565b506001949350505050565b60008072184f03e93ff9f4daa797ed6e38ed64bf6a1f0160401b8310610dc45772184f03e93ff9f4daa797ed6e38ed64bf6a1f0160401b830492506040015b6d04ee2d6d415b85acef81000000008310610df0576d04ee2d6d415b85acef8100000000830492506020015b662386f26fc100008310610e0e57662386f26fc10000830492506010015b6305f5e1008310610e26576305f5e100830492506008015b6127108310610e3a57612710830492506004015b60648310610e4c576064830492506002015b600a83106102a65760010192915050565b6001600160e01b03198116811461050057600080fd5b600060208284031215610e8557600080fd5b813561067581610e5d565b60005b83811015610eab578181015183820152602001610e93565b50506000910152565b60008151808452610ecc816020860160208601610e90565b601f01601f19169290920160200192915050565b6020815260006106756020830184610eb4565b600060208284031215610f0557600080fd5b5035919050565b80356001600160a01b0381168114610f2357600080fd5b919050565b60008060408385031215610f3b57600080fd5b610f4483610f0c565b946020939093013593505050565b600080600060608486031215610f6757600080fd5b610f7084610f0c565b9250610f7e60208501610f0c565b9150604084013590509250925092565b600060208284031215610fa057600080fd5b61067582610f0c565b60008060408385031215610fbc57600080fd5b610fc583610f0c565b915060208301358015158114610fda57600080fd5b809150509250929050565b634e487b7160e01b600052604160045260246000fd5b6000806000806080858703121561101157600080fd5b61101a85610f0c565b935061102860208601610f0c565b925060408501359150606085013567ffffffffffffffff8082111561104c57600080fd5b818701915087601f83011261106057600080fd5b81358181111561107257611072610fe5565b604051601f8201601f19908116603f0116810190838211818310171561109a5761109a610fe5565b816040528281528a60208487010111156110b357600080fd5b82602086016020830137600060208483010152809550505050505092959194509250565b600080604083850312156110ea57600080fd5b6110f383610f0c565b915061110160208401610f0c565b90509250929050565b600181811c9082168061111e57607f821691505b60208210810361113e57634e487b7160e01b600052602260045260246000fd5b50919050565b634e487b7160e01b600052601160045260246000fd5b60006001820161116c5761116c611144565b5060010190565b60008351611185818460208801610e90565b835190830190611199818360208801610e90565b01949350505050565b818103818111156102a6576102a6611144565b6001600160a01b03858116825284166020820152604081018390526080606082018190526000906111e890830184610eb4565b9695505050505050565b60006020828403121561120457600080fd5b815161067581610e5d56fea2646970667358221220bea5d3a5c70fedf7c29cad787c84b7469ef6a0b6b5a7278c3d314353ace1295264736f6c63430008160033","linkReferences":{}},"methodIdentifiers":{"approve(address,uint256)":"095ea7b3","balanceOf(address)":"70a08231","burn(uint256)":"42966c68","getApproved(uint256)":"081812fc","isApprovedForAll(address,address)":"e985e9c5","mint(address)":"6a627842","name()":"06fdde03","ownerOf(uint256)":"6352211e","safeTransferFrom(address,address,uint256)":"42842e0e","safeTransferFrom(address,address,uint256,bytes)":"b88d4fde","setApprovalForAll(address,bool)":"a22cb465","supportsInterface(bytes4)":"01ffc9a7","symbol()":"95d89b41","tokenURI(uint256)":"c87b56dd","totalSupply()":"18160ddd","transferFrom(address,address,uint256)":"23b872dd"},"id":260}