{"abi":[{"type":"function","name":"deploy","inputs":[{"name":"salt","type":"bytes32","internalType":"bytes32"},{"name":"initCode","type":"bytes","internalType":"bytes"}],"outputs":[{"name":"deploymentAddress","type":"address","internalType":"address"}],"stateMutability":"payable"},{"type":"function","name":"deployed","inputs":[{"name":"","type":"address","internalType":"address"}],"outputs":[{"name":"","type":"bool","internalType":"bool"}],"stateMutability":"view"},{"type":"function","name":"generateSaltWithSender","inputs":[{"name":"sender","type":"address","internalType":"address"},{"name":"data","type":"bytes12","internalType":"bytes12"}],"outputs":[{"name":"salt","type":"bytes32","internalType":"bytes32"}],"stateMutability":"pure"},{"type":"function","name":"getCreate2Address","inputs":[{"name":"salt","type":"bytes32","internalType":"bytes32"},{"name":"initCode","type":"bytes","internalType":"bytes"}],"outputs":[{"name":"","type":"address","internalType":"address"}],"stateMutability":"view"},{"type":"error","name":"Create2Deployer_AlreadyDeployed","inputs":[{"name":"deployed","type":"address","internalType":"address"},{"name":"salt","type":"bytes32","internalType":"bytes32"}]},{"type":"error","name":"Create2Deployer_MismatchedDeploymentAddress","inputs":[{"name":"expected","type":"address","internalType":"address"},{"name":"actual","type":"address","internalType":"address"}]},{"type":"error","name":"Create2Deployer_UnauthorizedSender","inputs":[{"name":"sender","type":"address","internalType":"address"},{"name":"salt","type":"bytes32","internalType":"bytes32"}]}],"bytecode":{"object":"0x608060405234801561001057600080fd5b506103f8806100206000396000f3fe60806040526004361061003f5760003560e01c80630e5ee1c81461004457806385bb39231461007f5780639f9dc2f4146100bf578063cdcb760a146100f7575b600080fd5b34801561005057600080fd5b5061006c61005f36600461028b565b60a01c60609190911b1790565b6040519081526020015b60405180910390f35b34801561008b57600080fd5b506100af61009a3660046102cf565b60006020819052908152604090205460ff1681565b6040519015158152602001610076565b3480156100cb57600080fd5b506100df6100da366004610307565b61010a565b6040516001600160a01b039091168152602001610076565b6100df610105366004610307565b610166565b8051602091820120604080516001600160f81b0319818501523060601b6bffffffffffffffffffffffff191660218201526035810194909452605580850192909252805180850390920182526075909301909252815191012090565b6000606083901c331461019a57604051635e0b304d60e01b8152336004820152602481018490526044015b60405180910390fd5b60006101a6848461010a565b6001600160a01b03811660009081526020819052604090205490915060ff16156101f557604051633184d13d60e21b81526001600160a01b038216600482015260248101859052604401610191565b6001600160a01b038116600090815260208181526040909120805460ff1916600117905583518591850134f59150806001600160a01b0316826001600160a01b0316146102685760405163a3d95bc160e01b81526001600160a01b03808316600483015283166024820152604401610191565b5092915050565b80356001600160a01b038116811461028657600080fd5b919050565b6000806040838503121561029e57600080fd5b6102a78361026f565b915060208301356001600160a01b0319811681146102c457600080fd5b809150509250929050565b6000602082840312156102e157600080fd5b6102ea8261026f565b9392505050565b634e487b7160e01b600052604160045260246000fd5b6000806040838503121561031a57600080fd5b82359150602083013567ffffffffffffffff8082111561033957600080fd5b818501915085601f83011261034d57600080fd5b81358181111561035f5761035f6102f1565b604051601f8201601f19908116603f01168101908382118183101715610387576103876102f1565b816040528281528860208487010111156103a057600080fd5b826020860160208301376000602084830101528095505050505050925092905056fea26469706673582212201232f720bc0ef2dc4446e087b2ea9b715a0e9ffa4afd25cc0b0293914f36f58464736f6c63430008160033","linkReferences":{}},"methodIdentifiers":{"deploy(bytes32,bytes)":"cdcb760a","deployed(address)":"85bb3923","generateSaltWithSender(address,bytes12)":"0e5ee1c8","getCreate2Address(bytes32,bytes)":"9f9dc2f4"},"id":111}