{"abi":[{"type":"constructor","inputs":[{"name":"kernel_","type":"address","internalType":"contract Kernel"}],"stateMutability":"nonpayable"},{"type":"function","name":"ESCRW","inputs":[],"outputs":[{"name":"","type":"address","internalType":"contract PaymentEscrow"}],"stateMutability":"view"},{"type":"function","name":"STORE","inputs":[],"outputs":[{"name":"","type":"address","internalType":"contract Storage"}],"stateMutability":"view"},{"type":"function","name":"changeKernel","inputs":[{"name":"newKernel_","type":"address","internalType":"contract Kernel"}],"outputs":[],"stateMutability":"nonpayable"},{"type":"function","name":"configureDependencies","inputs":[],"outputs":[{"name":"dependencies","type":"bytes5[]","internalType":"Keycode[]"}],"stateMutability":"nonpayable"},{"type":"function","name":"domainSeparator","inputs":[],"outputs":[{"name":"","type":"bytes32","internalType":"bytes32"}],"stateMutability":"view"},{"type":"function","name":"getOrderMetadataHash","inputs":[{"name":"metadata","type":"tuple","internalType":"struct OrderMetadata","components":[{"name":"orderType","type":"uint8","internalType":"enum OrderType"},{"name":"rentDuration","type":"uint256","internalType":"uint256"},{"name":"hooks","type":"tuple[]","internalType":"struct Hook[]","components":[{"name":"target","type":"address","internalType":"address"},{"name":"itemIndex","type":"uint256","internalType":"uint256"},{"name":"extraData","type":"bytes","internalType":"bytes"}]},{"name":"emittedExtraData","type":"bytes","internalType":"bytes"}]}],"outputs":[{"name":"","type":"bytes32","internalType":"bytes32"}],"stateMutability":"view"},{"type":"function","name":"getRentPayloadHash","inputs":[{"name":"payload","type":"tuple","internalType":"struct RentPayload","components":[{"name":"orderHash","type":"bytes32","internalType":"bytes32"},{"name":"fulfillment","type":"tuple","internalType":"struct OrderFulfillment","components":[{"name":"recipient","type":"address","internalType":"address"}]},{"name":"metadata","type":"tuple","internalType":"struct OrderMetadata","components":[{"name":"orderType","type":"uint8","internalType":"enum OrderType"},{"name":"rentDuration","type":"uint256","internalType":"uint256"},{"name":"hooks","type":"tuple[]","internalType":"struct Hook[]","components":[{"name":"target","type":"address","internalType":"address"},{"name":"itemIndex","type":"uint256","internalType":"uint256"},{"name":"extraData","type":"bytes","internalType":"bytes"}]},{"name":"emittedExtraData","type":"bytes","internalType":"bytes"}]},{"name":"expiration","type":"uint256","internalType":"uint256"},{"name":"intendedFulfiller","type":"address","internalType":"address"}]}],"outputs":[{"name":"","type":"bytes32","internalType":"bytes32"}],"stateMutability":"view"},{"type":"function","name":"getRentalOrderHash","inputs":[{"name":"order","type":"tuple","internalType":"struct RentalOrder","components":[{"name":"seaportOrderHash","type":"bytes32","internalType":"bytes32"},{"name":"items","type":"tuple[]","internalType":"struct Item[]","components":[{"name":"itemType","type":"uint8","internalType":"enum ItemType"},{"name":"settleTo","type":"uint8","internalType":"enum SettleTo"},{"name":"token","type":"address","internalType":"address"},{"name":"amount","type":"uint256","internalType":"uint256"},{"name":"identifier","type":"uint256","internalType":"uint256"}]},{"name":"hooks","type":"tuple[]","internalType":"struct Hook[]","components":[{"name":"target","type":"address","internalType":"address"},{"name":"itemIndex","type":"uint256","internalType":"uint256"},{"name":"extraData","type":"bytes","internalType":"bytes"}]},{"name":"orderType","type":"uint8","internalType":"enum OrderType"},{"name":"lender","type":"address","internalType":"address"},{"name":"renter","type":"address","internalType":"address"},{"name":"rentalWallet","type":"address","internalType":"address"},{"name":"startTimestamp","type":"uint256","internalType":"uint256"},{"name":"endTimestamp","type":"uint256","internalType":"uint256"}]}],"outputs":[{"name":"","type":"bytes32","internalType":"bytes32"}],"stateMutability":"view"},{"type":"function","name":"getSeaportMetadata","inputs":[],"outputs":[{"name":"name","type":"string","internalType":"string"},{"name":"schemas","type":"tuple[]","internalType":"struct Schema[]","components":[{"name":"id","type":"uint256","internalType":"uint256"},{"name":"metadata","type":"bytes","internalType":"bytes"}]}],"stateMutability":"pure"},{"type":"function","name":"isActive","inputs":[],"outputs":[{"name":"","type":"bool","internalType":"bool"}],"stateMutability":"view"},{"type":"function","name":"kernel","inputs":[],"outputs":[{"name":"","type":"address","internalType":"contract Kernel"}],"stateMutability":"view"},{"type":"function","name":"onERC1155BatchReceived","inputs":[{"name":"","type":"address","internalType":"address"},{"name":"","type":"address","internalType":"address"},{"name":"","type":"uint256[]","internalType":"uint256[]"},{"name":"","type":"uint256[]","internalType":"uint256[]"},{"name":"","type":"bytes","internalType":"bytes"}],"outputs":[{"name":"","type":"bytes4","internalType":"bytes4"}],"stateMutability":"pure"},{"type":"function","name":"onERC1155Received","inputs":[{"name":"","type":"address","internalType":"address"},{"name":"","type":"address","internalType":"address"},{"name":"","type":"uint256","internalType":"uint256"},{"name":"","type":"uint256","internalType":"uint256"},{"name":"","type":"bytes","internalType":"bytes"}],"outputs":[{"name":"","type":"bytes4","internalType":"bytes4"}],"stateMutability":"pure"},{"type":"function","name":"onERC721Received","inputs":[{"name":"","type":"address","internalType":"address"},{"name":"","type":"address","internalType":"address"},{"name":"","type":"uint256","internalType":"uint256"},{"name":"","type":"bytes","internalType":"bytes"}],"outputs":[{"name":"","type":"bytes4","internalType":"bytes4"}],"stateMutability":"pure"},{"type":"function","name":"requestPermissions","inputs":[],"outputs":[{"name":"requests","type":"tuple[]","internalType":"struct Permissions[]","components":[{"name":"keycode","type":"bytes5","internalType":"Keycode"},{"name":"funcSelector","type":"bytes4","internalType":"bytes4"}]}],"stateMutability":"view"},{"type":"function","name":"setActiveStatus","inputs":[{"name":"activate_","type":"bool","internalType":"bool"}],"outputs":[],"stateMutability":"nonpayable"},{"type":"function","name":"supportsInterface","inputs":[{"name":"interfaceId","type":"bytes4","internalType":"bytes4"}],"outputs":[{"name":"","type":"bool","internalType":"bool"}],"stateMutability":"view"},{"type":"function","name":"tokensReceived","inputs":[{"name":"","type":"address","internalType":"address"},{"name":"","type":"address","internalType":"address"},{"name":"","type":"address","internalType":"address"},{"name":"","type":"uint256","internalType":"uint256"},{"name":"","type":"bytes","internalType":"bytes"},{"name":"","type":"bytes","internalType":"bytes"}],"outputs":[],"stateMutability":"nonpayable"},{"type":"function","name":"validateOrder","inputs":[{"name":"zoneParams","type":"tuple","internalType":"struct ZoneParameters","components":[{"name":"orderHash","type":"bytes32","internalType":"bytes32"},{"name":"fulfiller","type":"address","internalType":"address"},{"name":"offerer","type":"address","internalType":"address"},{"name":"offer","type":"tuple[]","internalType":"struct SpentItem[]","components":[{"name":"itemType","type":"uint8","internalType":"enum ItemType"},{"name":"token","type":"address","internalType":"address"},{"name":"identifier","type":"uint256","internalType":"uint256"},{"name":"amount","type":"uint256","internalType":"uint256"}]},{"name":"consideration","type":"tuple[]","internalType":"struct ReceivedItem[]","components":[{"name":"itemType","type":"uint8","internalType":"enum ItemType"},{"name":"token","type":"address","internalType":"address"},{"name":"identifier","type":"uint256","internalType":"uint256"},{"name":"amount","type":"uint256","internalType":"uint256"},{"name":"recipient","type":"address","internalType":"address payable"}]},{"name":"totalExecutions","type":"tuple[]","internalType":"struct ReceivedItem[]","components":[{"name":"itemType","type":"uint8","internalType":"enum ItemType"},{"name":"token","type":"address","internalType":"address"},{"name":"identifier","type":"uint256","internalType":"uint256"},{"name":"amount","type":"uint256","internalType":"uint256"},{"name":"recipient","type":"address","internalType":"address payable"}]},{"name":"extraData","type":"bytes","internalType":"bytes"},{"name":"orderHashes","type":"bytes32[]","internalType":"bytes32[]"},{"name":"startTime","type":"uint256","internalType":"uint256"},{"name":"endTime","type":"uint256","internalType":"uint256"},{"name":"zoneHash","type":"bytes32","internalType":"bytes32"},{"name":"orderType","type":"uint8","internalType":"enum OrderType"}]}],"outputs":[{"name":"validOrderMagicValue","type":"bytes4","internalType":"bytes4"}],"stateMutability":"nonpayable"},{"type":"event","name":"RentalOrderStarted","inputs":[{"name":"orderHash","type":"bytes32","indexed":false,"internalType":"bytes32"},{"name":"emittedExtraData","type":"bytes","indexed":false,"internalType":"bytes"},{"name":"seaportOrderHash","type":"bytes32","indexed":false,"internalType":"bytes32"},{"name":"items","type":"tuple[]","indexed":false,"internalType":"struct Item[]","components":[{"name":"itemType","type":"uint8","internalType":"enum ItemType"},{"name":"settleTo","type":"uint8","internalType":"enum SettleTo"},{"name":"token","type":"address","internalType":"address"},{"name":"amount","type":"uint256","internalType":"uint256"},{"name":"identifier","type":"uint256","internalType":"uint256"}]},{"name":"hooks","type":"tuple[]","indexed":false,"internalType":"struct Hook[]","components":[{"name":"target","type":"address","internalType":"address"},{"name":"itemIndex","type":"uint256","internalType":"uint256"},{"name":"extraData","type":"bytes","internalType":"bytes"}]},{"name":"orderType","type":"uint8","indexed":false,"internalType":"enum OrderType"},{"name":"lender","type":"address","indexed":true,"internalType":"address"},{"name":"renter","type":"address","indexed":true,"internalType":"address"},{"name":"rentalWallet","type":"address","indexed":false,"internalType":"address"},{"name":"startTimestamp","type":"uint256","indexed":false,"internalType":"uint256"},{"name":"endTimestamp","type":"uint256","indexed":false,"internalType":"uint256"}],"anonymous":false},{"type":"event","name":"SeaportCompatibleContractDeployed","inputs":[],"anonymous":false},{"type":"error","name":"CreatePolicy_AssetNotWhitelisted","inputs":[{"name":"token","type":"address","internalType":"address"}]},{"type":"error","name":"CreatePolicy_ConsiderationCountExceedsMax","inputs":[{"name":"considerationCount","type":"uint256","internalType":"uint256"}]},{"type":"error","name":"CreatePolicy_ConsiderationCountNonZero","inputs":[{"name":"considerationCount","type":"uint256","internalType":"uint256"}]},{"type":"error","name":"CreatePolicy_ConsiderationCountZero","inputs":[]},{"type":"error","name":"CreatePolicy_InvalidOrderMetadataHash","inputs":[]},{"type":"error","name":"CreatePolicy_InvalidPayloadForOrderHash","inputs":[{"name":"payloadOrderHash","type":"bytes32","internalType":"bytes32"},{"name":"seaportOrderHash","type":"bytes32","internalType":"bytes32"}]},{"type":"error","name":"CreatePolicy_InvalidRentalSafe","inputs":[{"name":"safe","type":"address","internalType":"address"}]},{"type":"error","name":"CreatePolicy_InvalidSafeOwner","inputs":[{"name":"unauthorizedOwner","type":"address","internalType":"address"},{"name":"safe","type":"address","internalType":"address"}]},{"type":"error","name":"CreatePolicy_ItemCountZero","inputs":[{"name":"totalRentals","type":"uint256","internalType":"uint256"},{"name":"totalPayments","type":"uint256","internalType":"uint256"}]},{"type":"error","name":"CreatePolicy_OfferCountExceedsMax","inputs":[{"name":"offerCount","type":"uint256","internalType":"uint256"}]},{"type":"error","name":"CreatePolicy_OfferCountNonZero","inputs":[{"name":"offerCount","type":"uint256","internalType":"uint256"}]},{"type":"error","name":"CreatePolicy_OfferCountZero","inputs":[]},{"type":"error","name":"CreatePolicy_OffererCannotBeRecipient","inputs":[]},{"type":"error","name":"CreatePolicy_PaymentNotWhitelisted","inputs":[{"name":"token","type":"address","internalType":"address"}]},{"type":"error","name":"CreatePolicy_RentDurationTooLong","inputs":[{"name":"rentDuration","type":"uint256","internalType":"uint256"}]},{"type":"error","name":"CreatePolicy_RentDurationZero","inputs":[]},{"type":"error","name":"CreatePolicy_SeaportItemTypeNotSupported","inputs":[{"name":"itemType","type":"uint8","internalType":"enum ItemType"}]},{"type":"error","name":"CreatePolicy_SeaportOrderTypeNotSupported","inputs":[{"name":"orderType","type":"uint8","internalType":"enum OrderType"}]},{"type":"error","name":"CreatePolicy_UnauthorizedCreatePolicySigner","inputs":[{"name":"signer","type":"address","internalType":"address"}]},{"type":"error","name":"CreatePolicy_UnexpectedTokenRecipient","inputs":[{"name":"itemType","type":"uint8","internalType":"enum ItemType"},{"name":"token","type":"address","internalType":"address"},{"name":"identifier","type":"uint256","internalType":"uint256"},{"name":"amount","type":"uint256","internalType":"uint256"},{"name":"currentOwner","type":"address","internalType":"address"},{"name":"expectedOwner","type":"address","internalType":"address"}]},{"type":"error","name":"ECDSAInvalidSignature","inputs":[]},{"type":"error","name":"ECDSAInvalidSignatureLength","inputs":[{"name":"length","type":"uint256","internalType":"uint256"}]},{"type":"error","name":"ECDSAInvalidSignatureS","inputs":[{"name":"s","type":"bytes32","internalType":"bytes32"}]},{"type":"error","name":"KernelAdapter_OnlyKernel","inputs":[{"name":"caller_","type":"address","internalType":"address"}]},{"type":"error","name":"Policy_ModuleDoesNotExist","inputs":[{"name":"keycode_","type":"bytes5","internalType":"Keycode"}]},{"type":"error","name":"Policy_OnlyRole","inputs":[{"name":"role_","type":"bytes32","internalType":"Role"}]},{"type":"error","name":"Shared_ERC20TransferFailed","inputs":[{"name":"token","type":"address","internalType":"address"},{"name":"from","type":"address","internalType":"address"},{"name":"to","type":"address","internalType":"address"},{"name":"value","type":"uint256","internalType":"uint256"}]},{"type":"error","name":"Shared_HookFailBytes","inputs":[{"name":"revertData","type":"bytes","internalType":"bytes"}]},{"type":"error","name":"Shared_HookFailString","inputs":[{"name":"revertReason","type":"string","internalType":"string"}]},{"type":"error","name":"Shared_NonRentalHookItem","inputs":[{"name":"itemIndex","type":"uint256","internalType":"uint256"}]},{"type":"error","name":"Shared_OrderTypeNotSupported","inputs":[{"name":"orderType","type":"uint8","internalType":"uint8"}]},{"type":"error","name":"SignerPackage_SignatureExpired","inputs":[{"name":"currentTimestamp","type":"uint256","internalType":"uint256"},{"name":"expiredAt","type":"uint256","internalType":"uint256"}]},{"type":"error","name":"SignerPackage_UnauthorizedFulfiller","inputs":[{"name":"unauthorized","type":"address","internalType":"address"},{"name":"expected","type":"address","internalType":"address"}]}],"bytecode":{"object":"0x6101e06040523480156200001257600080fd5b506040516200473738038062004737833981016040819052620000359162000662565b600080546001600160a01b0319166001600160a01b0383161790556200005a620000bd565b6101005260c05260a05260805262000071620001e7565b6101c0526101a052610180526101605261014052610120524660e0526040517f98a7ac23945182ac62b68fbe5ba35cc0bf5c4c34b3a410ce94a4c2270282d6b590600090a150620006f3565b604080518082018252600d81526c52654e46542d52656e74616c7360981b6020918201528151808301835260058152640312e302e360dc1b9082015290517f9650e8727fbb774f0b68cbf8b082cb7c4c4d1bef28b4ac9e17b87fd4da697c0e917f06c015bd22b4c69690933c1058878ebdfef31f9aaae40bbe86d8a09fe1b2972c916000918291620001b491017f454950373132446f6d61696e28737472696e67206e616d652c737472696e672081527f76657273696f6e2c75696e7432353620636861696e49642c6164647265737320602082015271766572696679696e67436f6e74726163742960701b604082015260520190565b604051602081830303815290604052805190602001209150620001df8285856200061960201b60201c565b905090919293565b600080600080600080600060405160200162000272907f4974656d2875696e7438206974656d547970652c75696e743820736574746c6581527f546f2c6164647265737320746f6b656e2c75696e7432353620616d6f756e742c60208201527f75696e74323536206964656e7469666965722900000000000000000000000000604082015260530190565b60405160208183030381529060405290506000604051602001620002df907f486f6f6b2861646472657373207461726765742c75696e74323536206974656d81527f496e6465782c6279746573206578747261446174612900000000000000000000602082015260360190565b60405160208183030381529060405290506000604051602001620003d5907f52656e74616c4f72646572286279746573333220736561706f72744f7264657281527f486173682c4974656d5b5d206974656d732c486f6f6b5b5d20686f6f6b732c7560208201527f696e7438206f72646572547970652c61646472657373206c656e6465722c616460408201527f64726573732072656e7465722c616464726573732072656e74616c57616c6c6560608201527f742c75696e7432353620737461727454696d657374616d702c75696e7432353660808201526d20656e6454696d657374616d702960901b60a082015260ae0190565b604051602081830303815290604052905082805190602001209850818051906020012097508082846040516020016200041193929190620006c6565b60405160208183030381529060405280519060200120965060006040516020016200046b907f4f7264657246756c66696c6c6d656e74286164647265737320726563697069658152626e742960e81b602082015260230190565b60405160208183030381529060405290506000604051602001620004fe907f4f726465724d657461646174612875696e7438206f72646572547970652c756981527f6e743235362072656e744475726174696f6e2c486f6f6b5b5d20686f6f6b732c60208201527f627974657320656d697474656445787472614461746129000000000000000000604082015260570190565b60405160208183030381529060405290506000604051602001620005b7907f52656e745061796c6f61642862797465733332206f72646572486173682c4f7281527f64657246756c66696c6c6d656e742066756c66696c6c6d656e742c4f7264657260208201527f4d65746164617461206d657461646174612c75696e743235362065787069726160408201527f74696f6e2c6164647265737320696e74656e64656446756c66696c6c657229006060820152607f0190565b6040516020818303038152906040529050808383604051602001620005df93929190620006c6565b6040516020818303038152906040528051906020012096508280519060200120985081805190602001209750505050505050909192939495565b6040805160208101859052908101839052606081018290524660808201523060a082015260009060c0016040516020818303038152906040528051906020012090509392505050565b6000602082840312156200067557600080fd5b81516001600160a01b03811681146200068d57600080fd5b9392505050565b6000815160005b81811015620006b757602081850181015186830152016200069b565b50600093019283525090919050565b6000620006ea620006e3620006dc848862000694565b8662000694565b8462000694565b95945050505050565b60805160a05160c05160e05161010051610120516101405161016051610180516101a0516101c051613fc2620007756000396000610a70015260006111c80152600061146b0152600061139a01526000612246015260006122970152600081816103070152610b17015260005050600050506000505060005050613fc26000f3fe608060405234801561001057600080fd5b506004361061011f5760003560e01c80635924be70116100ad578063d4aae0c411610071578063d4aae0c4146102ac578063ec7404b1146102bf578063ef985276146102d2578063f23a6e61146102e5578063f698da251461030557600080fd5b80635924be701461023a5780638dba95611461024f5780639459b87514610262578063bc197c8114610277578063d3f969d11461029957600080fd5b806322f3e2d4116100f457806322f3e2d4146101b15780632e778efc146101c5578063410e66f7146101db5780634657b36c146101fc578063507f14651461020f57600080fd5b806223de291461012457806264e1d41461013e57806301ffc9a71461016f578063150b7a0214610192575b600080fd5b61013c610132366004612cf6565b5050505050505050565b005b61015161014c366004612da6565b61032b565b6040516001600160e01b031990911681526020015b60405180910390f35b61018261017d366004612de1565b6106b7565b6040519015158152602001610166565b6101516101a0366004612e0b565b630a85bd0160e11b95945050505050565b60005461018290600160a01b900460ff1681565b6101cd6106d7565b604051610166929190612ecd565b6101ee6101e9366004613317565b610773565b604051908152602001610166565b61013c61020a36600461334b565b61077e565b600154610222906001600160a01b031681565b6040516001600160a01b039091168152602001610166565b6102426107cd565b6040516101669190613368565b600254610222906001600160a01b031681565b61026a6108e5565b60405161016691906133cb565b61015161028536600461345d565b63bc197c8160e01b98975050505050505050565b6101ee6102a73660046134fa565b610a0b565b600054610222906001600160a01b031681565b61013c6102cd36600461353c565b610a16565b6101ee6102e036600461362e565b610a61565b6101516102f3366004613724565b63f23a6e6160e01b9695505050505050565b7f00000000000000000000000000000000000000000000000000000000000000006101ee565b60006614d1505413d49560ca1b818160005460405163ac4ab3fb60e01b8152336004820152602481018390529192506001600160a01b03169063ac4ab3fb90604401602060405180830381865afa15801561038a573d6000803e3d6000fd5b505050506040513d601f19601f820116820180604052508101906103ae919061379f565b6103d3576040516371324ef360e11b8152600481018290526024015b60405180910390fd5b6000806103e360c08701876137bc565b8101906103f09190613802565b6040805161010081018252893581526101408a0135602082015292945090925060009190810161042360608a018a613865565b808060200260200160405190810160405280939291908181526020016000905b8282101561046f57610460608083028601368190038101906138bd565b81526020019060010190610443565b505050918352505060200161048760808a018a613916565b808060200260200160405190810160405280939291908181526020016000905b828210156104d3576104c460a0830286013681900381019061395e565b815260200190600101906104a7565b50505091835250506020016104eb60a08a018a613916565b808060200260200160405190810160405280939291908181526020016000905b828210156105375761052860a0830286013681900381019061395e565b8152602001906001019061050b565b50505050508152602001886020016020810190610554919061334b565b6001600160a01b0316815260200161057260608a0160408b0161334b565b6001600160a01b031681526020016105926101808a016101608b016139ca565b60048111156105a3576105a36139eb565b9052905060006105b284610a6c565b905060006105c08285610b0a565b90506105cf8560600151610b5b565b6105e185608001518460a00151610b88565b6000546001600160a01b031663ac4ab3fb826c21a922a0aa22afa9a4a3a722a960991b6040516001600160e01b031960e085901b1681526001600160a01b0390921660048301526024820152604401602060405180830381865afa15801561064d573d6000803e3d6000fd5b505050506040513d601f19601f82011682018060405250810190610671919061379f565b6106995760405163ba71bf9160e01b81526001600160a01b03821660048201526024016103ca565b6106a38584610bd1565b506219387560e21b98975050505050505050565b60006106c282610fd1565b806106d157506106d182611021565b92915050565b604080516001808252818301909252606091829190816020015b6040805180820190915260008152606060208201528152602001906001900390816106f157905050905060058160008151811061073057610730613a01565b60200260200101516000018181525050806040518060400160405280601081526020016f52654e46542d52656e74616c5a6f6e6560801b81525090915091509091565b60006106d182610a6c565b6000546001600160a01b031633146107ab5760405163053e900f60e21b81523360048201526024016103ca565b600080546001600160a01b0319166001600160a01b0392909216919091179055565b6000546060906001600160a01b031633146107fd5760405163053e900f60e21b81523360048201526024016103ca565b6040805160028082526060820190925290816020015b604080518082019091526000808252602082015281526020019060019003908161081357905050905060405180604001604052806108566453544f524560d81b90565b6001600160d81b03191681526347f280ff60e01b6020909101528151829060009061088357610883613a01565b602002602001018190525060405180604001604052806108a864455343525760d81b90565b6001600160d81b031916815263d417b7b360e01b6020909101528151829060019081106108d7576108d7613a01565b602002602001018190525090565b6000546060906001600160a01b031633146109155760405163053e900f60e21b81523360048201526024016103ca565b60408051600280825260608201835290916020830190803683370190505090506453544f524560d81b8160008151811061095157610951613a01565b6001600160d81b03199092166020928302919091019091015261098161097c6453544f524560d81b90565b611072565b600180546001600160a01b0319166001600160a01b039290921691909117905564455343525760d81b816001815181106109bd576109bd613a01565b6001600160d81b0319909216602092830291909101909101526109e861097c64455343525760d81b90565b600280546001600160a01b0319166001600160a01b039290921691909117905590565b60006106d18261111e565b6000546001600160a01b03163314610a435760405163053e900f60e21b81523360048201526024016103ca565b60008054911515600160a01b0260ff60a01b19909216919091179055565b60006106d182611256565b60007f00000000000000000000000000000000000000000000000000000000000000008260000151610aa18460200151611463565b610aae856040015161111e565b6060808701516080808901516040805160208101999099528801969096529186019390935284015260a08301526001600160a01b031660c082015260e0015b604051602081830303815290604052805190602001209050919050565b60405161190160f01b81527f000000000000000000000000000000000000000000000000000000000000000060028201526022810183905260429020600090610b5381846114a9565b949350505050565b80421115610b8557604051634083133b60e01b8152426004820152602481018290526044016103ca565b50565b806001600160a01b0316826001600160a01b031614610bcd5760405163344bea3760e11b81526001600160a01b038083166004830152831660248201526044016103ca565b5050565b610bde8160e001516114d3565b81518151610bec9190611507565b610bfe82604001518260200151611530565b610c148160a00151836020015160000151611620565b610c268160c001518260600151611753565b610c3381608001516117b6565b6000610c508260400151836060015185604001516000015161183a565b9050610c5b816119a7565b604083015151610c7b906002811115610c7657610c766139eb565b611b54565b80610ca15750604083015151610ca1906002811115610c9c57610c9c6139eb565b611b71565b15610fcc5760408051600080825260208201909252905b8251811015610d4b57610ce3838281518110610cd657610cd6613a01565b6020026020010151611b7a565b15610d4357610d4382610d20876020015160000151868581518110610d0a57610d0a613a01565b6020026020010151611b9490919063ffffffff16565b858481518110610d3257610d32613a01565b602002602001015160600151611bf6565b600101610cb8565b5060006040518061012001604052808560000151815260200184815260200186604001516040015181526020018660400151600001516002811115610d9257610d926139eb565b81526020018560c001516001600160a01b0316815260200186608001516001600160a01b031681526020018660200151600001516001600160a01b0316815260200142815260200186604001516020015142610dee9190613a2d565b905290506000610dfd82611256565b6001549091506001600160a01b03166347f280ff82610e1b86611c38565b6040518363ffffffff1660e01b8152600401610e38929190613a40565b600060405180830381600087803b158015610e5257600080fd5b505af1158015610e66573d6000803e3d6000fd5b5050505060005b8451811015610f87576000858281518110610e8a57610e8a613a01565b60200260200101519050610e9d81611d04565b15610f3d5760025460608201516040830151610ec7926001600160a01b0391821692911690611d1c565b6002546040828101516060840151915163d417b7b360e01b81526001600160a01b03918216600482015260248101929092529091169063d417b7b390604401600060405180830381600087803b158015610f2057600080fd5b505af1158015610f34573d6000803e3d6000fd5b50505050610f7e565b610f4681611e2d565b15610f605760c0840151610f5b908290611e35565b610f7e565b610f6981611ea5565b15610f7e5760c0840151610f7e908290611eae565b50600101610e6d565b5060408087015101515115610fb557610fb58660400151604001518660400151886020015160000151611f0e565b610fc882828860400151606001516121a9565b5050505b505050565b60006001600160e01b03198216630b9de3bf60e21b148061100257506001600160e01b03198216632feca68f60e01b145b806106d157506301ffc9a760e01b6001600160e01b03198316146106d1565b60006001600160e01b03198216630a85bd0160e11b148061105257506001600160e01b03198216630271189760e51b145b806106d157506001600160e01b031982166301ffc9a760e01b1492915050565b60008054604051632d37002d60e21b81526001600160d81b03198416600482015282916001600160a01b03169063b4dc00b490602401602060405180830381865afa1580156110c5573d6000803e3d6000fd5b505050506040513d601f19601f820116820180604052508101906110e99190613a8d565b90506001600160a01b0381166106d157604051635c3fa9cd60e01b81526001600160d81b0319841660048201526024016103ca565b6000808260400151516001600160401b0381111561113e5761113e612f52565b604051908082528060200260200182016040528015611167578160200160208202803683370190505b50905060005b8360400151518110156111c5576111a08460400151828151811061119357611193613a01565b602002602001015161222e565b8282815181106111b2576111b2613a01565b602090810291909101015260010161116d565b507f000000000000000000000000000000000000000000000000000000000000000083600001518460200151836040516020016112029190613aaa565b60405160208183030381529060405280519060200120866060015180519060200120604051602001611238959493929190613afd565b60405160208183030381529060405280519060200120915050919050565b6000808260200151516001600160401b0381111561127657611276612f52565b60405190808252806020026020018201604052801561129f578160200160208202803683370190505b50905060008360400151516001600160401b038111156112c1576112c1612f52565b6040519080825280602002602001820160405280156112ea578160200160208202803683370190505b50905060005b846020015151811015611348576113238560200151828151811061131657611316613a01565b6020026020010151612293565b83828151811061133557611335613a01565b60209081029190910101526001016112f0565b5060005b846040015151811015611397576113728560400151828151811061119357611193613a01565b82828151811061138457611384613a01565b602090810291909101015260010161134c565b507f00000000000000000000000000000000000000000000000000000000000000008460000151836040516020016113cf9190613aaa565b60405160208183030381529060405280519060200120836040516020016113f69190613aaa565b60405160208183030381529060405280519060200120876060015188608001518960a001518a60c001518b60e001518c61010001516040516020016114449a99989796959493929190613b2f565b6040516020818303038152906040528051906020012092505050919050565b8051604080517f000000000000000000000000000000000000000000000000000000000000000060208201526001600160a01b0390921690820152600090606001610aed565b6000806000806114b986866122e4565b9250925092506114c98282612331565b5090949350505050565b60028160048111156114e7576114e76139eb565b14610b855780604051636d6f0ea160e11b81526004016103ca9190613b95565b808214610bcd57604051621df6d360e41b815260048101839052602481018290526044016103ca565b8160200151600160009054906101000a90046001600160a01b03166001600160a01b031663ec3e21336040518163ffffffff1660e01b8152600401602060405180830381865afa158015611588573d6000803e3d6000fd5b505050506040513d601f19601f820116820180604052508101906115ac9190613baf565b10156115d357816020015160405163db3a8fc560e01b81526004016103ca91815260200190565b81602001516000036115f8576040516363aafc6160e11b815260040160405180910390fd5b806116028361111e565b14610bcd5760405163101e5d2960e01b815260040160405180910390fd5b60015460405163f6fdddf160e01b81526001600160a01b0383811660048301529091169063f6fdddf190602401602060405180830381865afa15801561166a573d6000803e3d6000fd5b505050506040513d601f19601f8201168201806040525081019061168e9190613baf565b6000036116b957604051632d0a0b2760e01b81526001600160a01b03821660048201526024016103ca565b6040516317aa5fb760e11b81526001600160a01b038381166004830152821690632f54bf6e90602401602060405180830381865afa1580156116ff573d6000803e3d6000fd5b505050506040513d601f19601f82011682018060405250810190611723919061379f565b610bcd57604051633e25500560e11b81526001600160a01b038084166004830152821660248201526044016103ca565b60005b8151811015610fcc5781818151811061177157611771613a01565b6020026020010151608001516001600160a01b0316836001600160a01b0316036117ae57604051630d3e2fb360e11b815260040160405180910390fd5b600101611756565b60005b8151811015610bcd5760008282815181106117d6576117d6613a01565b60200260200101519050306001600160a01b031681608001516001600160a01b0316146118315780516020820151604080840151606085015160808601519251630cdcade760e11b81526103ca959493903090600401613bd8565b506001016117b9565b60608251845161184a9190613a2d565b6001600160401b0381111561186157611861612f52565b60405190808252806020026020018201604052801561189a57816020015b611887612c3c565b81526020019060019003908161187f5790505b5090506118b2826002811115610c7657610c766139eb565b156118d4576118c3818560006123ea565b6118cf8184865161259b565b6119a0565b6118e9826002811115610c9c57610c9c6139eb565b1561191f576118fa81856000612716565b8251156118cf5782516040516387de9bb960e01b81526004016103ca91815260200190565b611939826002811115611934576119346139eb565b612913565b1561196f57835115611963578351604051634985e5bd60e01b81526004016103ca91815260200190565b6118cf8184600061291c565b816002811115611981576119816139eb565b604051635109fe9b60e11b815260ff90911660048201526024016103ca565b9392505050565b60005b8151811015610bcd5760008282815181106119c7576119c7613a01565b60200260200101516040015190506119ea838381518110610cd657610cd6613a01565b8015611a6157506001546040516317eeeea960e31b81526001600160a01b0383811660048301529091169063bf77754890602401602060405180830381865afa158015611a3b573d6000803e3d6000fd5b505050506040513d601f19601f82011682018060405250810190611a5f919061379f565b155b15611a8a57604051630c52562f60e41b81526001600160a01b03821660048201526024016103ca565b611aac838381518110611a9f57611a9f613a01565b6020026020010151611d04565b8015611b22575060015460405162e4fcf160e21b81526001600160a01b03838116600483015290911690630393f3c490602401602060405180830381865afa158015611afc573d6000803e3d6000fd5b505050506040513d601f19601f82011682018060405250810190611b20919061379f565b155b15611b4b5760405163397c71bf60e11b81526001600160a01b03821660048201526024016103ca565b506001016119aa565b6000805b826002811115611b6a57611b6a6139eb565b1492915050565b60006001611b58565b6000611b8582611e2d565b806106d157506106d182611ea5565b60006119a082846040015185608001516040516bffffffffffffffffffffffff19606085811b8216602084015284901b166034820152604881018290526000906068016040516020818303038152906040528051906020012090509392505050565b82518290611c0a5760208452600084602001525b8351602080860180516040938401885260010190819052820290950191825293810191909152820190915250565b60208101805160609190806001600160401b03811115611c5a57611c5a612f52565b604051908082528060200260200182016040528015611c9f57816020015b6040805180820190915260008082526020820152815260200190600190039081611c785790505b50925060005b81811015611cfc5760408181028401602081810151918301518351808501909452828452908301819052865191929091879085908110611ce757611ce7613a01565b60209081029190910101525050600101611ca5565b505050919050565b600060025b82516002811115611b6a57611b6a6139eb565b604080516001600160a01b038481166024830152604480830185905283518084039091018152606490920183526020820180516001600160e01b031663a9059cbb60e01b1790529151600092839290871691611d789190613c1f565b6000604051808303816000865af19150503d8060008114611db5576040519150601f19603f3d011682016040523d82523d6000602084013e611dba565b606091505b5091509150811580611de85750805115801590611de8575080806020019051810190611de6919061379f565b155b15611e2657604051632037bb5b60e01b81526001600160a01b03808716600483015230602483015285166044820152606481018490526084016103ca565b5050505050565b600080611d09565b60408083015160808401519151632142170760e11b81523060048201526001600160a01b03848116602483015260448201939093529116906342842e0e906064015b600060405180830381600087803b158015611e9157600080fd5b505af1158015610fc8573d6000803e3d6000fd5b60006001611d09565b604082810151608084015160608501519251637921219560e11b81523060048201526001600160a01b0385811660248301526044820192909252606481019390935260a06084840152600060a4840152169063f242432a9060c401611e77565b600080611f19612c76565b60005b86518110156121a057868181518110611f3757611f37613a01565b6020908102919091010151516001546040516361b397ed60e11b81526001600160a01b03808416600483015292965091169063c3672fda90602401602060405180830381865afa158015611f8f573d6000803e3d6000fd5b505050506040513d601f19601f82011682018060405250810190611fb3919061379f565b1561219857868181518110611fca57611fca613a01565b6020026020010151602001519250858381518110611fea57611fea613a01565b60200260200101519150611ffd82612ae5565b61201d576040516335916f2360e11b8152600481018490526024016103ca565b836001600160a01b031663f5aa1eee868460200151856040015186606001518c878151811061204e5761204e613a01565b6020026020010151604001516040518663ffffffff1660e01b815260040161207a959493929190613c3b565b600060405180830381600087803b15801561209457600080fd5b505af19250505080156120a5575060015b612198576120b1613c80565b806308c379a0036120eb57506120c5613c9c565b806120d0575061214d565b8060405163508b5be960e11b81526004016103ca9190613d25565b634e487b710361214d576120fd613d38565b90612108575061214d565b600061211382612aff565b9050806040516020016121269190613d58565b60408051601f198184030181529082905263508b5be960e11b82526103ca91600401613d25565b3d808015612177576040519150601f19603f3d011682016040523d82523d6000602084013e61217c565b606091505b5080604051635871576160e01b81526004016103ca9190613d25565b600101611f1c565b50505050505050565b8260a001516001600160a01b031683608001516001600160a01b03167fb6222b2355a05d87c72578605c810af2691601e9e8f3b1e6487d72f1343a1e1784848760000151886020015189604001518a606001518b60c001518c60e001518d610100015160405161222199989796959493929190613e2e565b60405180910390a3505050565b805160208083015160408085015180519084012081517f0000000000000000000000000000000000000000000000000000000000000000948101949094526001600160a01b03909416908301526060820152608081019190915260009060a001610aed565b60007f000000000000000000000000000000000000000000000000000000000000000082600001518360200151846040015185606001518660800151604051602001610aed96959493929190613f1c565b6000806000835160410361231e5760208401516040850151606086015160001a61231088828585612b43565b95509550955050505061232a565b50508151600091506002905b9250925092565b6000826003811115612345576123456139eb565b0361234e575050565b6001826003811115612362576123626139eb565b036123805760405163f645eedf60e01b815260040160405180910390fd5b6002826003811115612394576123946139eb565b036123b55760405163fce698f760e01b8152600481018290526024016103ca565b60038260038111156123c9576123c96139eb565b03610bcd576040516335e2f38360e21b8152600481018290526024016103ca565b8151600081900361240e5760405163f17b6acb60e01b815260040160405180910390fd5b600160009054906101000a90046001600160a01b03166001600160a01b031663acbf34a06040518163ffffffff1660e01b8152600401602060405180830381865afa158015612461573d6000803e3d6000fd5b505050506040513d601f19601f820116820180604052508101906124859190613baf565b8111156124a8576040516330f9052160e21b8152600481018290526024016103ca565b6000805b82811015610fc85760008582815181106124c8576124c8613a01565b602002602001015190506124db81612c12565b156124e9576000925061251c565b6124f281612c2a565b15612500576001925061251c565b80516040516383039fc960e01b81526103ca9190600401613f65565b6040518060a00160405280846002811115612539576125396139eb565b81526020016000815260200182602001516001600160a01b031681526020018260600151815260200182604001518152508786846125779190613a2d565b8151811061258757612587613a01565b6020908102919091010152506001016124ac565b815160008190036125bf57604051633d2662f560e01b815260040160405180910390fd5b600160009054906101000a90046001600160a01b03166001600160a01b03166304e7b3b16040518163ffffffff1660e01b8152600401602060405180830381865afa158015612612573d6000803e3d6000fd5b505050506040513d601f19601f820116820180604052508101906126369190613baf565b8111156126595760405163574dd12360e11b8152600481018290526024016103ca565b60005b81811015611e2657600084828151811061267857612678613a01565b6020026020010151905061268b81612c33565b6126ab5780516040516383039fc960e01b81526103ca9190600401613f65565b6040805160a0810182526002815260006020808301919091528301516001600160a01b03168183015260608084015190820152908201516080820152866126f28685613a2d565b8151811061270257612702613a01565b60209081029190910101525060010161265c565b600080600080600086519050600160009054906101000a90046001600160a01b03166001600160a01b031663acbf34a06040518163ffffffff1660e01b8152600401602060405180830381865afa158015612775573d6000803e3d6000fd5b505050506040513d601f19601f820116820180604052508101906127999190613baf565b8111156127bc576040516330f9052160e21b8152600481018290526024016103ca565b60005b818110156128df5760008882815181106127db576127db613a01565b602002602001015190506127ee81612c12565b1561280c57600094508493508661280481613f73565b975050612850565b61281581612c2a565b1561282c5760019450600093508661280481613f73565b61283581612c33565b156125005760029450600193508561284c81613f73565b9650505b6040518060a0016040528086600281111561286d5761286d6139eb565b8152602001856001811115612884576128846139eb565b815260200182602001516001600160a01b031681526020018260600151815260200182604001518152508a89846128bb9190613a2d565b815181106128cb576128cb613a01565b6020908102919091010152506001016127bf565b508415806128eb575083155b1561013257604051631fb281c560e21b815260048101869052602481018590526044016103ca565b60006002611b58565b600080600080600086519050600160009054906101000a90046001600160a01b03166001600160a01b03166304e7b3b16040518163ffffffff1660e01b8152600401602060405180830381865afa15801561297b573d6000803e3d6000fd5b505050506040513d601f19601f8201168201806040525081019061299f9190613baf565b8111156129c25760405163574dd12360e11b8152600481018290526024016103ca565b60005b818110156128df5760008882815181106129e1576129e1613a01565b602002602001015190506129f481612c12565b15612a12576000945084935086612a0a81613f73565b975050612a56565b612a1b81612c2a565b15612a3257600194506000935086612a0a81613f73565b612a3b81612c33565b1561250057600294506001935085612a5281613f73565b9650505b6040518060a00160405280866002811115612a7357612a736139eb565b8152602001856001811115612a8a57612a8a6139eb565b815260200182602001516001600160a01b031681526020018260600151815260200182604001518152508a8984612ac19190613a2d565b81518110612ad157612ad1613a01565b6020908102919091010152506001016129c5565b6000612af082612c12565b806106d157506106d182612c2a565b60606080604051019050602081016040526000815280600019835b928101926030600a8206018453600a900480612b1a575050819003601f19909101908152919050565b600080807f7fffffffffffffffffffffffffffffff5d576e7357a4501ddfe92f46681b20a0841115612b7e5750600091506003905082612c08565b604080516000808252602082018084528a905260ff891692820192909252606081018790526080810186905260019060a0016020604051602081039080840390855afa158015612bd2573d6000803e3d6000fd5b5050604051601f1901519150506001600160a01b038116612bfe57506000925060019150829050612c08565b9250600091508190505b9450945094915050565b600060025b82516005811115611b6a57611b6a6139eb565b60006003612c17565b60006001612c17565b6040805160a08101909152806000815260200160005b815260200160006001600160a01b0316815260200160008152602001600081525090565b6040805160808101909152806000612c52565b6001600160a01b0381168114610b8557600080fd5b8035612ca981612c89565b919050565b60008083601f840112612cc057600080fd5b5081356001600160401b03811115612cd757600080fd5b602083019150836020828501011115612cef57600080fd5b9250929050565b60008060008060008060008060c0898b031215612d1257600080fd5b8835612d1d81612c89565b97506020890135612d2d81612c89565b96506040890135612d3d81612c89565b95506060890135945060808901356001600160401b0380821115612d6057600080fd5b612d6c8c838d01612cae565b909650945060a08b0135915080821115612d8557600080fd5b50612d928b828c01612cae565b999c989b5096995094979396929594505050565b600060208284031215612db857600080fd5b81356001600160401b03811115612dce57600080fd5b820161018081850312156119a057600080fd5b600060208284031215612df357600080fd5b81356001600160e01b0319811681146119a057600080fd5b600080600080600060808688031215612e2357600080fd5b8535612e2e81612c89565b94506020860135612e3e81612c89565b93506040860135925060608601356001600160401b03811115612e6057600080fd5b612e6c88828901612cae565b969995985093965092949392505050565b60005b83811015612e98578181015183820152602001612e80565b50506000910152565b60008151808452612eb9816020860160208601612e7d565b601f01601f19169290920160200192915050565b60006040808352612ee16040840186612ea1565b6020848203818601528186518084528284019150828160051b85010183890160005b83811015612f4257868303601f19018552815180518452860151868401899052612f2f89850182612ea1565b9587019593505090850190600101612f03565b50909a9950505050505050505050565b634e487b7160e01b600052604160045260246000fd5b606081018181106001600160401b0382111715612f8757612f87612f52565b60405250565b608081018181106001600160401b0382111715612f8757612f87612f52565b60a081018181106001600160401b0382111715612f8757612f87612f52565b602081018181106001600160401b0382111715612f8757612f87612f52565b601f8201601f191681016001600160401b038111828210171561300f5761300f612f52565b6040525050565b60405161012081016001600160401b038111828210171561303957613039612f52565b60405290565b60038110610b8557600080fd5b8035612ca98161303f565b60006001600160401b0382111561307057613070612f52565b5060051b60200190565b600082601f83011261308b57600080fd5b81356001600160401b038111156130a4576130a4612f52565b6040516130bb601f8301601f191660200182612fea565b8181528460208386010111156130d057600080fd5b816020850160208301376000918101602001919091529392505050565b600082601f8301126130fe57600080fd5b8135602061310b82613057565b604080516131198382612fea565b84815260059490941b860183019383810192508785111561313957600080fd5b8387015b858110156131ce5780356001600160401b038082111561315d5760008081fd5b908901906060828c03601f19018113156131775760008081fd5b855161318281612f68565b8884013561318f81612c89565b815283870135898201529083013590828211156131ac5760008081fd5b6131ba8d8a8487010161307a565b81880152875250505092840192840161313d565b50979650505050505050565b6000608082840312156131ec57600080fd5b6040516131f881612f8d565b80915082356132068161303f565b81526020838101359082015260408301356001600160401b038082111561322c57600080fd5b613238868387016130ed565b6040840152606085013591508082111561325157600080fd5b5061325e8582860161307a565b6060830152505092915050565b600081830360a081121561327e57600080fd5b60405161328a81612fac565b833581529150816020601f19830112156132a357600080fd5b60405191506132b182612fcb565b60208401356132bf81612c89565b825260208101919091526040830135906001600160401b038211156132e357600080fd5b6132ef858386016131da565b60408201526060840135606082015261330a60808501612c9e565b6080820152505092915050565b60006020828403121561332957600080fd5b81356001600160401b0381111561333f57600080fd5b610b538482850161326b565b60006020828403121561335d57600080fd5b81356119a081612c89565b602080825282518282018190526000919060409081850190868401855b828110156133be57815180516001600160d81b03191685528601516001600160e01b031916868501529284019290850190600101613385565b5091979650505050505050565b6020808252825182820181905260009190848201906040850190845b8181101561340d5783516001600160d81b031916835292840192918401916001016133e7565b50909695505050505050565b60008083601f84011261342b57600080fd5b5081356001600160401b0381111561344257600080fd5b6020830191508360208260051b8501011115612cef57600080fd5b60008060008060008060008060a0898b03121561347957600080fd5b883561348481612c89565b9750602089013561349481612c89565b965060408901356001600160401b03808211156134b057600080fd5b6134bc8c838d01613419565b909850965060608b01359150808211156134d557600080fd5b6134e18c838d01613419565b909650945060808b0135915080821115612d8557600080fd5b60006020828403121561350c57600080fd5b81356001600160401b0381111561352257600080fd5b610b53848285016131da565b8015158114610b8557600080fd5b60006020828403121561354e57600080fd5b81356119a08161352e565b600082601f83011261356a57600080fd5b8135602061357782613057565b604080516135858382612fea565b84815260a094850287018401948482019350888611156135a457600080fd5b8488015b868110156136205781818b0312156135c05760008081fd5b83516135cb81612fac565b81356135d68161303f565b815281870135600281106135ea5760008081fd5b81880152818501356135fb81612c89565b81860152606082810135908201526080808301359082015285529385019381016135a8565b509098975050505050505050565b60006020828403121561364057600080fd5b81356001600160401b038082111561365757600080fd5b90830190610120828603121561366c57600080fd5b613674613016565b8235815260208301358281111561368a57600080fd5b61369687828601613559565b6020830152506040830135828111156136ae57600080fd5b6136ba878286016130ed565b6040830152506136cc6060840161304c565b60608201526136dd60808401612c9e565b60808201526136ee60a08401612c9e565b60a08201526136ff60c08401612c9e565b60c082015260e083810135908201526101009283013592810192909252509392505050565b60008060008060008060a0878903121561373d57600080fd5b863561374881612c89565b9550602087013561375881612c89565b9450604087013593506060870135925060808701356001600160401b0381111561378157600080fd5b61378d89828a01612cae565b979a9699509497509295939492505050565b6000602082840312156137b157600080fd5b81516119a08161352e565b6000808335601e198436030181126137d357600080fd5b8301803591506001600160401b038211156137ed57600080fd5b602001915036819003821315612cef57600080fd5b6000806040838503121561381557600080fd5b82356001600160401b038082111561382c57600080fd5b6138388683870161326b565b9350602085013591508082111561384e57600080fd5b5061385b8582860161307a565b9150509250929050565b6000808335601e1984360301811261387c57600080fd5b8301803591506001600160401b0382111561389657600080fd5b6020019150600781901b3603821315612cef57600080fd5b803560068110612ca957600080fd5b6000608082840312156138cf57600080fd5b6040516138db81612f8d565b6138e4836138ae565b815260208301356138f481612c89565b6020820152604083810135908201526060928301359281019290925250919050565b6000808335601e1984360301811261392d57600080fd5b8301803591506001600160401b0382111561394757600080fd5b602001915060a081023603821315612cef57600080fd5b600060a0828403121561397057600080fd5b60405161397c81612fac565b613985836138ae565b8152602083013561399581612c89565b80602083015250604083013560408201526060830135606082015260808301356139be81612c89565b60808201529392505050565b6000602082840312156139dc57600080fd5b8135600581106119a057600080fd5b634e487b7160e01b600052602160045260246000fd5b634e487b7160e01b600052603260045260246000fd5b634e487b7160e01b600052601160045260246000fd5b808201808211156106d1576106d1613a17565b6000604080830185845260206040602086015281865180845260608701915060208801935060005b8181101561362057845180518452840151848401529383019391850191600101613a68565b600060208284031215613a9f57600080fd5b81516119a081612c89565b815160009082906020808601845b83811015613ad457815185529382019390820190600101613ab8565b50929695505050505050565b60038110610b8557610b856139eb565b613af981613ae0565b9052565b85815260a08101613b0d86613ae0565b8560208301528460408301528360608301528260808301529695505050505050565b6000610140820190508b82528a6020830152896040830152886060830152613b5688613ae0565b60808201979097526001600160a01b0395861660a082015293851660c08501529190931660e08301526101008201929092526101200152949350505050565b6020810160058310613ba957613ba96139eb565b91905290565b600060208284031215613bc157600080fd5b5051919050565b60068110613af957613af96139eb565b60c08101613be68289613bc8565b6001600160a01b03968716602083015260408201959095526060810193909352908416608083015290921660a090920191909152919050565b60008251613c31818460208701612e7d565b9190910192915050565b6001600160a01b03868116825285166020820152604081018490526060810183905260a060808201819052600090613c7590830184612ea1565b979650505050505050565b600060033d1115613c995760046000803e5060005160e01c5b90565b600060443d1015613caa5790565b6040516003193d81016004833e81513d6001600160401b038160248401118184111715613cd957505050505090565b8285019150815181811115613cf15750505050505090565b843d8701016020828501011115613d0b5750505050505090565b613d1a60208286010187612fea565b509095945050505050565b6020815260006119a06020830184612ea1565b60008060233d1115613d54576020600460003e50506000516001905b9091565b7f486f6f6b2072657665727465643a2050616e696320636f646520000000000000815260008251613d9081601a850160208701612e7d565b91909101601a0192915050565b60028110613af957613af96139eb565b600082825180855260208086019550808260051b84010181860160005b84811015613e2157858303601f19018952815180516001600160a01b031684528481015185850152604090810151606091850182905290613e0d81860183612ea1565b9a86019a9450505090830190600101613dca565b5090979650505050505050565b60006101208b835260208181850152613e498285018d612ea1565b915060408b604086015260608584036060870152838c518086528486019150848e01955060005b81811015613ecd5786518051613e8581613ae0565b845280870151613e9788860182613d9d565b50858101516001600160a01b0316848701528481015185850152608090810151908401529585019560a090920191600101613e70565b50508681036080880152613ee1818d613dad565b95505050505050613ef560a0830187613af0565b6001600160a01b03851660c083015260e08201939093526101000152979650505050505050565b86815260c08101613f2c87613ae0565b866020830152613f3f6040830187613d9d565b6001600160a01b03949094166060820152608081019290925260a0909101529392505050565b602081016106d18284613bc8565b600060018201613f8557613f85613a17565b506001019056fea26469706673582212205a81e88c76f41b268b3c96f50945a4bee09c388acc2d695a866ac38ced715dfb64736f6c63430008160033","linkReferences":{}},"methodIdentifiers":{"ESCRW()":"8dba9561","STORE()":"507f1465","changeKernel(address)":"4657b36c","configureDependencies()":"9459b875","domainSeparator()":"f698da25","getOrderMetadataHash((uint8,uint256,(address,uint256,bytes)[],bytes))":"d3f969d1","getRentPayloadHash((bytes32,(address),(uint8,uint256,(address,uint256,bytes)[],bytes),uint256,address))":"410e66f7","getRentalOrderHash((bytes32,(uint8,uint8,address,uint256,uint256)[],(address,uint256,bytes)[],uint8,address,address,address,uint256,uint256))":"ef985276","getSeaportMetadata()":"2e778efc","isActive()":"22f3e2d4","kernel()":"d4aae0c4","onERC1155BatchReceived(address,address,uint256[],uint256[],bytes)":"bc197c81","onERC1155Received(address,address,uint256,uint256,bytes)":"f23a6e61","onERC721Received(address,address,uint256,bytes)":"150b7a02","requestPermissions()":"5924be70","setActiveStatus(bool)":"ec7404b1","supportsInterface(bytes4)":"01ffc9a7","tokensReceived(address,address,address,uint256,bytes,bytes)":"0023de29","validateOrder((bytes32,address,address,(uint8,address,uint256,uint256)[],(uint8,address,uint256,uint256,address)[],(uint8,address,uint256,uint256,address)[],bytes,bytes32[],uint256,uint256,bytes32,uint8))":"0064e1d4"},"id":200}