{"abi":[{"type":"constructor","inputs":[{"name":"kernel_","type":"address","internalType":"contract Kernel"}],"stateMutability":"nonpayable"},{"type":"function","name":"INIT","inputs":[],"outputs":[],"stateMutability":"nonpayable"},{"type":"function","name":"KEYCODE","inputs":[],"outputs":[{"name":"","type":"bytes5","internalType":"Keycode"}],"stateMutability":"pure"},{"type":"function","name":"MODULE_PROXY_INSTANTIATION","inputs":[{"name":"kernel_","type":"address","internalType":"contract Kernel"}],"outputs":[],"stateMutability":"nonpayable"},{"type":"function","name":"VERSION","inputs":[],"outputs":[{"name":"major","type":"uint8","internalType":"uint8"},{"name":"minor","type":"uint8","internalType":"uint8"}],"stateMutability":"pure"},{"type":"function","name":"balanceOf","inputs":[{"name":"token","type":"address","internalType":"address"}],"outputs":[{"name":"amount","type":"uint256","internalType":"uint256"}],"stateMutability":"view"},{"type":"function","name":"calculatePaymentProRata","inputs":[{"name":"amount","type":"uint256","internalType":"uint256"},{"name":"elapsedTime","type":"uint256","internalType":"uint256"},{"name":"totalTime","type":"uint256","internalType":"uint256"}],"outputs":[{"name":"renterAmount","type":"uint256","internalType":"uint256"},{"name":"lenderAmount","type":"uint256","internalType":"uint256"}],"stateMutability":"pure"},{"type":"function","name":"changeKernel","inputs":[{"name":"newKernel_","type":"address","internalType":"contract Kernel"}],"outputs":[],"stateMutability":"nonpayable"},{"type":"function","name":"decreaseDeposit_internal","inputs":[{"name":"token","type":"address","internalType":"address"},{"name":"amount","type":"uint256","internalType":"uint256"}],"outputs":[],"stateMutability":"nonpayable"},{"type":"function","name":"fee","inputs":[],"outputs":[{"name":"","type":"uint256","internalType":"uint256"}],"stateMutability":"view"},{"type":"function","name":"freeze","inputs":[],"outputs":[],"stateMutability":"nonpayable"},{"type":"function","name":"increaseDeposit","inputs":[{"name":"token","type":"address","internalType":"address"},{"name":"amount","type":"uint256","internalType":"uint256"}],"outputs":[],"stateMutability":"nonpayable"},{"type":"function","name":"increaseDeposit_internal","inputs":[{"name":"token","type":"address","internalType":"address"},{"name":"amount","type":"uint256","internalType":"uint256"}],"outputs":[],"stateMutability":"nonpayable"},{"type":"function","name":"initialized","inputs":[],"outputs":[{"name":"","type":"bool","internalType":"bool"}],"stateMutability":"view"},{"type":"function","name":"kernel","inputs":[],"outputs":[{"name":"","type":"address","internalType":"contract Kernel"}],"stateMutability":"view"},{"type":"function","name":"proxiableUUID","inputs":[],"outputs":[{"name":"","type":"bytes32","internalType":"bytes32"}],"stateMutability":"pure"},{"type":"function","name":"setFee","inputs":[{"name":"feeNumerator","type":"uint256","internalType":"uint256"}],"outputs":[],"stateMutability":"nonpayable"},{"type":"function","name":"settlePayment","inputs":[{"name":"order","type":"tuple","internalType":"struct RentalOrder","components":[{"name":"seaportOrderHash","type":"bytes32","internalType":"bytes32"},{"name":"items","type":"tuple[]","internalType":"struct Item[]","components":[{"name":"itemType","type":"uint8","internalType":"enum ItemType"},{"name":"settleTo","type":"uint8","internalType":"enum SettleTo"},{"name":"token","type":"address","internalType":"address"},{"name":"amount","type":"uint256","internalType":"uint256"},{"name":"identifier","type":"uint256","internalType":"uint256"}]},{"name":"hooks","type":"tuple[]","internalType":"struct Hook[]","components":[{"name":"target","type":"address","internalType":"address"},{"name":"itemIndex","type":"uint256","internalType":"uint256"},{"name":"extraData","type":"bytes","internalType":"bytes"}]},{"name":"orderType","type":"uint8","internalType":"enum OrderType"},{"name":"lender","type":"address","internalType":"address"},{"name":"renter","type":"address","internalType":"address"},{"name":"rentalWallet","type":"address","internalType":"address"},{"name":"startTimestamp","type":"uint256","internalType":"uint256"},{"name":"endTimestamp","type":"uint256","internalType":"uint256"}]}],"outputs":[],"stateMutability":"nonpayable"},{"type":"function","name":"settlePaymentBatch","inputs":[{"name":"orders","type":"tuple[]","internalType":"struct RentalOrder[]","components":[{"name":"seaportOrderHash","type":"bytes32","internalType":"bytes32"},{"name":"items","type":"tuple[]","internalType":"struct Item[]","components":[{"name":"itemType","type":"uint8","internalType":"enum ItemType"},{"name":"settleTo","type":"uint8","internalType":"enum SettleTo"},{"name":"token","type":"address","internalType":"address"},{"name":"amount","type":"uint256","internalType":"uint256"},{"name":"identifier","type":"uint256","internalType":"uint256"}]},{"name":"hooks","type":"tuple[]","internalType":"struct Hook[]","components":[{"name":"target","type":"address","internalType":"address"},{"name":"itemIndex","type":"uint256","internalType":"uint256"},{"name":"extraData","type":"bytes","internalType":"bytes"}]},{"name":"orderType","type":"uint8","internalType":"enum OrderType"},{"name":"lender","type":"address","internalType":"address"},{"name":"renter","type":"address","internalType":"address"},{"name":"rentalWallet","type":"address","internalType":"address"},{"name":"startTimestamp","type":"uint256","internalType":"uint256"},{"name":"endTimestamp","type":"uint256","internalType":"uint256"}]}],"outputs":[],"stateMutability":"nonpayable"},{"type":"function","name":"settlePaymentInFull","inputs":[{"name":"token","type":"address","internalType":"address"},{"name":"amount","type":"uint256","internalType":"uint256"},{"name":"settleTo","type":"uint8","internalType":"enum SettleTo"},{"name":"lender","type":"address","internalType":"address"},{"name":"renter","type":"address","internalType":"address"}],"outputs":[],"stateMutability":"nonpayable"},{"type":"function","name":"settlePaymentProRata","inputs":[{"name":"token","type":"address","internalType":"address"},{"name":"amount","type":"uint256","internalType":"uint256"},{"name":"lender","type":"address","internalType":"address"},{"name":"renter","type":"address","internalType":"address"},{"name":"elapsedTime","type":"uint256","internalType":"uint256"},{"name":"totalTime","type":"uint256","internalType":"uint256"}],"outputs":[],"stateMutability":"nonpayable"},{"type":"function","name":"skim","inputs":[{"name":"token","type":"address","internalType":"address"},{"name":"to","type":"address","internalType":"address"}],"outputs":[],"stateMutability":"nonpayable"},{"type":"function","name":"transferERC20","inputs":[{"name":"token","type":"address","internalType":"address"},{"name":"to","type":"address","internalType":"address"},{"name":"value","type":"uint256","internalType":"uint256"}],"outputs":[],"stateMutability":"nonpayable"},{"type":"function","name":"upgrade","inputs":[{"name":"newImplementation","type":"address","internalType":"address"}],"outputs":[],"stateMutability":"nonpayable"},{"type":"event","name":"FeeTaken","inputs":[{"name":"token","type":"address","indexed":false,"internalType":"address"},{"name":"amount","type":"uint256","indexed":false,"internalType":"uint256"}],"anonymous":false},{"type":"error","name":"KernelAdapter_OnlyKernel","inputs":[{"name":"caller_","type":"address","internalType":"address"}]},{"type":"error","name":"Module_PolicyNotAuthorized","inputs":[{"name":"policy_","type":"address","internalType":"address"}]},{"type":"error","name":"PaymentEscrow_InvalidFeeNumerator","inputs":[]},{"type":"error","name":"PaymentEscrow_ZeroPayment","inputs":[]},{"type":"error","name":"Proxy_AlreadyInitialized","inputs":[]},{"type":"error","name":"Proxy_Frozen","inputs":[]},{"type":"error","name":"Proxy_NotCompatible","inputs":[{"name":"newImplementation","type":"address","internalType":"address"}]},{"type":"error","name":"Proxy_OnlyCallByProxy","inputs":[]},{"type":"error","name":"Shared_ERC20TransferFailed","inputs":[{"name":"token","type":"address","internalType":"address"},{"name":"from","type":"address","internalType":"address"},{"name":"to","type":"address","internalType":"address"},{"name":"value","type":"uint256","internalType":"uint256"}]},{"type":"error","name":"Shared_OrderTypeNotSupported","inputs":[{"name":"orderType","type":"uint8","internalType":"uint8"}]}],"bytecode":{"object":"0x60a06040523060805234801561001457600080fd5b50604051611cc9380380611cc98339810160408190526100339161005e565b600080546001600160a01b0390921661010002610100600160a81b031990921691909117905561008e565b60006020828403121561007057600080fd5b81516001600160a01b038116811461008757600080fd5b9392505050565b608051611bb7610112600039600081816103660152818161038f015281816105040152818161052d015281816106f50152818161071e015281816108660152818161088f01528181610aee01528181610b1701528181610c5c01528181610c8501528181610e9c01528181610ec501528181611002015261102b0152611bb76000f3fe608060405234801561001057600080fd5b506004361061014d5760003560e01c806362a5af3b116100c3578063d417b7b31161007c578063d417b7b3146102cb578063d4aae0c4146102de578063ddca3f431461030e578063e78513cf14610317578063ea6439141461032a578063ffa1ad741461033257600080fd5b806362a5af3b146102575780636327b8021461025f57806369fe0e2d1461027257806370a0823114610285578063712b772f146102a55780639db5dbe4146102b857600080fd5b8063187163651161011557806318716365146101d75780631ae7ec2e146101ea57806320bd3e32146102005780634657b36c1461021357806352d1902d14610226578063546aca041461024457600080fd5b806303de5a891461015257806304c10ea5146101675780630900f0101461017a578063158ef93e1461018d578063178dcd0a146101af575b600080fd5b610165610160366004611667565b610347565b005b6101656101753660046116cd565b61035b565b610165610188366004611710565b6104f9565b60005461019a9060ff1681565b60405190151581526020015b60405180910390f35b6101c26101bd36600461172d565b610648565b604080519283526020830191909152016101a6565b6101656101e5366004611759565b610662565b60405164455343525760d81b81526020016101a6565b61016561020e3660046117be565b610678565b610165610221366004611710565b610686565b600080516020611b628339815191525b6040519081526020016101a6565b6101656102523660046117be565b6106e0565b6101656106ea565b61016561026d3660046117ea565b61085b565b61016561028036600461185f565b610ae3565b610236610293366004611710565b60016020526000908152604090205481565b6101656102b3366004611878565b610c51565b6101656102c63660046118b1565b610e7d565b6101656102d93660046117be565b610e91565b6000546102f69061010090046001600160a01b031681565b6040516001600160a01b0390911681526020016101a6565b61023660025481565b610165610325366004611710565b610ff7565b6101656110e8565b604080516001815260006020820152016101a6565b610354858585858561111a565b5050505050565b306001600160a01b037f00000000000000000000000000000000000000000000000000000000000000001614806103d957507f00000000000000000000000000000000000000000000000000000000000000006001600160a01b03166103cd600080516020611b628339815191525490565b6001600160a01b031614155b156103f757604051636293f5d160e01b815260040160405180910390fd5b60005461010090046001600160a01b031663f166d9eb64455343525760d81b336000356001600160e01b0319166040518463ffffffff1660e01b8152600401610442939291906118f2565b602060405180830381865afa15801561045f573d6000803e3d6000fd5b505050506040513d601f19601f820116820180604052508101906104839190611927565b6104a657604051622ad7db60e41b81523360048201526024015b60405180910390fd5b6104f66104b66020830183611949565b6104c660808501606086016119a6565b6104d660a0860160808701611710565b6104e660c0870160a08801611710565b8660e00135876101000135611152565b50565b306001600160a01b037f000000000000000000000000000000000000000000000000000000000000000016148061057757507f00000000000000000000000000000000000000000000000000000000000000006001600160a01b031661056b600080516020611b628339815191525490565b6001600160a01b031614155b1561059557604051636293f5d160e01b815260040160405180910390fd5b60005461010090046001600160a01b031663f166d9eb64455343525760d81b336000356001600160e01b0319166040518463ffffffff1660e01b81526004016105e0939291906118f2565b602060405180830381865afa1580156105fd573d6000803e3d6000fd5b505050506040513d601f19601f820116820180604052508101906106219190611927565b61063f57604051622ad7db60e41b815233600482015260240161049d565b6104f6816112d2565b6000806106568585856113e0565b90969095509350505050565b610670868686868686611436565b505050505050565b610682828261147b565b5050565b60005461010090046001600160a01b031633146106b85760405163053e900f60e21b815233600482015260240161049d565b600080546001600160a01b0390921661010002610100600160a81b0319909216919091179055565b61068282826114ac565b306001600160a01b037f000000000000000000000000000000000000000000000000000000000000000016148061076857507f00000000000000000000000000000000000000000000000000000000000000006001600160a01b031661075c600080516020611b628339815191525490565b6001600160a01b031614155b1561078657604051636293f5d160e01b815260040160405180910390fd5b60005461010090046001600160a01b031663f166d9eb64455343525760d81b336000356001600160e01b0319166040518463ffffffff1660e01b81526004016107d1939291906118f2565b602060405180830381865afa1580156107ee573d6000803e3d6000fd5b505050506040513d601f19601f820116820180604052508101906108129190611927565b61083057604051622ad7db60e41b815233600482015260240161049d565b61085960017fb1c430d6858c7d4aa68247671513746f811bc8a08b57cb1afc031d4c886174dc55565b565b306001600160a01b037f00000000000000000000000000000000000000000000000000000000000000001614806108d957507f00000000000000000000000000000000000000000000000000000000000000006001600160a01b03166108cd600080516020611b628339815191525490565b6001600160a01b031614155b156108f757604051636293f5d160e01b815260040160405180910390fd5b60005461010090046001600160a01b031663f166d9eb64455343525760d81b336000356001600160e01b0319166040518463ffffffff1660e01b8152600401610942939291906118f2565b602060405180830381865afa15801561095f573d6000803e3d6000fd5b505050506040513d601f19601f820116820180604052508101906109839190611927565b6109a157604051622ad7db60e41b815233600482015260240161049d565b60005b81811015610ade57610ad68383838181106109c1576109c16119c3565b90506020028101906109d391906119d9565b6109e1906020810190611949565b8585858181106109f3576109f36119c3565b9050602002810190610a0591906119d9565b610a169060808101906060016119a6565b868686818110610a2857610a286119c3565b9050602002810190610a3a91906119d9565b610a4b9060a0810190608001611710565b878787818110610a5d57610a5d6119c3565b9050602002810190610a6f91906119d9565b610a809060c081019060a001611710565b888888818110610a9257610a926119c3565b9050602002810190610aa491906119d9565b60e00135898989818110610aba57610aba6119c3565b9050602002810190610acc91906119d9565b6101000135611152565b6001016109a4565b505050565b306001600160a01b037f0000000000000000000000000000000000000000000000000000000000000000161480610b6157507f00000000000000000000000000000000000000000000000000000000000000006001600160a01b0316610b55600080516020611b628339815191525490565b6001600160a01b031614155b15610b7f57604051636293f5d160e01b815260040160405180910390fd5b60005461010090046001600160a01b031663f166d9eb64455343525760d81b336000356001600160e01b0319166040518463ffffffff1660e01b8152600401610bca939291906118f2565b602060405180830381865afa158015610be7573d6000803e3d6000fd5b505050506040513d601f19601f82011682018060405250810190610c0b9190611927565b610c2957604051622ad7db60e41b815233600482015260240161049d565b612710811115610c4c576040516365b3e44b60e01b815260040160405180910390fd5b600255565b306001600160a01b037f0000000000000000000000000000000000000000000000000000000000000000161480610ccf57507f00000000000000000000000000000000000000000000000000000000000000006001600160a01b0316610cc3600080516020611b628339815191525490565b6001600160a01b031614155b15610ced57604051636293f5d160e01b815260040160405180910390fd5b60005461010090046001600160a01b031663f166d9eb64455343525760d81b336000356001600160e01b0319166040518463ffffffff1660e01b8152600401610d38939291906118f2565b602060405180830381865afa158015610d55573d6000803e3d6000fd5b505050506040513d601f19601f82011682018060405250810190610d799190611927565b610d9757604051622ad7db60e41b815233600482015260240161049d565b6001600160a01b0382166000818152600160205260408082205490516370a0823160e01b81523060048201529092906370a0823190602401602060405180830381865afa158015610dec573d6000803e3d6000fd5b505050506040513d601f19601f82011682018060405250810190610e1091906119fa565b90506000610e1e8383611a29565b9050610e346001600160a01b03861685836114d4565b604080516001600160a01b0387168152602081018390527f1b02d16d3c4c6fce038de5403c8352eb1eb62bc6915b6848683de52a24a723f8910160405180910390a15050505050565b610ade6001600160a01b03841683836114d4565b306001600160a01b037f0000000000000000000000000000000000000000000000000000000000000000161480610f0f57507f00000000000000000000000000000000000000000000000000000000000000006001600160a01b0316610f03600080516020611b628339815191525490565b6001600160a01b031614155b15610f2d57604051636293f5d160e01b815260040160405180910390fd5b60005461010090046001600160a01b031663f166d9eb64455343525760d81b336000356001600160e01b0319166040518463ffffffff1660e01b8152600401610f78939291906118f2565b602060405180830381865afa158015610f95573d6000803e3d6000fd5b505050506040513d601f19601f82011682018060405250810190610fb99190611927565b610fd757604051622ad7db60e41b815233600482015260240161049d565b80600003610678576040516291a3dd60e81b815260040160405180910390fd5b306001600160a01b037f000000000000000000000000000000000000000000000000000000000000000016148061107557507f00000000000000000000000000000000000000000000000000000000000000006001600160a01b0316611069600080516020611b628339815191525490565b6001600160a01b031614155b1561109357604051636293f5d160e01b815260040160405180910390fd5b60005460ff16156110b7576040516358c510a960e11b815260040160405180910390fd5b6000805460ff196001600160a01b0390931661010002929092166001600160a81b0319909216919091176001179055565b60005461010090046001600160a01b031633146108595760405163053e900f60e21b815233600482015260240161049d565b60008084600181111561112f5761112f611a3c565b1461113a578161113c565b825b90506106706001600160a01b03871682876114d4565b600061115e8342611a29565b9050600061116c8484611a29565b90508082101560005b898110156112c55760008b8b83818110611191576111916119c3565b905060a002018036038101906111a79190611a52565b90506111b2816115de565b156112bc576060810151600254156111df5760006111cf826115fc565b90506111db8183611a29565b9150505b6111f1826040015183606001516114ac565b61120b8b600281111561120657611206611a3c565b61161f565b8015611215575083155b156112315761122c8260400151828c8c8a8a611436565b6112ba565b6112468b600281111561120657611206611a3c565b801561124f5750835b8061126f575061126f8b600281111561126a5761126a611a3c565b611636565b156112895761122c82604001518284602001518d8d61111a565b8a600281111561129b5761129b611a3c565b604051635109fe9b60e11b815260ff909116600482015260240161049d565b505b50600101611175565b5050505050505050505050565b7fb1c430d6858c7d4aa68247671513746f811bc8a08b57cb1afc031d4c886174dc541561131257604051637f2c070d60e01b815260040160405180910390fd5b806001600160a01b03166352d1902d6040518163ffffffff1660e01b8152600401602060405180830381865afa92505050801561136c575060408051601f3d908101601f19168201909252611369918101906119fa565b60015b61139457604051630a4edb1d60e41b81526001600160a01b038216600482015260240161049d565b600080516020611b6283398151915281146113cd57604051630a4edb1d60e41b81526001600160a01b038316600482015260240161049d565b50600080516020611b6283398151915255565b600080806113ee8587611ae6565b6113fa906103e8611ae6565b90506103e86114098583611afd565b611415906101f4611b1f565b61141f9190611afd565b925061142b8387611a29565b915050935093915050565b6000806114448785856113e0565b909250905061145d6001600160a01b03891687836114d4565b6114716001600160a01b03891686846114d4565b5050505050505050565b6001600160a01b038216600090815260016020526040812080548392906114a3908490611b1f565b90915550505050565b6001600160a01b038216600090815260016020526040812080548392906114a3908490611a29565b604080516001600160a01b038481166024830152604480830185905283518084039091018152606490920183526020820180516001600160e01b031663a9059cbb60e01b17905291516000928392908716916115309190611b32565b6000604051808303816000865af19150503d806000811461156d576040519150601f19603f3d011682016040523d82523d6000602084013e611572565b606091505b50915091508115806115a057508051158015906115a057508080602001905181019061159e9190611927565b155b1561035457604051632037bb5b60e01b81526001600160a01b038087166004830152306024830152851660448201526064810184905260840161049d565b60006002825160028111156115f5576115f5611a3c565b1492915050565b60006127106002548361160f9190611ae6565b6116199190611afd565b92915050565b600060015b8260028111156115f5576115f5611a3c565b600080611624565b6001600160a01b03811681146104f657600080fd5b80356002811061166257600080fd5b919050565b600080600080600060a0868803121561167f57600080fd5b853561168a8161163e565b94506020860135935061169f60408701611653565b925060608601356116af8161163e565b915060808601356116bf8161163e565b809150509295509295909350565b6000602082840312156116df57600080fd5b813567ffffffffffffffff8111156116f657600080fd5b8201610120818503121561170957600080fd5b9392505050565b60006020828403121561172257600080fd5b81356117098161163e565b60008060006060848603121561174257600080fd5b505081359360208301359350604090920135919050565b60008060008060008060c0878903121561177257600080fd5b863561177d8161163e565b95506020870135945060408701356117948161163e565b935060608701356117a48161163e565b9598949750929560808101359460a0909101359350915050565b600080604083850312156117d157600080fd5b82356117dc8161163e565b946020939093013593505050565b600080602083850312156117fd57600080fd5b823567ffffffffffffffff8082111561181557600080fd5b818501915085601f83011261182957600080fd5b81358181111561183857600080fd5b8660208260051b850101111561184d57600080fd5b60209290920196919550909350505050565b60006020828403121561187157600080fd5b5035919050565b6000806040838503121561188b57600080fd5b82356118968161163e565b915060208301356118a68161163e565b809150509250929050565b6000806000606084860312156118c657600080fd5b83356118d18161163e565b925060208401356118e18161163e565b929592945050506040919091013590565b6001600160d81b03199390931683526001600160a01b039190911660208301526001600160e01b031916604082015260600190565b60006020828403121561193957600080fd5b8151801515811461170957600080fd5b6000808335601e1984360301811261196057600080fd5b83018035915067ffffffffffffffff82111561197b57600080fd5b602001915060a08102360382131561199257600080fd5b9250929050565b600381106104f657600080fd5b6000602082840312156119b857600080fd5b813561170981611999565b634e487b7160e01b600052603260045260246000fd5b6000823561011e198336030181126119f057600080fd5b9190910192915050565b600060208284031215611a0c57600080fd5b5051919050565b634e487b7160e01b600052601160045260246000fd5b8181038181111561161957611619611a13565b634e487b7160e01b600052602160045260246000fd5b600060a08284031215611a6457600080fd5b60405160a0810181811067ffffffffffffffff82111715611a9557634e487b7160e01b600052604160045260246000fd5b6040528235611aa381611999565b8152611ab160208401611653565b60208201526040830135611ac48161163e565b6040820152606083810135908201526080928301359281019290925250919050565b808202811582820484141761161957611619611a13565b600082611b1a57634e487b7160e01b600052601260045260246000fd5b500490565b8082018082111561161957611619611a13565b6000825160005b81811015611b535760208186018101518583015201611b39565b50600092019182525091905056fe360894a13ba1a3210667c828492db98dca3e2076cc3735a920a3ca505d382bbca26469706673582212200bded7ac86c14e50eb18eca81b6aac379b9ae75fdef1d598318ce70f09a9a97464736f6c63430008160033","linkReferences":{}},"methodIdentifiers":{"INIT()":"ea643914","KEYCODE()":"1ae7ec2e","MODULE_PROXY_INSTANTIATION(address)":"e78513cf","VERSION()":"ffa1ad74","balanceOf(address)":"70a08231","calculatePaymentProRata(uint256,uint256,uint256)":"178dcd0a","changeKernel(address)":"4657b36c","decreaseDeposit_internal(address,uint256)":"546aca04","fee()":"ddca3f43","freeze()":"62a5af3b","increaseDeposit(address,uint256)":"d417b7b3","increaseDeposit_internal(address,uint256)":"20bd3e32","initialized()":"158ef93e","kernel()":"d4aae0c4","proxiableUUID()":"52d1902d","setFee(uint256)":"69fe0e2d","settlePayment((bytes32,(uint8,uint8,address,uint256,uint256)[],(address,uint256,bytes)[],uint8,address,address,address,uint256,uint256))":"04c10ea5","settlePaymentBatch((bytes32,(uint8,uint8,address,uint256,uint256)[],(address,uint256,bytes)[],uint8,address,address,address,uint256,uint256)[])":"6327b802","settlePaymentInFull(address,uint256,uint8,address,address)":"03de5a89","settlePaymentProRata(address,uint256,address,address,uint256,uint256)":"18716365","skim(address,address)":"712b772f","transferERC20(address,address,uint256)":"9db5dbe4","upgrade(address)":"0900f010"},"id":253}