{"abi":[{"type":"constructor","inputs":[],"stateMutability":"payable"},{"type":"function","name":"DOMAIN_SEPARATOR","inputs":[],"outputs":[{"name":"","type":"bytes32","internalType":"bytes32"}],"stateMutability":"view"},{"type":"function","name":"PERMIT_TYPEHASH","inputs":[],"outputs":[{"name":"","type":"bytes32","internalType":"bytes32"}],"stateMutability":"view"},{"type":"function","name":"approve","inputs":[{"name":"to","type":"address","internalType":"address"},{"name":"tokenId","type":"uint256","internalType":"uint256"}],"outputs":[],"stateMutability":"nonpayable"},{"type":"function","name":"balanceOf","inputs":[{"name":"owner","type":"address","internalType":"address"}],"outputs":[{"name":"","type":"uint256","internalType":"uint256"}],"stateMutability":"view"},{"type":"function","name":"burn","inputs":[{"name":"tokenId","type":"uint256","internalType":"uint256"}],"outputs":[],"stateMutability":"nonpayable"},{"type":"function","name":"getApproved","inputs":[{"name":"tokenId","type":"uint256","internalType":"uint256"}],"outputs":[{"name":"","type":"address","internalType":"address"}],"stateMutability":"view"},{"type":"function","name":"isApprovedForAll","inputs":[{"name":"owner","type":"address","internalType":"address"},{"name":"operator","type":"address","internalType":"address"}],"outputs":[{"name":"","type":"bool","internalType":"bool"}],"stateMutability":"view"},{"type":"function","name":"mint","inputs":[{"name":"to","type":"address","internalType":"address"},{"name":"id","type":"uint256","internalType":"uint256"}],"outputs":[],"stateMutability":"nonpayable"},{"type":"function","name":"mint","inputs":[{"name":"to","type":"address","internalType":"address"}],"outputs":[],"stateMutability":"nonpayable"},{"type":"function","name":"name","inputs":[],"outputs":[{"name":"","type":"string","internalType":"string"}],"stateMutability":"view"},{"type":"function","name":"ownerOf","inputs":[{"name":"tokenId","type":"uint256","internalType":"uint256"}],"outputs":[{"name":"","type":"address","internalType":"address"}],"stateMutability":"view"},{"type":"function","name":"permit","inputs":[{"name":"spender","type":"address","internalType":"address"},{"name":"tokenId","type":"uint256","internalType":"uint256"},{"name":"deadline","type":"uint256","internalType":"uint256"},{"name":"v","type":"uint8","internalType":"uint8"},{"name":"r","type":"bytes32","internalType":"bytes32"},{"name":"s","type":"bytes32","internalType":"bytes32"}],"outputs":[],"stateMutability":"payable"},{"type":"function","name":"safeTransferFrom","inputs":[{"name":"from","type":"address","internalType":"address"},{"name":"to","type":"address","internalType":"address"},{"name":"tokenId","type":"uint256","internalType":"uint256"}],"outputs":[],"stateMutability":"nonpayable"},{"type":"function","name":"safeTransferFrom","inputs":[{"name":"from","type":"address","internalType":"address"},{"name":"to","type":"address","internalType":"address"},{"name":"tokenId","type":"uint256","internalType":"uint256"},{"name":"data","type":"bytes","internalType":"bytes"}],"outputs":[],"stateMutability":"nonpayable"},{"type":"function","name":"setApprovalForAll","inputs":[{"name":"operator","type":"address","internalType":"address"},{"name":"approved","type":"bool","internalType":"bool"}],"outputs":[],"stateMutability":"nonpayable"},{"type":"function","name":"setTokenURI","inputs":[{"name":"tokenURI","type":"string","internalType":"string"}],"outputs":[],"stateMutability":"nonpayable"},{"type":"function","name":"supportsInterface","inputs":[{"name":"interfaceId","type":"bytes4","internalType":"bytes4"}],"outputs":[{"name":"","type":"bool","internalType":"bool"}],"stateMutability":"view"},{"type":"function","name":"symbol","inputs":[],"outputs":[{"name":"","type":"string","internalType":"string"}],"stateMutability":"view"},{"type":"function","name":"tokenIdNonces","inputs":[{"name":"tokenId","type":"uint256","internalType":"uint256"}],"outputs":[{"name":"nonce","type":"uint256","internalType":"uint256"}],"stateMutability":"view"},{"type":"function","name":"tokenURI","inputs":[{"name":"tokenId","type":"uint256","internalType":"uint256"}],"outputs":[{"name":"","type":"string","internalType":"string"}],"stateMutability":"view"},{"type":"function","name":"totalSupply","inputs":[],"outputs":[{"name":"","type":"uint256","internalType":"uint256"}],"stateMutability":"view"},{"type":"function","name":"transferFrom","inputs":[{"name":"from","type":"address","internalType":"address"},{"name":"to","type":"address","internalType":"address"},{"name":"tokenId","type":"uint256","internalType":"uint256"}],"outputs":[],"stateMutability":"nonpayable"},{"type":"event","name":"Approval","inputs":[{"name":"owner","type":"address","indexed":true,"internalType":"address"},{"name":"approved","type":"address","indexed":true,"internalType":"address"},{"name":"tokenId","type":"uint256","indexed":true,"internalType":"uint256"}],"anonymous":false},{"type":"event","name":"ApprovalForAll","inputs":[{"name":"owner","type":"address","indexed":true,"internalType":"address"},{"name":"operator","type":"address","indexed":true,"internalType":"address"},{"name":"approved","type":"bool","indexed":false,"internalType":"bool"}],"anonymous":false},{"type":"event","name":"Transfer","inputs":[{"name":"from","type":"address","indexed":true,"internalType":"address"},{"name":"to","type":"address","indexed":true,"internalType":"address"},{"name":"tokenId","type":"uint256","indexed":true,"internalType":"uint256"}],"anonymous":false},{"type":"error","name":"ERC721IncorrectOwner","inputs":[{"name":"sender","type":"address","internalType":"address"},{"name":"tokenId","type":"uint256","internalType":"uint256"},{"name":"owner","type":"address","internalType":"address"}]},{"type":"error","name":"ERC721InsufficientApproval","inputs":[{"name":"operator","type":"address","internalType":"address"},{"name":"tokenId","type":"uint256","internalType":"uint256"}]},{"type":"error","name":"ERC721InvalidApprover","inputs":[{"name":"approver","type":"address","internalType":"address"}]},{"type":"error","name":"ERC721InvalidOperator","inputs":[{"name":"operator","type":"address","internalType":"address"}]},{"type":"error","name":"ERC721InvalidOwner","inputs":[{"name":"owner","type":"address","internalType":"address"}]},{"type":"error","name":"ERC721InvalidReceiver","inputs":[{"name":"receiver","type":"address","internalType":"address"}]},{"type":"error","name":"ERC721InvalidSender","inputs":[{"name":"sender","type":"address","internalType":"address"}]},{"type":"error","name":"ERC721NonexistentToken","inputs":[{"name":"tokenId","type":"uint256","internalType":"uint256"}]}],"bytecode":{"object":"0x600a6080908152694d6f636b45524337323160b01b60a052610100604052600760c0908152664d45524337323160c81b60e0526000620000408382620001a8565b5060016200004f8282620001a8565b50505060405180606001604052806036815260200162001c62603691396007906200007b9082620001a8565b50604080518082018252600a8152694d6f636b45524337323160b01b6020918201527fd8f88945c7cea2718c5b89c81e9dcaa2ae55856bf7e028cf066ad31444b6b1a9600855815180830190925260038252620312e360ec1b9101527fe6bbd6277e1bf288eed5e8d1780f9a50b239e86b153736bceebccf4ea79d90b360095562000274565b634e487b7160e01b600052604160045260246000fd5b600181811c908216806200012c57607f821691505b6020821081036200014d57634e487b7160e01b600052602260045260246000fd5b50919050565b601f821115620001a3576000816000526020600020601f850160051c810160208610156200017e5750805b601f850160051c820191505b818110156200019f578281556001016200018a565b5050505b505050565b81516001600160401b03811115620001c457620001c462000101565b620001dc81620001d5845462000117565b8462000153565b602080601f831160018114620002145760008415620001fb5750858301515b600019600386901b1c1916600185901b1785556200019f565b600085815260208120601f198616915b82811015620002455788860151825594840194600190910190840162000224565b5085821015620002645787850151600019600388901b60f8161c191681555b5050505050600190811b01905550565b6119de80620002846000396000f3fe6080604052600436106101355760003560e01c80636352211e116100ab578063a22cb4651161006f578063a22cb4651461035b578063b88d4fde1461037b578063c87b56dd1461039b578063e0df5b6f146103bb578063e985e9c5146103db578063fcedc1fe146103fb57600080fd5b80636352211e146102d35780636a627842146102f357806370a08231146103135780637ac2ff7b1461033357806395d89b411461034657600080fd5b806323b872dd116100fd57806323b872dd1461020a57806330adf81f1461022a5780633644e5151461025e57806340c10f191461027357806342842e0e1461029357806342966c68146102b357600080fd5b806301ffc9a71461013a57806306fdde031461016f578063081812fc14610191578063095ea7b3146101c957806318160ddd146101eb575b600080fd5b34801561014657600080fd5b5061015a610155366004611411565b610428565b60405190151581526020015b60405180910390f35b34801561017b57600080fd5b5061018461047a565b604051610166919061147e565b34801561019d57600080fd5b506101b16101ac366004611491565b61050c565b6040516001600160a01b039091168152602001610166565b3480156101d557600080fd5b506101e96101e43660046114c6565b610533565b005b3480156101f757600080fd5b506006545b604051908152602001610166565b34801561021657600080fd5b506101e96102253660046114f0565b6105d1565b34801561023657600080fd5b506101fc7f49ecf333e5b8c95c40fdafc95c1ad136e8914a8fb55e9dc8bb01eaa83a2df9ad81565b34801561026a57600080fd5b506101fc610619565b34801561027f57600080fd5b506101e961028e3660046114c6565b610682565b34801561029f57600080fd5b506101e96102ae3660046114f0565b6106a5565b3480156102bf57600080fd5b506101e96102ce366004611491565b6106c0565b3480156102df57600080fd5b506101b16102ee366004611491565b6106df565b3480156102ff57600080fd5b506101e961030e36600461152c565b610718565b34801561031f57600080fd5b506101fc61032e36600461152c565b61073c565b6101e9610341366004611547565b610784565b34801561035257600080fd5b50610184610b0d565b34801561036757600080fd5b506101e96103763660046115a7565b610b1c565b34801561038757600080fd5b506101e961039636600461166f565b610b2b565b3480156103a757600080fd5b506101846103b6366004611491565b610b6d565b3480156103c757600080fd5b506101e96103d63660046116eb565b610bd4565b3480156103e757600080fd5b5061015a6103f6366004611734565b610be0565b34801561040757600080fd5b506101fc610416366004611491565b600a6020526000908152604090205481565b60006001600160e01b031982166380ac58cd60e01b148061045957506001600160e01b03198216635b5e139f60e01b145b8061047457506301ffc9a760e01b6001600160e01b03198316145b92915050565b60606000805461048990611767565b80601f01602080910402602001604051908101604052809291908181526020018280546104b590611767565b80156105025780601f106104d757610100808354040283529160200191610502565b820191906000526020600020905b8154815290600101906020018083116104e557829003601f168201915b5050505050905090565b600061051782610c0e565b506000908152600460205260409020546001600160a01b031690565b600061053e826106df565b9050806001600160a01b0316836001600160a01b03160361058257604051630b61174360e31b81526001600160a01b03821660048201526024015b60405180910390fd5b336001600160a01b038216148015906105a257506105a08133610be0565b155b156105c25760405163a9fbf51f60e01b8152336004820152602401610579565b6105cc8383610c46565b505050565b6105dc335b82610cb4565b61060e57335b60405163177e802f60e01b81526001600160a01b03909116600482015260248101829052604401610579565b6105cc838383610d13565b600854600954604080517f8b73c3c69bb8fe3d512ecc4cf759cc79239f7b179b0ffacaa9a75d522b39400f60208201529081019290925260608201524660808201523060a082015260009060c00160405160208183030381529060405280519060200120905090565b61068c8282610ea1565b6006805490600061069c836117b7565b91905055505050565b6105cc83838360405180602001604052806000815250610b2b565b6106c9336105d6565b6106d357336105e2565b6106dc81610fa8565b50565b6000818152600260205260408120546001600160a01b03168061047457604051637e27328960e01b815260048101849052602401610579565b61072481600654610ea1565b60068054906000610734836117b7565b919050555050565b60006001600160a01b038216610768576040516322718ad960e21b815260006004820152602401610579565b506001600160a01b031660009081526003602052604090205490565b834211156107c55760405162461bcd60e51b815260206004820152600e60248201526d14195c9b5a5d08195e1c1a5c995960921b6044820152606401610579565b60006107cf610619565b7f49ecf333e5b8c95c40fdafc95c1ad136e8914a8fb55e9dc8bb01eaa83a2df9ad88886107fb81611060565b6040805160208101959095526001600160a01b03909316928401929092526060830152608082015260a0810187905260c0016040516020818303038152906040528051906020012060405160200161086a92919061190160f01b81526002810192909252602282015260420190565b604051602081830303815290604052805190602001209050600061088d876106df565b9050806001600160a01b0316886001600160a01b0316036109005760405162461bcd60e51b815260206004820152602760248201527f4552433732315065726d69743a20617070726f76616c20746f2063757272656e6044820152663a1037bbb732b960c91b6064820152608401610579565b803b156109fc57604080516020810186905280820185905260f887901b6001600160f81b0319166060820152815160418183030181526061820192839052630b135d3f60e11b9092526001600160a01b03831691631626ba7e916109689186916065016117d0565b602060405180830381865afa158015610985573d6000803e3d6000fd5b505050506040513d601f19601f820116820180604052508101906109a991906117e9565b6001600160e01b031916631626ba7e60e01b146109f75760405162461bcd60e51b815260206004820152600c60248201526b155b985d5d1a1bdc9a5e995960a21b6044820152606401610579565b610af9565b6040805160008082526020820180845285905260ff881692820192909252606081018690526080810185905260019060a0016020604051602081039080840390855afa158015610a50573d6000803e3d6000fd5b5050604051601f1901519150506001600160a01b038116610aa75760405162461bcd60e51b8152602060048201526011602482015270496e76616c6964207369676e617475726560781b6044820152606401610579565b816001600160a01b0316816001600160a01b031614610af75760405162461bcd60e51b815260206004820152600c60248201526b155b985d5d1a1bdc9a5e995960a21b6044820152606401610579565b505b610b038888610c46565b5050505050505050565b60606001805461048990611767565b610b2733838361108b565b5050565b610b353383610cb4565b610b5b5760405163177e802f60e01b815233600482015260248101839052604401610579565b610b6784848484611135565b50505050565b6060610b7882610c0e565b6000610b82611174565b90506000815111610ba25760405180602001604052806000815250610bcd565b80610bac84611183565b604051602001610bbd929190611806565b6040516020818303038152906040525b9392505050565b6007610b278282611885565b6001600160a01b03918216600090815260056020908152604080832093909416825291909152205460ff1690565b6000818152600260205260409020546001600160a01b03166106dc57604051637e27328960e01b815260048101829052602401610579565b600081815260046020526040902080546001600160a01b0319166001600160a01b0384169081179091558190610c7b826106df565b6001600160a01b03167f8c5be1e5ebec7d5bd14f71427d1e84f3dd0314c0f7b2291e5b200ac8c7c3b92560405160405180910390a45050565b600080610cc0836106df565b9050806001600160a01b0316846001600160a01b03161480610ce75750610ce78185610be0565b80610d0b5750836001600160a01b0316610d008461050c565b6001600160a01b0316145b949350505050565b6000610d1e826106df565b9050836001600160a01b0316816001600160a01b031614610d6c576040516364283d7b60e01b81526001600160a01b0380861660048301526024820184905282166044820152606401610579565b6001600160a01b038316610d9657604051633250574960e11b815260006004820152602401610579565b610d9f826106df565b9050836001600160a01b0316816001600160a01b031614610ded576040516364283d7b60e01b81526001600160a01b0380861660048301526024820184905282166044820152606401610579565b600082815260046020908152604080832080546001600160a01b03191690556001600160a01b038716835260039091528120805460019290610e30908490611945565b90915550506001600160a01b03808416600081815260036020908152604080832080546001019055868352600290915280822080546001600160a01b031916841790555185938816917fddf252ad1be2c89b69c2b068fc378daa952ba7f163c4a11628f55a4df523b3ef91a4610b67565b6001600160a01b038216610ecb57604051633250574960e11b815260006004820152602401610579565b6000818152600260205260409020546001600160a01b031615610f04576040516339e3563760e11b815260006004820152602401610579565b6000818152600260205260409020546001600160a01b031615610f3d576040516339e3563760e11b815260006004820152602401610579565b6001600160a01b038216600081815260036020908152604080832080546001019055848352600290915280822080546001600160a01b0319168417905551839291907fddf252ad1be2c89b69c2b068fc378daa952ba7f163c4a11628f55a4df523b3ef908290a45050565b6000610fb3826106df565b9050610fbe826106df565b600083815260046020908152604080832080546001600160a01b03191690556001600160a01b0384168352600390915281208054929350600192909190611006908490611945565b909155505060008281526002602052604080822080546001600160a01b0319169055518391906001600160a01b038416907fddf252ad1be2c89b69c2b068fc378daa952ba7f163c4a11628f55a4df523b3ef908390a45050565b6000818152600a602052604081208054906001908361107f8385611958565b90915550909392505050565b816001600160a01b0316836001600160a01b0316036110c857604051630b61174360e31b81526001600160a01b0384166004820152602401610579565b6001600160a01b03838116600081815260056020908152604080832094871680845294825291829020805460ff191686151590811790915591519182527f17307eab39ab6107e8899845ad3d59bd9653f200f220920489ca2b5937696c31910160405180910390a3505050565b611140848484610d13565b61114c84848484611216565b610b6757604051633250574960e11b81526001600160a01b0384166004820152602401610579565b60606007805461048990611767565b6060600061119083611323565b600101905060008167ffffffffffffffff8111156111b0576111b06115e3565b6040519080825280601f01601f1916602001820160405280156111da576020820181803683370190505b5090508181016020015b600019016f181899199a1a9b1b9c1cb0b131b232b360811b600a86061a8153600a85049450846111e457509392505050565b60006001600160a01b0384163b1561131857604051630a85bd0160e11b81526001600160a01b0385169063150b7a029061125a90339089908890889060040161196b565b6020604051808303816000875af1925050508015611295575060408051601f3d908101601f19168201909252611292918101906117e9565b60015b6112fe573d8080156112c3576040519150601f19603f3d011682016040523d82523d6000602084013e6112c8565b606091505b5080516000036112f657604051633250574960e11b81526001600160a01b0386166004820152602401610579565b805181602001fd5b6001600160e01b031916630a85bd0160e11b149050610d0b565b506001949350505050565b60008072184f03e93ff9f4daa797ed6e38ed64bf6a1f0160401b83106113625772184f03e93ff9f4daa797ed6e38ed64bf6a1f0160401b830492506040015b6d04ee2d6d415b85acef8100000000831061138e576d04ee2d6d415b85acef8100000000830492506020015b662386f26fc1000083106113ac57662386f26fc10000830492506010015b6305f5e10083106113c4576305f5e100830492506008015b61271083106113d857612710830492506004015b606483106113ea576064830492506002015b600a83106104745760010192915050565b6001600160e01b0319811681146106dc57600080fd5b60006020828403121561142357600080fd5b8135610bcd816113fb565b60005b83811015611449578181015183820152602001611431565b50506000910152565b6000815180845261146a81602086016020860161142e565b601f01601f19169290920160200192915050565b602081526000610bcd6020830184611452565b6000602082840312156114a357600080fd5b5035919050565b80356001600160a01b03811681146114c157600080fd5b919050565b600080604083850312156114d957600080fd5b6114e2836114aa565b946020939093013593505050565b60008060006060848603121561150557600080fd5b61150e846114aa565b925061151c602085016114aa565b9150604084013590509250925092565b60006020828403121561153e57600080fd5b610bcd826114aa565b60008060008060008060c0878903121561156057600080fd5b611569876114aa565b95506020870135945060408701359350606087013560ff8116811461158d57600080fd5b9598949750929560808101359460a0909101359350915050565b600080604083850312156115ba57600080fd5b6115c3836114aa565b9150602083013580151581146115d857600080fd5b809150509250929050565b634e487b7160e01b600052604160045260246000fd5b600067ffffffffffffffff80841115611614576116146115e3565b604051601f8501601f19908116603f0116810190828211818310171561163c5761163c6115e3565b8160405280935085815286868601111561165557600080fd5b858560208301376000602087830101525050509392505050565b6000806000806080858703121561168557600080fd5b61168e856114aa565b935061169c602086016114aa565b925060408501359150606085013567ffffffffffffffff8111156116bf57600080fd5b8501601f810187136116d057600080fd5b6116df878235602084016115f9565b91505092959194509250565b6000602082840312156116fd57600080fd5b813567ffffffffffffffff81111561171457600080fd5b8201601f8101841361172557600080fd5b610d0b848235602084016115f9565b6000806040838503121561174757600080fd5b611750836114aa565b915061175e602084016114aa565b90509250929050565b600181811c9082168061177b57607f821691505b60208210810361179b57634e487b7160e01b600052602260045260246000fd5b50919050565b634e487b7160e01b600052601160045260246000fd5b6000600182016117c9576117c96117a1565b5060010190565b828152604060208201526000610d0b6040830184611452565b6000602082840312156117fb57600080fd5b8151610bcd816113fb565b6000835161181881846020880161142e565b83519083019061182c81836020880161142e565b01949350505050565b601f8211156105cc576000816000526020600020601f850160051c8101602086101561185e5750805b601f850160051c820191505b8181101561187d5782815560010161186a565b505050505050565b815167ffffffffffffffff81111561189f5761189f6115e3565b6118b3816118ad8454611767565b84611835565b602080601f8311600181146118e857600084156118d05750858301515b600019600386901b1c1916600185901b17855561187d565b600085815260208120601f198616915b82811015611917578886015182559484019460019091019084016118f8565b50858210156119355787850151600019600388901b60f8161c191681555b5050505050600190811b01905550565b81810381811115610474576104746117a1565b80820180821115610474576104746117a1565b6001600160a01b038581168252841660208201526040810183905260806060820181905260009061199e90830184611452565b969550505050505056fea26469706673582212205d30ddb4b2436ec0ecc1fc85c0ce4118aabbcd7e43939f50a9d9aaae02b1e45364736f6c63430008160033697066733a2f2f516d61577759586b3457774158366b4d527a62516668726974326d6b697738465969786f32436862457777486e682f","linkReferences":{}},"methodIdentifiers":{"DOMAIN_SEPARATOR()":"3644e515","PERMIT_TYPEHASH()":"30adf81f","approve(address,uint256)":"095ea7b3","balanceOf(address)":"70a08231","burn(uint256)":"42966c68","getApproved(uint256)":"081812fc","isApprovedForAll(address,address)":"e985e9c5","mint(address)":"6a627842","mint(address,uint256)":"40c10f19","name()":"06fdde03","ownerOf(uint256)":"6352211e","permit(address,uint256,uint256,uint8,bytes32,bytes32)":"7ac2ff7b","safeTransferFrom(address,address,uint256)":"42842e0e","safeTransferFrom(address,address,uint256,bytes)":"b88d4fde","setApprovalForAll(address,bool)":"a22cb465","setTokenURI(string)":"e0df5b6f","supportsInterface(bytes4)":"01ffc9a7","symbol()":"95d89b41","tokenIdNonces(uint256)":"fcedc1fe","tokenURI(uint256)":"c87b56dd","totalSupply()":"18160ddd","transferFrom(address,address,uint256)":"23b872dd"},"id":155}