{"abi":[{"type":"function","name":"deriveFractionCompatibleAmounts","inputs":[{"name":"originalStartAmount","type":"uint256","internalType":"uint256"},{"name":"originalEndAmount","type":"uint256","internalType":"uint256"},{"name":"startTime","type":"uint256","internalType":"uint256"},{"name":"endTime","type":"uint256","internalType":"uint256"},{"name":"numerator","type":"uint256","internalType":"uint256"},{"name":"denominator","type":"uint256","internalType":"uint256"}],"outputs":[{"name":"newStartAmount","type":"uint256","internalType":"uint256"},{"name":"newEndAmount","type":"uint256","internalType":"uint256"}],"stateMutability":"pure"},{"type":"function","name":"getSpentAndReceivedItems","inputs":[{"name":"order","type":"tuple","internalType":"struct AdvancedOrder","components":[{"name":"parameters","type":"tuple","internalType":"struct OrderParameters","components":[{"name":"offerer","type":"address","internalType":"address"},{"name":"zone","type":"address","internalType":"address"},{"name":"offer","type":"tuple[]","internalType":"struct OfferItem[]","components":[{"name":"itemType","type":"uint8","internalType":"enum ItemType"},{"name":"token","type":"address","internalType":"address"},{"name":"identifierOrCriteria","type":"uint256","internalType":"uint256"},{"name":"startAmount","type":"uint256","internalType":"uint256"},{"name":"endAmount","type":"uint256","internalType":"uint256"}]},{"name":"consideration","type":"tuple[]","internalType":"struct ConsiderationItem[]","components":[{"name":"itemType","type":"uint8","internalType":"enum ItemType"},{"name":"token","type":"address","internalType":"address"},{"name":"identifierOrCriteria","type":"uint256","internalType":"uint256"},{"name":"startAmount","type":"uint256","internalType":"uint256"},{"name":"endAmount","type":"uint256","internalType":"uint256"},{"name":"recipient","type":"address","internalType":"address payable"}]},{"name":"orderType","type":"uint8","internalType":"enum OrderType"},{"name":"startTime","type":"uint256","internalType":"uint256"},{"name":"endTime","type":"uint256","internalType":"uint256"},{"name":"zoneHash","type":"bytes32","internalType":"bytes32"},{"name":"salt","type":"uint256","internalType":"uint256"},{"name":"conduitKey","type":"bytes32","internalType":"bytes32"},{"name":"totalOriginalConsiderationItems","type":"uint256","internalType":"uint256"}]},{"name":"numerator","type":"uint120","internalType":"uint120"},{"name":"denominator","type":"uint120","internalType":"uint120"},{"name":"signature","type":"bytes","internalType":"bytes"},{"name":"extraData","type":"bytes","internalType":"bytes"}]}],"outputs":[{"name":"spent","type":"tuple[]","internalType":"struct SpentItem[]","components":[{"name":"itemType","type":"uint8","internalType":"enum ItemType"},{"name":"token","type":"address","internalType":"address"},{"name":"identifier","type":"uint256","internalType":"uint256"},{"name":"amount","type":"uint256","internalType":"uint256"}]},{"name":"received","type":"tuple[]","internalType":"struct ReceivedItem[]","components":[{"name":"itemType","type":"uint8","internalType":"enum ItemType"},{"name":"token","type":"address","internalType":"address"},{"name":"identifier","type":"uint256","internalType":"uint256"},{"name":"amount","type":"uint256","internalType":"uint256"},{"name":"recipient","type":"address","internalType":"address payable"}]}],"stateMutability":"view"},{"type":"function","name":"getSpentAndReceivedItems","inputs":[{"name":"order","type":"tuple","internalType":"struct Order","components":[{"name":"parameters","type":"tuple","internalType":"struct OrderParameters","components":[{"name":"offerer","type":"address","internalType":"address"},{"name":"zone","type":"address","internalType":"address"},{"name":"offer","type":"tuple[]","internalType":"struct OfferItem[]","components":[{"name":"itemType","type":"uint8","internalType":"enum ItemType"},{"name":"token","type":"address","internalType":"address"},{"name":"identifierOrCriteria","type":"uint256","internalType":"uint256"},{"name":"startAmount","type":"uint256","internalType":"uint256"},{"name":"endAmount","type":"uint256","internalType":"uint256"}]},{"name":"consideration","type":"tuple[]","internalType":"struct ConsiderationItem[]","components":[{"name":"itemType","type":"uint8","internalType":"enum ItemType"},{"name":"token","type":"address","internalType":"address"},{"name":"identifierOrCriteria","type":"uint256","internalType":"uint256"},{"name":"startAmount","type":"uint256","internalType":"uint256"},{"name":"endAmount","type":"uint256","internalType":"uint256"},{"name":"recipient","type":"address","internalType":"address payable"}]},{"name":"orderType","type":"uint8","internalType":"enum OrderType"},{"name":"startTime","type":"uint256","internalType":"uint256"},{"name":"endTime","type":"uint256","internalType":"uint256"},{"name":"zoneHash","type":"bytes32","internalType":"bytes32"},{"name":"salt","type":"uint256","internalType":"uint256"},{"name":"conduitKey","type":"bytes32","internalType":"bytes32"},{"name":"totalOriginalConsiderationItems","type":"uint256","internalType":"uint256"}]},{"name":"signature","type":"bytes","internalType":"bytes"}]}],"outputs":[{"name":"spent","type":"tuple[]","internalType":"struct SpentItem[]","components":[{"name":"itemType","type":"uint8","internalType":"enum ItemType"},{"name":"token","type":"address","internalType":"address"},{"name":"identifier","type":"uint256","internalType":"uint256"},{"name":"amount","type":"uint256","internalType":"uint256"}]},{"name":"received","type":"tuple[]","internalType":"struct ReceivedItem[]","components":[{"name":"itemType","type":"uint8","internalType":"enum ItemType"},{"name":"token","type":"address","internalType":"address"},{"name":"identifier","type":"uint256","internalType":"uint256"},{"name":"amount","type":"uint256","internalType":"uint256"},{"name":"recipient","type":"address","internalType":"address payable"}]}],"stateMutability":"view"},{"type":"function","name":"getSpentAndReceivedItems","inputs":[{"name":"order","type":"tuple","internalType":"struct AdvancedOrder","components":[{"name":"parameters","type":"tuple","internalType":"struct OrderParameters","components":[{"name":"offerer","type":"address","internalType":"address"},{"name":"zone","type":"address","internalType":"address"},{"name":"offer","type":"tuple[]","internalType":"struct OfferItem[]","components":[{"name":"itemType","type":"uint8","internalType":"enum ItemType"},{"name":"token","type":"address","internalType":"address"},{"name":"identifierOrCriteria","type":"uint256","internalType":"uint256"},{"name":"startAmount","type":"uint256","internalType":"uint256"},{"name":"endAmount","type":"uint256","internalType":"uint256"}]},{"name":"consideration","type":"tuple[]","internalType":"struct ConsiderationItem[]","components":[{"name":"itemType","type":"uint8","internalType":"enum ItemType"},{"name":"token","type":"address","internalType":"address"},{"name":"identifierOrCriteria","type":"uint256","internalType":"uint256"},{"name":"startAmount","type":"uint256","internalType":"uint256"},{"name":"endAmount","type":"uint256","internalType":"uint256"},{"name":"recipient","type":"address","internalType":"address payable"}]},{"name":"orderType","type":"uint8","internalType":"enum OrderType"},{"name":"startTime","type":"uint256","internalType":"uint256"},{"name":"endTime","type":"uint256","internalType":"uint256"},{"name":"zoneHash","type":"bytes32","internalType":"bytes32"},{"name":"salt","type":"uint256","internalType":"uint256"},{"name":"conduitKey","type":"bytes32","internalType":"bytes32"},{"name":"totalOriginalConsiderationItems","type":"uint256","internalType":"uint256"}]},{"name":"numerator","type":"uint120","internalType":"uint120"},{"name":"denominator","type":"uint120","internalType":"uint120"},{"name":"signature","type":"bytes","internalType":"bytes"},{"name":"extraData","type":"bytes","internalType":"bytes"}]},{"name":"orderIndex","type":"uint256","internalType":"uint256"},{"name":"criteriaResolvers","type":"tuple[]","internalType":"struct CriteriaResolver[]","components":[{"name":"orderIndex","type":"uint256","internalType":"uint256"},{"name":"side","type":"uint8","internalType":"enum Side"},{"name":"index","type":"uint256","internalType":"uint256"},{"name":"identifier","type":"uint256","internalType":"uint256"},{"name":"criteriaProof","type":"bytes32[]","internalType":"bytes32[]"}]}],"outputs":[{"name":"spent","type":"tuple[]","internalType":"struct SpentItem[]","components":[{"name":"itemType","type":"uint8","internalType":"enum ItemType"},{"name":"token","type":"address","internalType":"address"},{"name":"identifier","type":"uint256","internalType":"uint256"},{"name":"amount","type":"uint256","internalType":"uint256"}]},{"name":"received","type":"tuple[]","internalType":"struct ReceivedItem[]","components":[{"name":"itemType","type":"uint8","internalType":"enum ItemType"},{"name":"token","type":"address","internalType":"address"},{"name":"identifier","type":"uint256","internalType":"uint256"},{"name":"amount","type":"uint256","internalType":"uint256"},{"name":"recipient","type":"address","internalType":"address payable"}]}],"stateMutability":"view"},{"type":"function","name":"getSpentAndReceivedItems","inputs":[{"name":"parameters","type":"tuple","internalType":"struct OrderParameters","components":[{"name":"offerer","type":"address","internalType":"address"},{"name":"zone","type":"address","internalType":"address"},{"name":"offer","type":"tuple[]","internalType":"struct OfferItem[]","components":[{"name":"itemType","type":"uint8","internalType":"enum ItemType"},{"name":"token","type":"address","internalType":"address"},{"name":"identifierOrCriteria","type":"uint256","internalType":"uint256"},{"name":"startAmount","type":"uint256","internalType":"uint256"},{"name":"endAmount","type":"uint256","internalType":"uint256"}]},{"name":"consideration","type":"tuple[]","internalType":"struct ConsiderationItem[]","components":[{"name":"itemType","type":"uint8","internalType":"enum ItemType"},{"name":"token","type":"address","internalType":"address"},{"name":"identifierOrCriteria","type":"uint256","internalType":"uint256"},{"name":"startAmount","type":"uint256","internalType":"uint256"},{"name":"endAmount","type":"uint256","internalType":"uint256"},{"name":"recipient","type":"address","internalType":"address payable"}]},{"name":"orderType","type":"uint8","internalType":"enum OrderType"},{"name":"startTime","type":"uint256","internalType":"uint256"},{"name":"endTime","type":"uint256","internalType":"uint256"},{"name":"zoneHash","type":"bytes32","internalType":"bytes32"},{"name":"salt","type":"uint256","internalType":"uint256"},{"name":"conduitKey","type":"bytes32","internalType":"bytes32"},{"name":"totalOriginalConsiderationItems","type":"uint256","internalType":"uint256"}]}],"outputs":[{"name":"spent","type":"tuple[]","internalType":"struct SpentItem[]","components":[{"name":"itemType","type":"uint8","internalType":"enum ItemType"},{"name":"token","type":"address","internalType":"address"},{"name":"identifier","type":"uint256","internalType":"uint256"},{"name":"amount","type":"uint256","internalType":"uint256"}]},{"name":"received","type":"tuple[]","internalType":"struct ReceivedItem[]","components":[{"name":"itemType","type":"uint8","internalType":"enum ItemType"},{"name":"token","type":"address","internalType":"address"},{"name":"identifier","type":"uint256","internalType":"uint256"},{"name":"amount","type":"uint256","internalType":"uint256"},{"name":"recipient","type":"address","internalType":"address payable"}]}],"stateMutability":"view"},{"type":"function","name":"toOrderDetails","inputs":[{"name":"order","type":"tuple[]","internalType":"struct Order[]","components":[{"name":"parameters","type":"tuple","internalType":"struct OrderParameters","components":[{"name":"offerer","type":"address","internalType":"address"},{"name":"zone","type":"address","internalType":"address"},{"name":"offer","type":"tuple[]","internalType":"struct OfferItem[]","components":[{"name":"itemType","type":"uint8","internalType":"enum ItemType"},{"name":"token","type":"address","internalType":"address"},{"name":"identifierOrCriteria","type":"uint256","internalType":"uint256"},{"name":"startAmount","type":"uint256","internalType":"uint256"},{"name":"endAmount","type":"uint256","internalType":"uint256"}]},{"name":"consideration","type":"tuple[]","internalType":"struct ConsiderationItem[]","components":[{"name":"itemType","type":"uint8","internalType":"enum ItemType"},{"name":"token","type":"address","internalType":"address"},{"name":"identifierOrCriteria","type":"uint256","internalType":"uint256"},{"name":"startAmount","type":"uint256","internalType":"uint256"},{"name":"endAmount","type":"uint256","internalType":"uint256"},{"name":"recipient","type":"address","internalType":"address payable"}]},{"name":"orderType","type":"uint8","internalType":"enum OrderType"},{"name":"startTime","type":"uint256","internalType":"uint256"},{"name":"endTime","type":"uint256","internalType":"uint256"},{"name":"zoneHash","type":"bytes32","internalType":"bytes32"},{"name":"salt","type":"uint256","internalType":"uint256"},{"name":"conduitKey","type":"bytes32","internalType":"bytes32"},{"name":"totalOriginalConsiderationItems","type":"uint256","internalType":"uint256"}]},{"name":"signature","type":"bytes","internalType":"bytes"}]},{"name":"orderHashes","type":"bytes32[]","internalType":"bytes32[]"},{"name":"unavailableReasons","type":"uint8[]","internalType":"enum UnavailableReason[]"}],"outputs":[{"name":"","type":"tuple[]","internalType":"struct OrderDetails[]","components":[{"name":"offerer","type":"address","internalType":"address"},{"name":"conduitKey","type":"bytes32","internalType":"bytes32"},{"name":"offer","type":"tuple[]","internalType":"struct SpentItem[]","components":[{"name":"itemType","type":"uint8","internalType":"enum ItemType"},{"name":"token","type":"address","internalType":"address"},{"name":"identifier","type":"uint256","internalType":"uint256"},{"name":"amount","type":"uint256","internalType":"uint256"}]},{"name":"consideration","type":"tuple[]","internalType":"struct ReceivedItem[]","components":[{"name":"itemType","type":"uint8","internalType":"enum ItemType"},{"name":"token","type":"address","internalType":"address"},{"name":"identifier","type":"uint256","internalType":"uint256"},{"name":"amount","type":"uint256","internalType":"uint256"},{"name":"recipient","type":"address","internalType":"address payable"}]},{"name":"isContract","type":"bool","internalType":"bool"},{"name":"orderHash","type":"bytes32","internalType":"bytes32"},{"name":"unavailableReason","type":"uint8","internalType":"enum UnavailableReason"}]}],"stateMutability":"view"},{"type":"function","name":"toOrderDetails","inputs":[{"name":"orders","type":"tuple[]","internalType":"struct AdvancedOrder[]","components":[{"name":"parameters","type":"tuple","internalType":"struct OrderParameters","components":[{"name":"offerer","type":"address","internalType":"address"},{"name":"zone","type":"address","internalType":"address"},{"name":"offer","type":"tuple[]","internalType":"struct OfferItem[]","components":[{"name":"itemType","type":"uint8","internalType":"enum ItemType"},{"name":"token","type":"address","internalType":"address"},{"name":"identifierOrCriteria","type":"uint256","internalType":"uint256"},{"name":"startAmount","type":"uint256","internalType":"uint256"},{"name":"endAmount","type":"uint256","internalType":"uint256"}]},{"name":"consideration","type":"tuple[]","internalType":"struct ConsiderationItem[]","components":[{"name":"itemType","type":"uint8","internalType":"enum ItemType"},{"name":"token","type":"address","internalType":"address"},{"name":"identifierOrCriteria","type":"uint256","internalType":"uint256"},{"name":"startAmount","type":"uint256","internalType":"uint256"},{"name":"endAmount","type":"uint256","internalType":"uint256"},{"name":"recipient","type":"address","internalType":"address payable"}]},{"name":"orderType","type":"uint8","internalType":"enum OrderType"},{"name":"startTime","type":"uint256","internalType":"uint256"},{"name":"endTime","type":"uint256","internalType":"uint256"},{"name":"zoneHash","type":"bytes32","internalType":"bytes32"},{"name":"salt","type":"uint256","internalType":"uint256"},{"name":"conduitKey","type":"bytes32","internalType":"bytes32"},{"name":"totalOriginalConsiderationItems","type":"uint256","internalType":"uint256"}]},{"name":"numerator","type":"uint120","internalType":"uint120"},{"name":"denominator","type":"uint120","internalType":"uint120"},{"name":"signature","type":"bytes","internalType":"bytes"},{"name":"extraData","type":"bytes","internalType":"bytes"}]},{"name":"resolvers","type":"tuple[]","internalType":"struct CriteriaResolver[]","components":[{"name":"orderIndex","type":"uint256","internalType":"uint256"},{"name":"side","type":"uint8","internalType":"enum Side"},{"name":"index","type":"uint256","internalType":"uint256"},{"name":"identifier","type":"uint256","internalType":"uint256"},{"name":"criteriaProof","type":"bytes32[]","internalType":"bytes32[]"}]},{"name":"orderHashes","type":"bytes32[]","internalType":"bytes32[]"},{"name":"unavailableReasons","type":"uint8[]","internalType":"enum UnavailableReason[]"}],"outputs":[{"name":"","type":"tuple[]","internalType":"struct OrderDetails[]","components":[{"name":"offerer","type":"address","internalType":"address"},{"name":"conduitKey","type":"bytes32","internalType":"bytes32"},{"name":"offer","type":"tuple[]","internalType":"struct SpentItem[]","components":[{"name":"itemType","type":"uint8","internalType":"enum ItemType"},{"name":"token","type":"address","internalType":"address"},{"name":"identifier","type":"uint256","internalType":"uint256"},{"name":"amount","type":"uint256","internalType":"uint256"}]},{"name":"consideration","type":"tuple[]","internalType":"struct ReceivedItem[]","components":[{"name":"itemType","type":"uint8","internalType":"enum ItemType"},{"name":"token","type":"address","internalType":"address"},{"name":"identifier","type":"uint256","internalType":"uint256"},{"name":"amount","type":"uint256","internalType":"uint256"},{"name":"recipient","type":"address","internalType":"address payable"}]},{"name":"isContract","type":"bool","internalType":"bool"},{"name":"orderHash","type":"bytes32","internalType":"bytes32"},{"name":"unavailableReason","type":"uint8","internalType":"enum UnavailableReason"}]}],"stateMutability":"view"},{"type":"error","name":"InexactFraction","inputs":[]}],"bytecode":{"object":"0x608060405234801561001057600080fd5b50612503806100206000396000f3fe608060405234801561001057600080fd5b506004361061007d5760003560e01c80637ab2370b1161005b5780637ab2370b146100e3578063a222a252146100f6578063abe6f42314610116578063e5eceb351461012957600080fd5b806313e44476146100825780631793bbbf146100af578063371889c6146100d0575b600080fd5b610095610090366004611170565b61013c565b604080519283526020830191909152015b60405180910390f35b6100c26100bd3660046111cb565b610332565b6040516100a69291906112a9565b6100c26100de36600461132e565b610390565b6100c26100f1366004611368565b6103a9565b6101096101043660046118ef565b610411565b6040516100a69190611a90565b6100c2610124366004611b9a565b610500565b610109610137366004611ce8565b610545565b600080848610158061014d57508284115b80610156575083155b8061015f575082155b80610171575087158015610171575086155b156101f45760405162461bcd60e51b815260206004820152604260248201527f416d6f756e744465726976657248656c7065723a2062616420696e707574732060448201527f746f206465726976654672616374696f6e436f6d70617469626c65416d6f756e606482015261747360f01b608482015260a4015b60405180910390fd5b60006102008787611ebb565b905060008186116102115781610213565b855b9050600061022382600019611ee4565b90506000866102328184611ee4565b61023c9190611ef8565b9050610248818d611f0f565b9550866102558188611ee4565b61025f9190611ef8565b9550851561026d578561026f565b865b955061027b818c611f0f565b9450866102888187611ee4565b6102929190611ef8565b945084156102a057846102a2565b865b9450851580156102b0575084155b156103235760405162461bcd60e51b815260206004820152603760248201527f416d6f756e744465726976657248656c7065723a206465726976656420616d6f60448201527f756e742077696c6c20616c77617973206265207a65726f00000000000000000060648201526084016101eb565b50505050965096945050505050565b606080806103866103438580611f23565b61034c90611f44565b61035c6040870160208801611f50565b6001600160781b03166103756060880160408901611f50565b6001600160781b0316600085610631565b9250925050915091565b6060806103a06101248480611f23565b91509150915091565b6060806104046103b98780611f23565b6103c290611f44565b6103d26040890160208a01611f50565b6001600160781b03166103eb60608a0160408b01611f50565b6001600160781b0316886103ff888a611f6b565b610631565b9150915094509492505050565b6060600084516001600160401b0381111561042e5761042e611405565b60405190808252806020026020018201604052801561046757816020015b6104546110d2565b81526020019060019003908161044c5790505b50905060005b85518110156104f5576104d086828151811061048b5761048b611f78565b6020026020010151600001518683815181106104a9576104a9611f78565b60200260200101518684815181106104c3576104c3611f78565b6020026020010151610672565b8282815181106104e2576104e2611f78565b602090810291909101015260010161046d565b5090505b9392505050565b60608061051461050f84611f44565b610762565b156105405761052a61052584611f44565b610781565b915061053d61053884611f44565b61079a565b90505b915091565b6060600085516001600160401b0381111561056257610562611405565b60405190808252806020026020018201604052801561059b57816020015b6105886110d2565b8152602001906001900390816105805790505b50905060005b8651811015610627576106028782815181106105bf576105bf611f78565b602002602001015182888885815181106105db576105db611f78565b60200260200101518886815181106105f5576105f5611f78565b60200260200101516107b3565b82828151811061061457610614611f78565b60209081029190910101526001016105a1565b5095945050505050565b60608061063d87610762565b156106685761064d8787876108ae565b915061065a8787876108d1565b9050610668828286866108ec565b9550959350505050565b61067a6110d2565b60405163abe6f42360e01b81526000908190309063abe6f423906106a290899060040161213c565b600060405180830381865afa1580156106bf573d6000803e3d6000fd5b505050506040513d6000823e601f3d908101601f191682016040526106e79190810190612205565b6040805160e08101825289516001600160a01b031681526101208a0151602082015290810183905260608101829052919350915060808101600488608001516004811115610737576107376111ff565b14815260208101879052604001856006811115610756576107566111ff565b90529695505050505050565b60008160a00151421015801561077b57508160c0015142105b92915050565b606061077b82604001518360a001518460c00151610a21565b606061077b82606001518360a001518460c00151610acf565b6107bb6110d2565b604051637ab2370b60e01b815260009081903090637ab2370b906107e7908b908b908b90600401612419565b600060405180830381865afa158015610804573d6000803e3d6000fd5b505050506040513d6000823e601f3d908101601f1916820160405261082c9190810190612205565b6040805160e0810182528b51516001600160a01b031681528b51610120015160208201529081018390526060810182905291935091506080810160048a5160800151600481111561087f5761087f6111ff565b1481526020810187905260400185600681111561089e5761089e6111ff565b9052925050505b95945050505050565b60606108c984604001518560a001518660c001518686610b7d565b949350505050565b60606108c984606001518560a001518660c001518686610c38565b60005b8151811015610a1a57600082828151811061090c5761090c611f78565b60200260200101519050838160000151146109275750610a12565b60008160200151600181111561093f5761093f6111ff565b036109ac5760008682604001518151811061095c5761095c611f78565b602002602001015190506109738160000151610ce8565b81906005811115610986576109866111ff565b90816005811115610999576109996111ff565b9052506060820151604090910152610a10565b6000858260400151815181106109c4576109c4611f78565b602002602001015190506109db8160000151610ce8565b819060058111156109ee576109ee6111ff565b90816005811115610a0157610a016111ff565b90525060608201516040909101525b505b6001016108ef565b5050505050565b6060600084516001600160401b03811115610a3e57610a3e611405565b604051908082528060200260200182016040528015610a7757816020015b610a6461110e565b815260200190600190039081610a5c5790505b50905060005b85518110156104f557610aaa868281518110610a9b57610a9b611f78565b60200260200101518686610d98565b828281518110610abc57610abc611f78565b6020908102919091010152600101610a7d565b6060600084516001600160401b03811115610aec57610aec611405565b604051908082528060200260200182016040528015610b2557816020015b610b12611140565b815260200190600190039081610b0a5790505b50905060005b85518110156104f557610b58868281518110610b4957610b49611f78565b60200260200101518686610df8565b828281518110610b6a57610b6a611f78565b6020908102919091010152600101610b2b565b6060600086516001600160401b03811115610b9a57610b9a611405565b604051908082528060200260200182016040528015610bd357816020015b610bc061110e565b815260200190600190039081610bb85790505b50905060005b8751811015610c2d57610c08888281518110610bf757610bf7611f78565b602002602001015188888888610e6d565b828281518110610c1a57610c1a611f78565b6020908102919091010152600101610bd9565b509695505050505050565b6060600086516001600160401b03811115610c5557610c55611405565b604051908082528060200260200182016040528015610c8e57816020015b610c7b611140565b815260200190600190039081610c735790505b50905060005b8751811015610c2d57610cc3888281518110610cb257610cb2611f78565b602002602001015188888888610eea565b828281518110610cd557610cd5611f78565b6020908102919091010152600101610c94565b60006004826005811115610cfe57610cfe6111ff565b03610d0b57506002919050565b6005826005811115610d1f57610d1f6111ff565b03610d2c57506003919050565b60405162461bcd60e51b815260206004820152603660248201527f616d6f756e7420646572697665722068656c706572207265736f6c76696e67206044820152756e6f6e206372697465726961206974656d207479706560501b60648201526084016101eb565b919050565b610da061110e565b604051806080016040528085600001516005811115610dc157610dc16111ff565b815260200185602001516001600160a01b0316815260200185604001518152602001610dee868686610f7d565b9052949350505050565b610e00611140565b6040518060a0016040528085600001516005811115610e2157610e216111ff565b815260200185602001516001600160a01b0316815260200185604001518152602001610e4e868686610f95565b81526020018560a001516001600160a01b031681525090509392505050565b610e7561110e565b604051806080016040528087600001516005811115610e9657610e966111ff565b815260200187602001516001600160a01b031681526020018760400151815260200186421080610ec65750854210155b610edc57610ed7858589898c610fad565b610756565b600090529695505050505050565b610ef2611140565b6040518060a0016040528087600001516005811115610f1357610f136111ff565b815260200187602001516001600160a01b031681526020018760400151815260200186421080610f435750854210155b610f5957610f54858589898c610fd6565b610f5c565b60005b81526020018760a001516001600160a01b0316815250905095945050505050565b60006108c98460600151856080015185856000610ff4565b60006108c98460600151856080015185856001610ff4565b6060810151608082015160009190610fca82828a8a8a8a89611049565b98975050505050505050565b6060810151608082015160009190610fca82828a8a8a8a6001611049565b600084861461103f57838303428590038082036000611013838a611ef8565b61101d838c611ef8565b61102791906124ba565b905085848783030401811515029450505050506108a5565b5092949350505050565b60008688036110645761105d868689611093565b9050611088565b61108561107287878b611093565b61107d88888b611093565b868686610ff4565b90505b979650505050505050565b60008284036110a35750806104f9565b82848309156110ba5763c63cf0896000526004601cfd5b60006110c68584611ef8565b93909304949350505050565b6040805160e0810182526000808252602082018190526060928201839052828201929092526080810182905260a081018290529060c082015290565b6040805160808101909152806000815260200160006001600160a01b0316815260200160008152602001600081525090565b6040805160a081019091528060008152600060208201819052604082018190526060820181905260809091015290565b60008060008060008060c0878903121561118957600080fd5b505084359660208601359650604086013595606081013595506080810135945060a0013592509050565b600060a082840312156111c557600080fd5b50919050565b6000602082840312156111dd57600080fd5b81356001600160401b038111156111f357600080fd5b6108c9848285016111b3565b634e487b7160e01b600052602160045260246000fd5b60068110611225576112256111ff565b9052565b611234828251611215565b6020818101516001600160a01b031690830152604080820151908301526060908101519082015260800190565b61126c828251611215565b6020818101516001600160a01b03908116918401919091526040808301519084015260608083015190840152608091820151169082015260a00190565b604080825283519082018190526000906020906060840190828701845b828110156112e7576112d9848351611229565b9350908401906001016112c6565b5050508381038285015284518082528583019183019060005b8181101561132157611313838551611261565b938501939250600101611300565b5090979650505050505050565b60006020828403121561134057600080fd5b81356001600160401b0381111561135657600080fd5b8201604081850312156104f957600080fd5b6000806000806060858703121561137e57600080fd5b84356001600160401b038082111561139557600080fd5b6113a1888389016111b3565b95506020870135945060408701359150808211156113be57600080fd5b818701915087601f8301126113d257600080fd5b8135818111156113e157600080fd5b8860208260051b85010111156113f657600080fd5b95989497505060200194505050565b634e487b7160e01b600052604160045260246000fd5b60405160a081016001600160401b038111828210171561143d5761143d611405565b60405290565b60405160c081016001600160401b038111828210171561143d5761143d611405565b60405161016081016001600160401b038111828210171561143d5761143d611405565b604080519081016001600160401b038111828210171561143d5761143d611405565b604051608081016001600160401b038111828210171561143d5761143d611405565b604051601f8201601f191681016001600160401b03811182821017156114f4576114f4611405565b604052919050565b60006001600160401b0382111561151557611515611405565b5060051b60200190565b6001600160a01b038116811461153457600080fd5b50565b8035610d938161151f565b6006811061153457600080fd5b600082601f83011261156057600080fd5b81356020611575611570836114fc565b6114cc565b82815260a0928302850182019282820191908785111561159457600080fd5b8387015b858110156113215781818a0312156115b05760008081fd5b6115b861141b565b81356115c381611542565b8152818601356115d28161151f565b818701526040828101359082015260608083013590820152608080830135908201528452928401928101611598565b600082601f83011261161257600080fd5b81356020611622611570836114fc565b82815260c0928302850182019282820191908785111561164157600080fd5b8387015b858110156113215781818a03121561165d5760008081fd5b611665611443565b813561167081611542565b81528186013561167f8161151f565b8187015260408281013590820152606080830135908201526080808301359082015260a0808301356116b08161151f565b908201528452928401928101611645565b803560058110610d9357600080fd5b600061016082840312156116e357600080fd5b6116eb611465565b90506116f682611537565b815261170460208301611537565b602082015260408201356001600160401b038082111561172357600080fd5b61172f8583860161154f565b6040840152606084013591508082111561174857600080fd5b5061175584828501611601565b606083015250611767608083016116c1565b608082015260a082013560a082015260c082013560c082015260e082013560e082015261010080830135818301525061012080830135818301525061014080830135818301525092915050565b600082601f8301126117c557600080fd5b81356001600160401b038111156117de576117de611405565b6117f1601f8201601f19166020016114cc565b81815284602083860101111561180657600080fd5b816020850160208301376000918101602001919091529392505050565b600082601f83011261183457600080fd5b81356020611844611570836114fc565b8083825260208201915060208460051b87010193508684111561186657600080fd5b602086015b84811015610c2d578035835291830191830161186b565b600082601f83011261189357600080fd5b813560206118a3611570836114fc565b8083825260208201915060208460051b8701019350868411156118c557600080fd5b602086015b84811015610c2d578035600781106118e25760008081fd5b83529183019183016118ca565b60008060006060848603121561190457600080fd5b83356001600160401b038082111561191b57600080fd5b818601915086601f83011261192f57600080fd5b8135602061193f611570836114fc565b82815260059290921b8401810191818101908a84111561195e57600080fd5b8286015b848110156119ef5780358681111561197957600080fd5b87016040818e03601f190112156119905760008081fd5b611998611488565b85820135888111156119aa5760008081fd5b6119b88f88838601016116d0565b8252506040820135888111156119ce5760008081fd5b6119dc8f88838601016117b4565b8288015250845250918301918301611962565b5097505087013592505080821115611a0657600080fd5b611a1287838801611823565b93506040860135915080821115611a2857600080fd5b50611a3586828701611882565b9150509250925092565b60008151808452602080850194506020840160005b83811015611a7557611a67878351611261565b965090820190600101611a54565b509495945050505050565b60078110611225576112256111ff565b600060208083018184528085518083526040925060408601915060408160051b8701018488016000805b84811015611b8b57898403603f19018652825180516001600160a01b0316855288810151898601528781015160e089870181905281519087018190526101008701918b019085905b80821015611b2757611b15848451611229565b93508c83019250600182019150611b02565b50505060608083015187830382890152611b418382611a3f565b92505050608080830151611b588289018215159052565b505060a0828101519087015260c09182015191611b7781880184611a80565b509689019694505091870191600101611aba565b50919998505050505050505050565b600060208284031215611bac57600080fd5b81356001600160401b03811115611bc257600080fd5b820161016081850312156104f957600080fd5b80356001600160781b0381168114610d9357600080fd5b6000611bfa611570846114fc565b8381529050602080820190600585901b840186811115611c1957600080fd5b845b81811015611cbd5780356001600160401b0380821115611c3b5760008081fd5b9087019060a0828b031215611c505760008081fd5b611c5861141b565b823581528583013560028110611c6e5760008081fd5b81870152604083810135908201526060808401359082015260808084013583811115611c9a5760008081fd5b611ca68d828701611823565b918301919091525086525050928201928201611c1b565b505050509392505050565b600082601f830112611cd957600080fd5b6104f983833560208501611bec565b60008060008060808587031215611cfe57600080fd5b6001600160401b038086351115611d1457600080fd5b8535860187601f820112611d2757600080fd5b611d3461157082356114fc565b81358082526020808301929160051b8401018a811115611d5357600080fd5b602084015b81811015611e31578581351115611d6e57600080fd5b8035850160a0818e03601f19011215611d8657600080fd5b611d8e61141b565b602082013588811115611da057600080fd5b611daf8f6020838601016116d0565b825250611dbe60408301611bd5565b6020820152611dcf60608301611bd5565b6040820152608082013588811115611de657600080fd5b611df58f6020838601016117b4565b60608301525060a082013588811115611e0d57600080fd5b611e1c8f6020838601016117b4565b60808301525085525060209384019301611d58565b50909750505050602086013581811115611e4a57600080fd5b611e5688828901611cc8565b945050604086013581811115611e6b57600080fd5b611e7788828901611823565b935050606086013581811115611e8c57600080fd5b611e9888828901611882565b9250505092959194509250565b634e487b7160e01b600052601160045260246000fd5b8181038181111561077b5761077b611ea5565b634e487b7160e01b600052601260045260246000fd5b600082611ef357611ef3611ece565b500490565b808202811582820484141761077b5761077b611ea5565b600082611f1e57611f1e611ece565b500690565b6000823561015e19833603018112611f3a57600080fd5b9190910192915050565b600061077b36836116d0565b600060208284031215611f6257600080fd5b6104f982611bd5565b60006104f9368484611bec565b634e487b7160e01b600052603260045260246000fd5b60008151808452602080850194506020840160005b83811015611a75578151611fb8888251611215565b838101516001600160a01b03168885015260408082015190890152606080820151908901526080908101519088015260a09096019590820190600101611fa3565b60008151808452602080850194506020840160005b83811015611a75578151612023888251611215565b808401516001600160a01b0390811689860152604080830151908a0152606080830151908a0152608080830151908a015260a091820151169088015260c0909601959082019060010161200e565b60058110611225576112256111ff565b80516001600160a01b03168252600061016060208301516120ad60208601826001600160a01b03169052565b5060408301518160408601526120c582860182611f8e565b915050606083015184820360608601526120df8282611ff9565b91505060808301516120f46080860182612071565b5060a0838101519085015260c0808401519085015260e08084015190850152610100808401519085015261012080840151908501526101409283015192909301919091525090565b6020815260006104f96020830184612081565b600082601f83011261216057600080fd5b81516020612170611570836114fc565b82815260a0928302850182019282820191908785111561218f57600080fd5b8387015b858110156113215781818a0312156121ab5760008081fd5b6121b361141b565b81516121be81611542565b8152818601516121cd8161151f565b8187015260408281015190820152606080830151908201526080808301516121f48161151f565b908201528452928401928101612193565b600080604080848603121561221957600080fd5b83516001600160401b038082111561223057600080fd5b818601915086601f83011261224457600080fd5b81516020612254611570836114fc565b82815260079290921b8401810191818101908a84111561227357600080fd5b948201945b838610156122da576080868c0312156122915760008081fd5b6122996114aa565b86516122a481611542565b8152868401516122b38161151f565b81850152868801518882015260608088015190820152825260809095019490820190612278565b918901519197509094505050808311156122f357600080fd5b50506123018582860161214f565b9150509250929050565b6000815180845260005b8181101561233157602081850181015186830182015201612315565b506000602082860101526020601f19601f83011685010191505092915050565b600082825180855260208086019550808260051b8401018186016000805b8581101561240b57601f19878503018a52825160a080860182518752878301516002811061239f5761239f6111ff565b878901526040838101519088015260608084015190880152608092830151928701919091528151908190529086019060c086019084905b808210156123f657835183529288019291880191600191909101906123d6565b50509a86019a9450509184019160010161236f565b509198975050505050505050565b606081526000845160a06060840152612436610100840182612081565b60208701516001600160781b03908116608086015260408801511660a08501526060870151848203605f1990810160c087015291925090612477838361230b565b925060808801519150808584030160e086015250612495828261230b565b91505084602084015282810360408401526124b08185612351565b9695505050505050565b8082018082111561077b5761077b611ea556fea26469706673582212200c625a2fc4ebe7279abc40af185fb71948dc34e678cc1873f904b919b7d4cbbe64736f6c63430008160033","linkReferences":{}},"methodIdentifiers":{"deriveFractionCompatibleAmounts(uint256,uint256,uint256,uint256,uint256,uint256)":"13e44476","getSpentAndReceivedItems(((address,address,(uint8,address,uint256,uint256,uint256)[],(uint8,address,uint256,uint256,uint256,address)[],uint8,uint256,uint256,bytes32,uint256,bytes32,uint256),bytes))":"371889c6","getSpentAndReceivedItems(((address,address,(uint8,address,uint256,uint256,uint256)[],(uint8,address,uint256,uint256,uint256,address)[],uint8,uint256,uint256,bytes32,uint256,bytes32,uint256),uint120,uint120,bytes,bytes))":"1793bbbf","getSpentAndReceivedItems(((address,address,(uint8,address,uint256,uint256,uint256)[],(uint8,address,uint256,uint256,uint256,address)[],uint8,uint256,uint256,bytes32,uint256,bytes32,uint256),uint120,uint120,bytes,bytes),uint256,(uint256,uint8,uint256,uint256,bytes32[])[])":"7ab2370b","getSpentAndReceivedItems((address,address,(uint8,address,uint256,uint256,uint256)[],(uint8,address,uint256,uint256,uint256,address)[],uint8,uint256,uint256,bytes32,uint256,bytes32,uint256))":"abe6f423","toOrderDetails(((address,address,(uint8,address,uint256,uint256,uint256)[],(uint8,address,uint256,uint256,uint256,address)[],uint8,uint256,uint256,bytes32,uint256,bytes32,uint256),bytes)[],bytes32[],uint8[])":"a222a252","toOrderDetails(((address,address,(uint8,address,uint256,uint256,uint256)[],(uint8,address,uint256,uint256,uint256,address)[],uint8,uint256,uint256,bytes32,uint256,bytes32,uint256),uint120,uint120,bytes,bytes)[],(uint256,uint8,uint256,uint256,bytes32[])[],bytes32[],uint8[])":"e5eceb35"},"id":136}