{"abi":[{"type":"function","name":"createMirrorOrderParameters","inputs":[{"name":"orderParameters","type":"tuple","internalType":"struct OrderParameters","components":[{"name":"offerer","type":"address","internalType":"address"},{"name":"zone","type":"address","internalType":"address"},{"name":"offer","type":"tuple[]","internalType":"struct OfferItem[]","components":[{"name":"itemType","type":"ItemType","internalType":"enum ItemType"},{"name":"token","type":"address","internalType":"address"},{"name":"identifierOrCriteria","type":"uint256","internalType":"uint256"},{"name":"startAmount","type":"uint256","internalType":"uint256"},{"name":"endAmount","type":"uint256","internalType":"uint256"}]},{"name":"consideration","type":"tuple[]","internalType":"struct ConsiderationItem[]","components":[{"name":"itemType","type":"ItemType","internalType":"enum ItemType"},{"name":"token","type":"address","internalType":"address"},{"name":"identifierOrCriteria","type":"uint256","internalType":"uint256"},{"name":"startAmount","type":"uint256","internalType":"uint256"},{"name":"endAmount","type":"uint256","internalType":"uint256"},{"name":"recipient","type":"address","internalType":"address payable"}]},{"name":"orderType","type":"OrderType","internalType":"enum OrderType"},{"name":"startTime","type":"uint256","internalType":"uint256"},{"name":"endTime","type":"uint256","internalType":"uint256"},{"name":"zoneHash","type":"bytes32","internalType":"bytes32"},{"name":"salt","type":"uint256","internalType":"uint256"},{"name":"conduitKey","type":"bytes32","internalType":"bytes32"},{"name":"totalOriginalConsiderationItems","type":"uint256","internalType":"uint256"}]},{"name":"offerer","type":"address","internalType":"address payable"},{"name":"zone","type":"address","internalType":"address"},{"name":"conduitKey","type":"bytes32","internalType":"bytes32"}],"outputs":[{"name":"","type":"tuple","internalType":"struct OrderParameters","components":[{"name":"offerer","type":"address","internalType":"address"},{"name":"zone","type":"address","internalType":"address"},{"name":"offer","type":"tuple[]","internalType":"struct OfferItem[]","components":[{"name":"itemType","type":"ItemType","internalType":"enum ItemType"},{"name":"token","type":"address","internalType":"address"},{"name":"identifierOrCriteria","type":"uint256","internalType":"uint256"},{"name":"startAmount","type":"uint256","internalType":"uint256"},{"name":"endAmount","type":"uint256","internalType":"uint256"}]},{"name":"consideration","type":"tuple[]","internalType":"struct ConsiderationItem[]","components":[{"name":"itemType","type":"ItemType","internalType":"enum ItemType"},{"name":"token","type":"address","internalType":"address"},{"name":"identifierOrCriteria","type":"uint256","internalType":"uint256"},{"name":"startAmount","type":"uint256","internalType":"uint256"},{"name":"endAmount","type":"uint256","internalType":"uint256"},{"name":"recipient","type":"address","internalType":"address payable"}]},{"name":"orderType","type":"OrderType","internalType":"enum OrderType"},{"name":"startTime","type":"uint256","internalType":"uint256"},{"name":"endTime","type":"uint256","internalType":"uint256"},{"name":"zoneHash","type":"bytes32","internalType":"bytes32"},{"name":"salt","type":"uint256","internalType":"uint256"},{"name":"conduitKey","type":"bytes32","internalType":"bytes32"},{"name":"totalOriginalConsiderationItems","type":"uint256","internalType":"uint256"}]}],"stateMutability":"pure"}],"bytecode":{"object":"0x610aee61003a600b82828239805160001a60731461002d57634e487b7160e01b600052600060045260246000fd5b30600052607381538281f3fe73000000000000000000000000000000000000000030146080604052600436106100355760003560e01c806335ef3c151461003a575b600080fd5b61004d610048366004610771565b610063565b60405161005a91906109c8565b60405180910390f35b61006b610458565b600061007a8660600151610125565b9050600061008c8760400151876102bd565b90506000604051806101600160405280886001600160a01b03168152602001876001600160a01b03168152602001848152602001838152602001896080015160048111156100dc576100dc6108a0565b81526020018960a0015181526020018960c0015181526020018960e001518152602001896101000151815260200186815260200183518152509050809350505050949350505050565b60606000825167ffffffffffffffff811115610143576101436104d5565b6040519080825280602002602001820160405280156101b057816020015b61019d6040805160a08101909152806000815260200160006001600160a01b031681526020016000815260200160008152602001600081525090565b8152602001906001900390816101615790505b50905060005b81518110156102b6576040518060a001604052808583815181106101dc576101dc610aa2565b60200260200101516000015160058111156101f9576101f96108a0565b815260200185838151811061021057610210610aa2565b6020026020010151602001516001600160a01b0316815260200185838151811061023c5761023c610aa2565b602002602001015160400151815260200185838151811061025f5761025f610aa2565b602002602001015160600151815260200185838151811061028257610282610aa2565b6020026020010151608001518152508282815181106102a3576102a3610aa2565b60209081029190910101526001016101b6565b5092915050565b60606000835167ffffffffffffffff8111156102db576102db6104d5565b60405190808252806020026020018201604052801561033b57816020015b6040805160c08101825260008082526020808301829052928201819052606082018190526080820181905260a082015282526000199092019101816102f95790505b50905060005b8451811015610450576040518060c0016040528086838151811061036757610367610aa2565b6020026020010151600001516005811115610384576103846108a0565b815260200186838151811061039b5761039b610aa2565b6020026020010151602001516001600160a01b031681526020018683815181106103c7576103c7610aa2565b60200260200101516040015181526020018683815181106103ea576103ea610aa2565b602002602001015160600151815260200186838151811061040d5761040d610aa2565b6020026020010151608001518152602001856001600160a01b031681525082828151811061043d5761043d610aa2565b6020908102919091010152600101610341565b509392505050565b60405180610160016040528060006001600160a01b0316815260200160006001600160a01b031681526020016060815260200160608152602001600060048111156104a5576104a56108a0565b815260006020820181905260408201819052606082018190526080820181905260a0820181905260c09091015290565b634e487b7160e01b600052604160045260246000fd5b60405160a0810167ffffffffffffffff8111828210171561050e5761050e6104d5565b60405290565b60405160c0810167ffffffffffffffff8111828210171561050e5761050e6104d5565b604051610160810167ffffffffffffffff8111828210171561050e5761050e6104d5565b604051601f8201601f1916810167ffffffffffffffff81118282101715610584576105846104d5565b604052919050565b6001600160a01b03811681146105a157600080fd5b50565b80356105af8161058c565b919050565b600067ffffffffffffffff8211156105ce576105ce6104d5565b5060051b60200190565b8035600681106105af57600080fd5b600082601f8301126105f857600080fd5b8135602061060d610608836105b4565b61055b565b82815260a0928302850182019282820191908785111561062c57600080fd5b8387015b858110156106975781818a0312156106485760008081fd5b6106506104eb565b610659826105d8565b8152858201356106688161058c565b818701526040828101359082015260608083013590820152608080830135908201528452928401928101610630565b5090979650505050505050565b600082601f8301126106b557600080fd5b813560206106c5610608836105b4565b82815260c092830285018201928282019190878511156106e457600080fd5b8387015b858110156106975781818a0312156107005760008081fd5b610708610514565b610711826105d8565b8152858201356107208161058c565b8187015260408281013590820152606080830135908201526080808301359082015260a0808301356107518161058c565b9082015284529284019281016106e8565b8035600581106105af57600080fd5b6000806000806080858703121561078757600080fd5b843567ffffffffffffffff8082111561079f57600080fd5b9086019061016082890312156107b457600080fd5b6107bc610537565b6107c5836105a4565b81526107d3602084016105a4565b60208201526040830135828111156107ea57600080fd5b6107f68a8286016105e7565b60408301525060608301358281111561080e57600080fd5b61081a8a8286016106a4565b60608301525061082c60808401610762565b608082015260a0838101359082015260c0808401359082015260e08084013590820152610100808401359082015261012080840135908201526101409283013592810192909252509350610882602086016105a4565b9250610890604086016105a4565b9396929550929360600135925050565b634e487b7160e01b600052602160045260246000fd5b600681106108c6576108c66108a0565b9052565b60008151808452602080850194506020840160005b838110156109355781516108f48882516108b6565b838101516001600160a01b03168885015260408082015190890152606080820151908901526080908101519088015260a090960195908201906001016108df565b509495945050505050565b60008151808452602080850194506020840160005b8381101561093557815161096a8882516108b6565b808401516001600160a01b0390811689860152604080830151908a0152606080830151908a0152608080830151908a015260a091820151169088015260c09096019590820190600101610955565b600581106108c6576108c66108a0565b602081526109e26020820183516001600160a01b03169052565b600060208301516109fe60408401826001600160a01b03169052565b506040830151610160806060850152610a1b6101808501836108ca565b91506060850151601f19858403016080860152610a388382610940565b9250506080850151610a4d60a08601826109b8565b5060a085015160c085015260c085015160e085015260e0850151610100818187015280870151915050610120818187015280870151915050610140818187015280870151838701525050508091505092915050565b634e487b7160e01b600052603260045260246000fdfea264697066735822122088e279f9917500e8c0de645338c166817af67b7f2f06fe2863b2601409facc1364736f6c63430008160033","linkReferences":{}},"methodIdentifiers":{"createMirrorOrderParameters(OrderParameters,address,address,bytes32)":"35ef3c15"},"id":134}