{"abi":[{"type":"constructor","inputs":[{"name":"kernel_","type":"address","internalType":"contract Kernel"},{"name":"stopPolicy_","type":"address","internalType":"contract Stop"},{"name":"guardPolicy_","type":"address","internalType":"contract Guard"},{"name":"fallbackHandler_","type":"address","internalType":"contract TokenCallbackHandler"},{"name":"safeProxyFactory_","type":"address","internalType":"contract SafeProxyFactory"},{"name":"safeSingleton_","type":"address","internalType":"contract SafeL2"}],"stateMutability":"nonpayable"},{"type":"function","name":"STORE","inputs":[],"outputs":[{"name":"","type":"address","internalType":"contract Storage"}],"stateMutability":"view"},{"type":"function","name":"changeKernel","inputs":[{"name":"newKernel_","type":"address","internalType":"contract Kernel"}],"outputs":[],"stateMutability":"nonpayable"},{"type":"function","name":"configureDependencies","inputs":[],"outputs":[{"name":"dependencies","type":"bytes5[]","internalType":"Keycode[]"}],"stateMutability":"nonpayable"},{"type":"function","name":"deployRentalSafe","inputs":[{"name":"owners","type":"address[]","internalType":"address[]"},{"name":"threshold","type":"uint256","internalType":"uint256"}],"outputs":[{"name":"safe","type":"address","internalType":"address"}],"stateMutability":"nonpayable"},{"type":"function","name":"fallbackHandler","inputs":[],"outputs":[{"name":"","type":"address","internalType":"contract TokenCallbackHandler"}],"stateMutability":"view"},{"type":"function","name":"guardPolicy","inputs":[],"outputs":[{"name":"","type":"address","internalType":"contract Guard"}],"stateMutability":"view"},{"type":"function","name":"initializeRentalSafe","inputs":[{"name":"_stopPolicy","type":"address","internalType":"address"},{"name":"_guardPolicy","type":"address","internalType":"address"}],"outputs":[],"stateMutability":"nonpayable"},{"type":"function","name":"isActive","inputs":[],"outputs":[{"name":"","type":"bool","internalType":"bool"}],"stateMutability":"view"},{"type":"function","name":"kernel","inputs":[],"outputs":[{"name":"","type":"address","internalType":"contract Kernel"}],"stateMutability":"view"},{"type":"function","name":"requestPermissions","inputs":[],"outputs":[{"name":"requests","type":"tuple[]","internalType":"struct Permissions[]","components":[{"name":"keycode","type":"bytes5","internalType":"Keycode"},{"name":"funcSelector","type":"bytes4","internalType":"bytes4"}]}],"stateMutability":"view"},{"type":"function","name":"safeProxyFactory","inputs":[],"outputs":[{"name":"","type":"address","internalType":"contract SafeProxyFactory"}],"stateMutability":"view"},{"type":"function","name":"safeSingleton","inputs":[],"outputs":[{"name":"","type":"address","internalType":"contract SafeL2"}],"stateMutability":"view"},{"type":"function","name":"setActiveStatus","inputs":[{"name":"activate_","type":"bool","internalType":"bool"}],"outputs":[],"stateMutability":"nonpayable"},{"type":"function","name":"stopPolicy","inputs":[],"outputs":[{"name":"","type":"address","internalType":"contract Stop"}],"stateMutability":"view"},{"type":"event","name":"RentalSafeDeployment","inputs":[{"name":"safe","type":"address","indexed":false,"internalType":"address"},{"name":"owners","type":"address[]","indexed":false,"internalType":"address[]"},{"name":"threshold","type":"uint256","indexed":false,"internalType":"uint256"}],"anonymous":false},{"type":"error","name":"FactoryPolicy_InvalidSafeThreshold","inputs":[{"name":"threshold","type":"uint256","internalType":"uint256"},{"name":"owners","type":"uint256","internalType":"uint256"}]},{"type":"error","name":"KernelAdapter_OnlyKernel","inputs":[{"name":"caller_","type":"address","internalType":"address"}]},{"type":"error","name":"Policy_ModuleDoesNotExist","inputs":[{"name":"keycode_","type":"bytes5","internalType":"Keycode"}]}],"bytecode":{"object":"0x61012060405234801561001157600080fd5b5060405162000e8238038062000e8283398101604081905261003291610086565b600080546001600160a01b0319166001600160a01b0397881617905593851660805291841660a052831660c052821660e052166101005261010d565b6001600160a01b038116811461008357600080fd5b50565b60008060008060008060c0878903121561009f57600080fd5b86516100aa8161006e565b60208801519096506100bb8161006e565b60408801519095506100cc8161006e565b60608801519094506100dd8161006e565b60808801519093506100ee8161006e565b60a08801519092506100ff8161006e565b809150509295509295509295565b60805160a05160c05160e05161010051610d0e62000174600039600081816101c101526105df01526000818160f401526105b501526000818161026f015261053e0152600081816101e801526104d201526000818161020f01526104aa0152610d0e6000f3fe608060405234801561001057600080fd5b50600436106100ea5760003560e01c8063ac7d146b1161008c578063d4aae0c411610066578063d4aae0c414610231578063d6bb293914610244578063ec7404b114610257578063eed2f2521461026a57600080fd5b8063ac7d146b146101bc578063b1f8fedb146101e3578063c783f6de1461020a57600080fd5b8063507f1465116100c8578063507f14651461016c5780635924be701461017f5780639459b87514610194578063a94f3b07146101a957600080fd5b806319964501146100ef57806322f3e2d4146101335780634657b36c14610157575b600080fd5b6101167f000000000000000000000000000000000000000000000000000000000000000081565b6040516001600160a01b0390911681526020015b60405180910390f35b60005461014790600160a01b900460ff1681565b604051901515815260200161012a565b61016a61016536600461095a565b610291565b005b600154610116906001600160a01b031681565b6101876102e5565b60405161012a919061097e565b61019c6103a8565b60405161012a91906109e1565b6101166101b7366004610a2f565b610467565b6101167f000000000000000000000000000000000000000000000000000000000000000081565b6101167f000000000000000000000000000000000000000000000000000000000000000081565b6101167f000000000000000000000000000000000000000000000000000000000000000081565b600054610116906001600160a01b031681565b61016a610252366004610aaa565b61078f565b61016a610265366004610ae3565b610845565b6101167f000000000000000000000000000000000000000000000000000000000000000081565b6000546001600160a01b031633146102c35760405163053e900f60e21b81523360048201526024015b60405180910390fd5b600080546001600160a01b0319166001600160a01b0392909216919091179055565b6000546060906001600160a01b031633146103155760405163053e900f60e21b81523360048201526024016102ba565b60408051600180825281830190925290816020015b604080518082019091526000808252602082015281526020019060019003908161032a579050509050604051806040016040528061036d6453544f524560d81b90565b6001600160d81b03191681526326e0985b60e11b6020909101528151829060009061039a5761039a610b05565b602002602001018190525090565b6000546060906001600160a01b031633146103d85760405163053e900f60e21b81523360048201526024016102ba565b60408051600180825281830190925290602080830190803683370190505090506453544f524560d81b8160008151811061041457610414610b05565b6001600160d81b03199092166020928302919091019091015261044461043f6453544f524560d81b90565b610890565b600180546001600160a01b0319166001600160a01b039290921691909117905590565b600081158061047557508282115b1561049d576040516392c0193560e01b815260048101839052602481018490526044016102ba565b6040516001600160a01b037f0000000000000000000000000000000000000000000000000000000000000000811660248301527f000000000000000000000000000000000000000000000000000000000000000016604482015260009060640160408051601f198184030181529181526020820180516001600160e01b031663d6bb293960e01b1790525190915060009061056c90879087908790309087907f000000000000000000000000000000000000000000000000000000000000000090889081908190602401610baa565b60408051601f19818403018152918152602080830180516001600160e01b031663b63e800d60e01b17905260015482516317c118c360e11b815292519394506001600160a01b037f0000000000000000000000000000000000000000000000000000000000000000811694631688f0b9947f000000000000000000000000000000000000000000000000000000000000000094889490931692632f823186926004808401938290030181865afa15801561062a573d6000803e3d6000fd5b505050506040513d601f19601f8201168201806040525081019061064e9190610c17565b610659906001610c30565b604080516020810192909252469082015260600160408051601f198184030181529082905280516020909101206001600160e01b031960e086901b1682526106a5939291600401610c51565b6020604051808303816000875af11580156106c4573d6000803e3d6000fd5b505050506040513d601f19601f820116820180604052508101906106e89190610c85565b6001546040516326e0985b60e11b81526001600160a01b038084166004830152929550911690634dc130b690602401600060405180830381600087803b15801561073157600080fd5b505af1158015610745573d6000803e3d6000fd5b505050507f40d226e4c5207357da7aa9a4b5ee743811bd62ae3f63323d56e391292e9b099b8387878760405161077e9493929190610ca2565b60405180910390a150509392505050565b60405163610b592560e01b81526001600160a01b0383166004820152309063610b592590602401600060405180830381600087803b1580156107d057600080fd5b505af11580156107e4573d6000803e3d6000fd5b505060405163e19a9dd960e01b81526001600160a01b038416600482015230925063e19a9dd99150602401600060405180830381600087803b15801561082957600080fd5b505af115801561083d573d6000803e3d6000fd5b505050505050565b6000546001600160a01b031633146108725760405163053e900f60e21b81523360048201526024016102ba565b60008054911515600160a01b0260ff60a01b19909216919091179055565b60008054604051632d37002d60e21b81526001600160d81b03198416600482015282916001600160a01b03169063b4dc00b490602401602060405180830381865afa1580156108e3573d6000803e3d6000fd5b505050506040513d601f19601f820116820180604052508101906109079190610c85565b90506001600160a01b03811661093c57604051635c3fa9cd60e01b81526001600160d81b0319841660048201526024016102ba565b92915050565b6001600160a01b038116811461095757600080fd5b50565b60006020828403121561096c57600080fd5b813561097781610942565b9392505050565b602080825282518282018190526000919060409081850190868401855b828110156109d457815180516001600160d81b03191685528601516001600160e01b03191686850152928401929085019060010161099b565b5091979650505050505050565b6020808252825182820181905260009190848201906040850190845b81811015610a235783516001600160d81b031916835292840192918401916001016109fd565b50909695505050505050565b600080600060408486031215610a4457600080fd5b833567ffffffffffffffff80821115610a5c57600080fd5b818601915086601f830112610a7057600080fd5b813581811115610a7f57600080fd5b8760208260051b8501011115610a9457600080fd5b6020928301989097509590910135949350505050565b60008060408385031215610abd57600080fd5b8235610ac881610942565b91506020830135610ad881610942565b809150509250929050565b600060208284031215610af557600080fd5b8135801515811461097757600080fd5b634e487b7160e01b600052603260045260246000fd5b8183526000602080850194508260005b85811015610b59578135610b3e81610942565b6001600160a01b031687529582019590820190600101610b2b565b509495945050505050565b6000815180845260005b81811015610b8a57602081850181015186830182015201610b6e565b506000602082860101526020601f19601f83011685010191505092915050565b6000610100808352610bbf8184018c8e610b1b565b602084018b90526001600160a01b038a811660408601528482036060860152909150610beb828a610b64565b978116608085015295861660a0840152505060c081019290925290911660e09091015295945050505050565b600060208284031215610c2957600080fd5b5051919050565b8082018082111561093c57634e487b7160e01b600052601160045260246000fd5b6001600160a01b0384168152606060208201819052600090610c7590830185610b64565b9050826040830152949350505050565b600060208284031215610c9757600080fd5b815161097781610942565b6001600160a01b0385168152606060208201819052600090610cc79083018587610b1b565b90508260408301529594505050505056fea2646970667358221220e9497a08dbdc1c7d1896046a0a214984adf0006fe5a6979aeecc35027eb84df764736f6c63430008160033","linkReferences":{}},"methodIdentifiers":{"STORE()":"507f1465","changeKernel(address)":"4657b36c","configureDependencies()":"9459b875","deployRentalSafe(address[],uint256)":"a94f3b07","fallbackHandler()":"eed2f252","guardPolicy()":"b1f8fedb","initializeRentalSafe(address,address)":"d6bb2939","isActive()":"22f3e2d4","kernel()":"d4aae0c4","requestPermissions()":"5924be70","safeProxyFactory()":"19964501","safeSingleton()":"ac7d146b","setActiveStatus(bool)":"ec7404b1","stopPolicy()":"c783f6de"},"id":201}