{"abi":[{"type":"constructor","inputs":[],"stateMutability":"payable"},{"type":"function","name":"balanceOf","inputs":[{"name":"account","type":"address","internalType":"address"},{"name":"id","type":"uint256","internalType":"uint256"}],"outputs":[{"name":"","type":"uint256","internalType":"uint256"}],"stateMutability":"view"},{"type":"function","name":"balanceOfBatch","inputs":[{"name":"accounts","type":"address[]","internalType":"address[]"},{"name":"ids","type":"uint256[]","internalType":"uint256[]"}],"outputs":[{"name":"","type":"uint256[]","internalType":"uint256[]"}],"stateMutability":"view"},{"type":"function","name":"burn","inputs":[{"name":"account","type":"address","internalType":"address"},{"name":"id","type":"uint256","internalType":"uint256"},{"name":"value","type":"uint256","internalType":"uint256"}],"outputs":[],"stateMutability":"nonpayable"},{"type":"function","name":"burnBatch","inputs":[{"name":"account","type":"address","internalType":"address"},{"name":"ids","type":"uint256[]","internalType":"uint256[]"},{"name":"values","type":"uint256[]","internalType":"uint256[]"}],"outputs":[],"stateMutability":"nonpayable"},{"type":"function","name":"isApprovedForAll","inputs":[{"name":"account","type":"address","internalType":"address"},{"name":"operator","type":"address","internalType":"address"}],"outputs":[{"name":"","type":"bool","internalType":"bool"}],"stateMutability":"view"},{"type":"function","name":"mint","inputs":[{"name":"to","type":"address","internalType":"address"},{"name":"id","type":"uint256","internalType":"uint256"},{"name":"amount","type":"uint256","internalType":"uint256"}],"outputs":[],"stateMutability":"nonpayable"},{"type":"function","name":"mint","inputs":[{"name":"to","type":"address","internalType":"address"},{"name":"amount","type":"uint256","internalType":"uint256"}],"outputs":[],"stateMutability":"nonpayable"},{"type":"function","name":"mintBatch","inputs":[{"name":"to","type":"address","internalType":"address"},{"name":"amount","type":"uint256","internalType":"uint256"},{"name":"numberOfIds","type":"uint256","internalType":"uint256"}],"outputs":[],"stateMutability":"nonpayable"},{"type":"function","name":"safeBatchTransferFrom","inputs":[{"name":"from","type":"address","internalType":"address"},{"name":"to","type":"address","internalType":"address"},{"name":"ids","type":"uint256[]","internalType":"uint256[]"},{"name":"values","type":"uint256[]","internalType":"uint256[]"},{"name":"data","type":"bytes","internalType":"bytes"}],"outputs":[],"stateMutability":"nonpayable"},{"type":"function","name":"safeTransferFrom","inputs":[{"name":"from","type":"address","internalType":"address"},{"name":"to","type":"address","internalType":"address"},{"name":"id","type":"uint256","internalType":"uint256"},{"name":"value","type":"uint256","internalType":"uint256"},{"name":"data","type":"bytes","internalType":"bytes"}],"outputs":[],"stateMutability":"nonpayable"},{"type":"function","name":"setApprovalForAll","inputs":[{"name":"operator","type":"address","internalType":"address"},{"name":"approved","type":"bool","internalType":"bool"}],"outputs":[],"stateMutability":"nonpayable"},{"type":"function","name":"setTokenURI","inputs":[{"name":"tokenURI","type":"string","internalType":"string"}],"outputs":[],"stateMutability":"nonpayable"},{"type":"function","name":"supportsInterface","inputs":[{"name":"interfaceId","type":"bytes4","internalType":"bytes4"}],"outputs":[{"name":"","type":"bool","internalType":"bool"}],"stateMutability":"view"},{"type":"function","name":"uri","inputs":[{"name":"id","type":"uint256","internalType":"uint256"}],"outputs":[{"name":"","type":"string","internalType":"string"}],"stateMutability":"view"},{"type":"event","name":"ApprovalForAll","inputs":[{"name":"account","type":"address","indexed":true,"internalType":"address"},{"name":"operator","type":"address","indexed":true,"internalType":"address"},{"name":"approved","type":"bool","indexed":false,"internalType":"bool"}],"anonymous":false},{"type":"event","name":"TransferBatch","inputs":[{"name":"operator","type":"address","indexed":true,"internalType":"address"},{"name":"from","type":"address","indexed":true,"internalType":"address"},{"name":"to","type":"address","indexed":true,"internalType":"address"},{"name":"ids","type":"uint256[]","indexed":false,"internalType":"uint256[]"},{"name":"values","type":"uint256[]","indexed":false,"internalType":"uint256[]"}],"anonymous":false},{"type":"event","name":"TransferSingle","inputs":[{"name":"operator","type":"address","indexed":true,"internalType":"address"},{"name":"from","type":"address","indexed":true,"internalType":"address"},{"name":"to","type":"address","indexed":true,"internalType":"address"},{"name":"id","type":"uint256","indexed":false,"internalType":"uint256"},{"name":"value","type":"uint256","indexed":false,"internalType":"uint256"}],"anonymous":false},{"type":"event","name":"URI","inputs":[{"name":"value","type":"string","indexed":false,"internalType":"string"},{"name":"id","type":"uint256","indexed":true,"internalType":"uint256"}],"anonymous":false},{"type":"error","name":"ERC1155InsufficientBalance","inputs":[{"name":"sender","type":"address","internalType":"address"},{"name":"balance","type":"uint256","internalType":"uint256"},{"name":"needed","type":"uint256","internalType":"uint256"},{"name":"tokenId","type":"uint256","internalType":"uint256"}]},{"type":"error","name":"ERC1155InvalidApprover","inputs":[{"name":"approver","type":"address","internalType":"address"}]},{"type":"error","name":"ERC1155InvalidArrayLength","inputs":[{"name":"idsLength","type":"uint256","internalType":"uint256"},{"name":"valuesLength","type":"uint256","internalType":"uint256"}]},{"type":"error","name":"ERC1155InvalidOperator","inputs":[{"name":"operator","type":"address","internalType":"address"}]},{"type":"error","name":"ERC1155InvalidReceiver","inputs":[{"name":"receiver","type":"address","internalType":"address"}]},{"type":"error","name":"ERC1155InvalidSender","inputs":[{"name":"sender","type":"address","internalType":"address"}]},{"type":"error","name":"ERC1155MissingApprovalForAll","inputs":[{"name":"operator","type":"address","internalType":"address"},{"name":"owner","type":"address","internalType":"address"}]}],"bytecode":{"object":"0x60a060405260006080908152620000168162000047565b5060405180606001604052806036815260200162001ab56036913960049062000040908262000100565b50620001cc565b600262000055828262000100565b5050565b634e487b7160e01b600052604160045260246000fd5b600181811c908216806200008457607f821691505b602082108103620000a557634e487b7160e01b600052602260045260246000fd5b50919050565b601f821115620000fb576000816000526020600020601f850160051c81016020861015620000d65750805b601f850160051c820191505b81811015620000f757828155600101620000e2565b5050505b505050565b81516001600160401b038111156200011c576200011c62000059565b62000134816200012d84546200006f565b84620000ab565b602080601f8311600181146200016c5760008415620001535750858301515b600019600386901b1c1916600185901b178555620000f7565b600085815260208120601f198616915b828110156200019d578886015182559484019460019091019084016200017c565b5085821015620001bc5787850151600019600388901b60f8161c191681555b5050505050600190811b01905550565b6118d980620001dc6000396000f3fe608060405234801561001057600080fd5b50600436106100e95760003560e01c80634e1273f41161008c578063e0df5b6f11610066578063e0df5b6f146101eb578063e985e9c5146101fe578063f242432a14610211578063f5298aca1461022457600080fd5b80634e1273f4146101a55780636b20c454146101c5578063a22cb465146101d857600080fd5b8063156e29f6116100c8578063156e29f6146101575780632e81aaea1461016c5780632eb2c2d61461017f57806340c10f191461019257600080fd5b8062fdd58e146100ee57806301ffc9a7146101145780630e89341c14610137575b600080fd5b6101016100fc366004610fe3565b610237565b6040519081526020015b60405180910390f35b610127610122366004611026565b61025f565b604051901515815260200161010b565b61014a61014536600461104a565b6102af565b60405161010b91906110b3565b61016a6101653660046110c6565b61030d565b005b61016a61017a3660046110c6565b610342565b61016a61018d366004611248565b610465565b61016a6101a0366004610fe3565b6104d1565b6101b86101b33660046112f1565b610507565b60405161010b91906113ec565b61016a6101d33660046113ff565b6105d3565b61016a6101e6366004611472565b610637565b61016a6101f93660046114ae565b610646565b61012761020c3660046114fe565b610652565b61016a61021f366004611531565b610680565b61016a6102323660046110c6565b6106df565b6000818152602081815260408083206001600160a01b03861684529091529020545b92915050565b60006001600160e01b03198216636cdb3d1360e11b148061029057506001600160e01b031982166303a24d0760e21b145b8061025957506301ffc9a760e01b6001600160e01b0319831614610259565b60606000600480546102c090611595565b9050116102dc5760405180602001604052806000815250610259565b60046102e783610715565b6040516020016102f89291906115cf565b60405160208183030381529060405292915050565b610328838383604051806020016040528060008152506107a7565b600380549060006103388361166c565b9190505550505050565b6000816001600160401b0381111561035c5761035c6110f9565b604051908082528060200260200182016040528015610385578160200160208202803683370190505b5090506000826001600160401b038111156103a2576103a26110f9565b6040519080825280602002602001820160405280156103cb578160200160208202803683370190505b50905060005b8381101561042b57806003546103e79190611685565b8382815181106103f9576103f9611698565b6020026020010181815250508482828151811061041857610418611698565b60209081029190910101526001016103d1565b5061044785838360405180602001604052806000815250610804565b82600360008282546104599190611685565b90915550505050505050565b336001600160a01b038616811480159061048657506104848682610652565b155b156104bc5760405163711bec9160e11b81526001600160a01b038083166004830152871660248201526044015b60405180910390fd5b6104c98686868686610842565b505050505050565b6104ee8260035483604051806020016040528060008152506107a7565b600380549060006104fe8361166c565b91905055505050565b606081518351146105385781518351604051635b05999160e01b8152600481019290925260248201526044016104b3565b600083516001600160401b03811115610553576105536110f9565b60405190808252806020026020018201604052801561057c578160200160208202803683370190505b50905060005b84518110156105cb576020808202860101516105a690602080840287010151610237565b8282815181106105b8576105b8611698565b6020908102919091010152600101610582565b509392505050565b6001600160a01b03831633148015906105f357506105f18333610652565b155b1561062757335b60405163711bec9160e11b81526001600160a01b03918216600482015290841660248201526044016104b3565b6106328383836108a9565b505050565b6106423383836108ef565b5050565b600461064282826116f6565b6001600160a01b03918216600090815260016020908152604080832093909416825291909152205460ff1690565b336001600160a01b03861681148015906106a1575061069f8682610652565b155b156106d25760405163711bec9160e11b81526001600160a01b038083166004830152871660248201526044016104b3565b6104c98686868686610985565b6001600160a01b03831633148015906106ff57506106fd8333610652565b155b1561070a57336105fa565b610632838383610a13565b6060600061072283610a7b565b60010190506000816001600160401b03811115610741576107416110f9565b6040519080825280601f01601f19166020018201604052801561076b576020820181803683370190505b5090508181016020015b600019016f181899199a1a9b1b9c1cb0b131b232b360811b600a86061a8153600a850494508461077557509392505050565b6001600160a01b0384166107d157604051632bfa23e760e11b8152600060048201526024016104b3565b604080516001808252602082018690528183019081526060820185905260808201909252906104c9600087848487610b53565b6001600160a01b03841661082e57604051632bfa23e760e11b8152600060048201526024016104b3565b61083c600085858585610b53565b50505050565b6001600160a01b03841661086c57604051632bfa23e760e11b8152600060048201526024016104b3565b6001600160a01b03851661089557604051626a0d4560e21b8152600060048201526024016104b3565b6108a28585858585610b53565b5050505050565b6001600160a01b0383166108d257604051626a0d4560e21b8152600060048201526024016104b3565b610632836000848460405180602001604052806000815250610b53565b6001600160a01b0382166109185760405162ced3e160e81b8152600060048201526024016104b3565b6001600160a01b03838116600081815260016020908152604080832094871680845294825291829020805460ff191686151590811790915591519182527f17307eab39ab6107e8899845ad3d59bd9653f200f220920489ca2b5937696c31910160405180910390a3505050565b6001600160a01b0384166109af57604051632bfa23e760e11b8152600060048201526024016104b3565b6001600160a01b0385166109d857604051626a0d4560e21b8152600060048201526024016104b3565b60408051600180825260208201869052818301908152606082018590526080820190925290610a0a8787848487610b53565b50505050505050565b6001600160a01b038316610a3c57604051626a0d4560e21b8152600060048201526024016104b3565b604080516001808252602082018590528183019081526060820184905260a082019092526000608082018181529192916108a291879185908590610b53565b60008072184f03e93ff9f4daa797ed6e38ed64bf6a1f0160401b8310610aba5772184f03e93ff9f4daa797ed6e38ed64bf6a1f0160401b830492506040015b6d04ee2d6d415b85acef81000000008310610ae6576d04ee2d6d415b85acef8100000000830492506020015b662386f26fc100008310610b0457662386f26fc10000830492506010015b6305f5e1008310610b1c576305f5e100830492506008015b6127108310610b3057612710830492506004015b60648310610b42576064830492506002015b600a83106102595760010192915050565b610b5f85858585610ba6565b6001600160a01b038416156108a25782513390600103610b985760208481015190840151610b91838989858589610dba565b50506104c9565b6104c9818787878787610ede565b8051825114610bd55781518151604051635b05999160e01b8152600481019290925260248201526044016104b3565b3360005b8351811015610cdb576020818102858101820151908501909101516001600160a01b03881615610c8c576000828152602081815260408083206001600160a01b038c16845290915290205481811015610c65576040516303dee4c560e01b81526001600160a01b038a1660048201526024810182905260448101839052606481018490526084016104b3565b6000838152602081815260408083206001600160a01b038d16845290915290209082900390555b6001600160a01b03871615610cd1576000828152602081815260408083206001600160a01b038b16845290915281208054839290610ccb908490611685565b90915550505b5050600101610bd9565b508251600103610d5c5760208301516000906020840151909150856001600160a01b0316876001600160a01b0316846001600160a01b03167fc3d58168c5ae7397731d063d5bbf3d657854427343f4c083240f7aacaa2d0f628585604051610d4d929190918252602082015260400190565b60405180910390a450506108a2565b836001600160a01b0316856001600160a01b0316826001600160a01b03167f4a39dc06d4c0dbc64b70af90fd698a233a518aa5d07e595d983b8c0526c8f7fb8686604051610dab9291906117b5565b60405180910390a45050505050565b6001600160a01b0384163b156104c95760405163f23a6e6160e01b81526001600160a01b0385169063f23a6e6190610dfe90899089908890889088906004016117e3565b6020604051808303816000875af1925050508015610e39575060408051601f3d908101601f19168201909252610e3691810190611828565b60015b610ea2573d808015610e67576040519150601f19603f3d011682016040523d82523d6000602084013e610e6c565b606091505b508051600003610e9a57604051632bfa23e760e11b81526001600160a01b03861660048201526024016104b3565b805181602001fd5b6001600160e01b0319811663f23a6e6160e01b14610a0a57604051632bfa23e760e11b81526001600160a01b03861660048201526024016104b3565b6001600160a01b0384163b156104c95760405163bc197c8160e01b81526001600160a01b0385169063bc197c8190610f229089908990889088908890600401611845565b6020604051808303816000875af1925050508015610f5d575060408051601f3d908101601f19168201909252610f5a91810190611828565b60015b610f8b573d808015610e67576040519150601f19603f3d011682016040523d82523d6000602084013e610e6c565b6001600160e01b0319811663bc197c8160e01b14610a0a57604051632bfa23e760e11b81526001600160a01b03861660048201526024016104b3565b80356001600160a01b0381168114610fde57600080fd5b919050565b60008060408385031215610ff657600080fd5b610fff83610fc7565b946020939093013593505050565b6001600160e01b03198116811461102357600080fd5b50565b60006020828403121561103857600080fd5b81356110438161100d565b9392505050565b60006020828403121561105c57600080fd5b5035919050565b60005b8381101561107e578181015183820152602001611066565b50506000910152565b6000815180845261109f816020860160208601611063565b601f01601f19169290920160200192915050565b6020815260006110436020830184611087565b6000806000606084860312156110db57600080fd5b6110e484610fc7565b95602085013595506040909401359392505050565b634e487b7160e01b600052604160045260246000fd5b604051601f8201601f191681016001600160401b0381118282101715611137576111376110f9565b604052919050565b60006001600160401b03821115611158576111586110f9565b5060051b60200190565b600082601f83011261117357600080fd5b813560206111886111838361113f565b61110f565b8083825260208201915060208460051b8701019350868411156111aa57600080fd5b602086015b848110156111c657803583529183019183016111af565b509695505050505050565b60006001600160401b038311156111ea576111ea6110f9565b6111fd601f8401601f191660200161110f565b905082815283838301111561121157600080fd5b828260208301376000602084830101529392505050565b600082601f83011261123957600080fd5b611043838335602085016111d1565b600080600080600060a0868803121561126057600080fd5b61126986610fc7565b945061127760208701610fc7565b935060408601356001600160401b038082111561129357600080fd5b61129f89838a01611162565b945060608801359150808211156112b557600080fd5b6112c189838a01611162565b935060808801359150808211156112d757600080fd5b506112e488828901611228565b9150509295509295909350565b6000806040838503121561130457600080fd5b82356001600160401b038082111561131b57600080fd5b818501915085601f83011261132f57600080fd5b8135602061133f6111838361113f565b82815260059290921b8401810191818101908984111561135e57600080fd5b948201945b838610156113835761137486610fc7565b82529482019490820190611363565b9650508601359250508082111561139957600080fd5b506113a685828601611162565b9150509250929050565b60008151808452602080850194506020840160005b838110156113e1578151875295820195908201906001016113c5565b509495945050505050565b60208152600061104360208301846113b0565b60008060006060848603121561141457600080fd5b61141d84610fc7565b925060208401356001600160401b038082111561143957600080fd5b61144587838801611162565b9350604086013591508082111561145b57600080fd5b5061146886828701611162565b9150509250925092565b6000806040838503121561148557600080fd5b61148e83610fc7565b9150602083013580151581146114a357600080fd5b809150509250929050565b6000602082840312156114c057600080fd5b81356001600160401b038111156114d657600080fd5b8201601f810184136114e757600080fd5b6114f6848235602084016111d1565b949350505050565b6000806040838503121561151157600080fd5b61151a83610fc7565b915061152860208401610fc7565b90509250929050565b600080600080600060a0868803121561154957600080fd5b61155286610fc7565b945061156060208701610fc7565b9350604086013592506060860135915060808601356001600160401b0381111561158957600080fd5b6112e488828901611228565b600181811c908216806115a957607f821691505b6020821081036115c957634e487b7160e01b600052602260045260246000fd5b50919050565b60008084546115dd81611595565b600182811680156115f5576001811461160a57611639565b60ff1984168752821515830287019450611639565b8860005260208060002060005b858110156116305781548a820152908401908201611617565b50505082870194505b50505050835161164d818360208801611063565b01949350505050565b634e487b7160e01b600052601160045260246000fd5b60006001820161167e5761167e611656565b5060010190565b8082018082111561025957610259611656565b634e487b7160e01b600052603260045260246000fd5b601f821115610632576000816000526020600020601f850160051c810160208610156116d75750805b601f850160051c820191505b818110156104c9578281556001016116e3565b81516001600160401b0381111561170f5761170f6110f9565b6117238161171d8454611595565b846116ae565b602080601f83116001811461175857600084156117405750858301515b600019600386901b1c1916600185901b1785556104c9565b600085815260208120601f198616915b8281101561178757888601518255948401946001909101908401611768565b50858210156117a55787850151600019600388901b60f8161c191681555b5050505050600190811b01905550565b6040815260006117c860408301856113b0565b82810360208401526117da81856113b0565b95945050505050565b6001600160a01b03868116825285166020820152604081018490526060810183905260a06080820181905260009061181d90830184611087565b979650505050505050565b60006020828403121561183a57600080fd5b81516110438161100d565b6001600160a01b0386811682528516602082015260a060408201819052600090611871908301866113b0565b828103606084015261188381866113b0565b905082810360808401526118978185611087565b9897505050505050505056fea2646970667358221220acf2910c77ec83e3d84e2d0f5fa5eb9a1b1fa1cfebce79ad67fdaf35dd04620e64736f6c63430008160033697066733a2f2f516d5a447478694a437678464641785642557a31667871374455776b74736e774e584541344a6a687871393847632f","linkReferences":{}},"methodIdentifiers":{"balanceOf(address,uint256)":"00fdd58e","balanceOfBatch(address[],uint256[])":"4e1273f4","burn(address,uint256,uint256)":"f5298aca","burnBatch(address,uint256[],uint256[])":"6b20c454","isApprovedForAll(address,address)":"e985e9c5","mint(address,uint256)":"40c10f19","mint(address,uint256,uint256)":"156e29f6","mintBatch(address,uint256,uint256)":"2e81aaea","safeBatchTransferFrom(address,address,uint256[],uint256[],bytes)":"2eb2c2d6","safeTransferFrom(address,address,uint256,uint256,bytes)":"f242432a","setApprovalForAll(address,bool)":"a22cb465","setTokenURI(string)":"e0df5b6f","supportsInterface(bytes4)":"01ffc9a7","uri(uint256)":"0e89341c"},"id":256}