{"abi":[{"type":"function","name":"initialized","inputs":[],"outputs":[{"name":"","type":"bool","internalType":"bool"}],"stateMutability":"view"},{"type":"function","name":"proxiableUUID","inputs":[],"outputs":[{"name":"","type":"bytes32","internalType":"bytes32"}],"stateMutability":"pure"}],"bytecode":{"object":"0x60a060405230608052348015601357600080fd5b5060805160bb61002a6000396000505060bb6000f3fe6080604052348015600f57600080fd5b506004361060325760003560e01c8063158ef93e14603757806352d1902d146058575b600080fd5b60005460439060ff1681565b60405190151581526020015b60405180910390f35b6040517f360894a13ba1a3210667c828492db98dca3e2076cc3735a920a3ca505d382bbc8152602001604f56fea26469706673582212200ffe50d8998f4dc8e2644ed609bca9114f1637930bf151342b93138916a2428564736f6c63430008160033","linkReferences":{}},"methodIdentifiers":{"initialized()":"158ef93e","proxiableUUID()":"52d1902d"},"id":153}