{"abi":[{"type":"constructor","inputs":[{"name":"kernel_","type":"address","internalType":"contract Kernel"}],"stateMutability":"nonpayable"},{"type":"function","name":"INIT","inputs":[],"outputs":[],"stateMutability":"nonpayable"},{"type":"function","name":"KEYCODE","inputs":[],"outputs":[{"name":"","type":"bytes5","internalType":"Keycode"}],"stateMutability":"pure"},{"type":"function","name":"MODULE_PROXY_INSTANTIATION","inputs":[{"name":"kernel_","type":"address","internalType":"contract Kernel"}],"outputs":[],"stateMutability":"nonpayable"},{"type":"function","name":"VERSION","inputs":[],"outputs":[{"name":"major","type":"uint8","internalType":"uint8"},{"name":"minor","type":"uint8","internalType":"uint8"}],"stateMutability":"pure"},{"type":"function","name":"balanceOf","inputs":[{"name":"token","type":"address","internalType":"address"}],"outputs":[{"name":"amount","type":"uint256","internalType":"uint256"}],"stateMutability":"view"},{"type":"function","name":"changeKernel","inputs":[{"name":"newKernel_","type":"address","internalType":"contract Kernel"}],"outputs":[],"stateMutability":"nonpayable"},{"type":"function","name":"fee","inputs":[],"outputs":[{"name":"","type":"uint256","internalType":"uint256"}],"stateMutability":"view"},{"type":"function","name":"freeze","inputs":[],"outputs":[],"stateMutability":"nonpayable"},{"type":"function","name":"increaseDeposit","inputs":[{"name":"token","type":"address","internalType":"address"},{"name":"amount","type":"uint256","internalType":"uint256"}],"outputs":[],"stateMutability":"nonpayable"},{"type":"function","name":"initialized","inputs":[],"outputs":[{"name":"","type":"bool","internalType":"bool"}],"stateMutability":"view"},{"type":"function","name":"kernel","inputs":[],"outputs":[{"name":"","type":"address","internalType":"contract Kernel"}],"stateMutability":"view"},{"type":"function","name":"proxiableUUID","inputs":[],"outputs":[{"name":"","type":"bytes32","internalType":"bytes32"}],"stateMutability":"pure"},{"type":"function","name":"setFee","inputs":[{"name":"feeNumerator","type":"uint256","internalType":"uint256"}],"outputs":[],"stateMutability":"nonpayable"},{"type":"function","name":"settlePayment","inputs":[{"name":"order","type":"tuple","internalType":"struct RentalOrder","components":[{"name":"seaportOrderHash","type":"bytes32","internalType":"bytes32"},{"name":"items","type":"tuple[]","internalType":"struct Item[]","components":[{"name":"itemType","type":"uint8","internalType":"enum ItemType"},{"name":"settleTo","type":"uint8","internalType":"enum SettleTo"},{"name":"token","type":"address","internalType":"address"},{"name":"amount","type":"uint256","internalType":"uint256"},{"name":"identifier","type":"uint256","internalType":"uint256"}]},{"name":"hooks","type":"tuple[]","internalType":"struct Hook[]","components":[{"name":"target","type":"address","internalType":"address"},{"name":"itemIndex","type":"uint256","internalType":"uint256"},{"name":"extraData","type":"bytes","internalType":"bytes"}]},{"name":"orderType","type":"uint8","internalType":"enum OrderType"},{"name":"lender","type":"address","internalType":"address"},{"name":"renter","type":"address","internalType":"address"},{"name":"rentalWallet","type":"address","internalType":"address"},{"name":"startTimestamp","type":"uint256","internalType":"uint256"},{"name":"endTimestamp","type":"uint256","internalType":"uint256"}]}],"outputs":[],"stateMutability":"nonpayable"},{"type":"function","name":"settlePaymentBatch","inputs":[{"name":"orders","type":"tuple[]","internalType":"struct RentalOrder[]","components":[{"name":"seaportOrderHash","type":"bytes32","internalType":"bytes32"},{"name":"items","type":"tuple[]","internalType":"struct Item[]","components":[{"name":"itemType","type":"uint8","internalType":"enum ItemType"},{"name":"settleTo","type":"uint8","internalType":"enum SettleTo"},{"name":"token","type":"address","internalType":"address"},{"name":"amount","type":"uint256","internalType":"uint256"},{"name":"identifier","type":"uint256","internalType":"uint256"}]},{"name":"hooks","type":"tuple[]","internalType":"struct Hook[]","components":[{"name":"target","type":"address","internalType":"address"},{"name":"itemIndex","type":"uint256","internalType":"uint256"},{"name":"extraData","type":"bytes","internalType":"bytes"}]},{"name":"orderType","type":"uint8","internalType":"enum OrderType"},{"name":"lender","type":"address","internalType":"address"},{"name":"renter","type":"address","internalType":"address"},{"name":"rentalWallet","type":"address","internalType":"address"},{"name":"startTimestamp","type":"uint256","internalType":"uint256"},{"name":"endTimestamp","type":"uint256","internalType":"uint256"}]}],"outputs":[],"stateMutability":"nonpayable"},{"type":"function","name":"skim","inputs":[{"name":"token","type":"address","internalType":"address"},{"name":"to","type":"address","internalType":"address"}],"outputs":[],"stateMutability":"nonpayable"},{"type":"function","name":"upgrade","inputs":[{"name":"newImplementation","type":"address","internalType":"address"}],"outputs":[],"stateMutability":"nonpayable"},{"type":"function","name":"upgradeSuccess","inputs":[],"outputs":[{"name":"","type":"bool","internalType":"bool"}],"stateMutability":"pure"},{"type":"event","name":"FeeTaken","inputs":[{"name":"token","type":"address","indexed":false,"internalType":"address"},{"name":"amount","type":"uint256","indexed":false,"internalType":"uint256"}],"anonymous":false},{"type":"error","name":"KernelAdapter_OnlyKernel","inputs":[{"name":"caller_","type":"address","internalType":"address"}]},{"type":"error","name":"Module_PolicyNotAuthorized","inputs":[{"name":"policy_","type":"address","internalType":"address"}]},{"type":"error","name":"PaymentEscrow_InvalidFeeNumerator","inputs":[]},{"type":"error","name":"PaymentEscrow_ZeroPayment","inputs":[]},{"type":"error","name":"Proxy_AlreadyInitialized","inputs":[]},{"type":"error","name":"Proxy_Frozen","inputs":[]},{"type":"error","name":"Proxy_NotCompatible","inputs":[{"name":"newImplementation","type":"address","internalType":"address"}]},{"type":"error","name":"Proxy_OnlyCallByProxy","inputs":[]},{"type":"error","name":"Shared_ERC20TransferFailed","inputs":[{"name":"token","type":"address","internalType":"address"},{"name":"from","type":"address","internalType":"address"},{"name":"to","type":"address","internalType":"address"},{"name":"value","type":"uint256","internalType":"uint256"}]},{"type":"error","name":"Shared_OrderTypeNotSupported","inputs":[{"name":"orderType","type":"uint8","internalType":"uint8"}]}],"bytecode":{"object":"0x60a06040523060805234801561001457600080fd5b50604051611a88380380611a888339810160408190526100339161005e565b600080546001600160a01b0390921661010002610100600160a81b031990921691909117905561008e565b60006020828403121561007057600080fd5b81516001600160a01b038116811461008757600080fd5b9392505050565b6080516119766101126000396000818161029b015281816102c40152818161043901528181610462015281816105e20152818161060b015281816107530152818161077c015281816109db01528181610a0401528181610b4901528181610b7201528181610d7501528181610d9e01528181610ee90152610f1201526119766000f3fe608060405234801561001057600080fd5b50600436106101165760003560e01c806370a08231116100a2578063d4aae0c411610071578063d4aae0c414610227578063ddca3f4314610257578063e78513cf14610260578063ea64391414610273578063ffa1ad741461027b57600080fd5b806370a08231146101da578063712b772f146101fa578063945c9e731461020d578063d417b7b31461021457600080fd5b80634657b36c116100e95780634657b36c1461017b57806352d1902d1461018e57806362a5af3b146101ac5780636327b802146101b457806369fe0e2d146101c757600080fd5b806304c10ea51461011b5780630900f01014610130578063158ef93e146101435780631ae7ec2e14610165575b600080fd5b61012e610129366004611534565b610290565b005b61012e61013e36600461159c565b61042e565b6000546101509060ff1681565b60405190151581526020015b60405180910390f35b60405164455343525760d81b815260200161015c565b61012e61018936600461159c565b61057d565b6000805160206119218339815191525b60405190815260200161015c565b61012e6105d7565b61012e6101c23660046115b9565b610748565b61012e6101d536600461162e565b6109d0565b61019e6101e836600461159c565b60016020526000908152604090205481565b61012e610208366004611647565b610b3e565b6001610150565b61012e610222366004611680565b610d6a565b60005461023f9061010090046001600160a01b031681565b6040516001600160a01b03909116815260200161015c565b61019e60025481565b61012e61026e36600461159c565b610ede565b61012e610fcf565b6040805160018152600060208201520161015c565b306001600160a01b037f000000000000000000000000000000000000000000000000000000000000000016148061030e57507f00000000000000000000000000000000000000000000000000000000000000006001600160a01b03166103026000805160206119218339815191525490565b6001600160a01b031614155b1561032c57604051636293f5d160e01b815260040160405180910390fd5b60005461010090046001600160a01b031663f166d9eb64455343525760d81b336000356001600160e01b0319166040518463ffffffff1660e01b8152600401610377939291906116ac565b602060405180830381865afa158015610394573d6000803e3d6000fd5b505050506040513d601f19601f820116820180604052508101906103b891906116e1565b6103db57604051622ad7db60e41b81523360048201526024015b60405180910390fd5b61042b6103eb6020830183611703565b6103fb6080850160608601611760565b61040b60a086016080870161159c565b61041b60c0870160a0880161159c565b8660e00135876101000135611001565b50565b306001600160a01b037f00000000000000000000000000000000000000000000000000000000000000001614806104ac57507f00000000000000000000000000000000000000000000000000000000000000006001600160a01b03166104a06000805160206119218339815191525490565b6001600160a01b031614155b156104ca57604051636293f5d160e01b815260040160405180910390fd5b60005461010090046001600160a01b031663f166d9eb64455343525760d81b336000356001600160e01b0319166040518463ffffffff1660e01b8152600401610515939291906116ac565b602060405180830381865afa158015610532573d6000803e3d6000fd5b505050506040513d601f19601f8201168201806040525081019061055691906116e1565b61057457604051622ad7db60e41b81523360048201526024016103d2565b61042b81611181565b60005461010090046001600160a01b031633146105af5760405163053e900f60e21b81523360048201526024016103d2565b600080546001600160a01b0390921661010002610100600160a81b0319909216919091179055565b306001600160a01b037f000000000000000000000000000000000000000000000000000000000000000016148061065557507f00000000000000000000000000000000000000000000000000000000000000006001600160a01b03166106496000805160206119218339815191525490565b6001600160a01b031614155b1561067357604051636293f5d160e01b815260040160405180910390fd5b60005461010090046001600160a01b031663f166d9eb64455343525760d81b336000356001600160e01b0319166040518463ffffffff1660e01b81526004016106be939291906116ac565b602060405180830381865afa1580156106db573d6000803e3d6000fd5b505050506040513d601f19601f820116820180604052508101906106ff91906116e1565b61071d57604051622ad7db60e41b81523360048201526024016103d2565b61074660017fb1c430d6858c7d4aa68247671513746f811bc8a08b57cb1afc031d4c886174dc55565b565b306001600160a01b037f00000000000000000000000000000000000000000000000000000000000000001614806107c657507f00000000000000000000000000000000000000000000000000000000000000006001600160a01b03166107ba6000805160206119218339815191525490565b6001600160a01b031614155b156107e457604051636293f5d160e01b815260040160405180910390fd5b60005461010090046001600160a01b031663f166d9eb64455343525760d81b336000356001600160e01b0319166040518463ffffffff1660e01b815260040161082f939291906116ac565b602060405180830381865afa15801561084c573d6000803e3d6000fd5b505050506040513d601f19601f8201168201806040525081019061087091906116e1565b61088e57604051622ad7db60e41b81523360048201526024016103d2565b60005b818110156109cb576109c38383838181106108ae576108ae61177d565b90506020028101906108c09190611793565b6108ce906020810190611703565b8585858181106108e0576108e061177d565b90506020028101906108f29190611793565b610903906080810190606001611760565b8686868181106109155761091561177d565b90506020028101906109279190611793565b6109389060a081019060800161159c565b87878781811061094a5761094a61177d565b905060200281019061095c9190611793565b61096d9060c081019060a00161159c565b88888881811061097f5761097f61177d565b90506020028101906109919190611793565b60e001358989898181106109a7576109a761177d565b90506020028101906109b99190611793565b6101000135611001565b600101610891565b505050565b306001600160a01b037f0000000000000000000000000000000000000000000000000000000000000000161480610a4e57507f00000000000000000000000000000000000000000000000000000000000000006001600160a01b0316610a426000805160206119218339815191525490565b6001600160a01b031614155b15610a6c57604051636293f5d160e01b815260040160405180910390fd5b60005461010090046001600160a01b031663f166d9eb64455343525760d81b336000356001600160e01b0319166040518463ffffffff1660e01b8152600401610ab7939291906116ac565b602060405180830381865afa158015610ad4573d6000803e3d6000fd5b505050506040513d601f19601f82011682018060405250810190610af891906116e1565b610b1657604051622ad7db60e41b81523360048201526024016103d2565b612710811115610b39576040516365b3e44b60e01b815260040160405180910390fd5b600255565b306001600160a01b037f0000000000000000000000000000000000000000000000000000000000000000161480610bbc57507f00000000000000000000000000000000000000000000000000000000000000006001600160a01b0316610bb06000805160206119218339815191525490565b6001600160a01b031614155b15610bda57604051636293f5d160e01b815260040160405180910390fd5b60005461010090046001600160a01b031663f166d9eb64455343525760d81b336000356001600160e01b0319166040518463ffffffff1660e01b8152600401610c25939291906116ac565b602060405180830381865afa158015610c42573d6000803e3d6000fd5b505050506040513d601f19601f82011682018060405250810190610c6691906116e1565b610c8457604051622ad7db60e41b81523360048201526024016103d2565b6001600160a01b0382166000818152600160205260408082205490516370a0823160e01b81523060048201529092906370a0823190602401602060405180830381865afa158015610cd9573d6000803e3d6000fd5b505050506040513d601f19601f82011682018060405250810190610cfd91906117b4565b90506000610d0b83836117e3565b9050610d216001600160a01b038616858361128f565b604080516001600160a01b0387168152602081018390527f1b02d16d3c4c6fce038de5403c8352eb1eb62bc6915b6848683de52a24a723f8910160405180910390a15050505050565b306001600160a01b037f0000000000000000000000000000000000000000000000000000000000000000161480610de857507f00000000000000000000000000000000000000000000000000000000000000006001600160a01b0316610ddc6000805160206119218339815191525490565b6001600160a01b031614155b15610e0657604051636293f5d160e01b815260040160405180910390fd5b60005461010090046001600160a01b031663f166d9eb64455343525760d81b336000356001600160e01b0319166040518463ffffffff1660e01b8152600401610e51939291906116ac565b602060405180830381865afa158015610e6e573d6000803e3d6000fd5b505050506040513d601f19601f82011682018060405250810190610e9291906116e1565b610eb057604051622ad7db60e41b81523360048201526024016103d2565b80600003610ed0576040516291a3dd60e81b815260040160405180910390fd5b610eda82826113a0565b5050565b306001600160a01b037f0000000000000000000000000000000000000000000000000000000000000000161480610f5c57507f00000000000000000000000000000000000000000000000000000000000000006001600160a01b0316610f506000805160206119218339815191525490565b6001600160a01b031614155b15610f7a57604051636293f5d160e01b815260040160405180910390fd5b60005460ff1615610f9e576040516358c510a960e11b815260040160405180910390fd5b6000805460ff196001600160a01b0390931661010002929092166001600160a81b0319909216919091176001179055565b60005461010090046001600160a01b031633146107465760405163053e900f60e21b81523360048201526024016103d2565b600061100d83426117e3565b9050600061101b84846117e3565b90508082101560005b898110156111745760008b8b838181106110405761104061177d565b905060a0020180360381019061105691906117f6565b9050611061816113d1565b1561116b5760608101516002541561108e57600061107e826113ef565b905061108a81836117e3565b9150505b6110a082604001518360600151611412565b6110ba8b60028111156110b5576110b561188f565b61143a565b80156110c4575083155b156110e0576110db8260400151828c8c8a8a611451565b611169565b6110f58b60028111156110b5576110b561188f565b80156110fe5750835b8061111e575061111e8b60028111156111195761111961188f565b611496565b15611138576110db82604001518284602001518d8d61149e565b8a600281111561114a5761114a61188f565b604051635109fe9b60e11b815260ff90911660048201526024016103d2565b505b50600101611024565b5050505050505050505050565b7fb1c430d6858c7d4aa68247671513746f811bc8a08b57cb1afc031d4c886174dc54156111c157604051637f2c070d60e01b815260040160405180910390fd5b806001600160a01b03166352d1902d6040518163ffffffff1660e01b8152600401602060405180830381865afa92505050801561121b575060408051601f3d908101601f19168201909252611218918101906117b4565b60015b61124357604051630a4edb1d60e41b81526001600160a01b03821660048201526024016103d2565b600080516020611921833981519152811461127c57604051630a4edb1d60e41b81526001600160a01b03831660048201526024016103d2565b5060008051602061192183398151915255565b604080516001600160a01b038481166024830152604480830185905283518084039091018152606490920183526020820180516001600160e01b031663a9059cbb60e01b17905291516000928392908716916112eb91906118a5565b6000604051808303816000865af19150503d8060008114611328576040519150601f19603f3d011682016040523d82523d6000602084013e61132d565b606091505b509150915081158061135b575080511580159061135b57508080602001905181019061135991906116e1565b155b1561139957604051632037bb5b60e01b81526001600160a01b03808716600483015230602483015285166044820152606481018490526084016103d2565b5050505050565b6001600160a01b038216600090815260016020526040812080548392906113c89084906118d4565b90915550505050565b60006002825160028111156113e8576113e861188f565b1492915050565b60006127106002548361140291906118e7565b61140c91906118fe565b92915050565b6001600160a01b038216600090815260016020526040812080548392906113c89084906117e3565b600060015b8260028111156113e8576113e861188f565b60008061145f8785856114de565b90925090506114786001600160a01b038916878361128f565b61148c6001600160a01b038916868461128f565b5050505050505050565b60008061143f565b6000808460018111156114b3576114b361188f565b146114be57816114c0565b825b90506114d66001600160a01b038716828761128f565b505050505050565b600080806114ec85876118e7565b6114f8906103e86118e7565b90506103e861150785836118fe565b611513906101f46118d4565b61151d91906118fe565b925061152983876117e3565b915050935093915050565b60006020828403121561154657600080fd5b813567ffffffffffffffff81111561155d57600080fd5b8201610120818503121561157057600080fd5b9392505050565b6001600160a01b038116811461042b57600080fd5b803561159781611577565b919050565b6000602082840312156115ae57600080fd5b813561157081611577565b600080602083850312156115cc57600080fd5b823567ffffffffffffffff808211156115e457600080fd5b818501915085601f8301126115f857600080fd5b81358181111561160757600080fd5b8660208260051b850101111561161c57600080fd5b60209290920196919550909350505050565b60006020828403121561164057600080fd5b5035919050565b6000806040838503121561165a57600080fd5b823561166581611577565b9150602083013561167581611577565b809150509250929050565b6000806040838503121561169357600080fd5b823561169e81611577565b946020939093013593505050565b6001600160d81b03199390931683526001600160a01b039190911660208301526001600160e01b031916604082015260600190565b6000602082840312156116f357600080fd5b8151801515811461157057600080fd5b6000808335601e1984360301811261171a57600080fd5b83018035915067ffffffffffffffff82111561173557600080fd5b602001915060a08102360382131561174c57600080fd5b9250929050565b6003811061042b57600080fd5b60006020828403121561177257600080fd5b813561157081611753565b634e487b7160e01b600052603260045260246000fd5b6000823561011e198336030181126117aa57600080fd5b9190910192915050565b6000602082840312156117c657600080fd5b5051919050565b634e487b7160e01b600052601160045260246000fd5b8181038181111561140c5761140c6117cd565b600060a0828403121561180857600080fd5b60405160a0810181811067ffffffffffffffff8211171561183957634e487b7160e01b600052604160045260246000fd5b604052823561184781611753565b815260208301356002811061185b57600080fd5b602082015261186c6040840161158c565b604082015260608301356060820152608083013560808201528091505092915050565b634e487b7160e01b600052602160045260246000fd5b6000825160005b818110156118c657602081860181015185830152016118ac565b506000920191825250919050565b8082018082111561140c5761140c6117cd565b808202811582820484141761140c5761140c6117cd565b60008261191b57634e487b7160e01b600052601260045260246000fd5b50049056fe360894a13ba1a3210667c828492db98dca3e2076cc3735a920a3ca505d382bbca264697066735822122021dadc43a1844b11a9a78c96744dacf993cbd4742765547f6f51c18c486f543264736f6c63430008160033","linkReferences":{}},"methodIdentifiers":{"INIT()":"ea643914","KEYCODE()":"1ae7ec2e","MODULE_PROXY_INSTANTIATION(address)":"e78513cf","VERSION()":"ffa1ad74","balanceOf(address)":"70a08231","changeKernel(address)":"4657b36c","fee()":"ddca3f43","freeze()":"62a5af3b","increaseDeposit(address,uint256)":"d417b7b3","initialized()":"158ef93e","kernel()":"d4aae0c4","proxiableUUID()":"52d1902d","setFee(uint256)":"69fe0e2d","settlePayment((bytes32,(uint8,uint8,address,uint256,uint256)[],(address,uint256,bytes)[],uint8,address,address,address,uint256,uint256))":"04c10ea5","settlePaymentBatch((bytes32,(uint8,uint8,address,uint256,uint256)[],(address,uint256,bytes)[],uint8,address,address,address,uint256,uint256)[])":"6327b802","skim(address,address)":"712b772f","upgrade(address)":"0900f010","upgradeSuccess()":"945c9e73"},"id":121}