{"abi":[{"type":"function","name":"balanceOf","inputs":[{"name":"token","type":"address","internalType":"address"}],"outputs":[{"name":"amount","type":"uint256","internalType":"uint256"}],"stateMutability":"view"},{"type":"function","name":"fee","inputs":[],"outputs":[{"name":"","type":"uint256","internalType":"uint256"}],"stateMutability":"view"}],"bytecode":{"object":"0x608060405234801561001057600080fd5b5060d28061001f6000396000f3fe6080604052348015600f57600080fd5b506004361060325760003560e01c806370a08231146037578063ddca3f43146066575b600080fd5b60546042366004606e565b60006020819052908152604090205481565b60405190815260200160405180910390f35b605460015481565b600060208284031215607f57600080fd5b81356001600160a01b0381168114609557600080fd5b939250505056fea2646970667358221220d2690d85f22109fcd3dd6ecc083aa75a38626bbf142b46c85776b30a2a3c933e64736f6c63430008160033","linkReferences":{}},"methodIdentifiers":{"balanceOf(address)":"70a08231","fee()":"ddca3f43"},"id":140}