{"abi":[{"type":"constructor","inputs":[{"name":"kernel_","type":"address","internalType":"contract Kernel"}],"stateMutability":"nonpayable"},{"type":"function","name":"ESCRW","inputs":[],"outputs":[{"name":"","type":"address","internalType":"contract PaymentEscrow"}],"stateMutability":"view"},{"type":"function","name":"STORE","inputs":[],"outputs":[{"name":"","type":"address","internalType":"contract Storage"}],"stateMutability":"view"},{"type":"function","name":"changeKernel","inputs":[{"name":"newKernel_","type":"address","internalType":"contract Kernel"}],"outputs":[],"stateMutability":"nonpayable"},{"type":"function","name":"clearUserRecord","inputs":[{"name":"user","type":"address","internalType":"address"}],"outputs":[],"stateMutability":"nonpayable"},{"type":"function","name":"configureDependencies","inputs":[],"outputs":[{"name":"dependencies","type":"bytes5[]","internalType":"Keycode[]"}],"stateMutability":"nonpayable"},{"type":"function","name":"enforcePunishment","inputs":[{"name":"user","type":"address","internalType":"address"},{"name":"similarityScore","type":"uint256","internalType":"uint256"}],"outputs":[],"stateMutability":"nonpayable"},{"type":"function","name":"freezePaymentEscrow","inputs":[],"outputs":[],"stateMutability":"nonpayable"},{"type":"function","name":"freezeStorage","inputs":[],"outputs":[],"stateMutability":"nonpayable"},{"type":"function","name":"isActive","inputs":[],"outputs":[{"name":"","type":"bool","internalType":"bool"}],"stateMutability":"view"},{"type":"function","name":"isUserBanned","inputs":[{"name":"user","type":"address","internalType":"address"}],"outputs":[{"name":"","type":"bool","internalType":"bool"}],"stateMutability":"view"},{"type":"function","name":"isUserBlacklisted","inputs":[{"name":"user","type":"address","internalType":"address"}],"outputs":[{"name":"","type":"bool","internalType":"bool"}],"stateMutability":"view"},{"type":"function","name":"kernel","inputs":[],"outputs":[{"name":"","type":"address","internalType":"contract Kernel"}],"stateMutability":"view"},{"type":"function","name":"requestPermissions","inputs":[],"outputs":[{"name":"requests","type":"tuple[]","internalType":"struct Permissions[]","components":[{"name":"keycode","type":"bytes5","internalType":"Keycode"},{"name":"funcSelector","type":"bytes4","internalType":"bytes4"}]}],"stateMutability":"view"},{"type":"function","name":"setActiveStatus","inputs":[{"name":"activate_","type":"bool","internalType":"bool"}],"outputs":[],"stateMutability":"nonpayable"},{"type":"function","name":"setFee","inputs":[{"name":"feeNumerator","type":"uint256","internalType":"uint256"}],"outputs":[],"stateMutability":"nonpayable"},{"type":"function","name":"setGuardEmergencyUpgrade","inputs":[{"name":"guardEmergencyUpgradeAddress","type":"address","internalType":"address"}],"outputs":[],"stateMutability":"nonpayable"},{"type":"function","name":"setMaxConsiderationItems","inputs":[{"name":"newConsiderationLength","type":"uint256","internalType":"uint256"}],"outputs":[],"stateMutability":"nonpayable"},{"type":"function","name":"setMaxOfferItems","inputs":[{"name":"newOfferLength","type":"uint256","internalType":"uint256"}],"outputs":[],"stateMutability":"nonpayable"},{"type":"function","name":"setMaxRentDuration","inputs":[{"name":"newDuration","type":"uint256","internalType":"uint256"}],"outputs":[],"stateMutability":"nonpayable"},{"type":"function","name":"skim","inputs":[{"name":"token","type":"address","internalType":"address"},{"name":"to","type":"address","internalType":"address"}],"outputs":[],"stateMutability":"nonpayable"},{"type":"function","name":"toggleWhitelistAsset","inputs":[{"name":"asset","type":"address","internalType":"address"},{"name":"bitmap","type":"uint8","internalType":"uint8"}],"outputs":[],"stateMutability":"nonpayable"},{"type":"function","name":"toggleWhitelistAssetBatch","inputs":[{"name":"assets","type":"address[]","internalType":"address[]"},{"name":"bitmaps","type":"uint8[]","internalType":"uint8[]"}],"outputs":[],"stateMutability":"nonpayable"},{"type":"function","name":"toggleWhitelistDelegate","inputs":[{"name":"delegate","type":"address","internalType":"address"},{"name":"isEnabled","type":"bool","internalType":"bool"}],"outputs":[],"stateMutability":"nonpayable"},{"type":"function","name":"toggleWhitelistExtension","inputs":[{"name":"extension","type":"address","internalType":"address"},{"name":"bitmap","type":"uint8","internalType":"uint8"}],"outputs":[],"stateMutability":"nonpayable"},{"type":"function","name":"toggleWhitelistPayment","inputs":[{"name":"payment","type":"address","internalType":"address"},{"name":"isEnabled","type":"bool","internalType":"bool"}],"outputs":[],"stateMutability":"nonpayable"},{"type":"function","name":"toggleWhitelistPaymentBatch","inputs":[{"name":"payments","type":"address[]","internalType":"address[]"},{"name":"isEnabled","type":"bool[]","internalType":"bool[]"}],"outputs":[],"stateMutability":"nonpayable"},{"type":"function","name":"upgradePaymentEscrow","inputs":[{"name":"newImplementation","type":"address","internalType":"address"}],"outputs":[],"stateMutability":"nonpayable"},{"type":"function","name":"upgradeStorage","inputs":[{"name":"newImplementation","type":"address","internalType":"address"}],"outputs":[],"stateMutability":"nonpayable"},{"type":"error","name":"KernelAdapter_OnlyKernel","inputs":[{"name":"caller_","type":"address","internalType":"address"}]},{"type":"error","name":"Policy_ModuleDoesNotExist","inputs":[{"name":"keycode_","type":"bytes5","internalType":"Keycode"}]},{"type":"error","name":"Policy_OnlyRole","inputs":[{"name":"role_","type":"bytes32","internalType":"Role"}]}],"bytecode":{"object":"0x60806040523480156200001157600080fd5b50604051620026dc380380620026dc83398101604081905262000034916200005a565b600080546001600160a01b0319166001600160a01b03929092169190911790556200008c565b6000602082840312156200006d57600080fd5b81516001600160a01b03811681146200008557600080fd5b9392505050565b612640806200009c6000396000f3fe608060405234801561001057600080fd5b50600436106101c45760003560e01c806369fe0e2d116100f95780639ed9b4fd11610097578063a942d34411610071578063a942d344146103af578063c5cbde10146103c2578063d4aae0c4146103d5578063ec7404b1146103e857600080fd5b80639ed9b4fd14610376578063a210f21c14610389578063a5fd3f301461039c57600080fd5b806382bfa9f2116100d357806382bfa9f2146103335780638dba9561146103465780639459b8751461035957806395a69c201461036e57600080fd5b806369fe0e2d146102fa578063712b772f1461030d5780637c58ffb11461032057600080fd5b80633fb2ab7711610166578063503b8e8111610140578063503b8e8114610294578063507f1465146102a75780635924be70146102d25780635ec8d3e4146102e757600080fd5b80633fb2ab771461025b57806345204b3c1461026e5780634657b36c1461028157600080fd5b80632bf796ff116101a25780632bf796ff1461020f5780633b5e723b146102225780633bf55a1c146102355780633e5fac311461024857600080fd5b806303a7c271146101c95780632012d363146101d357806322f3e2d4146101e6575b600080fd5b6101d16103fb565b005b6101d16101e136600461204d565b610512565b6000546101fa90600160a01b900460ff1681565b60405190151581526020015b60405180910390f35b6101d161021d36600461204d565b61061c565b6101d161023036600461207e565b6106f3565b6101d16102433660046120a2565b6107ca565b6101d16102563660046120e4565b6109f5565b6101d161026936600461204d565b610ad6565b6101d161027c366004612127565b610bad565b6101d161028f36600461207e565b610c8d565b6101fa6102a236600461207e565b610cdc565b6001546102ba906001600160a01b031681565b6040516001600160a01b039091168152602001610206565b6102da610d52565b6040516102069190612160565b6101d16102f53660046122a6565b6114f9565b6101d161030836600461204d565b6115d1565b6101d161031b36600461236a565b6116a8565b6101d161032e36600461207e565b611788565b6101d161034136600461207e565b611860565b6002546102ba906001600160a01b031681565b610361611937565b6040516102069190612398565b6101d1611a5d565b6101fa61038436600461207e565b611b53565b6101d16103973660046123e6565b611b86565b6101d16103aa3660046120e4565b611c5e565b6101d16103bd366004612127565b611d3f565b6101d16103d036600461207e565b611e1f565b6000546102ba906001600160a01b031681565b6101d16103f6366004612499565b611f56565b6a20a226a4a72fa0a226a4a760a91b60008160005460405163ac4ab3fb60e01b81529192506001600160a01b03169063ac4ab3fb9061044090339085906004016124b6565b602060405180830381865afa15801561045d573d6000803e3d6000fd5b505050506040513d601f19601f8201168201806040525081019061048191906124cf565b6104a6576040516371324ef360e11b8152600481018290526024015b60405180910390fd5b600160009054906101000a90046001600160a01b03166001600160a01b03166362a5af3b6040518163ffffffff1660e01b8152600401600060405180830381600087803b1580156104f657600080fd5b505af115801561050a573d6000803e3d6000fd5b505050505050565b6a20a226a4a72fa0a226a4a760a91b60008160005460405163ac4ab3fb60e01b81529192506001600160a01b03169063ac4ab3fb9061055790339085906004016124b6565b602060405180830381865afa158015610574573d6000803e3d6000fd5b505050506040513d601f19601f8201168201806040525081019061059891906124cf565b6105b8576040516371324ef360e11b81526004810182905260240161049d565b600154604051632012d36360e01b8152600481018590526001600160a01b0390911690632012d363906024015b600060405180830381600087803b1580156105ff57600080fd5b505af1158015610613573d6000803e3d6000fd5b50505050505050565b6a20a226a4a72fa0a226a4a760a91b60008160005460405163ac4ab3fb60e01b81529192506001600160a01b03169063ac4ab3fb9061066190339085906004016124b6565b602060405180830381865afa15801561067e573d6000803e3d6000fd5b505050506040513d601f19601f820116820180604052508101906106a291906124cf565b6106c2576040516371324ef360e11b81526004810182905260240161049d565b600154604051632bf796ff60e01b8152600481018590526001600160a01b0390911690632bf796ff906024016105e5565b6a20a226a4a72fa0a226a4a760a91b60008160005460405163ac4ab3fb60e01b81529192506001600160a01b03169063ac4ab3fb9061073890339085906004016124b6565b602060405180830381865afa158015610755573d6000803e3d6000fd5b505050506040513d601f19601f8201168201806040525081019061077991906124cf565b610799576040516371324ef360e11b81526004810182905260240161049d565b60025460405162900f0160e41b81526001600160a01b03858116600483015290911690630900f010906024016105e5565b6a20a226a4a72fa0a226a4a760a91b60008160005460405163ac4ab3fb60e01b81529192506001600160a01b03169063ac4ab3fb9061080f90339085906004016124b6565b602060405180830381865afa15801561082c573d6000803e3d6000fd5b505050506040513d601f19601f8201168201806040525081019061085091906124cf565b610870576040516371324ef360e11b81526004810182905260240161049d565b605083106108dd57600154604051637e5e522b60e11b81526001600160a01b0386811660048301529091169063fcbca456906024015b600060405180830381600087803b1580156108c057600080fd5b505af11580156108d4573d6000803e3d6000fd5b505050506109ef565b6032831061098657600154604051635c6a06c160e01b81526001600160a01b0390911690635c6a06c19061091f908790670de0b6b3a7640000906004016124b6565b600060405180830381600087803b15801561093957600080fd5b505af115801561094d573d6000803e3d6000fd5b50506001546040516306c81f4960e41b81526001600160a01b039091169250636c81f49091506108a690879062278d00906004016124b6565b601e83106109ef57600154604051638258afc960e01b81526001600160a01b03868116600483015290911690638258afc9906024015b600060405180830381600087803b1580156109d657600080fd5b505af11580156109ea573d6000803e3d6000fd5b505050505b50505050565b6a20a226a4a72fa0a226a4a760a91b60008160005460405163ac4ab3fb60e01b81529192506001600160a01b03169063ac4ab3fb90610a3a90339085906004016124b6565b602060405180830381865afa158015610a57573d6000803e3d6000fd5b505050506040513d601f19601f82011682018060405250810190610a7b91906124cf565b610a9b576040516371324ef360e11b81526004810182905260240161049d565b600154604051633e5fac3160e01b81526001600160a01b03868116600483015260ff8616602483015290911690633e5fac31906044016109bc565b6a20a226a4a72fa0a226a4a760a91b60008160005460405163ac4ab3fb60e01b81529192506001600160a01b03169063ac4ab3fb90610b1b90339085906004016124b6565b602060405180830381865afa158015610b38573d6000803e3d6000fd5b505050506040513d601f19601f82011682018060405250810190610b5c91906124cf565b610b7c576040516371324ef360e11b81526004810182905260240161049d565b600154604051633fb2ab7760e01b8152600481018590526001600160a01b0390911690633fb2ab77906024016105e5565b6a20a226a4a72fa0a226a4a760a91b60008160005460405163ac4ab3fb60e01b81529192506001600160a01b03169063ac4ab3fb90610bf290339085906004016124b6565b602060405180830381865afa158015610c0f573d6000803e3d6000fd5b505050506040513d601f19601f82011682018060405250810190610c3391906124cf565b610c53576040516371324ef360e11b81526004810182905260240161049d565b60015460405163114812cf60e21b81526001600160a01b0386811660048301528515156024830152909116906345204b3c906044016109bc565b6000546001600160a01b03163314610cba5760405163053e900f60e21b815233600482015260240161049d565b600080546001600160a01b0319166001600160a01b0392909216919091179055565b6001546040516322c0aec760e01b81526001600160a01b03838116600483015260009216906322c0aec7906024015b602060405180830381865afa158015610d28573d6000803e3d6000fd5b505050506040513d601f19601f82011682018060405250810190610d4c91906124cf565b92915050565b6000546060906001600160a01b03163314610d825760405163053e900f60e21b815233600482015260240161049d565b6040805160168082526102e0820190925290816020015b6040805180820190915260008082526020820152815260200190600190039081610d995790505090506040518060400160405280610ddc6453544f524560d81b90565b6001600160d81b0319168152630a5fd3f360e41b60209091015281518290600090610e0957610e096124ec565b60200260200101819052506040518060400160405280610e2e6453544f524560d81b90565b6001600160d81b0319168152632a50b4d160e21b602090910152815182906001908110610e5d57610e5d6124ec565b60200260200101819052506040518060400160405280610e826453544f524560d81b90565b6001600160d81b0319168152633e5fac3160e01b602090910152815182906002908110610eb157610eb16124ec565b60200260200101819052506040518060400160405280610ed66453544f524560d81b90565b6001600160d81b03191681526328843c8760e21b602090910152815182906003908110610f0557610f056124ec565b60200260200101819052506040518060400160405280610f2a6453544f524560d81b90565b6001600160d81b031916815263114812cf60e21b602090910152815182906004908110610f5957610f596124ec565b60200260200101819052506040518060400160405280610f7e6453544f524560d81b90565b6001600160d81b03191681526317b234f960e21b602090910152815182906005908110610fad57610fad6124ec565b60200260200101819052506040518060400160405280610fd26453544f524560d81b90565b6001600160d81b031916815262900f0160e41b602090910152815182906006908110611000576110006124ec565b602002602001018190525060405180604001604052806110256453544f524560d81b90565b6001600160d81b03191681526362a5af3b60e01b602090910152815182906007908110611054576110546124ec565b602002602001018190525060405180604001604052806110796453544f524560d81b90565b6001600160d81b0319168152632012d36360e01b6020909101528151829060089081106110a8576110a86124ec565b602002602001018190525060405180604001604052806110cd6453544f524560d81b90565b6001600160d81b0319168152632bf796ff60e01b6020909101528151829060099081106110fc576110fc6124ec565b602002602001018190525060405180604001604052806111216453544f524560d81b90565b6001600160d81b0319168152633fb2ab7760e01b60209091015281518290600a908110611150576111506124ec565b602002602001018190525060405180604001604052806111756453544f524560d81b90565b6001600160d81b0319168152637c58ffb160e01b60209091015281518290600b9081106111a4576111a46124ec565b602002602001018190525060405180604001604052806111c964455343525760d81b90565b6001600160d81b031916815263712b772f60e01b60209091015281518290600c9081106111f8576111f86124ec565b6020026020010181905250604051806040016040528061121d64455343525760d81b90565b6001600160d81b03191681526369fe0e2d60e01b60209091015281518290600d90811061124c5761124c6124ec565b6020026020010181905250604051806040016040528061127164455343525760d81b90565b6001600160d81b031916815262900f0160e41b60209091015281518290600e90811061129f5761129f6124ec565b602002602001018190525060405180604001604052806112c464455343525760d81b90565b6001600160d81b03191681526362a5af3b60e01b60209091015281518290600f9081106112f3576112f36124ec565b602002602001018190525060405180604001604052806113186453544f524560d81b90565b6001600160d81b0319168152637e5e522b60e11b602090910152815182906010908110611347576113476124ec565b6020026020010181905250604051806040016040528061136c6453544f524560d81b90565b6001600160d81b03191681526322aa5beb60e21b60209091015281518290601190811061139b5761139b6124ec565b602002602001018190525060405180604001604052806113c06453544f524560d81b90565b6001600160d81b0319168152635c6a06c160e01b6020909101528151829060129081106113ef576113ef6124ec565b602002602001018190525060405180604001604052806114146453544f524560d81b90565b6001600160d81b0319168152638258afc960e01b602090910152815182906013908110611443576114436124ec565b602002602001018190525060405180604001604052806114686453544f524560d81b90565b6001600160d81b03191681526306c81f4960e41b602090910152815182906014908110611497576114976124ec565b602002602001018190525060405180604001604052806114bc6453544f524560d81b90565b6001600160d81b03191681526330b6fec160e01b6020909101528151829060159081106114eb576114eb6124ec565b602002602001018190525090565b6a20a226a4a72fa0a226a4a760a91b60008160005460405163ac4ab3fb60e01b81529192506001600160a01b03169063ac4ab3fb9061153e90339085906004016124b6565b602060405180830381865afa15801561155b573d6000803e3d6000fd5b505050506040513d601f19601f8201168201806040525081019061157f91906124cf565b61159f576040516371324ef360e11b81526004810182905260240161049d565b6001546040516317b234f960e21b81526001600160a01b0390911690635ec8d3e4906109bc9087908790600401612547565b6a20a226a4a72fa0a226a4a760a91b60008160005460405163ac4ab3fb60e01b81529192506001600160a01b03169063ac4ab3fb9061161690339085906004016124b6565b602060405180830381865afa158015611633573d6000803e3d6000fd5b505050506040513d601f19601f8201168201806040525081019061165791906124cf565b611677576040516371324ef360e11b81526004810182905260240161049d565b6002546040516369fe0e2d60e01b8152600481018590526001600160a01b03909116906369fe0e2d906024016105e5565b6a20a226a4a72fa0a226a4a760a91b60008160005460405163ac4ab3fb60e01b81529192506001600160a01b03169063ac4ab3fb906116ed90339085906004016124b6565b602060405180830381865afa15801561170a573d6000803e3d6000fd5b505050506040513d601f19601f8201168201806040525081019061172e91906124cf565b61174e576040516371324ef360e11b81526004810182905260240161049d565b60025460405163712b772f60e01b81526001600160a01b03868116600483015285811660248301529091169063712b772f906044016109bc565b6a20a226a4a72fa0a226a4a760a91b60008160005460405163ac4ab3fb60e01b81529192506001600160a01b03169063ac4ab3fb906117cd90339085906004016124b6565b602060405180830381865afa1580156117ea573d6000803e3d6000fd5b505050506040513d601f19601f8201168201806040525081019061180e91906124cf565b61182e576040516371324ef360e11b81526004810182905260240161049d565b600154604051637c58ffb160e01b81526001600160a01b03858116600483015290911690637c58ffb1906024016105e5565b6a20a226a4a72fa0a226a4a760a91b60008160005460405163ac4ab3fb60e01b81529192506001600160a01b03169063ac4ab3fb906118a590339085906004016124b6565b602060405180830381865afa1580156118c2573d6000803e3d6000fd5b505050506040513d601f19601f820116820180604052508101906118e691906124cf565b611906576040516371324ef360e11b81526004810182905260240161049d565b60015460405162900f0160e41b81526001600160a01b03858116600483015290911690630900f010906024016105e5565b6000546060906001600160a01b031633146119675760405163053e900f60e21b815233600482015260240161049d565b60408051600280825260608201835290916020830190803683370190505090506453544f524560d81b816000815181106119a3576119a36124ec565b6001600160d81b0319909216602092830291909101909101526119d36119ce6453544f524560d81b90565b611fa1565b600180546001600160a01b0319166001600160a01b039290921691909117905564455343525760d81b81600181518110611a0f57611a0f6124ec565b6001600160d81b031990921660209283029190910190910152611a3a6119ce64455343525760d81b90565b600280546001600160a01b0319166001600160a01b039290921691909117905590565b6a20a226a4a72fa0a226a4a760a91b60008160005460405163ac4ab3fb60e01b81529192506001600160a01b03169063ac4ab3fb90611aa290339085906004016124b6565b602060405180830381865afa158015611abf573d6000803e3d6000fd5b505050506040513d601f19601f82011682018060405250810190611ae391906124cf565b611b03576040516371324ef360e11b81526004810182905260240161049d565b600260009054906101000a90046001600160a01b03166001600160a01b03166362a5af3b6040518163ffffffff1660e01b8152600401600060405180830381600087803b1580156104f657600080fd5b600154604051639ed9b4fd60e01b81526001600160a01b0383811660048301526000921690639ed9b4fd90602401610d0b565b6a20a226a4a72fa0a226a4a760a91b60008160005460405163ac4ab3fb60e01b81529192506001600160a01b03169063ac4ab3fb90611bcb90339085906004016124b6565b602060405180830381865afa158015611be8573d6000803e3d6000fd5b505050506040513d601f19601f82011682018060405250810190611c0c91906124cf565b611c2c576040516371324ef360e11b81526004810182905260240161049d565b6001546040516328843c8760e21b81526001600160a01b039091169063a210f21c906109bc90879087906004016125a0565b6a20a226a4a72fa0a226a4a760a91b60008160005460405163ac4ab3fb60e01b81529192506001600160a01b03169063ac4ab3fb90611ca390339085906004016124b6565b602060405180830381865afa158015611cc0573d6000803e3d6000fd5b505050506040513d601f19601f82011682018060405250810190611ce491906124cf565b611d04576040516371324ef360e11b81526004810182905260240161049d565b600154604051630a5fd3f360e41b81526001600160a01b03868116600483015260ff861660248301529091169063a5fd3f30906044016109bc565b6a20a226a4a72fa0a226a4a760a91b60008160005460405163ac4ab3fb60e01b81529192506001600160a01b03169063ac4ab3fb90611d8490339085906004016124b6565b602060405180830381865afa158015611da1573d6000803e3d6000fd5b505050506040513d601f19601f82011682018060405250810190611dc591906124cf565b611de5576040516371324ef360e11b81526004810182905260240161049d565b600154604051632a50b4d160e21b81526001600160a01b03868116600483015285151560248301529091169063a942d344906044016109bc565b6a20a226a4a72fa0a226a4a760a91b60008160005460405163ac4ab3fb60e01b81529192506001600160a01b03169063ac4ab3fb90611e6490339085906004016124b6565b602060405180830381865afa158015611e81573d6000803e3d6000fd5b505050506040513d601f19601f82011682018060405250810190611ea591906124cf565b611ec5576040516371324ef360e11b81526004810182905260240161049d565b6001546040516330b6fec160e01b81526001600160a01b038581166004830152909116906330b6fec190602401600060405180830381600087803b158015611f0c57600080fd5b505af1158015611f20573d6000803e3d6000fd5b50506001546040516322aa5beb60e21b81526001600160a01b0387811660048301529091169250638aa96fac91506024016105e5565b6000546001600160a01b03163314611f835760405163053e900f60e21b815233600482015260240161049d565b60008054911515600160a01b0260ff60a01b19909216919091179055565b60008054604051632d37002d60e21b81526001600160d81b03198416600482015282916001600160a01b03169063b4dc00b490602401602060405180830381865afa158015611ff4573d6000803e3d6000fd5b505050506040513d601f19601f8201168201806040525081019061201891906125ed565b90506001600160a01b038116610d4c57604051635c3fa9cd60e01b81526001600160d81b03198416600482015260240161049d565b60006020828403121561205f57600080fd5b5035919050565b6001600160a01b038116811461207b57600080fd5b50565b60006020828403121561209057600080fd5b813561209b81612066565b9392505050565b600080604083850312156120b557600080fd5b82356120c081612066565b946020939093013593505050565b803560ff811681146120df57600080fd5b919050565b600080604083850312156120f757600080fd5b823561210281612066565b9150612110602084016120ce565b90509250929050565b801515811461207b57600080fd5b6000806040838503121561213a57600080fd5b823561214581612066565b9150602083013561215581612119565b809150509250929050565b602080825282518282018190526000919060409081850190868401855b828110156121b657815180516001600160d81b03191685528601516001600160e01b03191686850152928401929085019060010161217d565b5091979650505050505050565b634e487b7160e01b600052604160045260246000fd5b604051601f8201601f1916810167ffffffffffffffff81118282101715612202576122026121c3565b604052919050565b600067ffffffffffffffff821115612224576122246121c3565b5060051b60200190565b600082601f83011261223f57600080fd5b8135602061225461224f8361220a565b6121d9565b8083825260208201915060208460051b87010193508684111561227657600080fd5b602086015b8481101561229b57803561228e81612066565b835291830191830161227b565b509695505050505050565b600080604083850312156122b957600080fd5b823567ffffffffffffffff808211156122d157600080fd5b6122dd8683870161222e565b93506020915081850135818111156122f457600080fd5b85019050601f8101861361230757600080fd5b803561231561224f8261220a565b81815260059190911b8201830190838101908883111561233457600080fd5b928401925b8284101561235b57833561234c81612119565b82529284019290840190612339565b80955050505050509250929050565b6000806040838503121561237d57600080fd5b823561238881612066565b9150602083013561215581612066565b6020808252825182820181905260009190848201906040850190845b818110156123da5783516001600160d81b031916835292840192918401916001016123b4565b50909695505050505050565b600080604083850312156123f957600080fd5b823567ffffffffffffffff8082111561241157600080fd5b61241d8683870161222e565b935060209150818501358181111561243457600080fd5b85019050601f8101861361244757600080fd5b803561245561224f8261220a565b81815260059190911b8201830190838101908883111561247457600080fd5b928401925b8284101561235b5761248a846120ce565b82529284019290840190612479565b6000602082840312156124ab57600080fd5b813561209b81612119565b6001600160a01b03929092168252602082015260400190565b6000602082840312156124e157600080fd5b815161209b81612119565b634e487b7160e01b600052603260045260246000fd5b60008151808452602080850194506020840160005b8381101561253c5781516001600160a01b031687529582019590820190600101612517565b509495945050505050565b60408152600061255a6040830185612502565b82810360208481019190915284518083528582019282019060005b81811015612593578451151583529383019391830191600101612575565b5090979650505050505050565b6040815260006125b36040830185612502565b82810360208481019190915284518083528582019282019060005b8181101561259357845160ff16835293830193918301916001016125ce565b6000602082840312156125ff57600080fd5b815161209b8161206656fea2646970667358221220a4b779f44ef135e739feb4b21f06c1028be9e671bab2d7a5e96ca40abecdf32364736f6c63430008160033","linkReferences":{}},"methodIdentifiers":{"ESCRW()":"8dba9561","STORE()":"507f1465","changeKernel(address)":"4657b36c","clearUserRecord(address)":"c5cbde10","configureDependencies()":"9459b875","enforcePunishment(address,uint256)":"3bf55a1c","freezePaymentEscrow()":"95a69c20","freezeStorage()":"03a7c271","isActive()":"22f3e2d4","isUserBanned(address)":"9ed9b4fd","isUserBlacklisted(address)":"503b8e81","kernel()":"d4aae0c4","requestPermissions()":"5924be70","setActiveStatus(bool)":"ec7404b1","setFee(uint256)":"69fe0e2d","setGuardEmergencyUpgrade(address)":"7c58ffb1","setMaxConsiderationItems(uint256)":"3fb2ab77","setMaxOfferItems(uint256)":"2bf796ff","setMaxRentDuration(uint256)":"2012d363","skim(address,address)":"712b772f","toggleWhitelistAsset(address,uint8)":"3e5fac31","toggleWhitelistAssetBatch(address[],uint8[])":"a210f21c","toggleWhitelistDelegate(address,bool)":"a942d344","toggleWhitelistExtension(address,uint8)":"a5fd3f30","toggleWhitelistPayment(address,bool)":"45204b3c","toggleWhitelistPaymentBatch(address[],bool[])":"5ec8d3e4","upgradePaymentEscrow(address)":"3b5e723b","upgradeStorage(address)":"82bfa9f2"},"id":199}