{"abi":[{"type":"function","name":"deriveFractionCompatibleAmounts","inputs":[{"name":"originalStartAmount","type":"uint256","internalType":"uint256"},{"name":"originalEndAmount","type":"uint256","internalType":"uint256"},{"name":"startTime","type":"uint256","internalType":"uint256"},{"name":"endTime","type":"uint256","internalType":"uint256"},{"name":"numerator","type":"uint256","internalType":"uint256"},{"name":"denominator","type":"uint256","internalType":"uint256"}],"outputs":[{"name":"newStartAmount","type":"uint256","internalType":"uint256"},{"name":"newEndAmount","type":"uint256","internalType":"uint256"}],"stateMutability":"pure"},{"type":"function","name":"getMatchedFulfillments","inputs":[{"name":"orders","type":"tuple[]","internalType":"struct Order[]","components":[{"name":"parameters","type":"tuple","internalType":"struct OrderParameters","components":[{"name":"offerer","type":"address","internalType":"address"},{"name":"zone","type":"address","internalType":"address"},{"name":"offer","type":"tuple[]","internalType":"struct OfferItem[]","components":[{"name":"itemType","type":"uint8","internalType":"enum ItemType"},{"name":"token","type":"address","internalType":"address"},{"name":"identifierOrCriteria","type":"uint256","internalType":"uint256"},{"name":"startAmount","type":"uint256","internalType":"uint256"},{"name":"endAmount","type":"uint256","internalType":"uint256"}]},{"name":"consideration","type":"tuple[]","internalType":"struct ConsiderationItem[]","components":[{"name":"itemType","type":"uint8","internalType":"enum ItemType"},{"name":"token","type":"address","internalType":"address"},{"name":"identifierOrCriteria","type":"uint256","internalType":"uint256"},{"name":"startAmount","type":"uint256","internalType":"uint256"},{"name":"endAmount","type":"uint256","internalType":"uint256"},{"name":"recipient","type":"address","internalType":"address payable"}]},{"name":"orderType","type":"uint8","internalType":"enum OrderType"},{"name":"startTime","type":"uint256","internalType":"uint256"},{"name":"endTime","type":"uint256","internalType":"uint256"},{"name":"zoneHash","type":"bytes32","internalType":"bytes32"},{"name":"salt","type":"uint256","internalType":"uint256"},{"name":"conduitKey","type":"bytes32","internalType":"bytes32"},{"name":"totalOriginalConsiderationItems","type":"uint256","internalType":"uint256"}]},{"name":"signature","type":"bytes","internalType":"bytes"}]},{"name":"orderHashes","type":"bytes32[]","internalType":"bytes32[]"},{"name":"unavailableReasons","type":"uint8[]","internalType":"enum UnavailableReason[]"}],"outputs":[{"name":"fulfillments","type":"tuple[]","internalType":"struct Fulfillment[]","components":[{"name":"offerComponents","type":"tuple[]","internalType":"struct FulfillmentComponent[]","components":[{"name":"orderIndex","type":"uint256","internalType":"uint256"},{"name":"itemIndex","type":"uint256","internalType":"uint256"}]},{"name":"considerationComponents","type":"tuple[]","internalType":"struct FulfillmentComponent[]","components":[{"name":"orderIndex","type":"uint256","internalType":"uint256"},{"name":"itemIndex","type":"uint256","internalType":"uint256"}]}]},{"name":"remainingOfferComponents","type":"tuple[]","internalType":"struct MatchComponent[]","components":[{"name":"amount","type":"uint256","internalType":"uint256"},{"name":"orderIndex","type":"uint8","internalType":"uint8"},{"name":"itemIndex","type":"uint8","internalType":"uint8"}]},{"name":"remainingConsiderationComponents","type":"tuple[]","internalType":"struct MatchComponent[]","components":[{"name":"amount","type":"uint256","internalType":"uint256"},{"name":"orderIndex","type":"uint8","internalType":"uint8"},{"name":"itemIndex","type":"uint8","internalType":"uint8"}]}],"stateMutability":"nonpayable"},{"type":"function","name":"getMatchedFulfillments","inputs":[{"name":"orders","type":"tuple[]","internalType":"struct OrderDetails[]","components":[{"name":"offerer","type":"address","internalType":"address"},{"name":"conduitKey","type":"bytes32","internalType":"bytes32"},{"name":"offer","type":"tuple[]","internalType":"struct SpentItem[]","components":[{"name":"itemType","type":"uint8","internalType":"enum ItemType"},{"name":"token","type":"address","internalType":"address"},{"name":"identifier","type":"uint256","internalType":"uint256"},{"name":"amount","type":"uint256","internalType":"uint256"}]},{"name":"consideration","type":"tuple[]","internalType":"struct ReceivedItem[]","components":[{"name":"itemType","type":"uint8","internalType":"enum ItemType"},{"name":"token","type":"address","internalType":"address"},{"name":"identifier","type":"uint256","internalType":"uint256"},{"name":"amount","type":"uint256","internalType":"uint256"},{"name":"recipient","type":"address","internalType":"address payable"}]},{"name":"isContract","type":"bool","internalType":"bool"},{"name":"orderHash","type":"bytes32","internalType":"bytes32"},{"name":"unavailableReason","type":"uint8","internalType":"enum UnavailableReason"}]}],"outputs":[{"name":"fulfillments","type":"tuple[]","internalType":"struct Fulfillment[]","components":[{"name":"offerComponents","type":"tuple[]","internalType":"struct FulfillmentComponent[]","components":[{"name":"orderIndex","type":"uint256","internalType":"uint256"},{"name":"itemIndex","type":"uint256","internalType":"uint256"}]},{"name":"considerationComponents","type":"tuple[]","internalType":"struct FulfillmentComponent[]","components":[{"name":"orderIndex","type":"uint256","internalType":"uint256"},{"name":"itemIndex","type":"uint256","internalType":"uint256"}]}]},{"name":"remainingOfferComponents","type":"tuple[]","internalType":"struct MatchComponent[]","components":[{"name":"amount","type":"uint256","internalType":"uint256"},{"name":"orderIndex","type":"uint8","internalType":"uint8"},{"name":"itemIndex","type":"uint8","internalType":"uint8"}]},{"name":"remainingConsiderationComponents","type":"tuple[]","internalType":"struct MatchComponent[]","components":[{"name":"amount","type":"uint256","internalType":"uint256"},{"name":"orderIndex","type":"uint8","internalType":"uint8"},{"name":"itemIndex","type":"uint8","internalType":"uint8"}]}],"stateMutability":"nonpayable"},{"type":"function","name":"getMatchedFulfillments","inputs":[{"name":"orders","type":"tuple[]","internalType":"struct AdvancedOrder[]","components":[{"name":"parameters","type":"tuple","internalType":"struct OrderParameters","components":[{"name":"offerer","type":"address","internalType":"address"},{"name":"zone","type":"address","internalType":"address"},{"name":"offer","type":"tuple[]","internalType":"struct OfferItem[]","components":[{"name":"itemType","type":"uint8","internalType":"enum ItemType"},{"name":"token","type":"address","internalType":"address"},{"name":"identifierOrCriteria","type":"uint256","internalType":"uint256"},{"name":"startAmount","type":"uint256","internalType":"uint256"},{"name":"endAmount","type":"uint256","internalType":"uint256"}]},{"name":"consideration","type":"tuple[]","internalType":"struct ConsiderationItem[]","components":[{"name":"itemType","type":"uint8","internalType":"enum ItemType"},{"name":"token","type":"address","internalType":"address"},{"name":"identifierOrCriteria","type":"uint256","internalType":"uint256"},{"name":"startAmount","type":"uint256","internalType":"uint256"},{"name":"endAmount","type":"uint256","internalType":"uint256"},{"name":"recipient","type":"address","internalType":"address payable"}]},{"name":"orderType","type":"uint8","internalType":"enum OrderType"},{"name":"startTime","type":"uint256","internalType":"uint256"},{"name":"endTime","type":"uint256","internalType":"uint256"},{"name":"zoneHash","type":"bytes32","internalType":"bytes32"},{"name":"salt","type":"uint256","internalType":"uint256"},{"name":"conduitKey","type":"bytes32","internalType":"bytes32"},{"name":"totalOriginalConsiderationItems","type":"uint256","internalType":"uint256"}]},{"name":"numerator","type":"uint120","internalType":"uint120"},{"name":"denominator","type":"uint120","internalType":"uint120"},{"name":"signature","type":"bytes","internalType":"bytes"},{"name":"extraData","type":"bytes","internalType":"bytes"}]},{"name":"resolvers","type":"tuple[]","internalType":"struct CriteriaResolver[]","components":[{"name":"orderIndex","type":"uint256","internalType":"uint256"},{"name":"side","type":"uint8","internalType":"enum Side"},{"name":"index","type":"uint256","internalType":"uint256"},{"name":"identifier","type":"uint256","internalType":"uint256"},{"name":"criteriaProof","type":"bytes32[]","internalType":"bytes32[]"}]},{"name":"orderHashes","type":"bytes32[]","internalType":"bytes32[]"},{"name":"unavailableReasons","type":"uint8[]","internalType":"enum UnavailableReason[]"}],"outputs":[{"name":"fulfillments","type":"tuple[]","internalType":"struct Fulfillment[]","components":[{"name":"offerComponents","type":"tuple[]","internalType":"struct FulfillmentComponent[]","components":[{"name":"orderIndex","type":"uint256","internalType":"uint256"},{"name":"itemIndex","type":"uint256","internalType":"uint256"}]},{"name":"considerationComponents","type":"tuple[]","internalType":"struct FulfillmentComponent[]","components":[{"name":"orderIndex","type":"uint256","internalType":"uint256"},{"name":"itemIndex","type":"uint256","internalType":"uint256"}]}]},{"name":"remainingOfferComponents","type":"tuple[]","internalType":"struct MatchComponent[]","components":[{"name":"amount","type":"uint256","internalType":"uint256"},{"name":"orderIndex","type":"uint8","internalType":"uint8"},{"name":"itemIndex","type":"uint8","internalType":"uint8"}]},{"name":"remainingConsiderationComponents","type":"tuple[]","internalType":"struct MatchComponent[]","components":[{"name":"amount","type":"uint256","internalType":"uint256"},{"name":"orderIndex","type":"uint8","internalType":"uint8"},{"name":"itemIndex","type":"uint8","internalType":"uint8"}]}],"stateMutability":"nonpayable"},{"type":"function","name":"getSpentAndReceivedItems","inputs":[{"name":"order","type":"tuple","internalType":"struct AdvancedOrder","components":[{"name":"parameters","type":"tuple","internalType":"struct OrderParameters","components":[{"name":"offerer","type":"address","internalType":"address"},{"name":"zone","type":"address","internalType":"address"},{"name":"offer","type":"tuple[]","internalType":"struct OfferItem[]","components":[{"name":"itemType","type":"uint8","internalType":"enum ItemType"},{"name":"token","type":"address","internalType":"address"},{"name":"identifierOrCriteria","type":"uint256","internalType":"uint256"},{"name":"startAmount","type":"uint256","internalType":"uint256"},{"name":"endAmount","type":"uint256","internalType":"uint256"}]},{"name":"consideration","type":"tuple[]","internalType":"struct ConsiderationItem[]","components":[{"name":"itemType","type":"uint8","internalType":"enum ItemType"},{"name":"token","type":"address","internalType":"address"},{"name":"identifierOrCriteria","type":"uint256","internalType":"uint256"},{"name":"startAmount","type":"uint256","internalType":"uint256"},{"name":"endAmount","type":"uint256","internalType":"uint256"},{"name":"recipient","type":"address","internalType":"address payable"}]},{"name":"orderType","type":"uint8","internalType":"enum OrderType"},{"name":"startTime","type":"uint256","internalType":"uint256"},{"name":"endTime","type":"uint256","internalType":"uint256"},{"name":"zoneHash","type":"bytes32","internalType":"bytes32"},{"name":"salt","type":"uint256","internalType":"uint256"},{"name":"conduitKey","type":"bytes32","internalType":"bytes32"},{"name":"totalOriginalConsiderationItems","type":"uint256","internalType":"uint256"}]},{"name":"numerator","type":"uint120","internalType":"uint120"},{"name":"denominator","type":"uint120","internalType":"uint120"},{"name":"signature","type":"bytes","internalType":"bytes"},{"name":"extraData","type":"bytes","internalType":"bytes"}]}],"outputs":[{"name":"spent","type":"tuple[]","internalType":"struct SpentItem[]","components":[{"name":"itemType","type":"uint8","internalType":"enum ItemType"},{"name":"token","type":"address","internalType":"address"},{"name":"identifier","type":"uint256","internalType":"uint256"},{"name":"amount","type":"uint256","internalType":"uint256"}]},{"name":"received","type":"tuple[]","internalType":"struct ReceivedItem[]","components":[{"name":"itemType","type":"uint8","internalType":"enum ItemType"},{"name":"token","type":"address","internalType":"address"},{"name":"identifier","type":"uint256","internalType":"uint256"},{"name":"amount","type":"uint256","internalType":"uint256"},{"name":"recipient","type":"address","internalType":"address payable"}]}],"stateMutability":"view"},{"type":"function","name":"getSpentAndReceivedItems","inputs":[{"name":"order","type":"tuple","internalType":"struct Order","components":[{"name":"parameters","type":"tuple","internalType":"struct OrderParameters","components":[{"name":"offerer","type":"address","internalType":"address"},{"name":"zone","type":"address","internalType":"address"},{"name":"offer","type":"tuple[]","internalType":"struct OfferItem[]","components":[{"name":"itemType","type":"uint8","internalType":"enum ItemType"},{"name":"token","type":"address","internalType":"address"},{"name":"identifierOrCriteria","type":"uint256","internalType":"uint256"},{"name":"startAmount","type":"uint256","internalType":"uint256"},{"name":"endAmount","type":"uint256","internalType":"uint256"}]},{"name":"consideration","type":"tuple[]","internalType":"struct ConsiderationItem[]","components":[{"name":"itemType","type":"uint8","internalType":"enum ItemType"},{"name":"token","type":"address","internalType":"address"},{"name":"identifierOrCriteria","type":"uint256","internalType":"uint256"},{"name":"startAmount","type":"uint256","internalType":"uint256"},{"name":"endAmount","type":"uint256","internalType":"uint256"},{"name":"recipient","type":"address","internalType":"address payable"}]},{"name":"orderType","type":"uint8","internalType":"enum OrderType"},{"name":"startTime","type":"uint256","internalType":"uint256"},{"name":"endTime","type":"uint256","internalType":"uint256"},{"name":"zoneHash","type":"bytes32","internalType":"bytes32"},{"name":"salt","type":"uint256","internalType":"uint256"},{"name":"conduitKey","type":"bytes32","internalType":"bytes32"},{"name":"totalOriginalConsiderationItems","type":"uint256","internalType":"uint256"}]},{"name":"signature","type":"bytes","internalType":"bytes"}]}],"outputs":[{"name":"spent","type":"tuple[]","internalType":"struct SpentItem[]","components":[{"name":"itemType","type":"uint8","internalType":"enum ItemType"},{"name":"token","type":"address","internalType":"address"},{"name":"identifier","type":"uint256","internalType":"uint256"},{"name":"amount","type":"uint256","internalType":"uint256"}]},{"name":"received","type":"tuple[]","internalType":"struct ReceivedItem[]","components":[{"name":"itemType","type":"uint8","internalType":"enum ItemType"},{"name":"token","type":"address","internalType":"address"},{"name":"identifier","type":"uint256","internalType":"uint256"},{"name":"amount","type":"uint256","internalType":"uint256"},{"name":"recipient","type":"address","internalType":"address payable"}]}],"stateMutability":"view"},{"type":"function","name":"getSpentAndReceivedItems","inputs":[{"name":"order","type":"tuple","internalType":"struct AdvancedOrder","components":[{"name":"parameters","type":"tuple","internalType":"struct OrderParameters","components":[{"name":"offerer","type":"address","internalType":"address"},{"name":"zone","type":"address","internalType":"address"},{"name":"offer","type":"tuple[]","internalType":"struct OfferItem[]","components":[{"name":"itemType","type":"uint8","internalType":"enum ItemType"},{"name":"token","type":"address","internalType":"address"},{"name":"identifierOrCriteria","type":"uint256","internalType":"uint256"},{"name":"startAmount","type":"uint256","internalType":"uint256"},{"name":"endAmount","type":"uint256","internalType":"uint256"}]},{"name":"consideration","type":"tuple[]","internalType":"struct ConsiderationItem[]","components":[{"name":"itemType","type":"uint8","internalType":"enum ItemType"},{"name":"token","type":"address","internalType":"address"},{"name":"identifierOrCriteria","type":"uint256","internalType":"uint256"},{"name":"startAmount","type":"uint256","internalType":"uint256"},{"name":"endAmount","type":"uint256","internalType":"uint256"},{"name":"recipient","type":"address","internalType":"address payable"}]},{"name":"orderType","type":"uint8","internalType":"enum OrderType"},{"name":"startTime","type":"uint256","internalType":"uint256"},{"name":"endTime","type":"uint256","internalType":"uint256"},{"name":"zoneHash","type":"bytes32","internalType":"bytes32"},{"name":"salt","type":"uint256","internalType":"uint256"},{"name":"conduitKey","type":"bytes32","internalType":"bytes32"},{"name":"totalOriginalConsiderationItems","type":"uint256","internalType":"uint256"}]},{"name":"numerator","type":"uint120","internalType":"uint120"},{"name":"denominator","type":"uint120","internalType":"uint120"},{"name":"signature","type":"bytes","internalType":"bytes"},{"name":"extraData","type":"bytes","internalType":"bytes"}]},{"name":"orderIndex","type":"uint256","internalType":"uint256"},{"name":"criteriaResolvers","type":"tuple[]","internalType":"struct CriteriaResolver[]","components":[{"name":"orderIndex","type":"uint256","internalType":"uint256"},{"name":"side","type":"uint8","internalType":"enum Side"},{"name":"index","type":"uint256","internalType":"uint256"},{"name":"identifier","type":"uint256","internalType":"uint256"},{"name":"criteriaProof","type":"bytes32[]","internalType":"bytes32[]"}]}],"outputs":[{"name":"spent","type":"tuple[]","internalType":"struct SpentItem[]","components":[{"name":"itemType","type":"uint8","internalType":"enum ItemType"},{"name":"token","type":"address","internalType":"address"},{"name":"identifier","type":"uint256","internalType":"uint256"},{"name":"amount","type":"uint256","internalType":"uint256"}]},{"name":"received","type":"tuple[]","internalType":"struct ReceivedItem[]","components":[{"name":"itemType","type":"uint8","internalType":"enum ItemType"},{"name":"token","type":"address","internalType":"address"},{"name":"identifier","type":"uint256","internalType":"uint256"},{"name":"amount","type":"uint256","internalType":"uint256"},{"name":"recipient","type":"address","internalType":"address payable"}]}],"stateMutability":"view"},{"type":"function","name":"getSpentAndReceivedItems","inputs":[{"name":"parameters","type":"tuple","internalType":"struct OrderParameters","components":[{"name":"offerer","type":"address","internalType":"address"},{"name":"zone","type":"address","internalType":"address"},{"name":"offer","type":"tuple[]","internalType":"struct OfferItem[]","components":[{"name":"itemType","type":"uint8","internalType":"enum ItemType"},{"name":"token","type":"address","internalType":"address"},{"name":"identifierOrCriteria","type":"uint256","internalType":"uint256"},{"name":"startAmount","type":"uint256","internalType":"uint256"},{"name":"endAmount","type":"uint256","internalType":"uint256"}]},{"name":"consideration","type":"tuple[]","internalType":"struct ConsiderationItem[]","components":[{"name":"itemType","type":"uint8","internalType":"enum ItemType"},{"name":"token","type":"address","internalType":"address"},{"name":"identifierOrCriteria","type":"uint256","internalType":"uint256"},{"name":"startAmount","type":"uint256","internalType":"uint256"},{"name":"endAmount","type":"uint256","internalType":"uint256"},{"name":"recipient","type":"address","internalType":"address payable"}]},{"name":"orderType","type":"uint8","internalType":"enum OrderType"},{"name":"startTime","type":"uint256","internalType":"uint256"},{"name":"endTime","type":"uint256","internalType":"uint256"},{"name":"zoneHash","type":"bytes32","internalType":"bytes32"},{"name":"salt","type":"uint256","internalType":"uint256"},{"name":"conduitKey","type":"bytes32","internalType":"bytes32"},{"name":"totalOriginalConsiderationItems","type":"uint256","internalType":"uint256"}]}],"outputs":[{"name":"spent","type":"tuple[]","internalType":"struct SpentItem[]","components":[{"name":"itemType","type":"uint8","internalType":"enum ItemType"},{"name":"token","type":"address","internalType":"address"},{"name":"identifier","type":"uint256","internalType":"uint256"},{"name":"amount","type":"uint256","internalType":"uint256"}]},{"name":"received","type":"tuple[]","internalType":"struct ReceivedItem[]","components":[{"name":"itemType","type":"uint8","internalType":"enum ItemType"},{"name":"token","type":"address","internalType":"address"},{"name":"identifier","type":"uint256","internalType":"uint256"},{"name":"amount","type":"uint256","internalType":"uint256"},{"name":"recipient","type":"address","internalType":"address payable"}]}],"stateMutability":"view"},{"type":"function","name":"toOrderDetails","inputs":[{"name":"order","type":"tuple[]","internalType":"struct Order[]","components":[{"name":"parameters","type":"tuple","internalType":"struct OrderParameters","components":[{"name":"offerer","type":"address","internalType":"address"},{"name":"zone","type":"address","internalType":"address"},{"name":"offer","type":"tuple[]","internalType":"struct OfferItem[]","components":[{"name":"itemType","type":"uint8","internalType":"enum ItemType"},{"name":"token","type":"address","internalType":"address"},{"name":"identifierOrCriteria","type":"uint256","internalType":"uint256"},{"name":"startAmount","type":"uint256","internalType":"uint256"},{"name":"endAmount","type":"uint256","internalType":"uint256"}]},{"name":"consideration","type":"tuple[]","internalType":"struct ConsiderationItem[]","components":[{"name":"itemType","type":"uint8","internalType":"enum ItemType"},{"name":"token","type":"address","internalType":"address"},{"name":"identifierOrCriteria","type":"uint256","internalType":"uint256"},{"name":"startAmount","type":"uint256","internalType":"uint256"},{"name":"endAmount","type":"uint256","internalType":"uint256"},{"name":"recipient","type":"address","internalType":"address payable"}]},{"name":"orderType","type":"uint8","internalType":"enum OrderType"},{"name":"startTime","type":"uint256","internalType":"uint256"},{"name":"endTime","type":"uint256","internalType":"uint256"},{"name":"zoneHash","type":"bytes32","internalType":"bytes32"},{"name":"salt","type":"uint256","internalType":"uint256"},{"name":"conduitKey","type":"bytes32","internalType":"bytes32"},{"name":"totalOriginalConsiderationItems","type":"uint256","internalType":"uint256"}]},{"name":"signature","type":"bytes","internalType":"bytes"}]},{"name":"orderHashes","type":"bytes32[]","internalType":"bytes32[]"},{"name":"unavailableReasons","type":"uint8[]","internalType":"enum UnavailableReason[]"}],"outputs":[{"name":"","type":"tuple[]","internalType":"struct OrderDetails[]","components":[{"name":"offerer","type":"address","internalType":"address"},{"name":"conduitKey","type":"bytes32","internalType":"bytes32"},{"name":"offer","type":"tuple[]","internalType":"struct SpentItem[]","components":[{"name":"itemType","type":"uint8","internalType":"enum ItemType"},{"name":"token","type":"address","internalType":"address"},{"name":"identifier","type":"uint256","internalType":"uint256"},{"name":"amount","type":"uint256","internalType":"uint256"}]},{"name":"consideration","type":"tuple[]","internalType":"struct ReceivedItem[]","components":[{"name":"itemType","type":"uint8","internalType":"enum ItemType"},{"name":"token","type":"address","internalType":"address"},{"name":"identifier","type":"uint256","internalType":"uint256"},{"name":"amount","type":"uint256","internalType":"uint256"},{"name":"recipient","type":"address","internalType":"address payable"}]},{"name":"isContract","type":"bool","internalType":"bool"},{"name":"orderHash","type":"bytes32","internalType":"bytes32"},{"name":"unavailableReason","type":"uint8","internalType":"enum UnavailableReason"}]}],"stateMutability":"view"},{"type":"function","name":"toOrderDetails","inputs":[{"name":"orders","type":"tuple[]","internalType":"struct AdvancedOrder[]","components":[{"name":"parameters","type":"tuple","internalType":"struct OrderParameters","components":[{"name":"offerer","type":"address","internalType":"address"},{"name":"zone","type":"address","internalType":"address"},{"name":"offer","type":"tuple[]","internalType":"struct OfferItem[]","components":[{"name":"itemType","type":"uint8","internalType":"enum ItemType"},{"name":"token","type":"address","internalType":"address"},{"name":"identifierOrCriteria","type":"uint256","internalType":"uint256"},{"name":"startAmount","type":"uint256","internalType":"uint256"},{"name":"endAmount","type":"uint256","internalType":"uint256"}]},{"name":"consideration","type":"tuple[]","internalType":"struct ConsiderationItem[]","components":[{"name":"itemType","type":"uint8","internalType":"enum ItemType"},{"name":"token","type":"address","internalType":"address"},{"name":"identifierOrCriteria","type":"uint256","internalType":"uint256"},{"name":"startAmount","type":"uint256","internalType":"uint256"},{"name":"endAmount","type":"uint256","internalType":"uint256"},{"name":"recipient","type":"address","internalType":"address payable"}]},{"name":"orderType","type":"uint8","internalType":"enum OrderType"},{"name":"startTime","type":"uint256","internalType":"uint256"},{"name":"endTime","type":"uint256","internalType":"uint256"},{"name":"zoneHash","type":"bytes32","internalType":"bytes32"},{"name":"salt","type":"uint256","internalType":"uint256"},{"name":"conduitKey","type":"bytes32","internalType":"bytes32"},{"name":"totalOriginalConsiderationItems","type":"uint256","internalType":"uint256"}]},{"name":"numerator","type":"uint120","internalType":"uint120"},{"name":"denominator","type":"uint120","internalType":"uint120"},{"name":"signature","type":"bytes","internalType":"bytes"},{"name":"extraData","type":"bytes","internalType":"bytes"}]},{"name":"resolvers","type":"tuple[]","internalType":"struct CriteriaResolver[]","components":[{"name":"orderIndex","type":"uint256","internalType":"uint256"},{"name":"side","type":"uint8","internalType":"enum Side"},{"name":"index","type":"uint256","internalType":"uint256"},{"name":"identifier","type":"uint256","internalType":"uint256"},{"name":"criteriaProof","type":"bytes32[]","internalType":"bytes32[]"}]},{"name":"orderHashes","type":"bytes32[]","internalType":"bytes32[]"},{"name":"unavailableReasons","type":"uint8[]","internalType":"enum UnavailableReason[]"}],"outputs":[{"name":"","type":"tuple[]","internalType":"struct OrderDetails[]","components":[{"name":"offerer","type":"address","internalType":"address"},{"name":"conduitKey","type":"bytes32","internalType":"bytes32"},{"name":"offer","type":"tuple[]","internalType":"struct SpentItem[]","components":[{"name":"itemType","type":"uint8","internalType":"enum ItemType"},{"name":"token","type":"address","internalType":"address"},{"name":"identifier","type":"uint256","internalType":"uint256"},{"name":"amount","type":"uint256","internalType":"uint256"}]},{"name":"consideration","type":"tuple[]","internalType":"struct ReceivedItem[]","components":[{"name":"itemType","type":"uint8","internalType":"enum ItemType"},{"name":"token","type":"address","internalType":"address"},{"name":"identifier","type":"uint256","internalType":"uint256"},{"name":"amount","type":"uint256","internalType":"uint256"},{"name":"recipient","type":"address","internalType":"address payable"}]},{"name":"isContract","type":"bool","internalType":"bool"},{"name":"orderHash","type":"bytes32","internalType":"bytes32"},{"name":"unavailableReason","type":"uint8","internalType":"enum UnavailableReason"}]}],"stateMutability":"view"},{"type":"error","name":"InexactFraction","inputs":[]}],"bytecode":{"object":"0x608060405234801561001057600080fd5b50614540806100206000396000f3fe608060405234801561001057600080fd5b506004361061009e5760003560e01c8063a222a25211610066578063a222a25214610139578063abe6f42314610159578063dc2177741461016c578063e5eceb351461017f578063fe52e1021461019257600080fd5b806313e44476146100a35780631793bbbf146100d0578063371889c6146100f157806361c9a672146101045780637ab2370b14610126575b600080fd5b6100b66100b1366004612d59565b6101a5565b604080519283526020830191909152015b60405180910390f35b6100e36100de366004612db4565b61039b565b6040516100c7929190612e92565b6100e36100ff366004612f17565b6103f9565b610117610112366004613462565b610412565b6040516100c793929190613646565b6100e36101343660046136ed565b61043f565b61014c610147366004613462565b6104a7565b6040516100c791906137d0565b6100e36101673660046138da565b610596565b61011761017a366004613a80565b6105db565b61014c61018d366004613ce9565b610862565b6101176101a0366004613ce9565b61094e565b60008084861015806101b657508284115b806101bf575083155b806101c8575082155b806101da5750871580156101da575086155b1561025d5760405162461bcd60e51b815260206004820152604260248201527f416d6f756e744465726976657248656c7065723a2062616420696e707574732060448201527f746f206465726976654672616374696f6e436f6d70617469626c65416d6f756e606482015261747360f01b608482015260a4015b60405180910390fd5b60006102698787613ebc565b9050600081861161027a578161027c565b855b9050600061028c82600019613ee5565b905060008661029b8184613ee5565b6102a59190613ef9565b90506102b1818d613f10565b9550866102be8188613ee5565b6102c89190613ef9565b955085156102d657856102d8565b865b95506102e4818c613f10565b9450866102f18187613ee5565b6102fb9190613ef9565b94508415610309578461030b565b865b945085158015610319575084155b1561038c5760405162461bcd60e51b815260206004820152603760248201527f416d6f756e744465726976657248656c7065723a206465726976656420616d6f60448201527f756e742077696c6c20616c77617973206265207a65726f0000000000000000006064820152608401610254565b50505050965096945050505050565b606080806103ef6103ac8580613f24565b6103b590613f45565b6103c56040870160208801613f51565b6001600160781b03166103de6060880160408901613f51565b6001600160781b031660008561097d565b9250925050915091565b6060806104096101678480613f24565b91509150915091565b606080606060006104248787876104a7565b905061042f816105db565b9350935093505093509350939050565b60608061049a61044f8780613f24565b61045890613f45565b6104686040890160208a01613f51565b6001600160781b031661048160608a0160408b01613f51565b6001600160781b031688610495888a613f6c565b61097d565b9150915094509492505050565b6060600084516001600160401b038111156104c4576104c4612f51565b6040519080825280602002602001820160405280156104fd57816020015b6104ea612cbb565b8152602001906001900390816104e25790505b50905060005b855181101561058b5761056686828151811061052157610521613f79565b60200260200101516000015186838151811061053f5761053f613f79565b602002602001015186848151811061055957610559613f79565b60200260200101516109be565b82828151811061057857610578613f79565b6020908102919091010152600101610503565b5090505b9392505050565b6060806105aa6105a584613f45565b610aae565b156105d6576105c06105bb84613f45565b610acd565b91506105d36105ce84613f45565b610ae6565b90505b915091565b60608060606105e8610aff565b7f4e27a845942ef132c15387a1dc43d781813720e77a9cccec58c19e221f5d46e85460009081527f8aed65c2fe833d3c2ec803757a8a263f51b2c42016dd28dc0d77363935137dce60205260408120905b855181101561069157600086828151811061065657610656613f79565b602002602001015190506106798160400151826000015183602001518587610b3d565b61068881606001518385610ceb565b50600101610639565b50600381015460005b818110156107d85760008360030182815481106106b9576106b9613f79565b60009182526020808320600390920290910180546001600160a01b039081168452600180890184526040808620918401549092168086529084528185206002808501548088529186528387209287528a018552828620908652909352832090935090915b81548110156107c9578254156107c957600082828154811061074157610741613f79565b600091825260208083206001808a01546001600160a01b0390811686528d8452604080872060028d81015489529086528188209602909301805490911686529383528185209084015485529091528220805491935091036107a35750506107c1565b60006107af8287610e9c565b90506107bb8d82610f74565b9c505050505b60010161071d565b5050505080600101905061069a565b5060005b86518110156108435760008782815181106107f9576107f9613f79565b602002602001015190506108248661081f83604001518460000151856020015189611053565b61114a565b95506108388561081f836060015187611268565b9450506001016107dc565b5061084d84611351565b935061085883611351565b9496939550505050565b6060600085516001600160401b0381111561087f5761087f612f51565b6040519080825280602002602001820160405280156108b857816020015b6108a5612cbb565b81526020019060019003908161089d5790505b50905060005b86518110156109445761091f8782815181106108dc576108dc613f79565b602002602001015182888885815181106108f8576108f8613f79565b602002602001015188868151811061091257610912613f79565b60200260200101516114cd565b82828151811061093157610931613f79565b60209081029190910101526001016108be565b5095945050505050565b6060806060600061096188888888610862565b905061096c816105db565b935093509350509450945094915050565b60608061098987610aae565b156109b4576109998787876115c8565b91506109a68787876115eb565b90506109b482828686611606565b9550959350505050565b6109c6612cbb565b60405163abe6f42360e01b81526000908190309063abe6f423906109ee90899060040161413d565b600060405180830381865afa158015610a0b573d6000803e3d6000fd5b505050506040513d6000823e601f3d908101601f19168201604052610a339190810190614206565b6040805160e08101825289516001600160a01b031681526101208a0151602082015290810183905260608101829052919350915060808101600488608001516004811115610a8357610a83612de8565b14815260208101879052604001856006811115610aa257610aa2612de8565b90529695505050505050565b60008160a001514210158015610ac757508160c0015142105b92915050565b6060610ac782604001518360a001518460c0015161173b565b6060610ac782606001518360a001518460c001516117e9565b7f4e27a845942ef132c15387a1dc43d781813720e77a9cccec58c19e221f5d46e880546001908290600090610b3590849061430c565b909155505050565b60005b8551811015610ce3576000868281518110610b5d57610b5d613f79565b602002602001015190506000610b9c82606001516001600160f01b031686856040805160608101825293845260ff928316602085015291169082015290565b6040805180820182526001600160a01b03808b16825260208083018b8152878201518886015190841660009081528b845286812091815290835285812085519094168152928252848320905183529052919091205491925090610c5c576020838101516001600160a01b039081166000908152600288810184526040808320818901518452855282208054600180820183559184529285902086519390920290910180546001600160a01b03191692909316919091178255918301519101555b506020808301516001600160a01b0390811660009081528683526040808220958101518252948352848120918a1681529082528381208882528252838120805460018181018355918352918390208451600290930201918255918301519082018054939094015160ff9081166101000261ffff199094169116179190911790915501610b40565b505050505050565b60005b8351811015610e96576000848281518110610d0b57610d0b613f79565b602002602001015190506000610d4a82606001516001600160f01b031686856040805160608101825293845260ff928316602085015291169082015290565b6040805160608101825260808501516001600160a01b03908116808352602080880151831681850190815288860151858701908152600093845260018c0183528684209151909416835281528482209251825291909152919091205491925090610e0e576003858101805460018082018355600092835260209283902085519290940290930180546001600160a01b03199081166001600160a01b039384161782559285015193810180549093169390911692909217905560408201516002909101555b80516001600160a01b03908116600090815260018088016020908152604080842082870151909516845293815283832094840151835293845282822080548083018255908352918490208551600290930201918255928401519083018054949092015160ff9081166101000261ffff1990951691161792909217909155919091019050610cee565b50505050565b60408051808201909152606080825260208201528254600090610ebe90611897565b90506000610ecf8480549050611897565b6040805160a08101825284815260208101839052600091810182905260608101829052608081018290529192505b8554811015610f205760608201819052610f18878784611901565b600101610efd565b50610f4d868260800151610f385782604001516119fe565b6040830151610f4890600161430c565b6119fe565b8454610f5a9086906119fe565b506040805180820190915291825260208201529392505050565b8151606090610f8481600161430c565b6001600160401b03811115610f9b57610f9b612f51565b604051908082528060200260200182016040528015610fe057816020015b6040805180820190915260608082526020820152815260200190600190039081610fb95790505b50915082828281518110610ff657610ff6613f79565b602002602001018190525060005b8181101561104b5784818151811061101e5761101e613f79565b602002602001015183828151811061103857611038613f79565b6020908102919091010152600101611004565b505092915050565b606060005b855181101561114157600086828151811061107557611075613f79565b602090810291909101810151808201516001600160a01b03908116600090815287845260408082208185015183528552808220928b1682529184528181208982528452818120805483518187028101870190945280845293955061113694889491929084015b8282101561112d57600084815260209081902060408051606081018252600286029092018054835260019081015460ff80821685870152610100909104169183019190915290835290920191016110db565b5050505061114a565b925050600101611058565b50949350505050565b815181516060919061115c818361430c565b6001600160401b0381111561117357611173612f51565b6040519080825280602002602001820160405280156111be57816020015b60408051606081018252600080825260208083018290529282015282526000199092019101816111915790505b50925060005b8281101561120b578581815181106111de576111de613f79565b60200260200101518482815181106111f8576111f8613f79565b60209081029190910101526001016111c4565b5060005b845181101561125f576000838201905085828151811061123157611231613f79565b602002602001015185828151811061124b5761124b613f79565b60209081029190910101525060010161120f565b50505092915050565b606060005b835181101561134a57600084828151811061128a5761128a613f79565b60209081029190910181015160808101516001600160a01b03908116600090815260018801845260408082208486015190931682529184528181208284015182528452818120805483518187028101870190945280845293955061133f9488949192908401821561112d57600084815260209081902060408051606081018252600286029092018054835260019081015460ff80821685870152610100909104169183019190915290835290920191016110db565b92505060010161126d565b5092915050565b6060815160001480611364575081516001145b1561136d575090565b61137682611c7e565b81516001600160401b0381111561138f5761138f612f51565b6040519080825280602002602001820160405280156113da57816020015b60408051606081018252600080825260208083018290529282015282526000199092019101816113ad5790505b509050816000815181106113f0576113f0613f79565b60200260200101518160008151811061140b5761140b613f79565b60209081029190910101526001805b83518110156114c25761147283611432600185613ebc565b8151811061144257611442613f79565b602002602001015185838151811061145c5761145c613f79565b6020026020010151611c8d90919063ffffffff16565b6114ba5783818151811061148857611488613f79565b60200260200101518383815181106114a2576114a2613f79565b6020026020010181905250816114b79061431f565b91505b60010161141a565b5061058f8282611cca565b6114d5612cbb565b604051637ab2370b60e01b815260009081903090637ab2370b90611501908b908b908b90600401614446565b600060405180830381865afa15801561151e573d6000803e3d6000fd5b505050506040513d6000823e601f3d908101601f191682016040526115469190810190614206565b6040805160e0810182528b51516001600160a01b031681528b51610120015160208201529081018390526060810182905291935091506080810160048a5160800151600481111561159957611599612de8565b148152602081018790526040018560068111156115b8576115b8612de8565b9052925050505b95945050505050565b60606115e384604001518560a001518660c001518686611cdb565b949350505050565b60606115e384606001518560a001518660c001518686611d96565b60005b815181101561173457600082828151811061162657611626613f79565b6020026020010151905083816000015114611641575061172c565b60008160200151600181111561165957611659612de8565b036116c65760008682604001518151811061167657611676613f79565b6020026020010151905061168d8160000151611e46565b819060058111156116a0576116a0612de8565b908160058111156116b3576116b3612de8565b905250606082015160409091015261172a565b6000858260400151815181106116de576116de613f79565b602002602001015190506116f58160000151611e46565b8190600581111561170857611708612de8565b9081600581111561171b5761171b612de8565b90525060608201516040909101525b505b600101611609565b5050505050565b6060600084516001600160401b0381111561175857611758612f51565b60405190808252806020026020018201604052801561179157816020015b61177e612cf7565b8152602001906001900390816117765790505b50905060005b855181101561058b576117c48682815181106117b5576117b5613f79565b60200260200101518686611ef6565b8282815181106117d6576117d6613f79565b6020908102919091010152600101611797565b6060600084516001600160401b0381111561180657611806612f51565b60405190808252806020026020018201604052801561183f57816020015b61182c612d29565b8152602001906001900390816118245790505b50905060005b855181101561058b5761187286828151811061186357611863613f79565b60200260200101518686611f56565b82828151811061188457611884613f79565b6020908102919091010152600101611845565b6060816001600160401b038111156118b1576118b1612f51565b6040519080825280602002602001820160405280156118f657816020015b60408051808201909152600080825260208201528152602001906001900390816118cf5790505b506000815292915050565b8254604082015110156119875760008282606001518154811061192657611926613f79565b600091825260209182902060408051606081018252600293909302909101805480845260019091015460ff8082169585019590955261010090049093169082015291506000036119765750611987565b611981848484611fcb565b50611901565b610e9681602001516119ed848460600151815481106119a8576119a8613f79565b6000918252602091829020604080516060810182526002909302909101805483526001015460ff80821694840194909452610100900490921691810191909152612268565b815160010180835260051b82015290565b600082805480602002602001604051908101604052809291908181526020016000905b82821015611a7357600084815260209081902060408051606081018252600286029092018054835260019081015460ff8082168587015261010090910416918301919091529083529092019101611a21565b5050505090508051600003611a8757505050565b8051600103611af557611ab281600081518110611aa657611aa6613f79565b60200260200101515190565b600003611af05782805480611ac957611ac96144dd565b600082815260208120600260001990930192830201908155600101805461ffff1916905590555b505050565b825415611b375782805480611b0c57611b0c6144dd565b600082815260208120600260001990930192830201908155600101805461ffff191690559055611af5565b600081600081518110611b4c57611b4c613f79565b602002602001015190506000600190505b83811015611b9b57611b91838281518110611b7a57611b7a613f79565b6020026020010151836122b590919063ffffffff16565b9150600101611b5d565b506000611ba6825190565b1115611bf4578354600181810186556000868152602090819020845160029094020192835583015191018054604084015160ff9081166101000261ffff199092169316929092179190911790555b825b8251811015611734576000838281518110611c1357611c13613f79565b602002602001015190506000611c27825190565b1115611c75578554600181810188556000888152602090819020845160029094020192835583015191018054604084015160ff9081166101000261ffff199092169316929092179190911790555b50600101611bf6565b611c8a8161230c612316565b50565b80518251600091148015611cae5750816020015160ff16836020015160ff16145b801561058f57505060409081015191015160ff90811691161490565b606082518083113d3d3e5050815290565b6060600086516001600160401b03811115611cf857611cf8612f51565b604051908082528060200260200182016040528015611d3157816020015b611d1e612cf7565b815260200190600190039081611d165790505b50905060005b8751811015611d8b57611d66888281518110611d5557611d55613f79565b602002602001015188888888612960565b828281518110611d7857611d78613f79565b6020908102919091010152600101611d37565b509695505050505050565b6060600086516001600160401b03811115611db357611db3612f51565b604051908082528060200260200182016040528015611dec57816020015b611dd9612d29565b815260200190600190039081611dd15790505b50905060005b8751811015611d8b57611e21888281518110611e1057611e10613f79565b6020026020010151888888886129dd565b828281518110611e3357611e33613f79565b6020908102919091010152600101611df2565b60006004826005811115611e5c57611e5c612de8565b03611e6957506002919050565b6005826005811115611e7d57611e7d612de8565b03611e8a57506003919050565b60405162461bcd60e51b815260206004820152603660248201527f616d6f756e7420646572697665722068656c706572207265736f6c76696e67206044820152756e6f6e206372697465726961206974656d207479706560501b6064820152608401610254565b919050565b611efe612cf7565b604051806080016040528085600001516005811115611f1f57611f1f612de8565b815260200185602001516001600160a01b0316815260200185604001518152602001611f4c868686612a70565b9052949350505050565b611f5e612d29565b6040518060a0016040528085600001516005811115611f7f57611f7f612de8565b815260200185602001516001600160a01b0316815260200185604001518152602001611fac868686612a88565b81526020018560a001516001600160a01b031681525090509392505050565b600083826040015181548110611fe357611fe3613f79565b6000918252602080832060408051606080820183526002909502909201805483526001015460ff808216948401949094526101009004909216918101919091529084015185549193508591811061203c5761203c613f79565b600091825260209182902060408051606081018252600293909302909101805480845260019091015460ff80821695850195909552610100900490931690820152915082511115612161576120918282612aa0565b915061209e816000612ae1565b905081858460400151815481106120b7576120b7613f79565b60009182526020918290208351600290920201908155908201516001909101805460409093015160ff9081166101000261ffff199094169216919091179190911790556060830151845482918691811061211357612113613f79565b60009182526020918290208351600290920201908155908201516001918201805460409094015160ff9081166101000261ffff19909516921691909117929092179091556080840152612245565b61216b8183612aa0565b9050612178826000612ae1565b9150808484606001518154811061219157612191613f79565b60009182526020918290208351600290920201908155908201516001909101805460409384015160ff9081166101000261ffff1990921693169290921791909117905583015185548391879181106121eb576121eb613f79565b60009182526020918290208351600290920201908155908201516001909101805460409384015160ff9081166101000261ffff199092169316929092179190911790558301805161223b9061431f565b9052600060808401525b82516122599061225484612268565b612b33565b611734578251610ce3906119ed845b604080518082019091526000808252602082015260008061229484805160208201516040909201519092565b6040805180820190915260ff92831681529116602082015295945050505050565b604080516060810182526000808252602082018190529181019190915260006122dc845190565b905060006122e8845190565b905060006122f6828461430c565b90506123028682612ae1565b9695505050505050565b6040015160ff1690565b600282511015612324575050565b6000825160026123349190613ef9565b6001600160401b0381111561234b5761234b612f51565b604051908082528060200260200182016040528015612374578160200160208202803683370190505b50905060008060006001865161238a9190613ebc565b90508184846123988161431f565b9550815181106123aa576123aa613f79565b60209081029190910101528084846123c18161431f565b9550815181106123d3576123d3613f79565b6020026020010181815250505b8215610ce357836123f0846144f3565b9350838151811061240357612403613f79565b602002602001015190508383612418906144f3565b9350838151811061242b5761242b613f79565b60200260200101519150600c82826124439190613ebc565b1161255e57600061245583600161430c565b90505b81811161255857600087828151811061247357612473613f79565b6020026020010151905060008290505b84811180156124cc575061249a828963ffffffff16565b6124ca8a6124a9600185613ebc565b815181106124b9576124b9613f79565b60200260200101518a63ffffffff16565b115b1561252557886124dd600183613ebc565b815181106124ed576124ed613f79565b602002602001015189828151811061250757612507613f79565b6020026020010181905250808061251d906144f3565b915050612483565b8189828151811061253857612538613f79565b6020026020010181905250505080806125509061431f565b915050612458565b506123e0565b6000600261256c838561430c565b6125769190613ee5565b905061259e87828151811061258d5761258d613f79565b60200260200101518763ffffffff16565b6125c48885815181106125b3576125b3613f79565b60200260200101518863ffffffff16565b1115612639578681815181106125dc576125dc613f79565b60200260200101518784815181106125f6576125f6613f79565b602002602001015188858151811061261057612610613f79565b6020026020010189848151811061262957612629613f79565b6020026020010182905282905250505b61264e87838151811061258d5761258d613f79565b6126638885815181106125b3576125b3613f79565b11156126d85786828151811061267b5761267b613f79565b602002602001015187848151811061269557612695613f79565b60200260200101518885815181106126af576126af613f79565b602002602001018985815181106126c8576126c8613f79565b6020026020010182905282905250505b6126ed87838151811061258d5761258d613f79565b6127028883815181106125b3576125b3613f79565b11156127775786828151811061271a5761271a613f79565b602002602001015187828151811061273457612734613f79565b602002602001015188838151811061274e5761274e613f79565b6020026020010189858151811061276757612767613f79565b6020026020010182905282905250505b600061278e8883815181106125b3576125b3613f79565b905083835b80821161289f575b826127c28b84815181106127b1576127b1613f79565b60200260200101518b63ffffffff16565b10156127da57816127d28161431f565b92505061279b565b826127f08b83815181106127b1576127b1613f79565b11156128085780612800816144f3565b9150506127da565b80821161289a5789818151811061282157612821613f79565b60200260200101518a838151811061283b5761283b613f79565b60200260200101518b848151811061285557612855613f79565b602002602001018c848151811061286e5761286e613f79565b60200260200101829052829052505081806128889061431f565b9250508080612896906144f3565b9150505b612793565b858111156128fb578588886128b38161431f565b9950815181106128c5576128c5613f79565b60209081029190910101528088886128dc8161431f565b9950815181106128ee576128ee613f79565b6020026020010181815250505b848210156129575781888861290f8161431f565b99508151811061292157612921613f79565b60209081029190910101528488886129388161431f565b99508151811061294a5761294a613f79565b6020026020010181815250505b505050506123e0565b612968612cf7565b60405180608001604052808760000151600581111561298957612989612de8565b815260200187602001516001600160a01b0316815260200187604001518152602001864210806129b95750854210155b6129cf576129ca858589898c612b96565b610aa2565b600090529695505050505050565b6129e5612d29565b6040518060a0016040528087600001516005811115612a0657612a06612de8565b815260200187602001516001600160a01b031681526020018760400151815260200186421080612a365750854210155b612a4c57612a47858589898c612bbf565b612a4f565b60005b81526020018760a001516001600160a01b0316815250905095945050505050565b60006115e38460600151856080015185856000612bdd565b60006115e38460600151856080015185856001612bdd565b60408051606081018252600080825260208201819052918101919091526000612ac7845190565b90506000612ad3845190565b905060006122f68284613ebc565b60408051606080820183526000808352602080840182905292840181905283519182018452808252818301818152828501918252865183529286015160ff908116909352949092015116909252815290565b60008251600003612b4657506000610ac7565b60008360018551612b579190613ebc565b81518110612b6757612b67613f79565b60200260200101519050826000015181600001511480156115e357508260200151816020015114949350505050565b6060810151608082015160009190612bb382828a8a8a8a89612c32565b98975050505050505050565b6060810151608082015160009190612bb382828a8a8a8a6001612c32565b6000848614612c2857838303428590038082036000612bfc838a613ef9565b612c06838c613ef9565b612c10919061430c565b905085848783030401811515029450505050506115bf565b5092949350505050565b6000868803612c4d57612c46868689612c7c565b9050612c71565b612c6e612c5b87878b612c7c565b612c6688888b612c7c565b868686612bdd565b90505b979650505050505050565b6000828403612c8c57508061058f565b8284830915612ca35763c63cf0896000526004601cfd5b6000612caf8584613ef9565b93909304949350505050565b6040805160e0810182526000808252602082018190526060928201839052828201929092526080810182905260a081018290529060c082015290565b6040805160808101909152806000815260200160006001600160a01b0316815260200160008152602001600081525090565b6040805160a081019091528060008152600060208201819052604082018190526060820181905260809091015290565b60008060008060008060c08789031215612d7257600080fd5b505084359660208601359650604086013595606081013595506080810135945060a0013592509050565b600060a08284031215612dae57600080fd5b50919050565b600060208284031215612dc657600080fd5b81356001600160401b03811115612ddc57600080fd5b6115e384828501612d9c565b634e487b7160e01b600052602160045260246000fd5b60068110612e0e57612e0e612de8565b9052565b612e1d828251612dfe565b6020818101516001600160a01b031690830152604080820151908301526060908101519082015260800190565b612e55828251612dfe565b6020818101516001600160a01b03908116918401919091526040808301519084015260608083015190840152608091820151169082015260a00190565b604080825283519082018190526000906020906060840190828701845b82811015612ed057612ec2848351612e12565b935090840190600101612eaf565b5050508381038285015284518082528583019183019060005b81811015612f0a57612efc838551612e4a565b938501939250600101612ee9565b5090979650505050505050565b600060208284031215612f2957600080fd5b81356001600160401b03811115612f3f57600080fd5b82016040818503121561058f57600080fd5b634e487b7160e01b600052604160045260246000fd5b60405160a081016001600160401b0381118282101715612f8957612f89612f51565b60405290565b60405160c081016001600160401b0381118282101715612f8957612f89612f51565b60405161016081016001600160401b0381118282101715612f8957612f89612f51565b604080519081016001600160401b0381118282101715612f8957612f89612f51565b604051608081016001600160401b0381118282101715612f8957612f89612f51565b60405160e081016001600160401b0381118282101715612f8957612f89612f51565b604051601f8201601f191681016001600160401b038111828210171561306257613062612f51565b604052919050565b60006001600160401b0382111561308357613083612f51565b5060051b60200190565b6001600160a01b0381168114611c8a57600080fd5b8035611ef18161308d565b60068110611c8a57600080fd5b600082601f8301126130cb57600080fd5b813560206130e06130db8361306a565b61303a565b82815260a092830285018201928282019190878511156130ff57600080fd5b8387015b85811015612f0a5781818a03121561311b5760008081fd5b613123612f67565b813561312e816130ad565b81528186013561313d8161308d565b818701526040828101359082015260608083013590820152608080830135908201528452928401928101613103565b600082601f83011261317d57600080fd5b8135602061318d6130db8361306a565b82815260c092830285018201928282019190878511156131ac57600080fd5b8387015b85811015612f0a5781818a0312156131c85760008081fd5b6131d0612f8f565b81356131db816130ad565b8152818601356131ea8161308d565b8187015260408281013590820152606080830135908201526080808301359082015260a08083013561321b8161308d565b9082015284529284019281016131b0565b803560058110611ef157600080fd5b6000610160828403121561324e57600080fd5b613256612fb1565b9050613261826130a2565b815261326f602083016130a2565b602082015260408201356001600160401b038082111561328e57600080fd5b61329a858386016130ba565b604084015260608401359150808211156132b357600080fd5b506132c08482850161316c565b6060830152506132d26080830161322c565b608082015260a082013560a082015260c082013560c082015260e082013560e082015261010080830135818301525061012080830135818301525061014080830135818301525092915050565b600082601f83011261333057600080fd5b81356001600160401b0381111561334957613349612f51565b61335c601f8201601f191660200161303a565b81815284602083860101111561337157600080fd5b816020850160208301376000918101602001919091529392505050565b600082601f83011261339f57600080fd5b813560206133af6130db8361306a565b8083825260208201915060208460051b8701019350868411156133d157600080fd5b602086015b84811015611d8b57803583529183019183016133d6565b803560078110611ef157600080fd5b600082601f83011261340d57600080fd5b8135602061341d6130db8361306a565b8083825260208201915060208460051b87010193508684111561343f57600080fd5b602086015b84811015611d8b57613455816133ed565b8352918301918301613444565b60008060006060848603121561347757600080fd5b83356001600160401b038082111561348e57600080fd5b818601915086601f8301126134a257600080fd5b813560206134b26130db8361306a565b82815260059290921b8401810191818101908a8411156134d157600080fd5b8286015b84811015613562578035868111156134ec57600080fd5b87016040818e03601f190112156135035760008081fd5b61350b612fd4565b858201358881111561351d5760008081fd5b61352b8f888386010161323b565b8252506040820135888111156135415760008081fd5b61354f8f888386010161331f565b82880152508452509183019183016134d5565b509750508701359250508082111561357957600080fd5b6135858783880161338e565b9350604086013591508082111561359b57600080fd5b506135a8868287016133fc565b9150509250925092565b60008151808452602080850194506020840160005b838110156135ee5781518051885283015183880152604090960195908201906001016135c7565b509495945050505050565b60008151808452602080850194506020840160005b838110156135ee578151805188528381015160ff908116858a015260409182015116908801526060909601959082019060010161360e565b6000606082016060835280865180835260808501915060808160051b8601019250602080890160005b838110156136c357607f19888703018552815160408151818952613695828a01826135b2565b915050848201519150878103858901526136af81836135b2565b97505050938201939082019060010161366f565b5050858403818701525050506136d981866135f9565b9050828103604084015261230281856135f9565b6000806000806060858703121561370357600080fd5b84356001600160401b038082111561371a57600080fd5b61372688838901612d9c565b955060208701359450604087013591508082111561374357600080fd5b818701915087601f83011261375757600080fd5b81358181111561376657600080fd5b8860208260051b850101111561377b57600080fd5b95989497505060200194505050565b60008151808452602080850194506020840160005b838110156135ee576137b2878351612e4a565b96509082019060010161379f565b60078110612e0e57612e0e612de8565b600060208083018184528085518083526040925060408601915060408160051b8701018488016000805b848110156138cb57898403603f19018652825180516001600160a01b0316855288810151898601528781015160e089870181905281519087018190526101008701918b019085905b8082101561386757613855848451612e12565b93508c83019250600182019150613842565b50505060608083015187830382890152613881838261378a565b925050506080808301516138988289018215159052565b505060a0828101519087015260c091820151916138b7818801846137c0565b5096890196945050918701916001016137fa565b50919998505050505050505050565b6000602082840312156138ec57600080fd5b81356001600160401b0381111561390257600080fd5b8201610160818503121561058f57600080fd5b600082601f83011261392657600080fd5b813560206139366130db8361306a565b82815260079290921b8401810191818101908684111561395557600080fd5b8286015b84811015611d8b57608081890312156139725760008081fd5b61397a612ff6565b8135613985816130ad565b8152818501356139948161308d565b818601526040828101359082015260608083013590820152835291830191608001613959565b600082601f8301126139cb57600080fd5b813560206139db6130db8361306a565b82815260a092830285018201928282019190878511156139fa57600080fd5b8387015b85811015612f0a5781818a031215613a165760008081fd5b613a1e612f67565b8135613a29816130ad565b815281860135613a388161308d565b818701526040828101359082015260608083013590820152608080830135613a5f8161308d565b9082015284529284019281016139fe565b80358015158114611ef157600080fd5b60006020808385031215613a9357600080fd5b82356001600160401b0380821115613aaa57600080fd5b818501915085601f830112613abe57600080fd5b8135613acc6130db8261306a565b81815260059190911b83018401908481019088831115613aeb57600080fd5b8585015b83811015613bc957803585811115613b0657600080fd5b860160e0818c03601f19011215613b1d5760008081fd5b613b25613018565b613b308983016130a2565b81526040808301358a83015260608084013589811115613b505760008081fd5b613b5e8f8d83880101613915565b8385015250608091508184013589811115613b795760008081fd5b613b878f8d838801016139ba565b82850152505060a0613b9a818501613a70565b8284015260c09150818401358184015250613bb760e084016133ed565b90820152845250918601918601613aef565b5098975050505050505050565b80356001600160781b0381168114611ef157600080fd5b6000613bfb6130db8461306a565b8381529050602080820190600585901b840186811115613c1a57600080fd5b845b81811015613cbe5780356001600160401b0380821115613c3c5760008081fd5b9087019060a0828b031215613c515760008081fd5b613c59612f67565b823581528583013560028110613c6f5760008081fd5b81870152604083810135908201526060808401359082015260808084013583811115613c9b5760008081fd5b613ca78d82870161338e565b918301919091525086525050928201928201613c1c565b505050509392505050565b600082601f830112613cda57600080fd5b61058f83833560208501613bed565b60008060008060808587031215613cff57600080fd5b6001600160401b038086351115613d1557600080fd5b8535860187601f820112613d2857600080fd5b613d356130db823561306a565b81358082526020808301929160051b8401018a811115613d5457600080fd5b602084015b81811015613e32578581351115613d6f57600080fd5b8035850160a0818e03601f19011215613d8757600080fd5b613d8f612f67565b602082013588811115613da157600080fd5b613db08f60208386010161323b565b825250613dbf60408301613bd6565b6020820152613dd060608301613bd6565b6040820152608082013588811115613de757600080fd5b613df68f60208386010161331f565b60608301525060a082013588811115613e0e57600080fd5b613e1d8f60208386010161331f565b60808301525085525060209384019301613d59565b50909750505050602086013581811115613e4b57600080fd5b613e5788828901613cc9565b945050604086013581811115613e6c57600080fd5b613e788882890161338e565b935050606086013581811115613e8d57600080fd5b613e99888289016133fc565b9250505092959194509250565b634e487b7160e01b600052601160045260246000fd5b81810381811115610ac757610ac7613ea6565b634e487b7160e01b600052601260045260246000fd5b600082613ef457613ef4613ecf565b500490565b8082028115828204841417610ac757610ac7613ea6565b600082613f1f57613f1f613ecf565b500690565b6000823561015e19833603018112613f3b57600080fd5b9190910192915050565b6000610ac7368361323b565b600060208284031215613f6357600080fd5b61058f82613bd6565b600061058f368484613bed565b634e487b7160e01b600052603260045260246000fd5b60008151808452602080850194506020840160005b838110156135ee578151613fb9888251612dfe565b838101516001600160a01b03168885015260408082015190890152606080820151908901526080908101519088015260a09096019590820190600101613fa4565b60008151808452602080850194506020840160005b838110156135ee578151614024888251612dfe565b808401516001600160a01b0390811689860152604080830151908a0152606080830151908a0152608080830151908a015260a091820151169088015260c0909601959082019060010161400f565b60058110612e0e57612e0e612de8565b80516001600160a01b03168252600061016060208301516140ae60208601826001600160a01b03169052565b5060408301518160408601526140c682860182613f8f565b915050606083015184820360608601526140e08282613ffa565b91505060808301516140f56080860182614072565b5060a0838101519085015260c0808401519085015260e08084015190850152610100808401519085015261012080840151908501526101409283015192909301919091525090565b60208152600061058f6020830184614082565b600082601f83011261416157600080fd5b815160206141716130db8361306a565b82815260a0928302850182019282820191908785111561419057600080fd5b8387015b85811015612f0a5781818a0312156141ac5760008081fd5b6141b4612f67565b81516141bf816130ad565b8152818601516141ce8161308d565b8187015260408281015190820152606080830151908201526080808301516141f58161308d565b908201528452928401928101614194565b600080604080848603121561421a57600080fd5b83516001600160401b038082111561423157600080fd5b818601915086601f83011261424557600080fd5b815160206142556130db8361306a565b82815260079290921b8401810191818101908a84111561427457600080fd5b948201945b838610156142db576080868c0312156142925760008081fd5b61429a612ff6565b86516142a5816130ad565b8152868401516142b48161308d565b81850152868801518882015260608088015190820152825260809095019490820190614279565b918901519197509094505050808311156142f457600080fd5b505061430285828601614150565b9150509250929050565b80820180821115610ac757610ac7613ea6565b60006001820161433157614331613ea6565b5060010190565b6000815180845260005b8181101561435e57602081850181015186830182015201614342565b506000602082860101526020601f19601f83011685010191505092915050565b600082825180855260208086019550808260051b8401018186016000805b8581101561443857601f19878503018a52825160a08086018251875287830151600281106143cc576143cc612de8565b878901526040838101519088015260608084015190880152608092830151928701919091528151908190529086019060c086019084905b808210156144235783518352928801929188019160019190910190614403565b50509a86019a9450509184019160010161439c565b509198975050505050505050565b606081526000845160a06060840152614463610100840182614082565b60208701516001600160781b03908116608086015260408801511660a08501526060870151848203605f1990810160c0870152919250906144a48383614338565b925060808801519150808584030160e0860152506144c28282614338565b9150508460208401528281036040840152612302818561437e565b634e487b7160e01b600052603160045260246000fd5b60008161450257614502613ea6565b50600019019056fea264697066735822122092fa7468171aa13beb0bedab8bb8b3409d7033d7837e99cc32d1bee967de9f5964736f6c63430008160033","linkReferences":{}},"methodIdentifiers":{"deriveFractionCompatibleAmounts(uint256,uint256,uint256,uint256,uint256,uint256)":"13e44476","getMatchedFulfillments(((address,address,(uint8,address,uint256,uint256,uint256)[],(uint8,address,uint256,uint256,uint256,address)[],uint8,uint256,uint256,bytes32,uint256,bytes32,uint256),bytes)[],bytes32[],uint8[])":"61c9a672","getMatchedFulfillments(((address,address,(uint8,address,uint256,uint256,uint256)[],(uint8,address,uint256,uint256,uint256,address)[],uint8,uint256,uint256,bytes32,uint256,bytes32,uint256),uint120,uint120,bytes,bytes)[],(uint256,uint8,uint256,uint256,bytes32[])[],bytes32[],uint8[])":"fe52e102","getMatchedFulfillments((address,bytes32,(uint8,address,uint256,uint256)[],(uint8,address,uint256,uint256,address)[],bool,bytes32,uint8)[])":"dc217774","getSpentAndReceivedItems(((address,address,(uint8,address,uint256,uint256,uint256)[],(uint8,address,uint256,uint256,uint256,address)[],uint8,uint256,uint256,bytes32,uint256,bytes32,uint256),bytes))":"371889c6","getSpentAndReceivedItems(((address,address,(uint8,address,uint256,uint256,uint256)[],(uint8,address,uint256,uint256,uint256,address)[],uint8,uint256,uint256,bytes32,uint256,bytes32,uint256),uint120,uint120,bytes,bytes))":"1793bbbf","getSpentAndReceivedItems(((address,address,(uint8,address,uint256,uint256,uint256)[],(uint8,address,uint256,uint256,uint256,address)[],uint8,uint256,uint256,bytes32,uint256,bytes32,uint256),uint120,uint120,bytes,bytes),uint256,(uint256,uint8,uint256,uint256,bytes32[])[])":"7ab2370b","getSpentAndReceivedItems((address,address,(uint8,address,uint256,uint256,uint256)[],(uint8,address,uint256,uint256,uint256,address)[],uint8,uint256,uint256,bytes32,uint256,bytes32,uint256))":"abe6f423","toOrderDetails(((address,address,(uint8,address,uint256,uint256,uint256)[],(uint8,address,uint256,uint256,uint256,address)[],uint8,uint256,uint256,bytes32,uint256,bytes32,uint256),bytes)[],bytes32[],uint8[])":"a222a252","toOrderDetails(((address,address,(uint8,address,uint256,uint256,uint256)[],(uint8,address,uint256,uint256,uint256,address)[],uint8,uint256,uint256,bytes32,uint256,bytes32,uint256),uint120,uint120,bytes,bytes)[],(uint256,uint8,uint256,uint256,bytes32[])[],bytes32[],uint8[])":"e5eceb35"},"id":113}