{"abi":[{"type":"constructor","inputs":[{"name":"_createPolicy","type":"address","internalType":"address"},{"name":"_stopPolicy","type":"address","internalType":"address"},{"name":"_gameToken","type":"address","internalType":"address"},{"name":"_rewardToken","type":"address","internalType":"address"}],"stateMutability":"nonpayable"},{"type":"function","name":"accruedRewards","inputs":[{"name":"rewardedAddress","type":"address","internalType":"address"}],"outputs":[{"name":"rewards","type":"uint256","internalType":"uint256"}],"stateMutability":"view"},{"type":"function","name":"claimRewards","inputs":[{"name":"rewardedAddress","type":"address","internalType":"address"}],"outputs":[],"stateMutability":"nonpayable"},{"type":"function","name":"createPolicy","inputs":[],"outputs":[{"name":"","type":"address","internalType":"address"}],"stateMutability":"view"},{"type":"function","name":"gameToken","inputs":[],"outputs":[{"name":"","type":"address","internalType":"address"}],"stateMutability":"view"},{"type":"function","name":"onERC1155BatchReceived","inputs":[{"name":"","type":"address","internalType":"address"},{"name":"","type":"address","internalType":"address"},{"name":"","type":"uint256[]","internalType":"uint256[]"},{"name":"","type":"uint256[]","internalType":"uint256[]"},{"name":"","type":"bytes","internalType":"bytes"}],"outputs":[{"name":"","type":"bytes4","internalType":"bytes4"}],"stateMutability":"pure"},{"type":"function","name":"onERC1155Received","inputs":[{"name":"","type":"address","internalType":"address"},{"name":"","type":"address","internalType":"address"},{"name":"","type":"uint256","internalType":"uint256"},{"name":"","type":"uint256","internalType":"uint256"},{"name":"","type":"bytes","internalType":"bytes"}],"outputs":[{"name":"","type":"bytes4","internalType":"bytes4"}],"stateMutability":"pure"},{"type":"function","name":"onStart","inputs":[{"name":"safe","type":"address","internalType":"address"},{"name":"token","type":"address","internalType":"address"},{"name":"identifier","type":"uint256","internalType":"uint256"},{"name":"amount","type":"uint256","internalType":"uint256"},{"name":"data","type":"bytes","internalType":"bytes"}],"outputs":[],"stateMutability":"nonpayable"},{"type":"function","name":"onStop","inputs":[{"name":"safe","type":"address","internalType":"address"},{"name":"token","type":"address","internalType":"address"},{"name":"identifier","type":"uint256","internalType":"uint256"},{"name":"amount","type":"uint256","internalType":"uint256"},{"name":"data","type":"bytes","internalType":"bytes"}],"outputs":[],"stateMutability":"nonpayable"},{"type":"function","name":"onTransaction","inputs":[{"name":"safe","type":"address","internalType":"address"},{"name":"to","type":"address","internalType":"address"},{"name":"value","type":"uint256","internalType":"uint256"},{"name":"data","type":"bytes","internalType":"bytes"}],"outputs":[],"stateMutability":"view"},{"type":"function","name":"rentInfo","inputs":[{"name":"assetHash","type":"bytes32","internalType":"bytes32"}],"outputs":[{"name":"amount","type":"uint256","internalType":"uint256"},{"name":"lastRewardBlock","type":"uint256","internalType":"uint256"}],"stateMutability":"view"},{"type":"function","name":"rewardPerBlock","inputs":[],"outputs":[{"name":"","type":"uint256","internalType":"uint256"}],"stateMutability":"view"},{"type":"function","name":"rewardToken","inputs":[],"outputs":[{"name":"","type":"address","internalType":"contract IERC1155"}],"stateMutability":"view"},{"type":"function","name":"rewardTokenId","inputs":[],"outputs":[{"name":"","type":"uint256","internalType":"uint256"}],"stateMutability":"view"},{"type":"function","name":"stopPolicy","inputs":[],"outputs":[{"name":"","type":"address","internalType":"address"}],"stateMutability":"view"},{"type":"function","name":"supportsInterface","inputs":[{"name":"interfaceId","type":"bytes4","internalType":"bytes4"}],"outputs":[{"name":"","type":"bool","internalType":"bool"}],"stateMutability":"view"}],"bytecode":{"object":"0x60c06040526000608052633b9aca0060a05234801561001d57600080fd5b5060405161107b38038061107b83398101604081905261003c916100ab565b600080546001600160a01b039586166001600160a01b03199182161790915560018054948616948216949094179093556002805492851692841692909217909155600380549190931691161790556100ff565b80516001600160a01b03811681146100a657600080fd5b919050565b600080600080608085870312156100c157600080fd5b6100ca8561008f565b93506100d86020860161008f565b92506100e66040860161008f565b91506100f46060860161008f565b905092959194509250565b60805160a051610f4261013960003960008181610191015281816104f501526108e401526000818161016a01526107210152610f426000f3fe608060405234801561001057600080fd5b50600436106100f55760003560e01c8063bc197c8111610097578063f23a6e6111610066578063f23a6e61146102a7578063f5aa1eee146102e0578063f7c618c1146102f3578063f957ee781461030657600080fd5b8063bc197c811461021a578063c3dfdae61461026e578063c783f6de14610281578063ef5cfb8c1461029457600080fd5b80636e8dea97116100d35780636e8dea97146101655780638ae39cac1461018c578063a91a0ca3146101b3578063ae20f456146101de57600080fd5b806301ffc9a7146100fa5780630747c99514610122578063128fced114610137575b600080fd5b61010d6101083660046109e3565b61031a565b60405190151581526020015b60405180910390f35b610135610130366004610acf565b610351565b005b610157610145366004610b45565b60056020526000908152604090205481565b604051908152602001610119565b6101577f000000000000000000000000000000000000000000000000000000000000000081565b6101577f000000000000000000000000000000000000000000000000000000000000000081565b6000546101c6906001600160a01b031681565b6040516001600160a01b039091168152602001610119565b6102056101ec366004610b62565b6004602052600090815260409020805460019091015482565b60408051928352602083019190915201610119565b610255610228366004610c09565b7fbc197c819b3e337a6f9652dd10becd7eef83032af3b9d958d3d42f669414662198975050505050505050565b6040516001600160e01b03199091168152602001610119565b6002546101c6906001600160a01b031681565b6001546101c6906001600160a01b031681565b6101356102a2366004610b45565b6105f4565b6102556102b5366004610cc8565b7ff23a6e612e1ff4830e658fe43f4e3cb4a5f8170bd5d9e69fb5d7a7fa9e4fdf979695505050505050565b6101356102ee366004610acf565b610782565b6003546101c6906001600160a01b031681565b610135610314366004610d44565b50505050565b60006001600160e01b031982166301ffc9a760e01b148061034b57506001600160e01b03198216636cdb3d1360e11b145b92915050565b6001546001600160a01b031633146103b05760405162461bcd60e51b815260206004820152601f60248201527f6e6f742063616c6c61626c6520756e6c6573732073746f7020706f6c6963790060448201526064015b60405180910390fd5b60025484906001600160a01b038083169116146104085760405162461bcd60e51b81526020600482015260166024820152751d1bdad95b881a5cc81b9bdd081cdd5c1c1bdc9d195960521b60448201526064016103a7565b60008280602001905181019061041e9190610db0565b604080516001600160a01b03808b1660208301528916918101919091526060810187905290915060009060800160408051601f198184030181529181528151602092830120600081815260049093529120600181015490549192509081158015906104895750600081115b6104d55760405162461bcd60e51b815260206004820152601860248201527f76616c7565732073686f756c64206265206e6f6e7a65726f000000000000000060448201526064016103a7565b8960006104e28443610e12565b90506000670de0b6b3a76400008461051a7f000000000000000000000000000000000000000000000000000000000000000085610e25565b6105249190610e25565b61052e9190610e3c565b9050600061053d600283610e3c565b9050600061054b8284610e12565b89516001600160a01b0316600090815260056020526040812080549293508492909190610579908490610e5e565b90915550506001600160a01b038516600090815260056020526040812080548392906105a6908490610e5e565b9091555050600088815260046020526040812080548e92906105c9908490610e12565b9091555050506000968752505060046020525050604090922043600190910155505050505050505050565b336001600160a01b03821614808061066f57506040516317aa5fb760e11b81523360048201526001600160a01b03831690632f54bf6e90602401602060405180830381865afa15801561064b573d6000803e3d6000fd5b505050506040513d601f19601f8201168201806040525081019061066f9190610e71565b6106cf5760405162461bcd60e51b815260206004820152602b60248201527f6e6f7420616c6c6f77656420746f20616363657373207265776172647320666f60448201526a722074686973207361666560a81b60648201526084016103a7565b6001600160a01b038083166000908152600560209081526040808320805490849055600354825193840183529383529051637921219560e11b81529093929092169163f242432a9161074b91309133917f0000000000000000000000000000000000000000000000000000000000000000918891600401610e93565b600060405180830381600087803b15801561076557600080fd5b505af1158015610779573d6000803e3d6000fd5b50505050505050565b6000546001600160a01b031633146107e65760405162461bcd60e51b815260206004820152602160248201527f6e6f742063616c6c61626c6520756e6c6573732063726561746520706f6c69636044820152607960f81b60648201526084016103a7565b60025484906001600160a01b0380831691161461083e5760405162461bcd60e51b81526020600482015260166024820152751d1bdad95b881a5cc81b9bdd081cdd5c1c1bdc9d195960521b60448201526064016103a7565b6000828060200190518101906108549190610db0565b604080516001600160a01b03808b1660208301528916918101919091526060810187905290915060009060800160408051601f198184030181529181528151602092830120600081815260049093529120600181015490549192509081158015906108bf5750600081115b156109a0578960006108d18443610e12565b90506000670de0b6b3a7640000846109097f000000000000000000000000000000000000000000000000000000000000000085610e25565b6109139190610e25565b61091d9190610e3c565b9050600061092c600283610e3c565b9050600061093a8284610e12565b89516001600160a01b0316600090815260056020526040812080549293508492909190610968908490610e5e565b90915550506001600160a01b03851660009081526005602052604081208054839290610995908490610e5e565b909155505050505050505b600083815260046020526040812080548992906109be908490610e5e565b9091555050506000918252506004602052604090204360019091015550505050505050565b6000602082840312156109f557600080fd5b81356001600160e01b031981168114610a0d57600080fd5b9392505050565b6001600160a01b0381168114610a2957600080fd5b50565b634e487b7160e01b600052604160045260246000fd5b600082601f830112610a5357600080fd5b813567ffffffffffffffff80821115610a6e57610a6e610a2c565b604051601f8301601f19908116603f01168101908282118183101715610a9657610a96610a2c565b81604052838152866020858801011115610aaf57600080fd5b836020870160208301376000602085830101528094505050505092915050565b600080600080600060a08688031215610ae757600080fd5b8535610af281610a14565b94506020860135610b0281610a14565b93506040860135925060608601359150608086013567ffffffffffffffff811115610b2c57600080fd5b610b3888828901610a42565b9150509295509295909350565b600060208284031215610b5757600080fd5b8135610a0d81610a14565b600060208284031215610b7457600080fd5b5035919050565b60008083601f840112610b8d57600080fd5b50813567ffffffffffffffff811115610ba557600080fd5b6020830191508360208260051b8501011115610bc057600080fd5b9250929050565b60008083601f840112610bd957600080fd5b50813567ffffffffffffffff811115610bf157600080fd5b602083019150836020828501011115610bc057600080fd5b60008060008060008060008060a0898b031215610c2557600080fd5b8835610c3081610a14565b97506020890135610c4081610a14565b9650604089013567ffffffffffffffff80821115610c5d57600080fd5b610c698c838d01610b7b565b909850965060608b0135915080821115610c8257600080fd5b610c8e8c838d01610b7b565b909650945060808b0135915080821115610ca757600080fd5b50610cb48b828c01610bc7565b999c989b5096995094979396929594505050565b60008060008060008060a08789031215610ce157600080fd5b8635610cec81610a14565b95506020870135610cfc81610a14565b94506040870135935060608701359250608087013567ffffffffffffffff811115610d2657600080fd5b610d3289828a01610bc7565b979a9699509497509295939492505050565b60008060008060808587031215610d5a57600080fd5b8435610d6581610a14565b93506020850135610d7581610a14565b925060408501359150606085013567ffffffffffffffff811115610d9857600080fd5b610da487828801610a42565b91505092959194509250565b600060208284031215610dc257600080fd5b6040516020810181811067ffffffffffffffff82111715610de557610de5610a2c565b6040528251610df381610a14565b81529392505050565b634e487b7160e01b600052601160045260246000fd5b8181038181111561034b5761034b610dfc565b808202811582820484141761034b5761034b610dfc565b600082610e5957634e487b7160e01b600052601260045260246000fd5b500490565b8082018082111561034b5761034b610dfc565b600060208284031215610e8357600080fd5b81518015158114610a0d57600080fd5b600060018060a01b0380881683526020818816602085015286604085015285606085015260a06080850152845191508160a085015260005b82811015610ee75785810182015185820160c001528101610ecb565b5050600060c0828501015260c0601f19601f830116840101915050969550505050505056fea2646970667358221220dd5d58a29641209ed33975a03396be9a2606a7dcc0ead6531d7ac410c904a98b64736f6c63430008160033","linkReferences":{}},"methodIdentifiers":{"accruedRewards(address)":"128fced1","claimRewards(address)":"ef5cfb8c","createPolicy()":"a91a0ca3","gameToken()":"c3dfdae6","onERC1155BatchReceived(address,address,uint256[],uint256[],bytes)":"bc197c81","onERC1155Received(address,address,uint256,uint256,bytes)":"f23a6e61","onStart(address,address,uint256,uint256,bytes)":"f5aa1eee","onStop(address,address,uint256,uint256,bytes)":"0747c995","onTransaction(address,address,uint256,bytes)":"f957ee78","rentInfo(bytes32)":"ae20f456","rewardPerBlock()":"8ae39cac","rewardToken()":"f7c618c1","rewardTokenId()":"6e8dea97","stopPolicy()":"c783f6de","supportsInterface(bytes4)":"01ffc9a7"},"id":117}