{"abi":[{"type":"constructor","inputs":[{"name":"kernel_","type":"address","internalType":"contract Kernel"}],"stateMutability":"nonpayable"},{"type":"function","name":"STORE","inputs":[],"outputs":[{"name":"","type":"address","internalType":"contract Storage"}],"stateMutability":"view"},{"type":"function","name":"changeKernel","inputs":[{"name":"newKernel_","type":"address","internalType":"contract Kernel"}],"outputs":[],"stateMutability":"nonpayable"},{"type":"function","name":"checkAfterExecution","inputs":[{"name":"txHash","type":"bytes32","internalType":"bytes32"},{"name":"success","type":"bool","internalType":"bool"}],"outputs":[],"stateMutability":"nonpayable"},{"type":"function","name":"checkTransaction","inputs":[{"name":"to","type":"address","internalType":"address"},{"name":"value","type":"uint256","internalType":"uint256"},{"name":"data","type":"bytes","internalType":"bytes"},{"name":"operation","type":"uint8","internalType":"enum Enum.Operation"},{"name":"","type":"uint256","internalType":"uint256"},{"name":"","type":"uint256","internalType":"uint256"},{"name":"","type":"uint256","internalType":"uint256"},{"name":"","type":"address","internalType":"address"},{"name":"","type":"address","internalType":"address payable"},{"name":"","type":"bytes","internalType":"bytes"},{"name":"","type":"address","internalType":"address"}],"outputs":[],"stateMutability":"nonpayable"},{"type":"function","name":"configureDependencies","inputs":[],"outputs":[{"name":"dependencies","type":"bytes5[]","internalType":"Keycode[]"}],"stateMutability":"nonpayable"},{"type":"function","name":"isActive","inputs":[],"outputs":[{"name":"","type":"bool","internalType":"bool"}],"stateMutability":"view"},{"type":"function","name":"kernel","inputs":[],"outputs":[{"name":"","type":"address","internalType":"contract Kernel"}],"stateMutability":"view"},{"type":"function","name":"requestPermissions","inputs":[],"outputs":[{"name":"requests","type":"tuple[]","internalType":"struct Permissions[]","components":[{"name":"keycode","type":"bytes5","internalType":"Keycode"},{"name":"funcSelector","type":"bytes4","internalType":"bytes4"}]}],"stateMutability":"view"},{"type":"function","name":"setActiveStatus","inputs":[{"name":"activate_","type":"bool","internalType":"bool"}],"outputs":[],"stateMutability":"nonpayable"},{"type":"function","name":"supportsInterface","inputs":[{"name":"interfaceId","type":"bytes4","internalType":"bytes4"}],"outputs":[{"name":"","type":"bool","internalType":"bool"}],"stateMutability":"view"},{"type":"function","name":"updateHookPath","inputs":[{"name":"to","type":"address","internalType":"address"},{"name":"hook","type":"address","internalType":"address"}],"outputs":[],"stateMutability":"nonpayable"},{"type":"function","name":"updateHookStatus","inputs":[{"name":"hook","type":"address","internalType":"address"},{"name":"bitmap","type":"uint8","internalType":"uint8"}],"outputs":[],"stateMutability":"nonpayable"},{"type":"error","name":"GuardPolicy_Deactivated","inputs":[]},{"type":"error","name":"GuardPolicy_UnauthorizedAssetAmount","inputs":[{"name":"selector","type":"bytes4","internalType":"bytes4"},{"name":"rentedAmount","type":"uint256","internalType":"uint256"},{"name":"remainingBalance","type":"uint256","internalType":"uint256"}]},{"type":"error","name":"GuardPolicy_UnauthorizedDelegateCall","inputs":[{"name":"to","type":"address","internalType":"address"}]},{"type":"error","name":"GuardPolicy_UnauthorizedExtension","inputs":[{"name":"extension","type":"address","internalType":"address"}]},{"type":"error","name":"GuardPolicy_UnauthorizedSelector","inputs":[{"name":"selector","type":"bytes4","internalType":"bytes4"}]},{"type":"error","name":"KernelAdapter_OnlyKernel","inputs":[{"name":"caller_","type":"address","internalType":"address"}]},{"type":"error","name":"Policy_ModuleDoesNotExist","inputs":[{"name":"keycode_","type":"bytes5","internalType":"Keycode"}]},{"type":"error","name":"Policy_OnlyRole","inputs":[{"name":"role_","type":"bytes32","internalType":"Role"}]},{"type":"error","name":"Shared_HookFailBytes","inputs":[{"name":"revertData","type":"bytes","internalType":"bytes"}]},{"type":"error","name":"Shared_HookFailString","inputs":[{"name":"revertReason","type":"string","internalType":"string"}]}],"bytecode":{"object":"0x608060405234801561001057600080fd5b506040516117a53803806117a583398101604081905261002f91610054565b600080546001600160a01b0319166001600160a01b0392909216919091179055610084565b60006020828403121561006657600080fd5b81516001600160a01b038116811461007d57600080fd5b9392505050565b611712806100936000396000f3fe608060405234801561001057600080fd5b50600436106100b45760003560e01c806375f0bb521161007157806375f0bb521461015d57806393271368146101705780639459b87514610182578063c9fa121e14610197578063d4aae0c4146101aa578063ec7404b1146101bd57600080fd5b806301ffc9a7146100b957806322f3e2d4146100e15780634657b36c146100f5578063507f14651461010a5780635924be70146101355780636c675c251461014a575b600080fd5b6100cc6100c73660046110ed565b6101d0565b60405190151581526020015b60405180910390f35b6000546100cc90600160a01b900460ff1681565b610108610103366004611136565b610207565b005b60015461011d906001600160a01b031681565b6040516001600160a01b0390911681526020016100d8565b61013d61025b565b6040516100d89190611153565b6101086101583660046111c6565b610373565b61010861016b3660046112c5565b610487565b61010861017e3660046113b8565b5050565b61018a610741565b6040516100d891906113dd565b6101086101a536600461142b565b610800565b60005461011d906001600160a01b031681565b6101086101cb36600461145f565b6108e1565b60006001600160e01b0319821663736bd41d60e11b148061020157506001600160e01b031982166301ffc9a760e01b145b92915050565b6000546001600160a01b031633146102395760405163053e900f60e21b81523360048201526024015b60405180910390fd5b600080546001600160a01b0319166001600160a01b0392909216919091179055565b6000546060906001600160a01b0316331461028b5760405163053e900f60e21b8152336004820152602401610230565b6040805160028082526060820190925290816020015b60408051808201909152600080825260208201528152602001906001900390816102a157905050905060405180604001604052806102e46453544f524560d81b90565b6001600160d81b0319168152636c675c2560e01b602090910152815182906000906103115761031161147c565b602002602001018190525060405180604001604052806103366453544f524560d81b90565b6001600160d81b03191681526364fd090f60e11b6020909101528151829060019081106103655761036561147c565b602002602001018190525090565b6a23aaa0a9222fa0a226a4a760a91b60008160005460405163ac4ab3fb60e01b8152336004820152602481018390529192506001600160a01b03169063ac4ab3fb90604401602060405180830381865afa1580156103d5573d6000803e3d6000fd5b505050506040513d601f19601f820116820180604052508101906103f99190611492565b610419576040516371324ef360e11b815260048101829052602401610230565b600154604051636c675c2560e01b81526001600160a01b038681166004830152858116602483015290911690636c675c25906044015b600060405180830381600087803b15801561046957600080fd5b505af115801561047d573d6000803e3d6000fd5b5050505050505050565b6000600189600181111561049d5761049d6114af565b60005491149150600160a01b900460ff16156105595780801561052b57506001546040516339eb092f60e11b81526001600160a01b038e81166004830152909116906373d6125e90602401602060405180830381865afa158015610505573d6000803e3d6000fd5b505050506040513d601f19601f820116820180604052508101906105299190611492565b155b1561055457604051635b03183160e01b81526001600160a01b038d166004820152602401610230565b61060c565b8015806105ee5750600160009054906101000a90046001600160a01b03166001600160a01b0316637bffb7286040518163ffffffff1660e01b8152600401602060405180830381865afa1580156105b4573d6000803e3d6000fd5b505050506040513d601f19601f820116820180604052508101906105d891906114c5565b6001600160a01b03168c6001600160a01b031614155b1561060c576040516301623f4160e51b815260040160405180910390fd5b600154604051634f18f47360e11b81526001600160a01b03808f1660048301528e928e928e926000921690639e31e8e690602401602060405180830381865afa15801561065d573d6000803e3d6000fd5b505050506040513d601f19601f8201168201806040525081019061068191906114c5565b60015460405163844c663b60e01b81526001600160a01b0380841660048301529293506000929091169063844c663b90602401602060405180830381865afa1580156106d1573d6000803e3d6000fd5b505050506040513d601f19601f820116820180604052508101906106f59190611492565b90506001600160a01b0382161580159061070c5750805b156107235761071e823387878761092c565b61072e565b61072e338685610a83565b5050505050505050505050505050505050565b6000546060906001600160a01b031633146107715760405163053e900f60e21b8152336004820152602401610230565b60408051600180825281830190925290602080830190803683370190505090506453544f524560d81b816000815181106107ad576107ad61147c565b6001600160d81b0319909216602092830291909101909101526107dd6107d86453544f524560d81b90565b610e12565b600180546001600160a01b0319166001600160a01b039290921691909117905590565b6a23aaa0a9222fa0a226a4a760a91b60008160005460405163ac4ab3fb60e01b8152336004820152602481018390529192506001600160a01b03169063ac4ab3fb90604401602060405180830381865afa158015610862573d6000803e3d6000fd5b505050506040513d601f19601f820116820180604052508101906108869190611492565b6108a6576040516371324ef360e11b815260048101829052602401610230565b6001546040516364fd090f60e11b81526001600160a01b03868116600483015260ff861660248301529091169063c9fa121e9060440161044f565b6000546001600160a01b0316331461090e5760405163053e900f60e21b8152336004820152602401610230565b60008054911515600160a01b0260ff60a01b19909216919091179055565b604051631f2afdcf60e31b81526001600160a01b0386169063f957ee789061095e908790879087908790600401611532565b600060405180830381600087803b15801561097857600080fd5b505af1925050508015610989575060015b610a7c5761099561156f565b806308c379a0036109cf57506109a961158b565b806109b45750610a31565b8060405163508b5be960e11b81526004016102309190611615565b634e487b7103610a31576109e1611628565b906109ec5750610a31565b60006109f782610ebe565b905080604051602001610a0a9190611648565b60408051601f198184030181529082905263508b5be960e11b825261023091600401611615565b3d808015610a5b576040519150601f19603f3d011682016040523d82523d6000602084013e610a60565b606091505b5080604051635871576160e01b81526004016102309190611615565b5050505050565b6020810151635ebde8f960e11b6001600160e01b0319821601610ac1576000610aad836064015190565b9050610abb82868684610f02565b50610e0c565b6323b9581160e11b6001600160e01b0319821601610ae6576000610aad836064015190565b63dc478d2360e01b6001600160e01b0319821601610b0b576000610aad836064015190565b63f6a1584d60e01b6001600160e01b0319821601610b30576000610aad836044015190565b6317ad327360e31b6001600160e01b0319821601610b55576000610aad836024015190565b6306dede6b60e11b6001600160e01b0319821601610b9f576000610b7a836064015190565b90506000610b89846084015190565b9050610b988387878585610fa1565b5050610e0c565b63056b3a9b60e11b6001600160e01b0319821601610bd3576000610bc4836044015190565b90506000610b89846064015190565b639ef4a6db60e01b6001600160e01b0319821601610c91576000610bf8836024015190565b60015460405163b526a07360e01b81526001600160a01b03808416600483015292935091169063b526a073906024015b602060405180830381865afa158015610c45573d6000803e3d6000fd5b505050506040513d601f19601f82011682018060405250810190610c699190611492565b610abb576040516326ebffcd60e21b81526001600160a01b0382166004820152602401610230565b630ffb181160e11b6001600160e01b0319821601610cea576000610cb6836044015190565b6001546040516361d666d160e11b81526001600160a01b03808416600483015292935091169063c3accda290602401610c28565b635dd34b9b60e01b6001600160e01b0319821601610d2457604051636062dc7760e01b81526102309063a22cb46560e01b9060040161168d565b6368a69e9560e11b6001600160e01b0319821601610d5e57604051636062dc7760e01b815261023090631759616b60e11b9060040161168d565b632537ceeb60e21b6001600160e01b0319821601610d9857604051636062dc7760e01b815261023090631ac8311560e21b9060040161168d565b631e65622760e01b6001600160e01b0319821601610dd257604051636062dc7760e01b81526102309063e19a9dd960e01b9060040161168d565b630f75fcdd60e01b6001600160e01b0319821601610e0c57604051636062dc7760e01b81526102309063f08a032360e01b9060040161168d565b50505050565b60008054604051632d37002d60e21b81526001600160d81b03198416600482015282916001600160a01b03169063b4dc00b490602401602060405180830381865afa158015610e65573d6000803e3d6000fd5b505050506040513d601f19601f82011682018060405250810190610e8991906114c5565b90506001600160a01b03811661020157604051635c3fa9cd60e01b81526001600160d81b031984166004820152602401610230565b60606080604051019050602081016040526000815280600019835b928101926030600a8206018453600a900480610ed9575050819003601f19909101908152919050565b6001546040516379f9bd6d60e01b81526001600160a01b03858116600483015284811660248301526044820184905260009216906379f9bd6d90606401602060405180830381865afa158015610f5c573d6000803e3d6000fd5b505050506040513d601f19601f82011682018060405250810190610f8091906116a2565b1115610e0c5783604051636062dc7760e01b8152600401610230919061168d565b6001546040516379f9bd6d60e01b81526001600160a01b03868116600483015285811660248301526044820185905260009216906379f9bd6d90606401602060405180830381865afa158015610ffb573d6000803e3d6000fd5b505050506040513d601f19601f8201168201806040525081019061101f91906116a2565b90508060000361102f5750610a7c565b604051627eeac760e11b81526001600160a01b038681166004830152602482018590526000919086169062fdd58e90604401602060405180830381865afa15801561107e573d6000803e3d6000fd5b505050506040513d601f19601f820116820180604052508101906110a291906116a2565b905060006110b084836116bb565b90508083111561047d57604051634e23041160e11b81526001600160e01b0319891660048201526024810184905260448101829052606401610230565b6000602082840312156110ff57600080fd5b81356001600160e01b03198116811461111757600080fd5b9392505050565b6001600160a01b038116811461113357600080fd5b50565b60006020828403121561114857600080fd5b81356111178161111e565b602080825282518282018190526000919060409081850190868401855b828110156111a957815180516001600160d81b03191685528601516001600160e01b031916868501529284019290850190600101611170565b5091979650505050505050565b80356111c18161111e565b919050565b600080604083850312156111d957600080fd5b82356111e48161111e565b915060208301356111f48161111e565b809150509250929050565b634e487b7160e01b600052604160045260246000fd5b601f8201601f1916810167ffffffffffffffff8111828210171561123b5761123b6111ff565b6040525050565b600082601f83011261125357600080fd5b813567ffffffffffffffff81111561126d5761126d6111ff565b604051611284601f8301601f191660200182611215565b81815284602083860101111561129957600080fd5b816020850160208301376000918101602001919091529392505050565b8035600281106111c157600080fd5b60008060008060008060008060008060006101608c8e0312156112e757600080fd5b6112f08c6111b6565b9a5060208c0135995067ffffffffffffffff8060408e0135111561131357600080fd5b6113238e60408f01358f01611242565b995061133160608e016112b6565b985060808d0135975060a08d0135965060c08d0135955061135460e08e016111b6565b94506113636101008e016111b6565b9350806101208e0135111561137757600080fd5b506113898d6101208e01358e01611242565b91506113986101408d016111b6565b90509295989b509295989b9093969950565b801515811461113357600080fd5b600080604083850312156113cb57600080fd5b8235915060208301356111f4816113aa565b6020808252825182820181905260009190848201906040850190845b8181101561141f5783516001600160d81b031916835292840192918401916001016113f9565b50909695505050505050565b6000806040838503121561143e57600080fd5b82356114498161111e565b9150602083013560ff811681146111f457600080fd5b60006020828403121561147157600080fd5b8135611117816113aa565b634e487b7160e01b600052603260045260246000fd5b6000602082840312156114a457600080fd5b8151611117816113aa565b634e487b7160e01b600052602160045260246000fd5b6000602082840312156114d757600080fd5b81516111178161111e565b60005b838110156114fd5781810151838201526020016114e5565b50506000910152565b6000815180845261151e8160208601602086016114e2565b601f01601f19169290920160200192915050565b6001600160a01b038581168252841660208201526040810183905260806060820181905260009061156590830184611506565b9695505050505050565b600060033d11156115885760046000803e5060005160e01c5b90565b600060443d10156115995790565b6040516003193d81016004833e81513d67ffffffffffffffff81602484011181841117156115c957505050505090565b82850191508151818111156115e15750505050505090565b843d87010160208285010111156115fb5750505050505090565b61160a60208286010187611215565b509095945050505050565b6020815260006111176020830184611506565b60008060233d1115611644576020600460003e50506000516001905b9091565b7f486f6f6b2072657665727465643a2050616e696320636f64652000000000000081526000825161168081601a8501602087016114e2565b91909101601a0192915050565b6001600160e01b031991909116815260200190565b6000602082840312156116b457600080fd5b5051919050565b8181038181111561020157634e487b7160e01b600052601160045260246000fdfea26469706673582212202bdbd1abfc781286a4c1d3d762769e8bfaee7f2435c4eb47026d5ee849c041de64736f6c63430008160033","linkReferences":{}},"methodIdentifiers":{"STORE()":"507f1465","changeKernel(address)":"4657b36c","checkAfterExecution(bytes32,bool)":"93271368","checkTransaction(address,uint256,bytes,uint8,uint256,uint256,uint256,address,address,bytes,address)":"75f0bb52","configureDependencies()":"9459b875","isActive()":"22f3e2d4","kernel()":"d4aae0c4","requestPermissions()":"5924be70","setActiveStatus(bool)":"ec7404b1","supportsInterface(bytes4)":"01ffc9a7","updateHookPath(address,address)":"6c675c25","updateHookStatus(address,uint8)":"c9fa121e"},"id":203}