{"abi":[{"type":"constructor","inputs":[{"name":"_createPolicy","type":"address","internalType":"address"},{"name":"_stopPolicy","type":"address","internalType":"address"},{"name":"_target","type":"address","internalType":"address"},{"name":"_restrictedToken","type":"address","internalType":"address"}],"stateMutability":"nonpayable"},{"type":"function","name":"activeRentals","inputs":[{"name":"renter","type":"address","internalType":"address"}],"outputs":[{"name":"count","type":"uint256","internalType":"uint256"}],"stateMutability":"view"},{"type":"function","name":"createPolicy","inputs":[],"outputs":[{"name":"","type":"address","internalType":"address"}],"stateMutability":"view"},{"type":"function","name":"functionSelectorBitmap","inputs":[{"name":"tokenId","type":"uint256","internalType":"uint256"}],"outputs":[{"name":"bitmap","type":"uint256","internalType":"uint256"}],"stateMutability":"view"},{"type":"function","name":"onStart","inputs":[{"name":"safe","type":"address","internalType":"address"},{"name":"token","type":"address","internalType":"address"},{"name":"identifier","type":"uint256","internalType":"uint256"},{"name":"","type":"uint256","internalType":"uint256"},{"name":"data","type":"bytes","internalType":"bytes"}],"outputs":[],"stateMutability":"nonpayable"},{"type":"function","name":"onStop","inputs":[{"name":"safe","type":"address","internalType":"address"},{"name":"token","type":"address","internalType":"address"},{"name":"identifier","type":"uint256","internalType":"uint256"},{"name":"","type":"uint256","internalType":"uint256"},{"name":"","type":"bytes","internalType":"bytes"}],"outputs":[],"stateMutability":"nonpayable"},{"type":"function","name":"onTransaction","inputs":[{"name":"safe","type":"address","internalType":"address"},{"name":"to","type":"address","internalType":"address"},{"name":"","type":"uint256","internalType":"uint256"},{"name":"data","type":"bytes","internalType":"bytes"}],"outputs":[],"stateMutability":"view"},{"type":"function","name":"restrictedToken","inputs":[],"outputs":[{"name":"","type":"address","internalType":"address"}],"stateMutability":"view"},{"type":"function","name":"stopPolicy","inputs":[],"outputs":[{"name":"","type":"address","internalType":"address"}],"stateMutability":"view"},{"type":"function","name":"target","inputs":[],"outputs":[{"name":"","type":"address","internalType":"address"}],"stateMutability":"view"}],"bytecode":{"object":"0x608060405234801561001057600080fd5b506040516109a13803806109a183398101604081905261002f9161009e565b600080546001600160a01b039586166001600160a01b03199182161790915560018054948616948216949094179093556002805492851692841692909217909155600380549190931691161790556100f2565b80516001600160a01b038116811461009957600080fd5b919050565b600080600080608085870312156100b457600080fd5b6100bd85610082565b93506100cb60208601610082565b92506100d960408601610082565b91506100e760608601610082565b905092959194509250565b6108a0806101016000396000f3fe608060405234801561001057600080fd5b50600436106100935760003560e01c8063c783f6de11610066578063c783f6de1461011e578063d4b8399214610131578063f578470c14610144578063f5aa1eee14610164578063f957ee781461017757600080fd5b80630747c995146100985780636dffb99b146100ad5780637079ba41146100dd578063a91a0ca31461010b575b600080fd5b6100ab6100a63660046106f6565b61018a565b005b6003546100c0906001600160a01b031681565b6040516001600160a01b0390911681526020015b60405180910390f35b6100fd6100eb366004610768565b60046020526000908152604090205481565b6040519081526020016100d4565b6000546100c0906001600160a01b031681565b6001546100c0906001600160a01b031681565b6002546100c0906001600160a01b031681565b6100fd610152366004610781565b60056020526000908152604090205481565b6100ab6101723660046106f6565b610281565b6100ab6101853660046107a3565b610397565b6001546001600160a01b031633146101e95760405162461bcd60e51b815260206004820152601f60248201527f6e6f742063616c6c61626c6520756e6c6573732073746f7020706f6c6963790060448201526064015b60405180910390fd5b60035484906001600160a01b038083169116146102415760405162461bcd60e51b81526020600482015260166024820152751d1bdad95b881a5cc81b9bdd081cdd5c1c1bdc9d195960521b60448201526064016101e0565b60008481526004602090815260408083208390556001600160a01b03891683526005909152812080549161027483610821565b9190505550505050505050565b6000546001600160a01b031633146102e55760405162461bcd60e51b815260206004820152602160248201527f6e6f742063616c6c61626c6520756e6c6573732063726561746520706f6c69636044820152607960f81b60648201526084016101e0565b60035484906001600160a01b0380831691161461033d5760405162461bcd60e51b81526020600482015260166024820152751d1bdad95b881a5cc81b9bdd081cdd5c1c1bdc9d195960521b60448201526064016101e0565b6000828060200190518101906103539190610838565b60008681526004602090815260408083208490556001600160a01b038b1683526005909152812080549293509061038983610851565b919050555050505050505050565b6002546001600160a01b0384811691161461040c5760405162461bcd60e51b815260206004820152602f60248201527f6f6e6c7920636865636b696e67207472616e73616374696f6e7320746f20746860448201526e194811d85b594818dbdb9d1c9858dd608a1b60648201526084016101e0565b602081015163c97ffb1360e01b6001600160e01b031982160161049a5760248201516104398160006105c9565b6104945760405162461bcd60e51b815260206004820152602660248201527f747261696e2829206e6f742063616c6c61626c6520666f72207468697320746f6044820152651ad95b88125960d21b60648201526084016101e0565b506105c2565b63c86f30a960e01b6001600160e01b031982160161051e5760248201516104c28160016105c9565b6104945760405162461bcd60e51b815260206004820152602760248201527f7265746972652829206e6f742063616c6c61626c6520666f72207468697320746044820152661bdad95b88125960ca1b60648201526084016101e0565b6391170e9160e01b6001600160e01b03198216016105c2576001600160a01b038516600090815260056020526040902054156105c25760405162461bcd60e51b815260206004820152603960248201527f6368616e67655465616d2829206e6f742063616c6c61626c65207768656e206860448201527f6f6c64696e6720612047616d65546f6b656e2072656e74616c0000000000000060648201526084016101e0565b5050505050565b6000610100821061061c5760405162461bcd60e51b815260206004820152601a60248201527f6269746d617020696e646578206f7574206f6620626f756e647300000000000060448201526064016101e0565b5060009182526004602052604090912054600190911b161590565b80356001600160a01b038116811461064e57600080fd5b919050565b634e487b7160e01b600052604160045260246000fd5b600082601f83011261067a57600080fd5b813567ffffffffffffffff8082111561069557610695610653565b604051601f8301601f19908116603f011681019082821181831017156106bd576106bd610653565b816040528381528660208588010111156106d657600080fd5b836020870160208301376000602085830101528094505050505092915050565b600080600080600060a0868803121561070e57600080fd5b61071786610637565b945061072560208701610637565b93506040860135925060608601359150608086013567ffffffffffffffff81111561074f57600080fd5b61075b88828901610669565b9150509295509295909350565b60006020828403121561077a57600080fd5b5035919050565b60006020828403121561079357600080fd5b61079c82610637565b9392505050565b600080600080608085870312156107b957600080fd5b6107c285610637565b93506107d060208601610637565b925060408501359150606085013567ffffffffffffffff8111156107f357600080fd5b6107ff87828801610669565b91505092959194509250565b634e487b7160e01b600052601160045260246000fd5b6000816108305761083061080b565b506000190190565b60006020828403121561084a57600080fd5b5051919050565b6000600182016108635761086361080b565b506001019056fea264697066735822122082ba132196fe46300d4d6f0445d990441f115a51273b7c6c22f404bb5e25caa364736f6c63430008160033","linkReferences":{}},"methodIdentifiers":{"activeRentals(address)":"f578470c","createPolicy()":"a91a0ca3","functionSelectorBitmap(uint256)":"7079ba41","onStart(address,address,uint256,uint256,bytes)":"f5aa1eee","onStop(address,address,uint256,uint256,bytes)":"0747c995","onTransaction(address,address,uint256,bytes)":"f957ee78","restrictedToken()":"6dffb99b","stopPolicy()":"c783f6de","target()":"d4b83992"},"id":116}