{"abi":[{"type":"constructor","inputs":[{"name":"kernel_","type":"address","internalType":"contract Kernel"}],"stateMutability":"nonpayable"},{"type":"function","name":"STORE","inputs":[],"outputs":[{"name":"","type":"address","internalType":"contract Storage"}],"stateMutability":"view"},{"type":"function","name":"changeKernel","inputs":[{"name":"newKernel_","type":"address","internalType":"contract Kernel"}],"outputs":[],"stateMutability":"nonpayable"},{"type":"function","name":"checkAfterExecution","inputs":[{"name":"txHash","type":"bytes32","internalType":"bytes32"},{"name":"success","type":"bool","internalType":"bool"}],"outputs":[],"stateMutability":"nonpayable"},{"type":"function","name":"checkTransaction","inputs":[{"name":"to","type":"address","internalType":"address"},{"name":"value","type":"uint256","internalType":"uint256"},{"name":"data","type":"bytes","internalType":"bytes"},{"name":"operation","type":"uint8","internalType":"enum Enum.Operation"},{"name":"","type":"uint256","internalType":"uint256"},{"name":"","type":"uint256","internalType":"uint256"},{"name":"","type":"uint256","internalType":"uint256"},{"name":"","type":"address","internalType":"address"},{"name":"","type":"address","internalType":"address payable"},{"name":"","type":"bytes","internalType":"bytes"},{"name":"","type":"address","internalType":"address"}],"outputs":[],"stateMutability":"nonpayable"},{"type":"function","name":"configureDependencies","inputs":[],"outputs":[{"name":"dependencies","type":"bytes5[]","internalType":"Keycode[]"}],"stateMutability":"nonpayable"},{"type":"function","name":"isActive","inputs":[],"outputs":[{"name":"","type":"bool","internalType":"bool"}],"stateMutability":"view"},{"type":"function","name":"kernel","inputs":[],"outputs":[{"name":"","type":"address","internalType":"contract Kernel"}],"stateMutability":"view"},{"type":"function","name":"requestPermissions","inputs":[],"outputs":[{"name":"requests","type":"tuple[]","internalType":"struct Permissions[]","components":[{"name":"keycode","type":"bytes5","internalType":"Keycode"},{"name":"funcSelector","type":"bytes4","internalType":"bytes4"}]}],"stateMutability":"view"},{"type":"function","name":"setActiveStatus","inputs":[{"name":"activate_","type":"bool","internalType":"bool"}],"outputs":[],"stateMutability":"nonpayable"},{"type":"function","name":"supportsInterface","inputs":[{"name":"interfaceId","type":"bytes4","internalType":"bytes4"}],"outputs":[{"name":"","type":"bool","internalType":"bool"}],"stateMutability":"view"},{"type":"function","name":"updateHookPath","inputs":[{"name":"to","type":"address","internalType":"address"},{"name":"hook","type":"address","internalType":"address"}],"outputs":[],"stateMutability":"nonpayable"},{"type":"function","name":"updateHookStatus","inputs":[{"name":"hook","type":"address","internalType":"address"},{"name":"bitmap","type":"uint8","internalType":"uint8"}],"outputs":[],"stateMutability":"nonpayable"},{"type":"function","name":"upgradeSuccess","inputs":[],"outputs":[{"name":"","type":"bool","internalType":"bool"}],"stateMutability":"pure"},{"type":"error","name":"GuardPolicy_Deactivated","inputs":[]},{"type":"error","name":"GuardPolicy_UnauthorizedAssetAmount","inputs":[{"name":"selector","type":"bytes4","internalType":"bytes4"},{"name":"rentedAmount","type":"uint256","internalType":"uint256"},{"name":"remainingBalance","type":"uint256","internalType":"uint256"}]},{"type":"error","name":"GuardPolicy_UnauthorizedDelegateCall","inputs":[{"name":"to","type":"address","internalType":"address"}]},{"type":"error","name":"GuardPolicy_UnauthorizedExtension","inputs":[{"name":"extension","type":"address","internalType":"address"}]},{"type":"error","name":"GuardPolicy_UnauthorizedSelector","inputs":[{"name":"selector","type":"bytes4","internalType":"bytes4"}]},{"type":"error","name":"KernelAdapter_OnlyKernel","inputs":[{"name":"caller_","type":"address","internalType":"address"}]},{"type":"error","name":"Policy_ModuleDoesNotExist","inputs":[{"name":"keycode_","type":"bytes5","internalType":"Keycode"}]},{"type":"error","name":"Policy_OnlyRole","inputs":[{"name":"role_","type":"bytes32","internalType":"Role"}]},{"type":"error","name":"Shared_HookFailBytes","inputs":[{"name":"revertData","type":"bytes","internalType":"bytes"}]},{"type":"error","name":"Shared_HookFailString","inputs":[{"name":"revertReason","type":"string","internalType":"string"}]}],"bytecode":{"object":"0x608060405234801561001057600080fd5b506040516117c73803806117c783398101604081905261002f91610054565b600080546001600160a01b0319166001600160a01b0392909216919091179055610084565b60006020828403121561006657600080fd5b81516001600160a01b038116811461007d57600080fd5b9392505050565b611734806100936000396000f3fe608060405234801561001057600080fd5b50600436106100cf5760003560e01c806375f0bb521161008c578063945c9e7311610066578063945c9e73146101b2578063c9fa121e146101b9578063d4aae0c4146101cc578063ec7404b1146101df57600080fd5b806375f0bb5214610178578063932713681461018b5780639459b8751461019d57600080fd5b806301ffc9a7146100d457806322f3e2d4146100fc5780634657b36c14610110578063507f1465146101255780635924be70146101505780636c675c2514610165575b600080fd5b6100e76100e236600461110f565b6101f2565b60405190151581526020015b60405180910390f35b6000546100e790600160a01b900460ff1681565b61012361011e366004611158565b610229565b005b600154610138906001600160a01b031681565b6040516001600160a01b0390911681526020016100f3565b61015861027d565b6040516100f39190611175565b6101236101733660046111e8565b610395565b6101236101863660046112e7565b6104a9565b6101236101993660046113da565b5050565b6101a5610763565b6040516100f391906113ff565b60016100e7565b6101236101c736600461144d565b610822565b600054610138906001600160a01b031681565b6101236101ed366004611481565b610903565b60006001600160e01b0319821663736bd41d60e11b148061022357506001600160e01b031982166301ffc9a760e01b145b92915050565b6000546001600160a01b0316331461025b5760405163053e900f60e21b81523360048201526024015b60405180910390fd5b600080546001600160a01b0319166001600160a01b0392909216919091179055565b6000546060906001600160a01b031633146102ad5760405163053e900f60e21b8152336004820152602401610252565b6040805160028082526060820190925290816020015b60408051808201909152600080825260208201528152602001906001900390816102c357905050905060405180604001604052806103066453544f524560d81b90565b6001600160d81b0319168152636c675c2560e01b602090910152815182906000906103335761033361149e565b602002602001018190525060405180604001604052806103586453544f524560d81b90565b6001600160d81b03191681526364fd090f60e11b6020909101528151829060019081106103875761038761149e565b602002602001018190525090565b6a23aaa0a9222fa0a226a4a760a91b60008160005460405163ac4ab3fb60e01b8152336004820152602481018390529192506001600160a01b03169063ac4ab3fb90604401602060405180830381865afa1580156103f7573d6000803e3d6000fd5b505050506040513d601f19601f8201168201806040525081019061041b91906114b4565b61043b576040516371324ef360e11b815260048101829052602401610252565b600154604051636c675c2560e01b81526001600160a01b038681166004830152858116602483015290911690636c675c25906044015b600060405180830381600087803b15801561048b57600080fd5b505af115801561049f573d6000803e3d6000fd5b5050505050505050565b600060018960018111156104bf576104bf6114d1565b60005491149150600160a01b900460ff161561057b5780801561054d57506001546040516339eb092f60e11b81526001600160a01b038e81166004830152909116906373d6125e90602401602060405180830381865afa158015610527573d6000803e3d6000fd5b505050506040513d601f19601f8201168201806040525081019061054b91906114b4565b155b1561057657604051635b03183160e01b81526001600160a01b038d166004820152602401610252565b61062e565b8015806106105750600160009054906101000a90046001600160a01b03166001600160a01b0316637bffb7286040518163ffffffff1660e01b8152600401602060405180830381865afa1580156105d6573d6000803e3d6000fd5b505050506040513d601f19601f820116820180604052508101906105fa91906114e7565b6001600160a01b03168c6001600160a01b031614155b1561062e576040516301623f4160e51b815260040160405180910390fd5b600154604051634f18f47360e11b81526001600160a01b03808f1660048301528e928e928e926000921690639e31e8e690602401602060405180830381865afa15801561067f573d6000803e3d6000fd5b505050506040513d601f19601f820116820180604052508101906106a391906114e7565b60015460405163844c663b60e01b81526001600160a01b0380841660048301529293506000929091169063844c663b90602401602060405180830381865afa1580156106f3573d6000803e3d6000fd5b505050506040513d601f19601f8201168201806040525081019061071791906114b4565b90506001600160a01b0382161580159061072e5750805b1561074557610740823387878761094e565b610750565b610750338685610aa5565b5050505050505050505050505050505050565b6000546060906001600160a01b031633146107935760405163053e900f60e21b8152336004820152602401610252565b60408051600180825281830190925290602080830190803683370190505090506453544f524560d81b816000815181106107cf576107cf61149e565b6001600160d81b0319909216602092830291909101909101526107ff6107fa6453544f524560d81b90565b610e34565b600180546001600160a01b0319166001600160a01b039290921691909117905590565b6a23aaa0a9222fa0a226a4a760a91b60008160005460405163ac4ab3fb60e01b8152336004820152602481018390529192506001600160a01b03169063ac4ab3fb90604401602060405180830381865afa158015610884573d6000803e3d6000fd5b505050506040513d601f19601f820116820180604052508101906108a891906114b4565b6108c8576040516371324ef360e11b815260048101829052602401610252565b6001546040516364fd090f60e11b81526001600160a01b03868116600483015260ff861660248301529091169063c9fa121e90604401610471565b6000546001600160a01b031633146109305760405163053e900f60e21b8152336004820152602401610252565b60008054911515600160a01b0260ff60a01b19909216919091179055565b604051631f2afdcf60e31b81526001600160a01b0386169063f957ee7890610980908790879087908790600401611554565b600060405180830381600087803b15801561099a57600080fd5b505af19250505080156109ab575060015b610a9e576109b7611591565b806308c379a0036109f157506109cb6115ad565b806109d65750610a53565b8060405163508b5be960e11b81526004016102529190611637565b634e487b7103610a5357610a0361164a565b90610a0e5750610a53565b6000610a1982610ee0565b905080604051602001610a2c919061166a565b60408051601f198184030181529082905263508b5be960e11b825261025291600401611637565b3d808015610a7d576040519150601f19603f3d011682016040523d82523d6000602084013e610a82565b606091505b5080604051635871576160e01b81526004016102529190611637565b5050505050565b6020810151635ebde8f960e11b6001600160e01b0319821601610ae3576000610acf836064015190565b9050610add82868684610f24565b50610e2e565b6323b9581160e11b6001600160e01b0319821601610b08576000610acf836064015190565b63dc478d2360e01b6001600160e01b0319821601610b2d576000610acf836064015190565b63f6a1584d60e01b6001600160e01b0319821601610b52576000610acf836044015190565b6317ad327360e31b6001600160e01b0319821601610b77576000610acf836024015190565b6306dede6b60e11b6001600160e01b0319821601610bc1576000610b9c836064015190565b90506000610bab846084015190565b9050610bba8387878585610fc3565b5050610e2e565b63056b3a9b60e11b6001600160e01b0319821601610bf5576000610be6836044015190565b90506000610bab846064015190565b639ef4a6db60e01b6001600160e01b0319821601610cb3576000610c1a836024015190565b60015460405163b526a07360e01b81526001600160a01b03808416600483015292935091169063b526a073906024015b602060405180830381865afa158015610c67573d6000803e3d6000fd5b505050506040513d601f19601f82011682018060405250810190610c8b91906114b4565b610add576040516326ebffcd60e21b81526001600160a01b0382166004820152602401610252565b630ffb181160e11b6001600160e01b0319821601610d0c576000610cd8836044015190565b6001546040516361d666d160e11b81526001600160a01b03808416600483015292935091169063c3accda290602401610c4a565b635dd34b9b60e01b6001600160e01b0319821601610d4657604051636062dc7760e01b81526102529063a22cb46560e01b906004016116af565b6368a69e9560e11b6001600160e01b0319821601610d8057604051636062dc7760e01b815261025290631759616b60e11b906004016116af565b632537ceeb60e21b6001600160e01b0319821601610dba57604051636062dc7760e01b815261025290631ac8311560e21b906004016116af565b631e65622760e01b6001600160e01b0319821601610df457604051636062dc7760e01b81526102529063e19a9dd960e01b906004016116af565b630f75fcdd60e01b6001600160e01b0319821601610e2e57604051636062dc7760e01b81526102529063f08a032360e01b906004016116af565b50505050565b60008054604051632d37002d60e21b81526001600160d81b03198416600482015282916001600160a01b03169063b4dc00b490602401602060405180830381865afa158015610e87573d6000803e3d6000fd5b505050506040513d601f19601f82011682018060405250810190610eab91906114e7565b90506001600160a01b03811661022357604051635c3fa9cd60e01b81526001600160d81b031984166004820152602401610252565b60606080604051019050602081016040526000815280600019835b928101926030600a8206018453600a900480610efb575050819003601f19909101908152919050565b6001546040516379f9bd6d60e01b81526001600160a01b03858116600483015284811660248301526044820184905260009216906379f9bd6d90606401602060405180830381865afa158015610f7e573d6000803e3d6000fd5b505050506040513d601f19601f82011682018060405250810190610fa291906116c4565b1115610e2e5783604051636062dc7760e01b815260040161025291906116af565b6001546040516379f9bd6d60e01b81526001600160a01b03868116600483015285811660248301526044820185905260009216906379f9bd6d90606401602060405180830381865afa15801561101d573d6000803e3d6000fd5b505050506040513d601f19601f8201168201806040525081019061104191906116c4565b9050806000036110515750610a9e565b604051627eeac760e11b81526001600160a01b038681166004830152602482018590526000919086169062fdd58e90604401602060405180830381865afa1580156110a0573d6000803e3d6000fd5b505050506040513d601f19601f820116820180604052508101906110c491906116c4565b905060006110d284836116dd565b90508083111561049f57604051634e23041160e11b81526001600160e01b0319891660048201526024810184905260448101829052606401610252565b60006020828403121561112157600080fd5b81356001600160e01b03198116811461113957600080fd5b9392505050565b6001600160a01b038116811461115557600080fd5b50565b60006020828403121561116a57600080fd5b813561113981611140565b602080825282518282018190526000919060409081850190868401855b828110156111cb57815180516001600160d81b03191685528601516001600160e01b031916868501529284019290850190600101611192565b5091979650505050505050565b80356111e381611140565b919050565b600080604083850312156111fb57600080fd5b823561120681611140565b9150602083013561121681611140565b809150509250929050565b634e487b7160e01b600052604160045260246000fd5b601f8201601f1916810167ffffffffffffffff8111828210171561125d5761125d611221565b6040525050565b600082601f83011261127557600080fd5b813567ffffffffffffffff81111561128f5761128f611221565b6040516112a6601f8301601f191660200182611237565b8181528460208386010111156112bb57600080fd5b816020850160208301376000918101602001919091529392505050565b8035600281106111e357600080fd5b60008060008060008060008060008060006101608c8e03121561130957600080fd5b6113128c6111d8565b9a5060208c0135995067ffffffffffffffff8060408e0135111561133557600080fd5b6113458e60408f01358f01611264565b995061135360608e016112d8565b985060808d0135975060a08d0135965060c08d0135955061137660e08e016111d8565b94506113856101008e016111d8565b9350806101208e0135111561139957600080fd5b506113ab8d6101208e01358e01611264565b91506113ba6101408d016111d8565b90509295989b509295989b9093969950565b801515811461115557600080fd5b600080604083850312156113ed57600080fd5b823591506020830135611216816113cc565b6020808252825182820181905260009190848201906040850190845b818110156114415783516001600160d81b0319168352928401929184019160010161141b565b50909695505050505050565b6000806040838503121561146057600080fd5b823561146b81611140565b9150602083013560ff8116811461121657600080fd5b60006020828403121561149357600080fd5b8135611139816113cc565b634e487b7160e01b600052603260045260246000fd5b6000602082840312156114c657600080fd5b8151611139816113cc565b634e487b7160e01b600052602160045260246000fd5b6000602082840312156114f957600080fd5b815161113981611140565b60005b8381101561151f578181015183820152602001611507565b50506000910152565b60008151808452611540816020860160208601611504565b601f01601f19169290920160200192915050565b6001600160a01b038581168252841660208201526040810183905260806060820181905260009061158790830184611528565b9695505050505050565b600060033d11156115aa5760046000803e5060005160e01c5b90565b600060443d10156115bb5790565b6040516003193d81016004833e81513d67ffffffffffffffff81602484011181841117156115eb57505050505090565b82850191508151818111156116035750505050505090565b843d870101602082850101111561161d5750505050505090565b61162c60208286010187611237565b509095945050505050565b6020815260006111396020830184611528565b60008060233d1115611666576020600460003e50506000516001905b9091565b7f486f6f6b2072657665727465643a2050616e696320636f6465200000000000008152600082516116a281601a850160208701611504565b91909101601a0192915050565b6001600160e01b031991909116815260200190565b6000602082840312156116d657600080fd5b5051919050565b8181038181111561022357634e487b7160e01b600052601160045260246000fdfea264697066735822122041c8aa35a154cf22e48fe955ad212107877d34c148142d245d7e60236582f6e664736f6c63430008160033","linkReferences":{}},"methodIdentifiers":{"STORE()":"507f1465","changeKernel(address)":"4657b36c","checkAfterExecution(bytes32,bool)":"93271368","checkTransaction(address,uint256,bytes,uint8,uint256,uint256,uint256,address,address,bytes,address)":"75f0bb52","configureDependencies()":"9459b875","isActive()":"22f3e2d4","kernel()":"d4aae0c4","requestPermissions()":"5924be70","setActiveStatus(bool)":"ec7404b1","supportsInterface(bytes4)":"01ffc9a7","updateHookPath(address,address)":"6c675c25","updateHookStatus(address,uint8)":"c9fa121e","upgradeSuccess()":"945c9e73"},"id":172}