{"abi":[{"type":"fallback","stateMutability":"nonpayable"},{"type":"receive","stateMutability":"payable"},{"type":"function","name":"VERSION","inputs":[],"outputs":[{"name":"","type":"string","internalType":"string"}],"stateMutability":"view"},{"type":"function","name":"addOwnerWithThreshold","inputs":[{"name":"owner","type":"address","internalType":"address"},{"name":"_threshold","type":"uint256","internalType":"uint256"}],"outputs":[],"stateMutability":"nonpayable"},{"type":"function","name":"approveHash","inputs":[{"name":"hashToApprove","type":"bytes32","internalType":"bytes32"}],"outputs":[],"stateMutability":"nonpayable"},{"type":"function","name":"approvedHashes","inputs":[{"name":"","type":"address","internalType":"address"},{"name":"","type":"bytes32","internalType":"bytes32"}],"outputs":[{"name":"","type":"uint256","internalType":"uint256"}],"stateMutability":"view"},{"type":"function","name":"changeThreshold","inputs":[{"name":"_threshold","type":"uint256","internalType":"uint256"}],"outputs":[],"stateMutability":"nonpayable"},{"type":"function","name":"checkNSignatures","inputs":[{"name":"dataHash","type":"bytes32","internalType":"bytes32"},{"name":"data","type":"bytes","internalType":"bytes"},{"name":"signatures","type":"bytes","internalType":"bytes"},{"name":"requiredSignatures","type":"uint256","internalType":"uint256"}],"outputs":[],"stateMutability":"view"},{"type":"function","name":"checkSignatures","inputs":[{"name":"dataHash","type":"bytes32","internalType":"bytes32"},{"name":"data","type":"bytes","internalType":"bytes"},{"name":"signatures","type":"bytes","internalType":"bytes"}],"outputs":[],"stateMutability":"view"},{"type":"function","name":"disableModule","inputs":[{"name":"prevModule","type":"address","internalType":"address"},{"name":"module","type":"address","internalType":"address"}],"outputs":[],"stateMutability":"nonpayable"},{"type":"function","name":"domainSeparator","inputs":[],"outputs":[{"name":"","type":"bytes32","internalType":"bytes32"}],"stateMutability":"view"},{"type":"function","name":"enableModule","inputs":[{"name":"module","type":"address","internalType":"address"}],"outputs":[],"stateMutability":"nonpayable"},{"type":"function","name":"encodeTransactionData","inputs":[{"name":"to","type":"address","internalType":"address"},{"name":"value","type":"uint256","internalType":"uint256"},{"name":"data","type":"bytes","internalType":"bytes"},{"name":"operation","type":"uint8","internalType":"enum Enum.Operation"},{"name":"safeTxGas","type":"uint256","internalType":"uint256"},{"name":"baseGas","type":"uint256","internalType":"uint256"},{"name":"gasPrice","type":"uint256","internalType":"uint256"},{"name":"gasToken","type":"address","internalType":"address"},{"name":"refundReceiver","type":"address","internalType":"address"},{"name":"_nonce","type":"uint256","internalType":"uint256"}],"outputs":[{"name":"","type":"bytes","internalType":"bytes"}],"stateMutability":"view"},{"type":"function","name":"execTransaction","inputs":[{"name":"to","type":"address","internalType":"address"},{"name":"value","type":"uint256","internalType":"uint256"},{"name":"data","type":"bytes","internalType":"bytes"},{"name":"operation","type":"uint8","internalType":"enum Enum.Operation"},{"name":"safeTxGas","type":"uint256","internalType":"uint256"},{"name":"baseGas","type":"uint256","internalType":"uint256"},{"name":"gasPrice","type":"uint256","internalType":"uint256"},{"name":"gasToken","type":"address","internalType":"address"},{"name":"refundReceiver","type":"address","internalType":"address payable"},{"name":"signatures","type":"bytes","internalType":"bytes"}],"outputs":[{"name":"","type":"bool","internalType":"bool"}],"stateMutability":"payable"},{"type":"function","name":"execTransactionFromModule","inputs":[{"name":"to","type":"address","internalType":"address"},{"name":"value","type":"uint256","internalType":"uint256"},{"name":"data","type":"bytes","internalType":"bytes"},{"name":"operation","type":"uint8","internalType":"enum Enum.Operation"}],"outputs":[{"name":"success","type":"bool","internalType":"bool"}],"stateMutability":"nonpayable"},{"type":"function","name":"execTransactionFromModuleReturnData","inputs":[{"name":"to","type":"address","internalType":"address"},{"name":"value","type":"uint256","internalType":"uint256"},{"name":"data","type":"bytes","internalType":"bytes"},{"name":"operation","type":"uint8","internalType":"enum Enum.Operation"}],"outputs":[{"name":"success","type":"bool","internalType":"bool"},{"name":"returnData","type":"bytes","internalType":"bytes"}],"stateMutability":"nonpayable"},{"type":"function","name":"getChainId","inputs":[],"outputs":[{"name":"","type":"uint256","internalType":"uint256"}],"stateMutability":"view"},{"type":"function","name":"getModulesPaginated","inputs":[{"name":"start","type":"address","internalType":"address"},{"name":"pageSize","type":"uint256","internalType":"uint256"}],"outputs":[{"name":"array","type":"address[]","internalType":"address[]"},{"name":"next","type":"address","internalType":"address"}],"stateMutability":"view"},{"type":"function","name":"getOwners","inputs":[],"outputs":[{"name":"","type":"address[]","internalType":"address[]"}],"stateMutability":"view"},{"type":"function","name":"getStorageAt","inputs":[{"name":"offset","type":"uint256","internalType":"uint256"},{"name":"length","type":"uint256","internalType":"uint256"}],"outputs":[{"name":"","type":"bytes","internalType":"bytes"}],"stateMutability":"view"},{"type":"function","name":"getThreshold","inputs":[],"outputs":[{"name":"","type":"uint256","internalType":"uint256"}],"stateMutability":"view"},{"type":"function","name":"getTransactionHash","inputs":[{"name":"to","type":"address","internalType":"address"},{"name":"value","type":"uint256","internalType":"uint256"},{"name":"data","type":"bytes","internalType":"bytes"},{"name":"operation","type":"uint8","internalType":"enum Enum.Operation"},{"name":"safeTxGas","type":"uint256","internalType":"uint256"},{"name":"baseGas","type":"uint256","internalType":"uint256"},{"name":"gasPrice","type":"uint256","internalType":"uint256"},{"name":"gasToken","type":"address","internalType":"address"},{"name":"refundReceiver","type":"address","internalType":"address"},{"name":"_nonce","type":"uint256","internalType":"uint256"}],"outputs":[{"name":"","type":"bytes32","internalType":"bytes32"}],"stateMutability":"view"},{"type":"function","name":"isModuleEnabled","inputs":[{"name":"module","type":"address","internalType":"address"}],"outputs":[{"name":"","type":"bool","internalType":"bool"}],"stateMutability":"view"},{"type":"function","name":"isOwner","inputs":[{"name":"owner","type":"address","internalType":"address"}],"outputs":[{"name":"","type":"bool","internalType":"bool"}],"stateMutability":"view"},{"type":"function","name":"nonce","inputs":[],"outputs":[{"name":"","type":"uint256","internalType":"uint256"}],"stateMutability":"view"},{"type":"function","name":"removeOwner","inputs":[{"name":"prevOwner","type":"address","internalType":"address"},{"name":"owner","type":"address","internalType":"address"},{"name":"_threshold","type":"uint256","internalType":"uint256"}],"outputs":[],"stateMutability":"nonpayable"},{"type":"function","name":"setFallbackHandler","inputs":[{"name":"handler","type":"address","internalType":"address"}],"outputs":[],"stateMutability":"nonpayable"},{"type":"function","name":"setGuard","inputs":[{"name":"guard","type":"address","internalType":"address"}],"outputs":[],"stateMutability":"nonpayable"},{"type":"function","name":"setup","inputs":[{"name":"_owners","type":"address[]","internalType":"address[]"},{"name":"_threshold","type":"uint256","internalType":"uint256"},{"name":"to","type":"address","internalType":"address"},{"name":"data","type":"bytes","internalType":"bytes"},{"name":"fallbackHandler","type":"address","internalType":"address"},{"name":"paymentToken","type":"address","internalType":"address"},{"name":"payment","type":"uint256","internalType":"uint256"},{"name":"paymentReceiver","type":"address","internalType":"address payable"}],"outputs":[],"stateMutability":"nonpayable"},{"type":"function","name":"signedMessages","inputs":[{"name":"","type":"bytes32","internalType":"bytes32"}],"outputs":[{"name":"","type":"uint256","internalType":"uint256"}],"stateMutability":"view"},{"type":"function","name":"simulateAndRevert","inputs":[{"name":"targetContract","type":"address","internalType":"address"},{"name":"calldataPayload","type":"bytes","internalType":"bytes"}],"outputs":[],"stateMutability":"nonpayable"},{"type":"function","name":"swapOwner","inputs":[{"name":"prevOwner","type":"address","internalType":"address"},{"name":"oldOwner","type":"address","internalType":"address"},{"name":"newOwner","type":"address","internalType":"address"}],"outputs":[],"stateMutability":"nonpayable"},{"type":"event","name":"AddedOwner","inputs":[{"name":"owner","type":"address","indexed":true,"internalType":"address"}],"anonymous":false},{"type":"event","name":"ApproveHash","inputs":[{"name":"approvedHash","type":"bytes32","indexed":true,"internalType":"bytes32"},{"name":"owner","type":"address","indexed":true,"internalType":"address"}],"anonymous":false},{"type":"event","name":"ChangedFallbackHandler","inputs":[{"name":"handler","type":"address","indexed":true,"internalType":"address"}],"anonymous":false},{"type":"event","name":"ChangedGuard","inputs":[{"name":"guard","type":"address","indexed":true,"internalType":"address"}],"anonymous":false},{"type":"event","name":"ChangedThreshold","inputs":[{"name":"threshold","type":"uint256","indexed":false,"internalType":"uint256"}],"anonymous":false},{"type":"event","name":"DisabledModule","inputs":[{"name":"module","type":"address","indexed":true,"internalType":"address"}],"anonymous":false},{"type":"event","name":"EnabledModule","inputs":[{"name":"module","type":"address","indexed":true,"internalType":"address"}],"anonymous":false},{"type":"event","name":"ExecutionFailure","inputs":[{"name":"txHash","type":"bytes32","indexed":true,"internalType":"bytes32"},{"name":"payment","type":"uint256","indexed":false,"internalType":"uint256"}],"anonymous":false},{"type":"event","name":"ExecutionFromModuleFailure","inputs":[{"name":"module","type":"address","indexed":true,"internalType":"address"}],"anonymous":false},{"type":"event","name":"ExecutionFromModuleSuccess","inputs":[{"name":"module","type":"address","indexed":true,"internalType":"address"}],"anonymous":false},{"type":"event","name":"ExecutionSuccess","inputs":[{"name":"txHash","type":"bytes32","indexed":true,"internalType":"bytes32"},{"name":"payment","type":"uint256","indexed":false,"internalType":"uint256"}],"anonymous":false},{"type":"event","name":"RemovedOwner","inputs":[{"name":"owner","type":"address","indexed":true,"internalType":"address"}],"anonymous":false},{"type":"event","name":"SafeModuleTransaction","inputs":[{"name":"module","type":"address","indexed":false,"internalType":"address"},{"name":"to","type":"address","indexed":false,"internalType":"address"},{"name":"value","type":"uint256","indexed":false,"internalType":"uint256"},{"name":"data","type":"bytes","indexed":false,"internalType":"bytes"},{"name":"operation","type":"uint8","indexed":false,"internalType":"enum Enum.Operation"}],"anonymous":false},{"type":"event","name":"SafeMultiSigTransaction","inputs":[{"name":"to","type":"address","indexed":false,"internalType":"address"},{"name":"value","type":"uint256","indexed":false,"internalType":"uint256"},{"name":"data","type":"bytes","indexed":false,"internalType":"bytes"},{"name":"operation","type":"uint8","indexed":false,"internalType":"enum Enum.Operation"},{"name":"safeTxGas","type":"uint256","indexed":false,"internalType":"uint256"},{"name":"baseGas","type":"uint256","indexed":false,"internalType":"uint256"},{"name":"gasPrice","type":"uint256","indexed":false,"internalType":"uint256"},{"name":"gasToken","type":"address","indexed":false,"internalType":"address"},{"name":"refundReceiver","type":"address","indexed":false,"internalType":"address payable"},{"name":"signatures","type":"bytes","indexed":false,"internalType":"bytes"},{"name":"additionalInfo","type":"bytes","indexed":false,"internalType":"bytes"}],"anonymous":false},{"type":"event","name":"SafeReceived","inputs":[{"name":"sender","type":"address","indexed":true,"internalType":"address"},{"name":"value","type":"uint256","indexed":false,"internalType":"uint256"}],"anonymous":false},{"type":"event","name":"SafeSetup","inputs":[{"name":"initiator","type":"address","indexed":true,"internalType":"address"},{"name":"owners","type":"address[]","indexed":false,"internalType":"address[]"},{"name":"threshold","type":"uint256","indexed":false,"internalType":"uint256"},{"name":"initializer","type":"address","indexed":false,"internalType":"address"},{"name":"fallbackHandler","type":"address","indexed":false,"internalType":"address"}],"anonymous":false},{"type":"event","name":"SignMsg","inputs":[{"name":"msgHash","type":"bytes32","indexed":true,"internalType":"bytes32"}],"anonymous":false}],"bytecode":{"object":"0x608060405234801561001057600080fd5b506001600455613293806100256000396000f3fe6080604052600436106101d15760003560e01c8063affed0e0116100f7578063e19a9dd911610095578063f08a032311610064578063f08a0323146105f5578063f698da2514610615578063f8dc5dd91461062a578063ffa1ad741461064a5761020d565b8063e19a9dd914610580578063e318b52b146105a0578063e75235b8146105c0578063e86637db146105d55761020d565b8063cc2f8452116100d1578063cc2f8452146104f2578063d4d9bdcd14610520578063d8d11f7814610540578063e009cfde146105605761020d565b8063affed0e01461049c578063b4faba09146104b2578063b63e800d146104d25761020d565b80635624b25b1161016f5780636a7612021161013e5780636a7612021461040f5780637d83297414610422578063934f3a111461045a578063a0e67e2b1461047a5761020d565b80635624b25b146103755780635ae6bd37146103a2578063610b5925146103cf578063694e80c3146103ef5761020d565b80632f54bf6e116101ab5780632f54bf6e146102ea5780633408e4701461030a578063468721a7146103275780635229073f146103475761020d565b80630d582f131461027357806312fb68e0146102955780632d9ad53d146102b55761020d565b3661020d5760405134815233907f3d0ce9bfc3ed7d6862dbb28b2dea94561fe714a1b4d019aa8af39730d1ad7c3d9060200160405180910390a2005b34801561021957600080fd5b507f6c9a6c4a39284e37ed1cf53d337577d14212a4870fb976a4366c693b939918d580548061024457005b36600080373360601b365260008060143601600080855af190503d6000803e8061026d573d6000fd5b503d6000f35b34801561027f57600080fd5b5061029361028e36600461269b565b61067b565b005b3480156102a157600080fd5b506102936102b036600461276a565b6107d3565b3480156102c157600080fd5b506102d56102d03660046127df565b610c72565b60405190151581526020015b60405180910390f35b3480156102f657600080fd5b506102d56103053660046127df565b610cad565b34801561031657600080fd5b50465b6040519081526020016102e1565b34801561033357600080fd5b506102d561034236600461280b565b610ce5565b34801561035357600080fd5b5061036761036236600461280b565b610d3b565b6040516102e19291906128bb565b34801561038157600080fd5b506103956103903660046128d6565b610d71565b6040516102e191906128f8565b3480156103ae57600080fd5b506103196103bd36600461290b565b60076020526000908152604090205481565b3480156103db57600080fd5b506102936103ea3660046127df565b610ded565b3480156103fb57600080fd5b5061029361040a36600461290b565b610f26565b6102d561041d36600461296d565b610fc4565b34801561042e57600080fd5b5061031961043d36600461269b565b600860209081526000928352604080842090915290825290205481565b34801561046657600080fd5b50610293610475366004612a46565b61106c565b34801561048657600080fd5b5061048f6110b6565b6040516102e19190612af8565b3480156104a857600080fd5b5061031960055481565b3480156104be57600080fd5b506102936104cd366004612b0b565b6111a7565b3480156104de57600080fd5b506102936104ed366004612b5b565b6111ca565b3480156104fe57600080fd5b5061051261050d36600461269b565b6112cc565b6040516102e1929190612c50565b34801561052c57600080fd5b5061029361053b36600461290b565b611488565b34801561054c57600080fd5b5061031961055b366004612c7a565b61151d565b34801561056c57600080fd5b5061029361057b366004612d3b565b61154a565b34801561058c57600080fd5b5061029361059b3660046127df565b61166c565b3480156105ac57600080fd5b506102936105bb366004612d74565b611782565b3480156105cc57600080fd5b50600454610319565b3480156105e157600080fd5b506103956105f0366004612c7a565b61195d565b34801561060157600080fd5b506102936106103660046127df565b611a36565b34801561062157600080fd5b50610319611a7e565b34801561063657600080fd5b50610293610645366004612dbf565b611ad5565b34801561065657600080fd5b5061039560405180604001604052806005815260200164312e342e3160d81b81525081565b610683611c40565b6001600160a01b038216158015906106a557506001600160a01b038216600114155b80156106ba57506001600160a01b0382163014155b6106df5760405162461bcd60e51b81526004016106d690612e00565b60405180910390fd5b6001600160a01b0382811660009081526002602052604090205416156107175760405162461bcd60e51b81526004016106d690612e1f565b60026020527fe90b7bceb6e7df5418fb78d8ee546e97c83a08bbccc01a0644d599ccd2a7c2e080546001600160a01b038481166000818152604081208054939094166001600160a01b03199384161790935560018352835490911617909155600380549161078483612e54565b90915550506040516001600160a01b038316907f9465fa0c962cc76958e6373a993326400c1c94f8be2fe3a952adfa7f60b2ea2690600090a280600454146107cf576107cf81610f26565b5050565b6107de816041611c79565b825110156108165760405162461bcd60e51b8152602060048201526005602482015264047533032360dc1b60448201526064016106d6565b6000808060008060005b86811015610c66576041818102890160208101516040820151919092015160ff16955090935091506000849003610a2e57885160208a01208a1461088e5760405162461bcd60e51b8152602060048201526005602482015264475330323760d81b60448201526064016106d6565b919350839161089e876041611c79565b8210156108d55760405162461bcd60e51b8152602060048201526005602482015264475330323160d81b60448201526064016106d6565b87516108e2836020611cb5565b11156109185760405162461bcd60e51b815260206004820152600560248201526423a998191960d91b60448201526064016106d6565b60208289018101518951909161093b908390610935908790611cb5565b90611cb5565b11156109715760405162461bcd60e51b8152602060048201526005602482015264475330323360d81b60448201526064016106d6565b6040516320c13b0b60e01b8082528a8501602001916001600160a01b038916906320c13b0b906109a7908f908690600401612e6d565b602060405180830381865afa1580156109c4573d6000803e3d6000fd5b505050506040513d601f19601f820116820180604052508101906109e89190612e92565b6001600160e01b03191614610a275760405162461bcd60e51b815260206004820152600560248201526411d4cc0c8d60da1b60448201526064016106d6565b5050610bd5565b8360ff16600103610ab0579193508391336001600160a01b0384161480610a7757506001600160a01b03851660009081526008602090815260408083208d845290915290205415155b610aab5760405162461bcd60e51b8152602060048201526005602482015264475330323560d81b60448201526064016106d6565b610bd5565b601e8460ff161115610b75576040517f19457468657265756d205369676e6564204d6573736167653a0a3332000000006020820152603c81018b9052600190605c0160405160208183030381529060405280519060200120600486610b159190612ebc565b6040805160008152602081018083529390935260ff90911690820152606081018590526080810184905260a0016020604051602081039080840390855afa158015610b64573d6000803e3d6000fd5b505050602060405103519450610bd5565b6040805160008152602081018083528c905260ff861691810191909152606081018490526080810183905260019060a0016020604051602081039080840390855afa158015610bc8573d6000803e3d6000fd5b5050506020604051035194505b856001600160a01b0316856001600160a01b0316118015610c0f57506001600160a01b038581166000908152600260205260409020541615155b8015610c2557506001600160a01b038516600114155b610c595760405162461bcd60e51b815260206004820152600560248201526423a998191b60d91b60448201526064016106d6565b9394508493600101610820565b50505050505050505050565b600060016001600160a01b03831614801590610ca757506001600160a01b038281166000908152600160205260409020541615155b92915050565b60006001600160a01b038216600114801590610ca75750506001600160a01b0390811660009081526002602052604090205416151590565b60007fb648d3644f584ed1c2232d53c46d87e693586486ad0d1175f8656013110b714e3386868686604051610d1e959493929190612f0d565b60405180910390a1610d3285858585611cd1565b95945050505050565b60006060610d4b86868686610ce5565b915060405160203d0181016040523d81523d6000602083013e8091505094509492505050565b60606000610d80836020612f59565b67ffffffffffffffff811115610d9857610d986126c7565b6040519080825280601f01601f191660200182016040528015610dc2576020820181803683370190505b50905060005b83811015610de55784810154602080830284010152600101610dc8565b509392505050565b610df5611c40565b6001600160a01b03811615801590610e1757506001600160a01b038116600114155b610e4b5760405162461bcd60e51b8152602060048201526005602482015264475331303160d81b60448201526064016106d6565b6001600160a01b038181166000908152600160205260409020541615610e9b5760405162461bcd60e51b815260206004820152600560248201526423a998981960d91b60448201526064016106d6565b600160208190527fcc69885fda6bcc1a4ace058b4a62bf5e179ea78fd58a1ccd71c22cc9b688792f80546001600160a01b03848116600081815260408082208054949095166001600160a01b031994851617909455948552835490911681179092555190917fecdf3a3effea5783a3c4c2140e677577666428d44ed9d474a0b3a4c9943f844091a250565b610f2e611c40565b600354811115610f505760405162461bcd60e51b81526004016106d690612f70565b6001811015610f895760405162461bcd60e51b815260206004820152600560248201526423a999181960d91b60448201526064016106d6565b60048190556040518181527f610f7ff2b304ae8903c3de74c60c6ab1f7d6226b3f52c5161905bb5ad4039c939060200160405180910390a150565b600554600454604080516020810193909352339083015260608281019190915260009160800160405160208183030381529060405290507f66753cd2356569ee081232e3be8909b950e0a76c1f8460c3a5e3c2be32b11bed8d8d8d8d8d8d8d8d8d8d8d8c6040516110409c9b9a99989796959493929190612fb8565b60405180910390a161105b8d8d8d8d8d8d8d8d8d8d8d611daa565b9d9c50505050505050505050505050565b600454806110a45760405162461bcd60e51b8152602060048201526005602482015264475330303160d81b60448201526064016106d6565b6110b0848484846107d3565b50505050565b6060600060035467ffffffffffffffff8111156110d5576110d56126c7565b6040519080825280602002602001820160405280156110fe578160200160208202803683370190505b506001600090815260026020527fe90b7bceb6e7df5418fb78d8ee546e97c83a08bbccc01a0644d599ccd2a7c2e054919250906001600160a01b03165b6001600160a01b03811660011461119f578083838151811061115f5761115f61304f565b6001600160a01b0392831660209182029290920181019190915291811660009081526002909252604090912054168161119781612e54565b92505061113b565b509092915050565b600080825160208401855af480600052503d6020523d600060403e60403d016000fd5b6112088a8a808060200260200160405190810160405280939291908181526020018383602002808284376000920191909152508c92506120f5915050565b6001600160a01b0384161561122057611220846122d1565b6112608787878080601f01602080910402602001604051908101604052809392919081815260200183838082843760009201919091525061233592505050565b81156112775761127582600060018685612467565b505b336001600160a01b03167f141df868a6331af528e38c83b7aa03edc19be66e37ae67f9285bf4f8e3c6a1a88b8b8b8b896040516112b8959493929190613065565b60405180910390a250505050505050505050565b606060006001600160a01b038416600114806112ec57506112ec84610c72565b6113205760405162461bcd60e51b8152602060048201526005602482015264475331303560d81b60448201526064016106d6565b600083116113585760405162461bcd60e51b815260206004820152600560248201526423a998981b60d91b60448201526064016106d6565b8267ffffffffffffffff811115611371576113716126c7565b60405190808252806020026020018201604052801561139a578160200160208202803683370190505b506001600160a01b03808616600090815260016020526040812054929450911691505b6001600160a01b038216158015906113df57506001600160a01b038216600114155b80156113ea57508381105b1561144557818382815181106114025761140261304f565b6001600160a01b0392831660209182029290920181019190915292811660009081526001909352604090922054909116908061143d81612e54565b9150506113bd565b6001600160a01b03821660011461147d57826114626001836130d1565b815181106114725761147261304f565b602002602001015191505b808352509250929050565b336000908152600260205260409020546001600160a01b03166114d55760405162461bcd60e51b8152602060048201526005602482015264047533033360dc1b60448201526064016106d6565b336000818152600860209081526040808320858452909152808220600190555183917ff2a0eb156472d1440255b0d7c1e19cc07115d1051fe605b0dce69acfec884d9c91a350565b60006115328c8c8c8c8c8c8c8c8c8c8c61195d565b8051906020012090509b9a5050505050505050505050565b611552611c40565b6001600160a01b0381161580159061157457506001600160a01b038116600114155b6115a85760405162461bcd60e51b8152602060048201526005602482015264475331303160d81b60448201526064016106d6565b6001600160a01b038281166000908152600160205260409020548116908216146115fc5760405162461bcd60e51b8152602060048201526005602482015264475331303360d81b60448201526064016106d6565b6001600160a01b03818116600081815260016020526040808220805487861684528284208054919096166001600160a01b0319918216179095558383528054909416909355915190917faab4fa2b463f581b2b32cb3b7e3b704b9ce37cc209b5fb4d77e593ace405427691a25050565b611674611c40565b6001600160a01b03811615611726576040516301ffc9a760e01b815263736bd41d60e11b60048201526001600160a01b038216906301ffc9a790602401602060405180830381865afa1580156116ce573d6000803e3d6000fd5b505050506040513d601f19601f820116820180604052508101906116f291906130e4565b6117265760405162461bcd60e51b8152602060048201526005602482015264047533330360dc1b60448201526064016106d6565b7f4a204f620c8c5ccdca3fd54d003badd85ba500436a431f0cbda4f558c93c34c88181556040516001600160a01b038316907f1151116914515bc0891ff9047a6cb32cf902546f83066499bcf8ba33d2353fa290600090a25050565b61178a611c40565b6001600160a01b038116158015906117ac57506001600160a01b038116600114155b80156117c157506001600160a01b0381163014155b6117dd5760405162461bcd60e51b81526004016106d690612e00565b6001600160a01b0381811660009081526002602052604090205416156118155760405162461bcd60e51b81526004016106d690612e1f565b6001600160a01b0382161580159061183757506001600160a01b038216600114155b6118535760405162461bcd60e51b81526004016106d690612e00565b6001600160a01b038381166000908152600260205260409020548116908316146118a75760405162461bcd60e51b8152602060048201526005602482015264475332303560d81b60448201526064016106d6565b6001600160a01b03828116600081815260026020526040808220805486861680855283852080549288166001600160a01b03199384161790559589168452828420805482169096179095558383528054909416909355915190917ff8d49fc529812e9a7c5c50e69c20f0dccc0db8fa95c98bc58cc9a4f1c1299eaf91a26040516001600160a01b038216907f9465fa0c962cc76958e6373a993326400c1c94f8be2fe3a952adfa7f60b2ea2690600090a2505050565b606060007fbb8310d486368db6bd6f849402fdd73ad53d316b5a4b2644ad6efe0f941286d860001b8d8d8d8d604051611997929190613106565b6040519081900381206119bd949392918e908e908e908e908e908e908e90602001613116565b60408051601f1981840301815291905280516020909101209050601960f81b600160f81b6119e9611a7e565b6040516001600160f81b031993841660208201529290911660218301526022820152604281018290526062016040516020818303038152906040529150509b9a5050505050505050505050565b611a3e611c40565b611a47816122d1565b6040516001600160a01b038216907f5ac6c46c93c8d0e53714ba3b53db3e7c046da994313d7ed0d192028bc7c228b090600090a250565b60007f47e79534a245952e8b16893a336b85a3d9ea9fa8c573f3d803afb92a794692184660408051602081019390935282015230606082015260800160405160208183030381529060405280519060200120905090565b611add611c40565b806001600354611aed91906130d1565b1015611b0b5760405162461bcd60e51b81526004016106d690612f70565b6001600160a01b03821615801590611b2d57506001600160a01b038216600114155b611b495760405162461bcd60e51b81526004016106d690612e00565b6001600160a01b03838116600090815260026020526040902054811690831614611b9d5760405162461bcd60e51b8152602060048201526005602482015264475332303560d81b60448201526064016106d6565b6001600160a01b03828116600081815260026020526040808220805488861684529183208054929095166001600160a01b03199283161790945591815282549091169091556003805491611bf083613185565b90915550506040516001600160a01b038316907ff8d49fc529812e9a7c5c50e69c20f0dccc0db8fa95c98bc58cc9a4f1c1299eaf90600090a28060045414611c3b57611c3b81610f26565b505050565b333014611c775760405162461bcd60e51b8152602060048201526005602482015264475330333160d81b60448201526064016106d6565b565b600082600003611c8b57506000610ca7565b6000611c978385612f59565b905082611ca4858361319c565b14611cae57600080fd5b9392505050565b600080611cc283856131be565b905083811015611cae57600080fd5b600033600114801590611cfb5750336000908152600160205260409020546001600160a01b031615155b611d2f5760405162461bcd60e51b815260206004820152600560248201526411d4cc4c0d60da1b60448201526064016106d6565b611d3e8585858560001961256d565b90508015611d765760405133907f6895c13664aa4f67288b25d7a21d7aaa34916e355fb9b6fae0a139a9085becb890600090a2611da2565b60405133907facd2c8702804128fdb0db2bb49f6d127dd0181c13fd45dbfe16de0930e2bd37590600090a25b949350505050565b6000806000611dc48e8e8e8e8e8e8e8e8e8e60055461195d565b600580549192506000611dd683612e54565b9091555050805160208201209150611def82828661106c565b506000611e1a7f4a204f620c8c5ccdca3fd54d003badd85ba500436a431f0cbda4f558c93c34c85490565b90506001600160a01b03811615611ea057806001600160a01b03166375f0bb528f8f8f8f8f8f8f8f8f8f8f336040518d63ffffffff1660e01b8152600401611e6d9c9b9a999897969594939291906131d1565b600060405180830381600087803b158015611e8757600080fd5b505af1158015611e9b573d6000803e3d6000fd5b505050505b611ecc611eaf8a6109c46131be565b603f611ebc8c6040612f59565b611ec6919061319c565b906125b2565b611ed8906101f46131be565b5a1015611f0f5760405162461bcd60e51b8152602060048201526005602482015264047533031360dc1b60448201526064016106d6565b60005a9050611f808f8f8f8f8080601f016020809104026020016040519081016040528093929190818152602001838380828437600081840152601f19601f820116905080830192505050505050508e8c600014611f6d578e61256d565b6109c45a611f7b91906130d1565b61256d565b9350611f8d5a82906125c9565b90508380611f9a57508915155b80611fa457508715155b611fd85760405162461bcd60e51b8152602060048201526005602482015264475330313360d81b60448201526064016106d6565b60008815611ff057611fed828b8b8b8b612467565b90505b841561203557837f442e715f626346e8c54381002da614f62bee8d27386535b2521ec8540898556e8260405161202891815260200190565b60405180910390a2612070565b837f23428b18acfb3ea64b08dc0c1d296ea9c09702c09083ca5272e64d115b687d238260405161206791815260200190565b60405180910390a25b50506001600160a01b038116156120e457604051631264e26d60e31b81526004810183905283151560248201526001600160a01b03821690639327136890604401600060405180830381600087803b1580156120cb57600080fd5b505af11580156120df573d6000803e3d6000fd5b505050505b50509b9a5050505050505050505050565b6004541561212d5760405162461bcd60e51b8152602060048201526005602482015264047533230360dc1b60448201526064016106d6565b815181111561214e5760405162461bcd60e51b81526004016106d690612f70565b60018110156121875760405162461bcd60e51b815260206004820152600560248201526423a999181960d91b60448201526064016106d6565b600160005b835181101561229e5760008482815181106121a9576121a961304f565b6020026020010151905060006001600160a01b0316816001600160a01b0316141580156121e057506001600160a01b038116600114155b80156121f557506001600160a01b0381163014155b80156122135750806001600160a01b0316836001600160a01b031614155b61222f5760405162461bcd60e51b81526004016106d690612e00565b6001600160a01b0381811660009081526002602052604090205416156122675760405162461bcd60e51b81526004016106d690612e1f565b6001600160a01b03928316600090815260026020526040902080546001600160a01b0319169382169390931790925560010161218c565b506001600160a01b0316600090815260026020526040902080546001600160a01b03191660011790559051600355600455565b306001600160a01b038216036123115760405162461bcd60e51b8152602060048201526005602482015264047533430360dc1b60448201526064016106d6565b7f6c9a6c4a39284e37ed1cf53d337577d14212a4870fb976a4366c693b939918d555565b600160008190526020527fcc69885fda6bcc1a4ace058b4a62bf5e179ea78fd58a1ccd71c22cc9b688792f546001600160a01b03161561239f5760405162461bcd60e51b8152602060048201526005602482015264047533130360dc1b60448201526064016106d6565b6001600081905260208190527fcc69885fda6bcc1a4ace058b4a62bf5e179ea78fd58a1ccd71c22cc9b688792f80546001600160a01b03191690911790556001600160a01b038216156107cf57813b6124225760405162461bcd60e51b815260206004820152600560248201526423a998181960d91b60448201526064016106d6565b61243382600083600160001961256d565b6107cf5760405162461bcd60e51b8152602060048201526005602482015264047533030360dc1b60448201526064016106d6565b6000806001600160a01b0383161561247f5782612481565b325b90506001600160a01b038416612514576124b33a86106124a1573a6124a3565b855b6124ad8989611cb5565b90611c79565b6040519092506001600160a01b0382169083156108fc029084906000818181858888f1935050505061250f5760405162461bcd60e51b8152602060048201526005602482015264475330313160d81b60448201526064016106d6565b612563565b612522856124ad8989611cb5565b915061252f8482846125e4565b6125635760405162461bcd60e51b815260206004820152600560248201526423a998189960d91b60448201526064016106d6565b5095945050505050565b6000600183600181111561258357612583612ed5565b0361259b576000808551602087018986f49050610d32565b600080855160208701888a87f19695505050505050565b6000818310156125c25781611cae565b5090919050565b6000828211156125d857600080fd5b6000611da283856130d1565b604080516001600160a01b03841660248201526044808201849052825180830390910181526064909101909152602080820180516001600160e01b031663a9059cbb60e01b1781528251600093929184919082896127105a03f13d8015612656576020811461265e5760009350612669565b819350612669565b600051158215171593505b5050509392505050565b6001600160a01b038116811461268857600080fd5b50565b803561269681612673565b919050565b600080604083850312156126ae57600080fd5b82356126b981612673565b946020939093013593505050565b634e487b7160e01b600052604160045260246000fd5b600082601f8301126126ee57600080fd5b813567ffffffffffffffff80821115612709576127096126c7565b604051601f8301601f19908116603f01168101908282118183101715612731576127316126c7565b8160405283815286602085880101111561274a57600080fd5b836020870160208301376000602085830101528094505050505092915050565b6000806000806080858703121561278057600080fd5b84359350602085013567ffffffffffffffff8082111561279f57600080fd5b6127ab888389016126dd565b945060408701359150808211156127c157600080fd5b506127ce878288016126dd565b949793965093946060013593505050565b6000602082840312156127f157600080fd5b8135611cae81612673565b80356002811061269657600080fd5b6000806000806080858703121561282157600080fd5b843561282c81612673565b935060208501359250604085013567ffffffffffffffff81111561284f57600080fd5b61285b878288016126dd565b92505061286a606086016127fc565b905092959194509250565b6000815180845260005b8181101561289b5760208185018101518683018201520161287f565b506000602082860101526020601f19601f83011685010191505092915050565b8215158152604060208201526000611da26040830184612875565b600080604083850312156128e957600080fd5b50508035926020909101359150565b602081526000611cae6020830184612875565b60006020828403121561291d57600080fd5b5035919050565b60008083601f84011261293657600080fd5b50813567ffffffffffffffff81111561294e57600080fd5b60208301915083602082850101111561296657600080fd5b9250929050565b60008060008060008060008060008060006101408c8e03121561298f57600080fd5b6129988c61268b565b9a5060208c0135995067ffffffffffffffff8060408e013511156129bb57600080fd5b6129cb8e60408f01358f01612924565b909a5098506129dc60608e016127fc565b975060808d0135965060a08d0135955060c08d013594506129ff60e08e0161268b565b9350612a0e6101008e0161268b565b9250806101208e01351115612a2257600080fd5b50612a348d6101208e01358e016126dd565b90509295989b509295989b9093969950565b600080600060608486031215612a5b57600080fd5b83359250602084013567ffffffffffffffff80821115612a7a57600080fd5b612a86878388016126dd565b93506040860135915080821115612a9c57600080fd5b50612aa9868287016126dd565b9150509250925092565b60008151808452602080850194506020840160005b83811015612aed5781516001600160a01b031687529582019590820190600101612ac8565b509495945050505050565b602081526000611cae6020830184612ab3565b60008060408385031215612b1e57600080fd5b8235612b2981612673565b9150602083013567ffffffffffffffff811115612b4557600080fd5b612b51858286016126dd565b9150509250929050565b6000806000806000806000806000806101008b8d031215612b7b57600080fd5b8a3567ffffffffffffffff80821115612b9357600080fd5b818d0191508d601f830112612ba757600080fd5b813581811115612bb657600080fd5b8e60208260051b8501011115612bcb57600080fd5b60208381019d50909b508d01359950612be660408e0161268b565b985060608d0135915080821115612bfc57600080fd5b50612c098d828e01612924565b9097509550612c1c905060808c0161268b565b9350612c2a60a08c0161268b565b925060c08b01359150612c3f60e08c0161268b565b90509295989b9194979a5092959850565b604081526000612c636040830185612ab3565b905060018060a01b03831660208301529392505050565b60008060008060008060008060008060006101408c8e031215612c9c57600080fd5b8b35612ca781612673565b9a5060208c0135995060408c013567ffffffffffffffff811115612cca57600080fd5b612cd68e828f01612924565b909a509850612ce9905060608d016127fc565b965060808c0135955060a08c0135945060c08c0135935060e08c0135612d0e81612673565b92506101008c0135612d1f81612673565b809250506101208c013590509295989b509295989b9093969950565b60008060408385031215612d4e57600080fd5b8235612d5981612673565b91506020830135612d6981612673565b809150509250929050565b600080600060608486031215612d8957600080fd5b8335612d9481612673565b92506020840135612da481612673565b91506040840135612db481612673565b809150509250925092565b600080600060608486031215612dd457600080fd5b8335612ddf81612673565b92506020840135612def81612673565b929592945050506040919091013590565b602080825260059082015264475332303360d81b604082015260600190565b60208082526005908201526411d4cc8c0d60da1b604082015260600190565b634e487b7160e01b600052601160045260246000fd5b600060018201612e6657612e66612e3e565b5060010190565b604081526000612e806040830185612875565b8281036020840152610d328185612875565b600060208284031215612ea457600080fd5b81516001600160e01b031981168114611cae57600080fd5b60ff8281168282160390811115610ca757610ca7612e3e565b634e487b7160e01b600052602160045260246000fd5b60028110612f0957634e487b7160e01b600052602160045260246000fd5b9052565b6001600160a01b038681168252851660208201526040810184905260a060608201819052600090612f4090830185612875565b9050612f4f6080830184612eeb565b9695505050505050565b8082028115828204841417610ca757610ca7612e3e565b602080825260059082015264475332303160d81b604082015260600190565b81835281816020850137506000828201602090810191909152601f909101601f19169091010190565b600060018060a01b03808f1683528d60208401526101606040840152612fe361016084018d8f612f8f565b612ff0606085018d612eeb565b8a60808501528960a08501528860c085015281881660e08501528187166101008501528381036101208501526130268187612875565b91505082810361014084015261303c8185612875565b9f9e505050505050505050505050505050565b634e487b7160e01b600052603260045260246000fd5b6080808252810185905260008660a08301825b888110156130a857823561308b81612673565b6001600160a01b0316825260209283019290910190600101613078565b50602084019690965250506001600160a01b039283166040820152911660609091015292915050565b81810381811115610ca757610ca7612e3e565b6000602082840312156130f657600080fd5b81518015158114611cae57600080fd5b8183823760009101908152919050565b8b81526001600160a01b038b81166020830152604082018b9052606082018a905261016082019061314a608084018b612eeb565b60a083019890985260c082019690965260e0810194909452918516610100840152909316610120820152610140019190915295945050505050565b60008161319457613194612e3e565b506000190190565b6000826131b957634e487b7160e01b600052601260045260246000fd5b500490565b80820180821115610ca757610ca7612e3e565b600060018060a01b03808f1683528d602084015261016060408401526131fc61016084018d8f612f8f565b613209606085018d612eeb565b8a60808501528960a08501528860c085015281881660e085015281871661010085015283810361012085015261323f8187612875565b925050808416610140840152509d9c5050505050505050505050505056fea26469706673582212206b5303c6d0acabaae76f15b3fc148f7b5b58b0719709d712d7b7f2b9c930a96b64736f6c63430008160033","linkReferences":{}},"methodIdentifiers":{"VERSION()":"ffa1ad74","addOwnerWithThreshold(address,uint256)":"0d582f13","approveHash(bytes32)":"d4d9bdcd","approvedHashes(address,bytes32)":"7d832974","changeThreshold(uint256)":"694e80c3","checkNSignatures(bytes32,bytes,bytes,uint256)":"12fb68e0","checkSignatures(bytes32,bytes,bytes)":"934f3a11","disableModule(address,address)":"e009cfde","domainSeparator()":"f698da25","enableModule(address)":"610b5925","encodeTransactionData(address,uint256,bytes,uint8,uint256,uint256,uint256,address,address,uint256)":"e86637db","execTransaction(address,uint256,bytes,uint8,uint256,uint256,uint256,address,address,bytes)":"6a761202","execTransactionFromModule(address,uint256,bytes,uint8)":"468721a7","execTransactionFromModuleReturnData(address,uint256,bytes,uint8)":"5229073f","getChainId()":"3408e470","getModulesPaginated(address,uint256)":"cc2f8452","getOwners()":"a0e67e2b","getStorageAt(uint256,uint256)":"5624b25b","getThreshold()":"e75235b8","getTransactionHash(address,uint256,bytes,uint8,uint256,uint256,uint256,address,address,uint256)":"d8d11f78","isModuleEnabled(address)":"2d9ad53d","isOwner(address)":"2f54bf6e","nonce()":"affed0e0","removeOwner(address,address,uint256)":"f8dc5dd9","setFallbackHandler(address)":"f08a0323","setGuard(address)":"e19a9dd9","setup(address[],uint256,address,bytes,address,address,uint256,address)":"b63e800d","signedMessages(bytes32)":"5ae6bd37","simulateAndRevert(address,bytes)":"b4faba09","swapOwner(address,address,address)":"e318b52b"},"id":36}