{"abi":[{"type":"function","name":"execute","inputs":[],"outputs":[],"stateMutability":"nonpayable"}],"bytecode":{"object":"0x6080604052348015600f57600080fd5b50606580601d6000396000f3fe6080604052348015600f57600080fd5b506004361060285760003560e01c80636146195414602d575b600080fd5b00fea26469706673582212207312588ddee8294ef5339b97a323795fd923aa5396d93e2ada85229b2e8e716964736f6c63430008160033","linkReferences":{}},"methodIdentifiers":{"execute()":"61461954"},"id":251}