{"abi":[{"type":"constructor","inputs":[{"name":"kernel_","type":"address","internalType":"contract Kernel"}],"stateMutability":"nonpayable"},{"type":"function","name":"ESCRW","inputs":[],"outputs":[{"name":"","type":"address","internalType":"contract PaymentEscrow"}],"stateMutability":"view"},{"type":"function","name":"STORE","inputs":[],"outputs":[{"name":"","type":"address","internalType":"contract Storage"}],"stateMutability":"view"},{"type":"function","name":"addHooks","inputs":[{"name":"hooks","type":"tuple[]","internalType":"struct Hook[]","components":[{"name":"target","type":"address","internalType":"address"},{"name":"itemIndex","type":"uint256","internalType":"uint256"},{"name":"extraData","type":"bytes","internalType":"bytes"}]},{"name":"offerItems","type":"tuple[]","internalType":"struct SpentItem[]","components":[{"name":"itemType","type":"uint8","internalType":"enum ItemType"},{"name":"token","type":"address","internalType":"address"},{"name":"identifier","type":"uint256","internalType":"uint256"},{"name":"amount","type":"uint256","internalType":"uint256"}]},{"name":"rentalWallet","type":"address","internalType":"address"}],"outputs":[],"stateMutability":"nonpayable"},{"type":"function","name":"changeKernel","inputs":[{"name":"newKernel_","type":"address","internalType":"contract Kernel"}],"outputs":[],"stateMutability":"nonpayable"},{"type":"function","name":"configureDependencies","inputs":[],"outputs":[{"name":"dependencies","type":"bytes5[]","internalType":"Keycode[]"}],"stateMutability":"nonpayable"},{"type":"function","name":"convertToItems","inputs":[{"name":"offer","type":"tuple[]","internalType":"struct SpentItem[]","components":[{"name":"itemType","type":"uint8","internalType":"enum ItemType"},{"name":"token","type":"address","internalType":"address"},{"name":"identifier","type":"uint256","internalType":"uint256"},{"name":"amount","type":"uint256","internalType":"uint256"}]},{"name":"consideration","type":"tuple[]","internalType":"struct ReceivedItem[]","components":[{"name":"itemType","type":"uint8","internalType":"enum ItemType"},{"name":"token","type":"address","internalType":"address"},{"name":"identifier","type":"uint256","internalType":"uint256"},{"name":"amount","type":"uint256","internalType":"uint256"},{"name":"recipient","type":"address","internalType":"address payable"}]},{"name":"orderType","type":"uint8","internalType":"enum OrderType"}],"outputs":[{"name":"items","type":"tuple[]","internalType":"struct Item[]","components":[{"name":"itemType","type":"uint8","internalType":"enum ItemType"},{"name":"settleTo","type":"uint8","internalType":"enum SettleTo"},{"name":"token","type":"address","internalType":"address"},{"name":"amount","type":"uint256","internalType":"uint256"},{"name":"identifier","type":"uint256","internalType":"uint256"}]}],"stateMutability":"view"},{"type":"function","name":"domainSeparator","inputs":[],"outputs":[{"name":"","type":"bytes32","internalType":"bytes32"}],"stateMutability":"view"},{"type":"function","name":"executionInvariantChecks","inputs":[{"name":"executions","type":"tuple[]","internalType":"struct ReceivedItem[]","components":[{"name":"itemType","type":"uint8","internalType":"enum ItemType"},{"name":"token","type":"address","internalType":"address"},{"name":"identifier","type":"uint256","internalType":"uint256"},{"name":"amount","type":"uint256","internalType":"uint256"},{"name":"recipient","type":"address","internalType":"address payable"}]}],"outputs":[],"stateMutability":"view"},{"type":"function","name":"getOrderMetadataHash","inputs":[{"name":"metadata","type":"tuple","internalType":"struct OrderMetadata","components":[{"name":"orderType","type":"uint8","internalType":"enum OrderType"},{"name":"rentDuration","type":"uint256","internalType":"uint256"},{"name":"hooks","type":"tuple[]","internalType":"struct Hook[]","components":[{"name":"target","type":"address","internalType":"address"},{"name":"itemIndex","type":"uint256","internalType":"uint256"},{"name":"extraData","type":"bytes","internalType":"bytes"}]},{"name":"emittedExtraData","type":"bytes","internalType":"bytes"}]}],"outputs":[{"name":"","type":"bytes32","internalType":"bytes32"}],"stateMutability":"view"},{"type":"function","name":"getRentPayloadHash","inputs":[{"name":"payload","type":"tuple","internalType":"struct RentPayload","components":[{"name":"orderHash","type":"bytes32","internalType":"bytes32"},{"name":"fulfillment","type":"tuple","internalType":"struct OrderFulfillment","components":[{"name":"recipient","type":"address","internalType":"address"}]},{"name":"metadata","type":"tuple","internalType":"struct OrderMetadata","components":[{"name":"orderType","type":"uint8","internalType":"enum OrderType"},{"name":"rentDuration","type":"uint256","internalType":"uint256"},{"name":"hooks","type":"tuple[]","internalType":"struct Hook[]","components":[{"name":"target","type":"address","internalType":"address"},{"name":"itemIndex","type":"uint256","internalType":"uint256"},{"name":"extraData","type":"bytes","internalType":"bytes"}]},{"name":"emittedExtraData","type":"bytes","internalType":"bytes"}]},{"name":"expiration","type":"uint256","internalType":"uint256"},{"name":"intendedFulfiller","type":"address","internalType":"address"}]}],"outputs":[{"name":"","type":"bytes32","internalType":"bytes32"}],"stateMutability":"view"},{"type":"function","name":"getRentalOrderHash","inputs":[{"name":"order","type":"tuple","internalType":"struct RentalOrder","components":[{"name":"seaportOrderHash","type":"bytes32","internalType":"bytes32"},{"name":"items","type":"tuple[]","internalType":"struct Item[]","components":[{"name":"itemType","type":"uint8","internalType":"enum ItemType"},{"name":"settleTo","type":"uint8","internalType":"enum SettleTo"},{"name":"token","type":"address","internalType":"address"},{"name":"amount","type":"uint256","internalType":"uint256"},{"name":"identifier","type":"uint256","internalType":"uint256"}]},{"name":"hooks","type":"tuple[]","internalType":"struct Hook[]","components":[{"name":"target","type":"address","internalType":"address"},{"name":"itemIndex","type":"uint256","internalType":"uint256"},{"name":"extraData","type":"bytes","internalType":"bytes"}]},{"name":"orderType","type":"uint8","internalType":"enum OrderType"},{"name":"lender","type":"address","internalType":"address"},{"name":"renter","type":"address","internalType":"address"},{"name":"rentalWallet","type":"address","internalType":"address"},{"name":"startTimestamp","type":"uint256","internalType":"uint256"},{"name":"endTimestamp","type":"uint256","internalType":"uint256"}]}],"outputs":[{"name":"","type":"bytes32","internalType":"bytes32"}],"stateMutability":"view"},{"type":"function","name":"getSeaportMetadata","inputs":[],"outputs":[{"name":"name","type":"string","internalType":"string"},{"name":"schemas","type":"tuple[]","internalType":"struct Schema[]","components":[{"name":"id","type":"uint256","internalType":"uint256"},{"name":"metadata","type":"bytes","internalType":"bytes"}]}],"stateMutability":"pure"},{"type":"function","name":"isActive","inputs":[],"outputs":[{"name":"","type":"bool","internalType":"bool"}],"stateMutability":"view"},{"type":"function","name":"isValidOrderMetadata","inputs":[{"name":"metadata","type":"tuple","internalType":"struct OrderMetadata","components":[{"name":"orderType","type":"uint8","internalType":"enum OrderType"},{"name":"rentDuration","type":"uint256","internalType":"uint256"},{"name":"hooks","type":"tuple[]","internalType":"struct Hook[]","components":[{"name":"target","type":"address","internalType":"address"},{"name":"itemIndex","type":"uint256","internalType":"uint256"},{"name":"extraData","type":"bytes","internalType":"bytes"}]},{"name":"emittedExtraData","type":"bytes","internalType":"bytes"}]},{"name":"zoneHash","type":"bytes32","internalType":"bytes32"}],"outputs":[],"stateMutability":"view"},{"type":"function","name":"isValidSafeOwner","inputs":[{"name":"owner","type":"address","internalType":"address"},{"name":"safe","type":"address","internalType":"address"}],"outputs":[],"stateMutability":"view"},{"type":"function","name":"kernel","inputs":[],"outputs":[{"name":"","type":"address","internalType":"contract Kernel"}],"stateMutability":"view"},{"type":"function","name":"onERC1155BatchReceived","inputs":[{"name":"","type":"address","internalType":"address"},{"name":"","type":"address","internalType":"address"},{"name":"","type":"uint256[]","internalType":"uint256[]"},{"name":"","type":"uint256[]","internalType":"uint256[]"},{"name":"","type":"bytes","internalType":"bytes"}],"outputs":[{"name":"","type":"bytes4","internalType":"bytes4"}],"stateMutability":"pure"},{"type":"function","name":"onERC1155Received","inputs":[{"name":"","type":"address","internalType":"address"},{"name":"","type":"address","internalType":"address"},{"name":"","type":"uint256","internalType":"uint256"},{"name":"","type":"uint256","internalType":"uint256"},{"name":"","type":"bytes","internalType":"bytes"}],"outputs":[{"name":"","type":"bytes4","internalType":"bytes4"}],"stateMutability":"pure"},{"type":"function","name":"onERC721Received","inputs":[{"name":"","type":"address","internalType":"address"},{"name":"","type":"address","internalType":"address"},{"name":"","type":"uint256","internalType":"uint256"},{"name":"","type":"bytes","internalType":"bytes"}],"outputs":[{"name":"","type":"bytes4","internalType":"bytes4"}],"stateMutability":"pure"},{"type":"function","name":"processBaseOrderConsideration","inputs":[{"name":"rentalItems","type":"tuple[]","internalType":"struct Item[]","components":[{"name":"itemType","type":"uint8","internalType":"enum ItemType"},{"name":"settleTo","type":"uint8","internalType":"enum SettleTo"},{"name":"token","type":"address","internalType":"address"},{"name":"amount","type":"uint256","internalType":"uint256"},{"name":"identifier","type":"uint256","internalType":"uint256"}]},{"name":"consideration","type":"tuple[]","internalType":"struct ReceivedItem[]","components":[{"name":"itemType","type":"uint8","internalType":"enum ItemType"},{"name":"token","type":"address","internalType":"address"},{"name":"identifier","type":"uint256","internalType":"uint256"},{"name":"amount","type":"uint256","internalType":"uint256"},{"name":"recipient","type":"address","internalType":"address payable"}]},{"name":"startIndex","type":"uint256","internalType":"uint256"}],"outputs":[{"name":"processedItems","type":"tuple[]","internalType":"struct Item[]","components":[{"name":"itemType","type":"uint8","internalType":"enum ItemType"},{"name":"settleTo","type":"uint8","internalType":"enum SettleTo"},{"name":"token","type":"address","internalType":"address"},{"name":"amount","type":"uint256","internalType":"uint256"},{"name":"identifier","type":"uint256","internalType":"uint256"}]}],"stateMutability":"view"},{"type":"function","name":"processBaseOrderOffer","inputs":[{"name":"rentalItems","type":"tuple[]","internalType":"struct Item[]","components":[{"name":"itemType","type":"uint8","internalType":"enum ItemType"},{"name":"settleTo","type":"uint8","internalType":"enum SettleTo"},{"name":"token","type":"address","internalType":"address"},{"name":"amount","type":"uint256","internalType":"uint256"},{"name":"identifier","type":"uint256","internalType":"uint256"}]},{"name":"offer","type":"tuple[]","internalType":"struct SpentItem[]","components":[{"name":"itemType","type":"uint8","internalType":"enum ItemType"},{"name":"token","type":"address","internalType":"address"},{"name":"identifier","type":"uint256","internalType":"uint256"},{"name":"amount","type":"uint256","internalType":"uint256"}]},{"name":"startIndex","type":"uint256","internalType":"uint256"}],"outputs":[{"name":"processedItems","type":"tuple[]","internalType":"struct Item[]","components":[{"name":"itemType","type":"uint8","internalType":"enum ItemType"},{"name":"settleTo","type":"uint8","internalType":"enum SettleTo"},{"name":"token","type":"address","internalType":"address"},{"name":"amount","type":"uint256","internalType":"uint256"},{"name":"identifier","type":"uint256","internalType":"uint256"}]}],"stateMutability":"view"},{"type":"function","name":"processPayOrderOffer","inputs":[{"name":"rentalItems","type":"tuple[]","internalType":"struct Item[]","components":[{"name":"itemType","type":"uint8","internalType":"enum ItemType"},{"name":"settleTo","type":"uint8","internalType":"enum SettleTo"},{"name":"token","type":"address","internalType":"address"},{"name":"amount","type":"uint256","internalType":"uint256"},{"name":"identifier","type":"uint256","internalType":"uint256"}]},{"name":"offer","type":"tuple[]","internalType":"struct SpentItem[]","components":[{"name":"itemType","type":"uint8","internalType":"enum ItemType"},{"name":"token","type":"address","internalType":"address"},{"name":"identifier","type":"uint256","internalType":"uint256"},{"name":"amount","type":"uint256","internalType":"uint256"}]},{"name":"startIndex","type":"uint256","internalType":"uint256"}],"outputs":[{"name":"processedItems","type":"tuple[]","internalType":"struct Item[]","components":[{"name":"itemType","type":"uint8","internalType":"enum ItemType"},{"name":"settleTo","type":"uint8","internalType":"enum SettleTo"},{"name":"token","type":"address","internalType":"address"},{"name":"amount","type":"uint256","internalType":"uint256"},{"name":"identifier","type":"uint256","internalType":"uint256"}]}],"stateMutability":"view"},{"type":"function","name":"processPayeeOrderConsideration","inputs":[{"name":"rentalItems","type":"tuple[]","internalType":"struct Item[]","components":[{"name":"itemType","type":"uint8","internalType":"enum ItemType"},{"name":"settleTo","type":"uint8","internalType":"enum SettleTo"},{"name":"token","type":"address","internalType":"address"},{"name":"amount","type":"uint256","internalType":"uint256"},{"name":"identifier","type":"uint256","internalType":"uint256"}]},{"name":"consideration","type":"tuple[]","internalType":"struct ReceivedItem[]","components":[{"name":"itemType","type":"uint8","internalType":"enum ItemType"},{"name":"token","type":"address","internalType":"address"},{"name":"identifier","type":"uint256","internalType":"uint256"},{"name":"amount","type":"uint256","internalType":"uint256"},{"name":"recipient","type":"address","internalType":"address payable"}]},{"name":"startIndex","type":"uint256","internalType":"uint256"}],"outputs":[],"stateMutability":"view"},{"type":"function","name":"requestPermissions","inputs":[],"outputs":[{"name":"requests","type":"tuple[]","internalType":"struct Permissions[]","components":[{"name":"keycode","type":"bytes5","internalType":"Keycode"},{"name":"funcSelector","type":"bytes4","internalType":"bytes4"}]}],"stateMutability":"view"},{"type":"function","name":"setActiveStatus","inputs":[{"name":"activate_","type":"bool","internalType":"bool"}],"outputs":[],"stateMutability":"nonpayable"},{"type":"function","name":"supportsInterface","inputs":[{"name":"interfaceId","type":"bytes4","internalType":"bytes4"}],"outputs":[{"name":"","type":"bool","internalType":"bool"}],"stateMutability":"view"},{"type":"function","name":"tokensReceived","inputs":[{"name":"","type":"address","internalType":"address"},{"name":"","type":"address","internalType":"address"},{"name":"","type":"address","internalType":"address"},{"name":"","type":"uint256","internalType":"uint256"},{"name":"","type":"bytes","internalType":"bytes"},{"name":"","type":"bytes","internalType":"bytes"}],"outputs":[],"stateMutability":"nonpayable"},{"type":"function","name":"validateOrder","inputs":[{"name":"zoneParams","type":"tuple","internalType":"struct ZoneParameters","components":[{"name":"orderHash","type":"bytes32","internalType":"bytes32"},{"name":"fulfiller","type":"address","internalType":"address"},{"name":"offerer","type":"address","internalType":"address"},{"name":"offer","type":"tuple[]","internalType":"struct SpentItem[]","components":[{"name":"itemType","type":"uint8","internalType":"enum ItemType"},{"name":"token","type":"address","internalType":"address"},{"name":"identifier","type":"uint256","internalType":"uint256"},{"name":"amount","type":"uint256","internalType":"uint256"}]},{"name":"consideration","type":"tuple[]","internalType":"struct ReceivedItem[]","components":[{"name":"itemType","type":"uint8","internalType":"enum ItemType"},{"name":"token","type":"address","internalType":"address"},{"name":"identifier","type":"uint256","internalType":"uint256"},{"name":"amount","type":"uint256","internalType":"uint256"},{"name":"recipient","type":"address","internalType":"address payable"}]},{"name":"totalExecutions","type":"tuple[]","internalType":"struct ReceivedItem[]","components":[{"name":"itemType","type":"uint8","internalType":"enum ItemType"},{"name":"token","type":"address","internalType":"address"},{"name":"identifier","type":"uint256","internalType":"uint256"},{"name":"amount","type":"uint256","internalType":"uint256"},{"name":"recipient","type":"address","internalType":"address payable"}]},{"name":"extraData","type":"bytes","internalType":"bytes"},{"name":"orderHashes","type":"bytes32[]","internalType":"bytes32[]"},{"name":"startTime","type":"uint256","internalType":"uint256"},{"name":"endTime","type":"uint256","internalType":"uint256"},{"name":"zoneHash","type":"bytes32","internalType":"bytes32"},{"name":"orderType","type":"uint8","internalType":"enum OrderType"}]}],"outputs":[{"name":"validOrderMagicValue","type":"bytes4","internalType":"bytes4"}],"stateMutability":"nonpayable"},{"type":"event","name":"RentalOrderStarted","inputs":[{"name":"orderHash","type":"bytes32","indexed":false,"internalType":"bytes32"},{"name":"emittedExtraData","type":"bytes","indexed":false,"internalType":"bytes"},{"name":"seaportOrderHash","type":"bytes32","indexed":false,"internalType":"bytes32"},{"name":"items","type":"tuple[]","indexed":false,"internalType":"struct Item[]","components":[{"name":"itemType","type":"uint8","internalType":"enum ItemType"},{"name":"settleTo","type":"uint8","internalType":"enum SettleTo"},{"name":"token","type":"address","internalType":"address"},{"name":"amount","type":"uint256","internalType":"uint256"},{"name":"identifier","type":"uint256","internalType":"uint256"}]},{"name":"hooks","type":"tuple[]","indexed":false,"internalType":"struct Hook[]","components":[{"name":"target","type":"address","internalType":"address"},{"name":"itemIndex","type":"uint256","internalType":"uint256"},{"name":"extraData","type":"bytes","internalType":"bytes"}]},{"name":"orderType","type":"uint8","indexed":false,"internalType":"enum OrderType"},{"name":"lender","type":"address","indexed":true,"internalType":"address"},{"name":"renter","type":"address","indexed":true,"internalType":"address"},{"name":"rentalWallet","type":"address","indexed":false,"internalType":"address"},{"name":"startTimestamp","type":"uint256","indexed":false,"internalType":"uint256"},{"name":"endTimestamp","type":"uint256","indexed":false,"internalType":"uint256"}],"anonymous":false},{"type":"event","name":"SeaportCompatibleContractDeployed","inputs":[],"anonymous":false},{"type":"error","name":"CreatePolicy_AssetNotWhitelisted","inputs":[{"name":"token","type":"address","internalType":"address"}]},{"type":"error","name":"CreatePolicy_ConsiderationCountExceedsMax","inputs":[{"name":"considerationCount","type":"uint256","internalType":"uint256"}]},{"type":"error","name":"CreatePolicy_ConsiderationCountNonZero","inputs":[{"name":"considerationCount","type":"uint256","internalType":"uint256"}]},{"type":"error","name":"CreatePolicy_ConsiderationCountZero","inputs":[]},{"type":"error","name":"CreatePolicy_InvalidOrderMetadataHash","inputs":[]},{"type":"error","name":"CreatePolicy_InvalidPayloadForOrderHash","inputs":[{"name":"payloadOrderHash","type":"bytes32","internalType":"bytes32"},{"name":"seaportOrderHash","type":"bytes32","internalType":"bytes32"}]},{"type":"error","name":"CreatePolicy_InvalidRentalSafe","inputs":[{"name":"safe","type":"address","internalType":"address"}]},{"type":"error","name":"CreatePolicy_InvalidSafeOwner","inputs":[{"name":"unauthorizedOwner","type":"address","internalType":"address"},{"name":"safe","type":"address","internalType":"address"}]},{"type":"error","name":"CreatePolicy_ItemCountZero","inputs":[{"name":"totalRentals","type":"uint256","internalType":"uint256"},{"name":"totalPayments","type":"uint256","internalType":"uint256"}]},{"type":"error","name":"CreatePolicy_OfferCountExceedsMax","inputs":[{"name":"offerCount","type":"uint256","internalType":"uint256"}]},{"type":"error","name":"CreatePolicy_OfferCountNonZero","inputs":[{"name":"offerCount","type":"uint256","internalType":"uint256"}]},{"type":"error","name":"CreatePolicy_OfferCountZero","inputs":[]},{"type":"error","name":"CreatePolicy_OffererCannotBeRecipient","inputs":[]},{"type":"error","name":"CreatePolicy_PaymentNotWhitelisted","inputs":[{"name":"token","type":"address","internalType":"address"}]},{"type":"error","name":"CreatePolicy_RentDurationTooLong","inputs":[{"name":"rentDuration","type":"uint256","internalType":"uint256"}]},{"type":"error","name":"CreatePolicy_RentDurationZero","inputs":[]},{"type":"error","name":"CreatePolicy_SeaportItemTypeNotSupported","inputs":[{"name":"itemType","type":"uint8","internalType":"enum ItemType"}]},{"type":"error","name":"CreatePolicy_SeaportOrderTypeNotSupported","inputs":[{"name":"orderType","type":"uint8","internalType":"enum OrderType"}]},{"type":"error","name":"CreatePolicy_UnauthorizedCreatePolicySigner","inputs":[{"name":"signer","type":"address","internalType":"address"}]},{"type":"error","name":"CreatePolicy_UnexpectedTokenRecipient","inputs":[{"name":"itemType","type":"uint8","internalType":"enum ItemType"},{"name":"token","type":"address","internalType":"address"},{"name":"identifier","type":"uint256","internalType":"uint256"},{"name":"amount","type":"uint256","internalType":"uint256"},{"name":"currentOwner","type":"address","internalType":"address"},{"name":"expectedOwner","type":"address","internalType":"address"}]},{"type":"error","name":"ECDSAInvalidSignature","inputs":[]},{"type":"error","name":"ECDSAInvalidSignatureLength","inputs":[{"name":"length","type":"uint256","internalType":"uint256"}]},{"type":"error","name":"ECDSAInvalidSignatureS","inputs":[{"name":"s","type":"bytes32","internalType":"bytes32"}]},{"type":"error","name":"KernelAdapter_OnlyKernel","inputs":[{"name":"caller_","type":"address","internalType":"address"}]},{"type":"error","name":"Policy_ModuleDoesNotExist","inputs":[{"name":"keycode_","type":"bytes5","internalType":"Keycode"}]},{"type":"error","name":"Policy_OnlyRole","inputs":[{"name":"role_","type":"bytes32","internalType":"Role"}]},{"type":"error","name":"Shared_ERC20TransferFailed","inputs":[{"name":"token","type":"address","internalType":"address"},{"name":"from","type":"address","internalType":"address"},{"name":"to","type":"address","internalType":"address"},{"name":"value","type":"uint256","internalType":"uint256"}]},{"type":"error","name":"Shared_HookFailBytes","inputs":[{"name":"revertData","type":"bytes","internalType":"bytes"}]},{"type":"error","name":"Shared_HookFailString","inputs":[{"name":"revertReason","type":"string","internalType":"string"}]},{"type":"error","name":"Shared_NonRentalHookItem","inputs":[{"name":"itemIndex","type":"uint256","internalType":"uint256"}]},{"type":"error","name":"Shared_OrderTypeNotSupported","inputs":[{"name":"orderType","type":"uint8","internalType":"uint8"}]},{"type":"error","name":"SignerPackage_SignatureExpired","inputs":[{"name":"currentTimestamp","type":"uint256","internalType":"uint256"},{"name":"expiredAt","type":"uint256","internalType":"uint256"}]},{"type":"error","name":"SignerPackage_UnauthorizedFulfiller","inputs":[{"name":"unauthorized","type":"address","internalType":"address"},{"name":"expected","type":"address","internalType":"address"}]}],"bytecode":{"object":"0x6101e06040523480156200001257600080fd5b5060405162004cae38038062004cae833981016040819052620000359162000664565b600080546001600160a01b0319166001600160a01b038316179055806200005b620000bf565b6101005260c05260a05260805262000072620001e9565b6101c0526101a052610180526101605261014052610120524660e0526040517f98a7ac23945182ac62b68fbe5ba35cc0bf5c4c34b3a410ce94a4c2270282d6b590600090a15050620006f5565b604080518082018252600d81526c52654e46542d52656e74616c7360981b6020918201528151808301835260058152640312e302e360dc1b9082015290517f9650e8727fbb774f0b68cbf8b082cb7c4c4d1bef28b4ac9e17b87fd4da697c0e917f06c015bd22b4c69690933c1058878ebdfef31f9aaae40bbe86d8a09fe1b2972c916000918291620001b691017f454950373132446f6d61696e28737472696e67206e616d652c737472696e672081527f76657273696f6e2c75696e7432353620636861696e49642c6164647265737320602082015271766572696679696e67436f6e74726163742960701b604082015260520190565b604051602081830303815290604052805190602001209150620001e18285856200061b60201b60201c565b905090919293565b600080600080600080600060405160200162000274907f4974656d2875696e7438206974656d547970652c75696e743820736574746c6581527f546f2c6164647265737320746f6b656e2c75696e7432353620616d6f756e742c60208201527f75696e74323536206964656e7469666965722900000000000000000000000000604082015260530190565b60405160208183030381529060405290506000604051602001620002e1907f486f6f6b2861646472657373207461726765742c75696e74323536206974656d81527f496e6465782c6279746573206578747261446174612900000000000000000000602082015260360190565b60405160208183030381529060405290506000604051602001620003d7907f52656e74616c4f72646572286279746573333220736561706f72744f7264657281527f486173682c4974656d5b5d206974656d732c486f6f6b5b5d20686f6f6b732c7560208201527f696e7438206f72646572547970652c61646472657373206c656e6465722c616460408201527f64726573732072656e7465722c616464726573732072656e74616c57616c6c6560608201527f742c75696e7432353620737461727454696d657374616d702c75696e7432353660808201526d20656e6454696d657374616d702960901b60a082015260ae0190565b604051602081830303815290604052905082805190602001209850818051906020012097508082846040516020016200041393929190620006c8565b60405160208183030381529060405280519060200120965060006040516020016200046d907f4f7264657246756c66696c6c6d656e74286164647265737320726563697069658152626e742960e81b602082015260230190565b6040516020818303038152906040529050600060405160200162000500907f4f726465724d657461646174612875696e7438206f72646572547970652c756981527f6e743235362072656e744475726174696f6e2c486f6f6b5b5d20686f6f6b732c60208201527f627974657320656d697474656445787472614461746129000000000000000000604082015260570190565b60405160208183030381529060405290506000604051602001620005b9907f52656e745061796c6f61642862797465733332206f72646572486173682c4f7281527f64657246756c66696c6c6d656e742066756c66696c6c6d656e742c4f7264657260208201527f4d65746164617461206d657461646174612c75696e743235362065787069726160408201527f74696f6e2c6164647265737320696e74656e64656446756c66696c6c657229006060820152607f0190565b6040516020818303038152906040529050808383604051602001620005e193929190620006c8565b6040516020818303038152906040528051906020012096508280519060200120985081805190602001209750505050505050909192939495565b6040805160208101859052908101839052606081018290524660808201523060a082015260009060c0016040516020818303038152906040528051906020012090509392505050565b6000602082840312156200067757600080fd5b81516001600160a01b03811681146200068f57600080fd5b9392505050565b6000815160005b81811015620006b957602081850181015186830152016200069d565b50600093019283525090919050565b6000620006ec620006e5620006de848862000696565b8662000696565b8462000696565b95945050505050565b60805160a05160c05160e05161010051610120516101405161016051610180516101a0516101c051614537620007776000396000610c4e01526000611c80015260006123e10152600061231001526000612b3901526000612be80152600081816104620152610cf50152600050506000505060005050600050506145376000f3fe608060405234801561001057600080fd5b50600436106101c25760003560e01c80639459b875116100f9578063dd3e00b311610097578063ec7404b111610071578063ec7404b11461041a578063ef9852761461042d578063f23a6e6114610440578063f698da251461046057600080fd5b8063dd3e00b3146103e1578063e1ae9cb6146103f4578063e4b717a61461040757600080fd5b8063bc197c81116100d3578063bc197c8114610386578063beb85708146103a8578063d3f969d1146103bb578063d4aae0c4146103ce57600080fd5b80639459b8751461034b578063a140661714610360578063a31f33e51461037357600080fd5b8063410e66f7116101665780635924be70116101405780635924be70146102f05780635ae1e3461461030557806373d1fb46146103255780638dba95611461033857600080fd5b8063410e66f7146102915780634657b36c146102b2578063507f1465146102c557600080fd5b80630e38537f116101a25780630e38537f14610235578063150b7a021461024857806322f3e2d4146102675780632e778efc1461027b57600080fd5b806223de29146101c757806264e1d4146101e157806301ffc9a714610212575b600080fd5b6101df6101d5366004612ec4565b5050505050505050565b005b6101f46101ef366004612f74565b610486565b6040516001600160e01b031990911681526020015b60405180910390f35b610225610220366004612faf565b610812565b6040519015158152602001610209565b6101df6102433660046132d2565b610832565b6101f461025636600461333e565b630a85bd0160e11b95945050505050565b60005461022590600160a01b900460ff1681565b610283610842565b604051610209929190613400565b6102a461029f366004613722565b6108de565b604051908152602001610209565b6101df6102c0366004613756565b6108e9565b6001546102d8906001600160a01b031681565b6040516001600160a01b039091168152602001610209565b6102f8610938565b6040516102099190613773565b6103186103133660046138b1565b610a50565b60405161020991906139c7565b6101df6103333660046139da565b610a65565b6002546102d8906001600160a01b031681565b610353610a71565b6040516102099190613a0e565b61031861036e366004613a5c565b610b97565b6103186103813660046132d2565b610bac565b6101f4610394366004613b17565b63bc197c8160e01b98975050505050505050565b6103186103b63660046138b1565b610bb9565b6102a46103c9366004613bb4565b610bc6565b6000546102d8906001600160a01b031681565b6101df6103ef366004613be8565b610bd1565b6101df610402366004613c54565b610bdc565b6101df610415366004613c98565b610bea565b6101df610428366004613cdf565b610bf4565b6102a461043b366004613cfc565b610c3f565b6101f461044e366004613df2565b63f23a6e6160e01b9695505050505050565b7f00000000000000000000000000000000000000000000000000000000000000006102a4565b60006614d1505413d49560ca1b818160005460405163ac4ab3fb60e01b8152336004820152602481018390529192506001600160a01b03169063ac4ab3fb90604401602060405180830381865afa1580156104e5573d6000803e3d6000fd5b505050506040513d601f19601f820116820180604052508101906105099190613e6d565b61052e576040516371324ef360e11b8152600481018290526024015b60405180910390fd5b60008061053e60c0870187613e8a565b81019061054b9190613ed0565b6040805161010081018252893581526101408a0135602082015292945090925060009190810161057e60608a018a613f33565b808060200260200160405190810160405280939291908181526020016000905b828210156105ca576105bb60808302860136819003810190613f7c565b8152602001906001019061059e565b50505091835250506020016105e260808a018a613f98565b808060200260200160405190810160405280939291908181526020016000905b8282101561062e5761061f60a08302860136819003810190613fe0565b81526020019060010190610602565b505050918352505060200161064660a08a018a613f98565b808060200260200160405190810160405280939291908181526020016000905b828210156106925761068360a08302860136819003810190613fe0565b81526020019060010190610666565b505050505081526020018860200160208101906106af9190613756565b6001600160a01b031681526020016106cd60608a0160408b01613756565b6001600160a01b031681526020016106ed6101808a016101608b01613ffc565b60048111156106fe576106fe61390c565b90529050600061070d84610c4a565b9050600061071b8285610ce8565b905061072a8560600151610d31565b61073c85608001518460a00151610d5b565b6000546001600160a01b031663ac4ab3fb826c21a922a0aa22afa9a4a3a722a960991b6040516001600160e01b031960e085901b1681526001600160a01b0390921660048301526024820152604401602060405180830381865afa1580156107a8573d6000803e3d6000fd5b505050506040513d601f19601f820116820180604052508101906107cc9190613e6d565b6107f45760405163ba71bf9160e01b81526001600160a01b0382166004820152602401610525565b6107fe8584610da0565b506219387560e21b98975050505050505050565b600061081d8261119f565b8061082c575061082c826111ef565b92915050565b61083d838383611240565b505050565b604080516001808252818301909252606091829190816020015b60408051808201909152600081526060602082015281526020019060019003908161085c57905050905060058160008151811061089b5761089b61401d565b60200260200101516000018181525050806040518060400160405280601081526020016f52654e46542d52656e74616c5a6f6e6560801b81525090915091509091565b600061082c82610c4a565b6000546001600160a01b031633146109165760405163053e900f60e21b8152336004820152602401610525565b600080546001600160a01b0319166001600160a01b0392909216919091179055565b6000546060906001600160a01b031633146109685760405163053e900f60e21b8152336004820152602401610525565b6040805160028082526060820190925290816020015b604080518082019091526000808252602082015281526020019060019003908161097e57905050905060405180604001604052806109c16453544f524560d81b90565b6001600160d81b03191681526347f280ff60e01b602090910152815182906000906109ee576109ee61401d565b60200260200101819052506040518060400160405280610a1364455343525760d81b90565b6001600160d81b031916815263d417b7b360e01b602090910152815182906001908110610a4257610a4261401d565b602002602001018190525090565b6060610a5d84848461145d565b509192915050565b610a6e816115ee565b50565b6000546060906001600160a01b03163314610aa15760405163053e900f60e21b8152336004820152602401610525565b60408051600280825260608201835290916020830190803683370190505090506453544f524560d81b81600081518110610add57610add61401d565b6001600160d81b031990921660209283029190910190910152610b0d610b086453544f524560d81b90565b611672565b600180546001600160a01b0319166001600160a01b039290921691909117905564455343525760d81b81600181518110610b4957610b4961401d565b6001600160d81b031990921660209283029190910190910152610b74610b0864455343525760d81b90565b600280546001600160a01b0319166001600160a01b039290921691909117905590565b6060610ba484848461171e565b949350505050565b6060610a5d84848461188b565b6060610a5d848484611a0d565b600061082c82611bd6565b61083d838383611d0e565b610be68282611fa9565b5050565b610be68282612099565b6000546001600160a01b03163314610c215760405163053e900f60e21b8152336004820152602401610525565b60008054911515600160a01b0260ff60a01b19909216919091179055565b600061082c826121cc565b60007f00000000000000000000000000000000000000000000000000000000000000008260000151610c7f84602001516123d9565b610c8c8560400151611bd6565b6060808701516080808901516040805160208101999099528801969096529186019390935284015260a08301526001600160a01b031660c082015260e0015b604051602081830303815290604052805190602001209050919050565b60405161190160f01b81527f000000000000000000000000000000000000000000000000000000000000000060028201526022810183905260429020600090610ba4818461241f565b80421115610a6e57604051634083133b60e01b815242600482015260248101829052604401610525565b806001600160a01b0316826001600160a01b031614610be65760405163344bea3760e11b81526001600160a01b03808316600483015283166024820152604401610525565b610dad8160e00151612449565b81518151610dbb919061247d565b610dcd82604001518260200151611fa9565b610de38160a00151836020015160000151612099565b610df58160c0015182606001516124a6565b610e0281608001516115ee565b6000610e1f8260400151836060015185604001516000015161171e565b9050610e2a81612509565b604083015151610e4a906002811115610e4557610e4561390c565b6126b6565b80610e705750604083015151610e70906002811115610e6b57610e6b61390c565b6126d3565b1561083d5760408051600080825260208201909252905b8251811015610f1a57610eb2838281518110610ea557610ea561401d565b60200260200101516126dc565b15610f1257610f1282610eef876020015160000151868581518110610ed957610ed961401d565b60200260200101516126f690919063ffffffff16565b858481518110610f0157610f0161401d565b602002602001015160600151612758565b600101610e87565b5060006040518061012001604052808560000151815260200184815260200186604001516040015181526020018660400151600001516002811115610f6157610f6161390c565b81526020018560c001516001600160a01b0316815260200186608001516001600160a01b031681526020018660200151600001516001600160a01b0316815260200142815260200186604001516020015142610fbd9190614049565b905290506000610fcc826121cc565b6001549091506001600160a01b03166347f280ff82610fea8661279a565b6040518363ffffffff1660e01b815260040161100792919061405c565b600060405180830381600087803b15801561102157600080fd5b505af1158015611035573d6000803e3d6000fd5b5050505060005b84518110156111565760008582815181106110595761105961401d565b6020026020010151905061106c81612866565b1561110c5760025460608201516040830151611096926001600160a01b039182169291169061287e565b6002546040828101516060840151915163d417b7b360e01b81526001600160a01b03918216600482015260248101929092529091169063d417b7b390604401600060405180830381600087803b1580156110ef57600080fd5b505af1158015611103573d6000803e3d6000fd5b5050505061114d565b61111581612988565b1561112f5760c084015161112a908290612990565b61114d565b61113881612a00565b1561114d5760c084015161114d908290612a09565b5060010161103c565b5060408087015101515115611184576111848660400151604001518660400151886020015160000151611d0e565b6111978282886040015160600151612a69565b505050505050565b60006001600160e01b03198216630b9de3bf60e21b14806111d057506001600160e01b03198216632feca68f60e01b145b8061082c57506301ffc9a760e01b6001600160e01b031983161461082c565b60006001600160e01b03198216630a85bd0160e11b148061122057506001600160e01b03198216630271189760e51b145b8061082c57506001600160e01b031982166301ffc9a760e01b1492915050565b600080600080600086519050600160009054906101000a90046001600160a01b03166001600160a01b03166304e7b3b16040518163ffffffff1660e01b8152600401602060405180830381865afa15801561129f573d6000803e3d6000fd5b505050506040513d601f19601f820116820180604052508101906112c391906140a9565b8111156112e65760405163574dd12360e11b815260048101829052602401610525565b60005b818110156114295760008882815181106113055761130561401d565b6020026020010151905061131881612aee565b1561133657600094508493508661132e816140c2565b97505061139a565b61133f81612b06565b156113565760019450600093508661132e816140c2565b61135f81612b0f565b1561137e57600294506001935085611376816140c2565b96505061139a565b80516040516383039fc960e01b815261052591906004016140eb565b6040518060a001604052808660028111156113b7576113b761390c565b81526020018560018111156113ce576113ce61390c565b815260200182602001516001600160a01b031681526020018260600151815260200182604001518152508a89846114059190614049565b815181106114155761141561401d565b6020908102919091010152506001016112e9565b50841580611435575083155b156101d557604051631fb281c560e21b81526004810186905260248101859052604401610525565b815160008190036114815760405163f17b6acb60e01b815260040160405180910390fd5b600160009054906101000a90046001600160a01b03166001600160a01b031663acbf34a06040518163ffffffff1660e01b8152600401602060405180830381865afa1580156114d4573d6000803e3d6000fd5b505050506040513d601f19601f820116820180604052508101906114f891906140a9565b81111561151b576040516330f9052160e21b815260048101829052602401610525565b6000805b8281101561119757600085828151811061153b5761153b61401d565b6020026020010151905061154e81612aee565b1561155c576000925061156f565b61156581612b06565b1561137e57600192505b6040518060a0016040528084600281111561158c5761158c61390c565b81526020016000815260200182602001516001600160a01b031681526020018260600151815260200182604001518152508786846115ca9190614049565b815181106115da576115da61401d565b60209081029190910101525060010161151f565b60005b8151811015610be657600082828151811061160e5761160e61401d565b60200260200101519050306001600160a01b031681608001516001600160a01b0316146116695780516020820151604080840151606085015160808601519251630cdcade760e11b81526105259594939030906004016140f9565b506001016115f1565b60008054604051632d37002d60e21b81526001600160d81b03198416600482015282916001600160a01b03169063b4dc00b490602401602060405180830381865afa1580156116c5573d6000803e3d6000fd5b505050506040513d601f19601f820116820180604052508101906116e99190614140565b90506001600160a01b03811661082c57604051635c3fa9cd60e01b81526001600160d81b031984166004820152602401610525565b60608251845161172e9190614049565b6001600160401b0381111561174557611745612fd9565b60405190808252806020026020018201604052801561177e57816020015b61176b612e0a565b8152602001906001900390816117635790505b509050611796826002811115610e4557610e4561390c565b156117b8576117a78185600061145d565b6117b38184865161188b565b611884565b6117cd826002811115610e6b57610e6b61390c565b15611803576117de81856000611a0d565b8251156117b35782516040516387de9bb960e01b815260040161052591815260200190565b61181d8260028111156118185761181861390c565b612b18565b1561185357835115611847578351604051634985e5bd60e01b815260040161052591815260200190565b6117b381846000611240565b8160028111156118655761186561390c565b604051635109fe9b60e11b815260ff9091166004820152602401610525565b9392505050565b815160008190036118af57604051633d2662f560e01b815260040160405180910390fd5b600160009054906101000a90046001600160a01b03166001600160a01b03166304e7b3b16040518163ffffffff1660e01b8152600401602060405180830381865afa158015611902573d6000803e3d6000fd5b505050506040513d601f19601f8201168201806040525081019061192691906140a9565b8111156119495760405163574dd12360e11b815260048101829052602401610525565b60005b81811015611a065760008482815181106119685761196861401d565b6020026020010151905061197b81612b0f565b61199b5780516040516383039fc960e01b815261052591906004016140eb565b6040805160a0810182526002815260006020808301919091528301516001600160a01b03168183015260608084015190820152908201516080820152866119e28685614049565b815181106119f2576119f261401d565b60209081029190910101525060010161194c565b5050505050565b600080600080600086519050600160009054906101000a90046001600160a01b03166001600160a01b031663acbf34a06040518163ffffffff1660e01b8152600401602060405180830381865afa158015611a6c573d6000803e3d6000fd5b505050506040513d601f19601f82011682018060405250810190611a9091906140a9565b811115611ab3576040516330f9052160e21b815260048101829052602401610525565b60005b81811015611429576000888281518110611ad257611ad261401d565b60200260200101519050611ae581612aee565b15611b03576000945084935086611afb816140c2565b975050611b47565b611b0c81612b06565b15611b2357600194506000935086611afb816140c2565b611b2c81612b0f565b1561137e57600294506001935085611b43816140c2565b9650505b6040518060a00160405280866002811115611b6457611b6461390c565b8152602001856001811115611b7b57611b7b61390c565b815260200182602001516001600160a01b031681526020018260600151815260200182604001518152508a8984611bb29190614049565b81518110611bc257611bc261401d565b602090810291909101015250600101611ab6565b6000808260400151516001600160401b03811115611bf657611bf6612fd9565b604051908082528060200260200182016040528015611c1f578160200160208202803683370190505b50905060005b836040015151811015611c7d57611c5884604001518281518110611c4b57611c4b61401d565b6020026020010151612b21565b828281518110611c6a57611c6a61401d565b6020908102919091010152600101611c25565b507f00000000000000000000000000000000000000000000000000000000000000008360000151846020015183604051602001611cba919061415d565b60405160208183030381529060405280519060200120866060015180519060200120604051602001611cf095949392919061419c565b60405160208183030381529060405280519060200120915050919050565b600080611d19612e44565b60005b8651811015611fa057868181518110611d3757611d3761401d565b6020908102919091010151516001546040516361b397ed60e11b81526001600160a01b03808416600483015292965091169063c3672fda90602401602060405180830381865afa158015611d8f573d6000803e3d6000fd5b505050506040513d601f19601f82011682018060405250810190611db39190613e6d565b15611f9857868181518110611dca57611dca61401d565b6020026020010151602001519250858381518110611dea57611dea61401d565b60200260200101519150611dfd82612b86565b611e1d576040516335916f2360e11b815260048101849052602401610525565b836001600160a01b031663f5aa1eee868460200151856040015186606001518c8781518110611e4e57611e4e61401d565b6020026020010151604001516040518663ffffffff1660e01b8152600401611e7a9594939291906141ce565b600060405180830381600087803b158015611e9457600080fd5b505af1925050508015611ea5575060015b611f9857611eb1614213565b806308c379a003611eeb5750611ec561422f565b80611ed05750611f4d565b8060405163508b5be960e11b815260040161052591906142b8565b634e487b7103611f4d57611efd6142cb565b90611f085750611f4d565b6000611f1382612ba0565b905080604051602001611f2691906142eb565b60408051601f198184030181529082905263508b5be960e11b8252610525916004016142b8565b3d808015611f77576040519150601f19603f3d011682016040523d82523d6000602084013e611f7c565b606091505b5080604051635871576160e01b815260040161052591906142b8565b600101611d1c565b50505050505050565b8160200151600160009054906101000a90046001600160a01b03166001600160a01b031663ec3e21336040518163ffffffff1660e01b8152600401602060405180830381865afa158015612001573d6000803e3d6000fd5b505050506040513d601f19601f8201168201806040525081019061202591906140a9565b101561204c57816020015160405163db3a8fc560e01b815260040161052591815260200190565b8160200151600003612071576040516363aafc6160e11b815260040160405180910390fd5b8061207b83611bd6565b14610be65760405163101e5d2960e01b815260040160405180910390fd5b60015460405163f6fdddf160e01b81526001600160a01b0383811660048301529091169063f6fdddf190602401602060405180830381865afa1580156120e3573d6000803e3d6000fd5b505050506040513d601f19601f8201168201806040525081019061210791906140a9565b60000361213257604051632d0a0b2760e01b81526001600160a01b0382166004820152602401610525565b6040516317aa5fb760e11b81526001600160a01b038381166004830152821690632f54bf6e90602401602060405180830381865afa158015612178573d6000803e3d6000fd5b505050506040513d601f19601f8201168201806040525081019061219c9190613e6d565b610be657604051633e25500560e11b81526001600160a01b03808416600483015282166024820152604401610525565b6000808260200151516001600160401b038111156121ec576121ec612fd9565b604051908082528060200260200182016040528015612215578160200160208202803683370190505b50905060008360400151516001600160401b0381111561223757612237612fd9565b604051908082528060200260200182016040528015612260578160200160208202803683370190505b50905060005b8460200151518110156122be576122998560200151828151811061228c5761228c61401d565b6020026020010151612be4565b8382815181106122ab576122ab61401d565b6020908102919091010152600101612266565b5060005b84604001515181101561230d576122e885604001518281518110611c4b57611c4b61401d565b8282815181106122fa576122fa61401d565b60209081029190910101526001016122c2565b507f0000000000000000000000000000000000000000000000000000000000000000846000015183604051602001612345919061415d565b604051602081830303815290604052805190602001208360405160200161236c919061415d565b60405160208183030381529060405280519060200120876060015188608001518960a001518a60c001518b60e001518c61010001516040516020016123ba9a99989796959493929190614330565b6040516020818303038152906040528051906020012092505050919050565b8051604080517f000000000000000000000000000000000000000000000000000000000000000060208201526001600160a01b0390921690820152600090606001610ccb565b60008060008061242f8686612c35565b92509250925061243f8282612c82565b5090949350505050565b600281600481111561245d5761245d61390c565b14610a6e5780604051636d6f0ea160e11b81526004016105259190614396565b808214610be657604051621df6d360e41b81526004810183905260248101829052604401610525565b60005b815181101561083d578181815181106124c4576124c461401d565b6020026020010151608001516001600160a01b0316836001600160a01b03160361250157604051630d3e2fb360e11b815260040160405180910390fd5b6001016124a9565b60005b8151811015610be65760008282815181106125295761252961401d565b602002602001015160400151905061254c838381518110610ea557610ea561401d565b80156125c357506001546040516317eeeea960e31b81526001600160a01b0383811660048301529091169063bf77754890602401602060405180830381865afa15801561259d573d6000803e3d6000fd5b505050506040513d601f19601f820116820180604052508101906125c19190613e6d565b155b156125ec57604051630c52562f60e41b81526001600160a01b0382166004820152602401610525565b61260e8383815181106126015761260161401d565b6020026020010151612866565b8015612684575060015460405162e4fcf160e21b81526001600160a01b03838116600483015290911690630393f3c490602401602060405180830381865afa15801561265e573d6000803e3d6000fd5b505050506040513d601f19601f820116820180604052508101906126829190613e6d565b155b156126ad5760405163397c71bf60e11b81526001600160a01b0382166004820152602401610525565b5060010161250c565b6000805b8260028111156126cc576126cc61390c565b1492915050565b600060016126ba565b60006126e782612988565b8061082c575061082c82612a00565b600061188482846040015185608001516040516bffffffffffffffffffffffff19606085811b8216602084015284901b166034820152604881018290526000906068016040516020818303038152906040528051906020012090509392505050565b8251829061276c5760208452600084602001525b8351602080860180516040938401885260010190819052820290950191825293810191909152820190915250565b60208101805160609190806001600160401b038111156127bc576127bc612fd9565b60405190808252806020026020018201604052801561280157816020015b60408051808201909152600080825260208201528152602001906001900390816127da5790505b50925060005b8181101561285e57604081810284016020818101519183015183518085019094528284529083018190528651919290918790859081106128495761284961401d565b60209081029190910101525050600101612807565b505050919050565b600060025b825160028111156126cc576126cc61390c565b604080516001600160a01b038481166024830152604480830185905283518084039091018152606490920183526020820180516001600160e01b031663a9059cbb60e01b17905291516000928392908716916128da91906143b0565b6000604051808303816000865af19150503d8060008114612917576040519150601f19603f3d011682016040523d82523d6000602084013e61291c565b606091505b509150915081158061294a575080511580159061294a5750808060200190518101906129489190613e6d565b155b15611a0657604051632037bb5b60e01b81526001600160a01b0380871660048301523060248301528516604482015260648101849052608401610525565b60008061286b565b60408083015160808401519151632142170760e11b81523060048201526001600160a01b03848116602483015260448201939093529116906342842e0e906064015b600060405180830381600087803b1580156129ec57600080fd5b505af1158015611197573d6000803e3d6000fd5b6000600161286b565b604082810151608084015160608501519251637921219560e11b81523060048201526001600160a01b0385811660248301526044820192909252606481019390935260a06084840152600060a4840152169063f242432a9060c4016129d2565b8260a001516001600160a01b031683608001516001600160a01b03167fb6222b2355a05d87c72578605c810af2691601e9e8f3b1e6487d72f1343a1e1784848760000151886020015189604001518a606001518b60c001518c60e001518d6101000151604051612ae1999897969594939291906143cc565b60405180910390a3505050565b600060025b825160058111156126cc576126cc61390c565b60006003612af3565b60006001612af3565b600060026126ba565b805160208083015160408085015180519084012081517f0000000000000000000000000000000000000000000000000000000000000000948101949094526001600160a01b03909416908301526060820152608081019190915260009060a001610ccb565b6000612b9182612aee565b8061082c575061082c82612b06565b60606080604051019050602081016040526000815280600019835b928101926030600a8206018453600a900480612bbb575050819003601f19909101908152919050565b60007f000000000000000000000000000000000000000000000000000000000000000082600001518360200151846040015185606001518660800151604051602001610ccb969594939291906144b8565b60008060008351604103612c6f5760208401516040850151606086015160001a612c6188828585612d3b565b955095509550505050612c7b565b50508151600091506002905b9250925092565b6000826003811115612c9657612c9661390c565b03612c9f575050565b6001826003811115612cb357612cb361390c565b03612cd15760405163f645eedf60e01b815260040160405180910390fd5b6002826003811115612ce557612ce561390c565b03612d065760405163fce698f760e01b815260048101829052602401610525565b6003826003811115612d1a57612d1a61390c565b03610be6576040516335e2f38360e21b815260048101829052602401610525565b600080807f7fffffffffffffffffffffffffffffff5d576e7357a4501ddfe92f46681b20a0841115612d765750600091506003905082612e00565b604080516000808252602082018084528a905260ff891692820192909252606081018790526080810186905260019060a0016020604051602081039080840390855afa158015612dca573d6000803e3d6000fd5b5050604051601f1901519150506001600160a01b038116612df657506000925060019150829050612e00565b9250600091508190505b9450945094915050565b6040805160a08101909152806000815260200160005b815260200160006001600160a01b0316815260200160008152602001600081525090565b6040805160808101909152806000612e20565b6001600160a01b0381168114610a6e57600080fd5b8035612e7781612e57565b919050565b60008083601f840112612e8e57600080fd5b5081356001600160401b03811115612ea557600080fd5b602083019150836020828501011115612ebd57600080fd5b9250929050565b60008060008060008060008060c0898b031215612ee057600080fd5b8835612eeb81612e57565b97506020890135612efb81612e57565b96506040890135612f0b81612e57565b95506060890135945060808901356001600160401b0380821115612f2e57600080fd5b612f3a8c838d01612e7c565b909650945060a08b0135915080821115612f5357600080fd5b50612f608b828c01612e7c565b999c989b5096995094979396929594505050565b600060208284031215612f8657600080fd5b81356001600160401b03811115612f9c57600080fd5b8201610180818503121561188457600080fd5b600060208284031215612fc157600080fd5b81356001600160e01b03198116811461188457600080fd5b634e487b7160e01b600052604160045260246000fd5b60a081018181106001600160401b038211171561300e5761300e612fd9565b60405250565b606081018181106001600160401b038211171561300e5761300e612fd9565b608081018181106001600160401b038211171561300e5761300e612fd9565b602081018181106001600160401b038211171561300e5761300e612fd9565b601f8201601f191681016001600160401b038111828210171561309657613096612fd9565b6040525050565b60405161012081016001600160401b03811182821017156130c0576130c0612fd9565b60405290565b60006001600160401b038211156130df576130df612fd9565b5060051b60200190565b60038110610a6e57600080fd5b8035612e77816130e9565b600082601f83011261311257600080fd5b8135602061311f826130c6565b6040805161312d8382613071565b84815260a0948502870184019484820193508886111561314c57600080fd5b8488015b868110156131c85781818b0312156131685760008081fd5b835161317381612fef565b813561317e816130e9565b815281870135600281106131925760008081fd5b81880152818501356131a381612e57565b8186015260608281013590820152608080830135908201528552938501938101613150565b509098975050505050505050565b803560068110612e7757600080fd5b600060a082840312156131f757600080fd5b60405161320381612fef565b80915061320f836131d6565b8152602083013561321f81612e57565b806020830152506040830135604082015260608301356060820152608083013561324881612e57565b6080919091015292915050565b600082601f83011261326657600080fd5b81356020613273826130c6565b6040516132808282613071565b838152602060a094850287018101949082019250878511156132a157600080fd5b602087015b858110156132c5576132b889826131e5565b84529284019281016132a6565b5090979650505050505050565b6000806000606084860312156132e757600080fd5b83356001600160401b03808211156132fe57600080fd5b61330a87838801613101565b9450602086013591508082111561332057600080fd5b5061332d86828701613255565b925050604084013590509250925092565b60008060008060006080868803121561335657600080fd5b853561336181612e57565b9450602086013561337181612e57565b93506040860135925060608601356001600160401b0381111561339357600080fd5b61339f88828901612e7c565b969995985093965092949392505050565b60005b838110156133cb5781810151838201526020016133b3565b50506000910152565b600081518084526133ec8160208601602086016133b0565b601f01601f19169290920160200192915050565b6000604080835261341460408401866133d4565b6020848203818601528186518084528284019150828160051b85010183890160005b8381101561347557868303601f19018552815180518452860151868401899052613462898501826133d4565b9587019593505090850190600101613436565b50909a9950505050505050505050565b600082601f83011261349657600080fd5b81356001600160401b038111156134af576134af612fd9565b6040516134c6601f8301601f191660200182613071565b8181528460208386010111156134db57600080fd5b816020850160208301376000918101602001919091529392505050565b600082601f83011261350957600080fd5b81356020613516826130c6565b604080516135248382613071565b84815260059490941b860183019383810192508785111561354457600080fd5b8387015b858110156135d95780356001600160401b03808211156135685760008081fd5b908901906060828c03601f19018113156135825760008081fd5b855161358d81613014565b8884013561359a81612e57565b815283870135898201529083013590828211156135b75760008081fd5b6135c58d8a84870101613485565b818801528752505050928401928401613548565b50979650505050505050565b6000608082840312156135f757600080fd5b60405161360381613033565b8091508235613611816130e9565b81526020838101359082015260408301356001600160401b038082111561363757600080fd5b613643868387016134f8565b6040840152606085013591508082111561365c57600080fd5b5061366985828601613485565b6060830152505092915050565b600081830360a081121561368957600080fd5b60405161369581612fef565b833581529150816020601f19830112156136ae57600080fd5b60405191506136bc82613052565b60208401356136ca81612e57565b825260208101919091526040830135906001600160401b038211156136ee57600080fd5b6136fa858386016135e5565b60408201526060840135606082015261371560808501612e6c565b6080820152505092915050565b60006020828403121561373457600080fd5b81356001600160401b0381111561374a57600080fd5b610ba484828501613676565b60006020828403121561376857600080fd5b813561188481612e57565b602080825282518282018190526000919060409081850190868401855b828110156137c957815180516001600160d81b03191685528601516001600160e01b031916868501529284019290850190600101613790565b5091979650505050505050565b6000608082840312156137e857600080fd5b6040516137f481613033565b809150613800836131d6565b8152602083013561381081612e57565b8060208301525060408301356040820152606083013560608201525092915050565b600082601f83011261384357600080fd5b81356020613850826130c6565b60405161385d8282613071565b80915083815260208101915060208460071b87010193508684111561388157600080fd5b602086015b848110156138a65761389888826137d6565b835291830191608001613886565b509695505050505050565b6000806000606084860312156138c657600080fd5b83356001600160401b03808211156138dd57600080fd5b6138e987838801613101565b945060208601359150808211156138ff57600080fd5b5061332d86828701613832565b634e487b7160e01b600052602160045260246000fd5b60038110610a6e57610a6e61390c565b600281106139425761394261390c565b9052565b60008151808452602080850194506020840160005b838110156139bc578151805161397081613922565b885280840151613982858a0182613932565b506040818101516001600160a01b031690890152606080820151908901526080908101519088015260a0909601959082019060010161395b565b509495945050505050565b6020815260006118846020830184613946565b6000602082840312156139ec57600080fd5b81356001600160401b03811115613a0257600080fd5b610ba484828501613255565b6020808252825182820181905260009190848201906040850190845b81811015613a505783516001600160d81b03191683529284019291840191600101613a2a565b50909695505050505050565b600080600060608486031215613a7157600080fd5b83356001600160401b0380821115613a8857600080fd5b613a9487838801613832565b94506020860135915080821115613aaa57600080fd5b50613ab786828701613255565b9250506040840135613ac8816130e9565b809150509250925092565b60008083601f840112613ae557600080fd5b5081356001600160401b03811115613afc57600080fd5b6020830191508360208260051b8501011115612ebd57600080fd5b60008060008060008060008060a0898b031215613b3357600080fd5b8835613b3e81612e57565b97506020890135613b4e81612e57565b965060408901356001600160401b0380821115613b6a57600080fd5b613b768c838d01613ad3565b909850965060608b0135915080821115613b8f57600080fd5b613b9b8c838d01613ad3565b909650945060808b0135915080821115612f5357600080fd5b600060208284031215613bc657600080fd5b81356001600160401b03811115613bdc57600080fd5b610ba4848285016135e5565b600080600060608486031215613bfd57600080fd5b83356001600160401b0380821115613c1457600080fd5b613c20878388016134f8565b94506020860135915080821115613c3657600080fd5b50613c4386828701613832565b9250506040840135613ac881612e57565b60008060408385031215613c6757600080fd5b82356001600160401b03811115613c7d57600080fd5b613c89858286016135e5565b95602094909401359450505050565b60008060408385031215613cab57600080fd5b8235613cb681612e57565b91506020830135613cc681612e57565b809150509250929050565b8015158114610a6e57600080fd5b600060208284031215613cf157600080fd5b813561188481613cd1565b600060208284031215613d0e57600080fd5b81356001600160401b0380821115613d2557600080fd5b908301906101208286031215613d3a57600080fd5b613d4261309d565b82358152602083013582811115613d5857600080fd5b613d6487828601613101565b602083015250604083013582811115613d7c57600080fd5b613d88878286016134f8565b604083015250613d9a606084016130f6565b6060820152613dab60808401612e6c565b6080820152613dbc60a08401612e6c565b60a0820152613dcd60c08401612e6c565b60c082015260e083810135908201526101009283013592810192909252509392505050565b60008060008060008060a08789031215613e0b57600080fd5b8635613e1681612e57565b95506020870135613e2681612e57565b9450604087013593506060870135925060808701356001600160401b03811115613e4f57600080fd5b613e5b89828a01612e7c565b979a9699509497509295939492505050565b600060208284031215613e7f57600080fd5b815161188481613cd1565b6000808335601e19843603018112613ea157600080fd5b8301803591506001600160401b03821115613ebb57600080fd5b602001915036819003821315612ebd57600080fd5b60008060408385031215613ee357600080fd5b82356001600160401b0380821115613efa57600080fd5b613f0686838701613676565b93506020850135915080821115613f1c57600080fd5b50613f2985828601613485565b9150509250929050565b6000808335601e19843603018112613f4a57600080fd5b8301803591506001600160401b03821115613f6457600080fd5b6020019150600781901b3603821315612ebd57600080fd5b600060808284031215613f8e57600080fd5b61188483836137d6565b6000808335601e19843603018112613faf57600080fd5b8301803591506001600160401b03821115613fc957600080fd5b602001915060a081023603821315612ebd57600080fd5b600060a08284031215613ff257600080fd5b61188483836131e5565b60006020828403121561400e57600080fd5b81356005811061188457600080fd5b634e487b7160e01b600052603260045260246000fd5b634e487b7160e01b600052601160045260246000fd5b8082018082111561082c5761082c614033565b6000604080830185845260206040602086015281865180845260608701915060208801935060005b818110156131c857845180518452840151848401529383019391850191600101614084565b6000602082840312156140bb57600080fd5b5051919050565b6000600182016140d4576140d4614033565b5060010190565b600681106139425761394261390c565b6020810161082c82846140db565b60c0810161410782896140db565b6001600160a01b03968716602083015260408201959095526060810193909352908416608083015290921660a090920191909152919050565b60006020828403121561415257600080fd5b815161188481612e57565b815160009082906020808601845b838110156141875781518552938201939082019060010161416b565b50929695505050505050565b61394281613922565b85815260a081016141ac86613922565b8560208301528460408301528360608301528260808301529695505050505050565b6001600160a01b03868116825285166020820152604081018490526060810183905260a060808201819052600090614208908301846133d4565b979650505050505050565b600060033d111561422c5760046000803e5060005160e01c5b90565b600060443d101561423d5790565b6040516003193d81016004833e81513d6001600160401b03816024840111818411171561426c57505050505090565b82850191508151818111156142845750505050505090565b843d870101602082850101111561429e5750505050505090565b6142ad60208286010187613071565b509095945050505050565b60208152600061188460208301846133d4565b60008060233d11156142e7576020600460003e50506000516001905b9091565b7f486f6f6b2072657665727465643a2050616e696320636f64652000000000000081526000825161432381601a8501602087016133b0565b91909101601a0192915050565b6000610140820190508b82528a602083015289604083015288606083015261435788613922565b60808201979097526001600160a01b0395861660a082015293851660c08501529190931660e08301526101008201929092526101200152949350505050565b60208101600583106143aa576143aa61390c565b91905290565b600082516143c28184602087016133b0565b9190910192915050565b60006101208b8352602081818501526143e78285018d6133d4565b915060408b604086015260608584036060870152614405848d613946565b93508584036080870152838b518086528486019150848160051b870101858e0160005b8381101561447857888303601f19018552815180516001600160a01b031684528881015189850152870151878401879052614465878501826133d4565b9589019593505090870190600101614428565b50508097505050505050505061449160a0830187614193565b6001600160a01b03851660c083015260e08201939093526101000152979650505050505050565b86815260c081016144c887613922565b8660208301526144db6040830187613932565b6001600160a01b03949094166060820152608081019290925260a090910152939250505056fea2646970667358221220b6889bca1937d9b7d570303efd729e58a602a98c36b3c9ede4547b896510ae1364736f6c63430008160033","linkReferences":{}},"methodIdentifiers":{"ESCRW()":"8dba9561","STORE()":"507f1465","addHooks((address,uint256,bytes)[],(uint8,address,uint256,uint256)[],address)":"dd3e00b3","changeKernel(address)":"4657b36c","configureDependencies()":"9459b875","convertToItems((uint8,address,uint256,uint256)[],(uint8,address,uint256,uint256,address)[],uint8)":"a1406617","domainSeparator()":"f698da25","executionInvariantChecks((uint8,address,uint256,uint256,address)[])":"73d1fb46","getOrderMetadataHash((uint8,uint256,(address,uint256,bytes)[],bytes))":"d3f969d1","getRentPayloadHash((bytes32,(address),(uint8,uint256,(address,uint256,bytes)[],bytes),uint256,address))":"410e66f7","getRentalOrderHash((bytes32,(uint8,uint8,address,uint256,uint256)[],(address,uint256,bytes)[],uint8,address,address,address,uint256,uint256))":"ef985276","getSeaportMetadata()":"2e778efc","isActive()":"22f3e2d4","isValidOrderMetadata((uint8,uint256,(address,uint256,bytes)[],bytes),bytes32)":"e1ae9cb6","isValidSafeOwner(address,address)":"e4b717a6","kernel()":"d4aae0c4","onERC1155BatchReceived(address,address,uint256[],uint256[],bytes)":"bc197c81","onERC1155Received(address,address,uint256,uint256,bytes)":"f23a6e61","onERC721Received(address,address,uint256,bytes)":"150b7a02","processBaseOrderConsideration((uint8,uint8,address,uint256,uint256)[],(uint8,address,uint256,uint256,address)[],uint256)":"a31f33e5","processBaseOrderOffer((uint8,uint8,address,uint256,uint256)[],(uint8,address,uint256,uint256)[],uint256)":"5ae1e346","processPayOrderOffer((uint8,uint8,address,uint256,uint256)[],(uint8,address,uint256,uint256)[],uint256)":"beb85708","processPayeeOrderConsideration((uint8,uint8,address,uint256,uint256)[],(uint8,address,uint256,uint256,address)[],uint256)":"0e38537f","requestPermissions()":"5924be70","setActiveStatus(bool)":"ec7404b1","supportsInterface(bytes4)":"01ffc9a7","tokensReceived(address,address,address,uint256,bytes,bytes)":"0023de29","validateOrder((bytes32,address,address,(uint8,address,uint256,uint256)[],(uint8,address,uint256,uint256,address)[],(uint8,address,uint256,uint256,address)[],bytes,bytes32[],uint256,uint256,bytes32,uint8))":"0064e1d4"},"id":252}