{"abi":[{"type":"constructor","inputs":[{"name":"kernel_","type":"address","internalType":"contract Kernel"}],"stateMutability":"nonpayable"},{"type":"function","name":"ESCRW","inputs":[],"outputs":[{"name":"","type":"address","internalType":"contract PaymentEscrow"}],"stateMutability":"view"},{"type":"function","name":"STORE","inputs":[],"outputs":[{"name":"","type":"address","internalType":"contract Storage"}],"stateMutability":"view"},{"type":"function","name":"changeKernel","inputs":[{"name":"newKernel_","type":"address","internalType":"contract Kernel"}],"outputs":[],"stateMutability":"nonpayable"},{"type":"function","name":"configureDependencies","inputs":[],"outputs":[{"name":"dependencies","type":"bytes5[]","internalType":"Keycode[]"}],"stateMutability":"nonpayable"},{"type":"function","name":"isActive","inputs":[],"outputs":[{"name":"","type":"bool","internalType":"bool"}],"stateMutability":"view"},{"type":"function","name":"kernel","inputs":[],"outputs":[{"name":"","type":"address","internalType":"contract Kernel"}],"stateMutability":"view"},{"type":"function","name":"reclaimRentalOrder","inputs":[{"name":"rentalOrder","type":"tuple","internalType":"struct RentalOrder","components":[{"name":"seaportOrderHash","type":"bytes32","internalType":"bytes32"},{"name":"items","type":"tuple[]","internalType":"struct Item[]","components":[{"name":"itemType","type":"uint8","internalType":"enum ItemType"},{"name":"settleTo","type":"uint8","internalType":"enum SettleTo"},{"name":"token","type":"address","internalType":"address"},{"name":"amount","type":"uint256","internalType":"uint256"},{"name":"identifier","type":"uint256","internalType":"uint256"}]},{"name":"hooks","type":"tuple[]","internalType":"struct Hook[]","components":[{"name":"target","type":"address","internalType":"address"},{"name":"itemIndex","type":"uint256","internalType":"uint256"},{"name":"extraData","type":"bytes","internalType":"bytes"}]},{"name":"orderType","type":"uint8","internalType":"enum OrderType"},{"name":"lender","type":"address","internalType":"address"},{"name":"renter","type":"address","internalType":"address"},{"name":"rentalWallet","type":"address","internalType":"address"},{"name":"startTimestamp","type":"uint256","internalType":"uint256"},{"name":"endTimestamp","type":"uint256","internalType":"uint256"}]}],"outputs":[],"stateMutability":"nonpayable"},{"type":"function","name":"reclaimRentedItems","inputs":[{"name":"order","type":"tuple","internalType":"struct RentalOrder","components":[{"name":"seaportOrderHash","type":"bytes32","internalType":"bytes32"},{"name":"items","type":"tuple[]","internalType":"struct Item[]","components":[{"name":"itemType","type":"uint8","internalType":"enum ItemType"},{"name":"settleTo","type":"uint8","internalType":"enum SettleTo"},{"name":"token","type":"address","internalType":"address"},{"name":"amount","type":"uint256","internalType":"uint256"},{"name":"identifier","type":"uint256","internalType":"uint256"}]},{"name":"hooks","type":"tuple[]","internalType":"struct Hook[]","components":[{"name":"target","type":"address","internalType":"address"},{"name":"itemIndex","type":"uint256","internalType":"uint256"},{"name":"extraData","type":"bytes","internalType":"bytes"}]},{"name":"orderType","type":"uint8","internalType":"enum OrderType"},{"name":"lender","type":"address","internalType":"address"},{"name":"renter","type":"address","internalType":"address"},{"name":"rentalWallet","type":"address","internalType":"address"},{"name":"startTimestamp","type":"uint256","internalType":"uint256"},{"name":"endTimestamp","type":"uint256","internalType":"uint256"}]}],"outputs":[],"stateMutability":"nonpayable"},{"type":"function","name":"removeHooks","inputs":[{"name":"hooks","type":"tuple[]","internalType":"struct Hook[]","components":[{"name":"target","type":"address","internalType":"address"},{"name":"itemIndex","type":"uint256","internalType":"uint256"},{"name":"extraData","type":"bytes","internalType":"bytes"}]},{"name":"rentalItems","type":"tuple[]","internalType":"struct Item[]","components":[{"name":"itemType","type":"uint8","internalType":"enum ItemType"},{"name":"settleTo","type":"uint8","internalType":"enum SettleTo"},{"name":"token","type":"address","internalType":"address"},{"name":"amount","type":"uint256","internalType":"uint256"},{"name":"identifier","type":"uint256","internalType":"uint256"}]},{"name":"rentalWallet","type":"address","internalType":"address"}],"outputs":[],"stateMutability":"nonpayable"},{"type":"function","name":"requestPermissions","inputs":[],"outputs":[{"name":"requests","type":"tuple[]","internalType":"struct Permissions[]","components":[{"name":"keycode","type":"bytes5","internalType":"Keycode"},{"name":"funcSelector","type":"bytes4","internalType":"bytes4"}]}],"stateMutability":"view"},{"type":"function","name":"setActiveStatus","inputs":[{"name":"activate_","type":"bool","internalType":"bool"}],"outputs":[],"stateMutability":"nonpayable"},{"type":"function","name":"stopRent","inputs":[{"name":"order","type":"tuple","internalType":"struct RentalOrder","components":[{"name":"seaportOrderHash","type":"bytes32","internalType":"bytes32"},{"name":"items","type":"tuple[]","internalType":"struct Item[]","components":[{"name":"itemType","type":"uint8","internalType":"enum ItemType"},{"name":"settleTo","type":"uint8","internalType":"enum SettleTo"},{"name":"token","type":"address","internalType":"address"},{"name":"amount","type":"uint256","internalType":"uint256"},{"name":"identifier","type":"uint256","internalType":"uint256"}]},{"name":"hooks","type":"tuple[]","internalType":"struct Hook[]","components":[{"name":"target","type":"address","internalType":"address"},{"name":"itemIndex","type":"uint256","internalType":"uint256"},{"name":"extraData","type":"bytes","internalType":"bytes"}]},{"name":"orderType","type":"uint8","internalType":"enum OrderType"},{"name":"lender","type":"address","internalType":"address"},{"name":"renter","type":"address","internalType":"address"},{"name":"rentalWallet","type":"address","internalType":"address"},{"name":"startTimestamp","type":"uint256","internalType":"uint256"},{"name":"endTimestamp","type":"uint256","internalType":"uint256"}]}],"outputs":[],"stateMutability":"nonpayable"},{"type":"function","name":"stopRentBatch","inputs":[{"name":"orders","type":"tuple[]","internalType":"struct RentalOrder[]","components":[{"name":"seaportOrderHash","type":"bytes32","internalType":"bytes32"},{"name":"items","type":"tuple[]","internalType":"struct Item[]","components":[{"name":"itemType","type":"uint8","internalType":"enum ItemType"},{"name":"settleTo","type":"uint8","internalType":"enum SettleTo"},{"name":"token","type":"address","internalType":"address"},{"name":"amount","type":"uint256","internalType":"uint256"},{"name":"identifier","type":"uint256","internalType":"uint256"}]},{"name":"hooks","type":"tuple[]","internalType":"struct Hook[]","components":[{"name":"target","type":"address","internalType":"address"},{"name":"itemIndex","type":"uint256","internalType":"uint256"},{"name":"extraData","type":"bytes","internalType":"bytes"}]},{"name":"orderType","type":"uint8","internalType":"enum OrderType"},{"name":"lender","type":"address","internalType":"address"},{"name":"renter","type":"address","internalType":"address"},{"name":"rentalWallet","type":"address","internalType":"address"},{"name":"startTimestamp","type":"uint256","internalType":"uint256"},{"name":"endTimestamp","type":"uint256","internalType":"uint256"}]}],"outputs":[],"stateMutability":"nonpayable"},{"type":"function","name":"validateRentalCanBeStopped","inputs":[{"name":"orderType","type":"uint8","internalType":"enum OrderType"},{"name":"startTimestamp","type":"uint256","internalType":"uint256"},{"name":"endTimestamp","type":"uint256","internalType":"uint256"},{"name":"expectedLender","type":"address","internalType":"address"}],"outputs":[],"stateMutability":"view"},{"type":"event","name":"RentalOrderStopped","inputs":[{"name":"seaportOrderHash","type":"bytes32","indexed":false,"internalType":"bytes32"},{"name":"stopper","type":"address","indexed":false,"internalType":"address"}],"anonymous":false},{"type":"error","name":"KernelAdapter_OnlyKernel","inputs":[{"name":"caller_","type":"address","internalType":"address"}]},{"type":"error","name":"Policy_ModuleDoesNotExist","inputs":[{"name":"keycode_","type":"bytes5","internalType":"Keycode"}]},{"type":"error","name":"ReclaimerPackage_OnlyDelegateCallAllowed","inputs":[]},{"type":"error","name":"ReclaimerPackage_OnlyRentalSafeAllowed","inputs":[{"name":"reclaimer","type":"address","internalType":"address"}]},{"type":"error","name":"Shared_HookFailBytes","inputs":[{"name":"revertData","type":"bytes","internalType":"bytes"}]},{"type":"error","name":"Shared_HookFailString","inputs":[{"name":"revertReason","type":"string","internalType":"string"}]},{"type":"error","name":"Shared_NonRentalHookItem","inputs":[{"name":"itemIndex","type":"uint256","internalType":"uint256"}]},{"type":"error","name":"Shared_OrderTypeNotSupported","inputs":[{"name":"orderType","type":"uint8","internalType":"uint8"}]},{"type":"error","name":"StopPolicy_CannotStopOrder","inputs":[{"name":"timestamp","type":"uint256","internalType":"uint256"},{"name":"stopper","type":"address","internalType":"address"}]},{"type":"error","name":"StopPolicy_OrderDoesNotExist","inputs":[{"name":"orderHash","type":"bytes32","internalType":"bytes32"}]},{"type":"error","name":"StopPolicy_ReclaimFailed","inputs":[]},{"type":"error","name":"StopPolicy_StoppedTooSoon","inputs":[]}],"bytecode":{"object":"0x6102006040523480156200001257600080fd5b506040516200332d3803806200332d833981016040819052620000359162000640565b600080546001600160a01b0319166001600160a01b038316179055806200005b6200009b565b6101005260c05260a05260805262000072620001c5565b6101c0526101a0526101805261016052610140526101205250504660e052306101e052620006d1565b604080518082018252600d81526c52654e46542d52656e74616c7360981b6020918201528151808301835260058152640312e302e360dc1b9082015290517f9650e8727fbb774f0b68cbf8b082cb7c4c4d1bef28b4ac9e17b87fd4da697c0e917f06c015bd22b4c69690933c1058878ebdfef31f9aaae40bbe86d8a09fe1b2972c9160009182916200019291017f454950373132446f6d61696e28737472696e67206e616d652c737472696e672081527f76657273696f6e2c75696e7432353620636861696e49642c6164647265737320602082015271766572696679696e67436f6e74726163742960701b604082015260520190565b604051602081830303815290604052805190602001209150620001bd828585620005f760201b60201c565b905090919293565b600080600080600080600060405160200162000250907f4974656d2875696e7438206974656d547970652c75696e743820736574746c6581527f546f2c6164647265737320746f6b656e2c75696e7432353620616d6f756e742c60208201527f75696e74323536206964656e7469666965722900000000000000000000000000604082015260530190565b60405160208183030381529060405290506000604051602001620002bd907f486f6f6b2861646472657373207461726765742c75696e74323536206974656d81527f496e6465782c6279746573206578747261446174612900000000000000000000602082015260360190565b60405160208183030381529060405290506000604051602001620003b3907f52656e74616c4f72646572286279746573333220736561706f72744f7264657281527f486173682c4974656d5b5d206974656d732c486f6f6b5b5d20686f6f6b732c7560208201527f696e7438206f72646572547970652c61646472657373206c656e6465722c616460408201527f64726573732072656e7465722c616464726573732072656e74616c57616c6c6560608201527f742c75696e7432353620737461727454696d657374616d702c75696e7432353660808201526d20656e6454696d657374616d702960901b60a082015260ae0190565b60405160208183030381529060405290508280519060200120985081805190602001209750808284604051602001620003ef93929190620006a4565b604051602081830303815290604052805190602001209650600060405160200162000449907f4f7264657246756c66696c6c6d656e74286164647265737320726563697069658152626e742960e81b602082015260230190565b60405160208183030381529060405290506000604051602001620004dc907f4f726465724d657461646174612875696e7438206f72646572547970652c756981527f6e743235362072656e744475726174696f6e2c486f6f6b5b5d20686f6f6b732c60208201527f627974657320656d697474656445787472614461746129000000000000000000604082015260570190565b6040516020818303038152906040529050600060405160200162000595907f52656e745061796c6f61642862797465733332206f72646572486173682c4f7281527f64657246756c66696c6c6d656e742066756c66696c6c6d656e742c4f7264657260208201527f4d65746164617461206d657461646174612c75696e743235362065787069726160408201527f74696f6e2c6164647265737320696e74656e64656446756c66696c6c657229006060820152607f0190565b6040516020818303038152906040529050808383604051602001620005bd93929190620006a4565b6040516020818303038152906040528051906020012096508280519060200120985081805190602001209750505050505050909192939495565b6040805160208101859052908101839052606081018290524660808201523060a082015260009060c0016040516020818303038152906040528051906020012090509392505050565b6000602082840312156200065357600080fd5b81516001600160a01b03811681146200066b57600080fd5b9392505050565b6000815160005b8181101562000695576020818501810151868301520162000679565b50600093019283525090919050565b6000620006c8620006c1620006ba848862000672565b8662000672565b8462000672565b95945050505050565b60805160a05160c05160e05161010051610120516101405161016051610180516101a0516101c0516101e051612be26200074b60003960006102b1015260005050600050506000505060006116c701526000611a56015260006119d401526000505060005050600050506000505060005050612be26000f3fe608060405234801561001057600080fd5b50600436106100ea5760003560e01c80638dba95611161008c578063ca540d2f11610066578063ca540d2f146101e1578063d4aae0c4146101f4578063ec7404b114610207578063f1c9e1881461021a57600080fd5b80638dba9561146101a65780639459b875146101b95780639778e5f1146101ce57600080fd5b80634657b36c116100c85780634657b36c146101405780634b251fe314610153578063507f1465146101665780635924be701461019157600080fd5b80630b5bd2e8146100ef5780631c3dc1d31461010457806322f3e2d414610117575b600080fd5b6101026100fd366004611b00565b61022d565b005b610102610112366004611b95565b61023f565b60005461012b90600160a01b900460ff1681565b60405190151581526020015b60405180910390f35b61010261014e366004611c45565b610253565b610102610161366004611c62565b6102a7565b600154610179906001600160a01b031681565b6040516001600160a01b039091168152602001610137565b610199610418565b6040516101379190611c9d565b600254610179906001600160a01b031681565b6101c16105d8565b6040516101379190611d00565b6101026101dc366004612136565b6106fe565b6101026101ef366004612172565b61070a565b600054610179906001600160a01b031681565b6101026102153660046121c1565b610c56565b610102610228366004611c62565b610ca1565b61023984848484610f0e565b50505050565b61024c8585858585611014565b5050505050565b6000546001600160a01b031633146102855760405163053e900f60e21b81523360048201526024015b60405180910390fd5b600080546001600160a01b0319166001600160a01b0392909216919091179055565b6001600160a01b037f00000000000000000000000000000000000000000000000000000000000000001630036102f057604051635b04ddff60e01b815260040160405180910390fd5b61030060e0820160c08301611c45565b6001600160a01b0316306001600160a01b03161461034d5761032860e0820160c08301611c45565b604051635f595f6f60e01b81526001600160a01b03909116600482015260240161027c565b600061035c60208301836121de565b9050905060005b8181101561041357600061037a60208501856121de565b8381811061038a5761038a612226565b905060a002018036038101906103a0919061223c565b90506000815160028111156103b7576103b7612258565b036103d6576103d66103cf60a0860160808701611c45565b8290611312565b6001815160028111156103eb576103eb612258565b0361040a5761040a61040360a0860160808701611c45565b8290611382565b50600101610363565b505050565b6000546060906001600160a01b031633146104485760405163053e900f60e21b815233600482015260240161027c565b60408051600480825260a0820190925290816020015b604080518082019091526000808252602082015281526020019060019003908161045e57905050905060405180604001604052806104a16453544f524560d81b90565b6001600160d81b0319168152631fecd9f760e11b602090910152815182906000906104ce576104ce612226565b602002602001018190525060405180604001604052806104f36453544f524560d81b90565b6001600160d81b0319168152635539bb9f60e11b60209091015281518290600190811061052257610522612226565b6020026020010181905250604051806040016040528061054764455343525760d81b90565b6001600160d81b03191681526304c10ea560e01b60209091015281518290600290811061057657610576612226565b6020026020010181905250604051806040016040528061059b64455343525760d81b90565b6001600160d81b0319168152633193dc0160e11b6020909101528151829060039081106105ca576105ca612226565b602002602001018190525090565b6000546060906001600160a01b031633146106085760405163053e900f60e21b815233600482015260240161027c565b60408051600280825260608201835290916020830190803683370190505090506453544f524560d81b8160008151811061064457610644612226565b6001600160d81b03199092166020928302919091019091015261067461066f6453544f524560d81b90565b6113e2565b600180546001600160a01b0319166001600160a01b039290921691909117905564455343525760d81b816001815181106106b0576106b0612226565b6001600160d81b0319909216602092830291909101909101526106db61066f64455343525760d81b90565b600280546001600160a01b0319166001600160a01b039290921691909117905590565b61070781611494565b50565b60005b8181101561041357600061074c84848481811061072c5761072c612226565b905060200281019061073e919061226e565b6107479061228f565b611576565b6001546040516309c3f1e960e41b8152600481018390529192506001600160a01b031690639c3f1e9090602401602060405180830381865afa158015610796573d6000803e3d6000fd5b505050506040513d601f19601f820116820180604052508101906107ba919061229b565b6107da5760405163155b906d60e21b81526004810182905260240161027c565b61089d8484848181106107ef576107ef612226565b9050602002810190610801919061226e565b6108129060808101906060016122b8565b85858581811061082457610824612226565b9050602002810190610836919061226e565b60e0013586868681811061084c5761084c612226565b905060200281019061085e919061226e565b610100013587878781811061087557610875612226565b9050602002810190610887919061226e565b6108989060a0810190608001611c45565b610f0e565b60408051600080825260208201909252905b8585858181106108c1576108c1612226565b90506020028101906108d3919061226e565b6108e19060208101906121de565b9050811015610a425761094a8686868181106108ff576108ff612226565b9050602002810190610911919061226e565b61091f9060208101906121de565b8381811061092f5761092f612226565b905060a00201803603810190610945919061223c565b611790565b15610a3a57610a3a826109e988888881811061096857610968612226565b905060200281019061097a919061226e565b61098b9060e081019060c001611c45565b89898981811061099d5761099d612226565b90506020028101906109af919061226e565b6109bd9060208101906121de565b868181106109cd576109cd612226565b905060a002018036038101906109e3919061223c565b906117aa565b8888888181106109fb576109fb612226565b9050602002810190610a0d919061226e565b610a1b9060208101906121de565b85818110610a2b57610a2b612226565b905060a0020160600135611813565b6001016108af565b50610a78858585818110610a5857610a58612226565b9050602002810190610a6a919061226e565b610a739061228f565b611494565b6002546001600160a01b03166304c10ea5868686818110610a9b57610a9b612226565b9050602002810190610aad919061226e565b6040518263ffffffff1660e01b8152600401610ac9919061251c565b600060405180830381600087803b158015610ae357600080fd5b505af1158015610af7573d6000803e3d6000fd5b505050506000858585818110610b0f57610b0f612226565b9050602002810190610b21919061226e565b610b2f90604081019061260d565b90501115610bd857610bd8858585818110610b4c57610b4c612226565b9050602002810190610b5e919061226e565b610b6c90604081019061260d565b878787818110610b7e57610b7e612226565b9050602002810190610b90919061226e565b610b9e9060208101906121de565b898989818110610bb057610bb0612226565b9050602002810190610bc2919061226e565b610bd39060e081019060c001611c45565b611014565b6001546001600160a01b0316633fd9b3ee83610bf384611855565b6040518363ffffffff1660e01b8152600401610c10929190612656565b600060405180830381600087803b158015610c2a57600080fd5b505af1158015610c3e573d6000803e3d6000fd5b50505050610c4c8233611921565b505060010161070d565b6000546001600160a01b03163314610c835760405163053e900f60e21b815233600482015260240161027c565b60008054911515600160a01b0260ff60a01b19909216919091179055565b6000610caf6107478361228f565b6001546040516309c3f1e960e41b8152600481018390529192506001600160a01b031690639c3f1e9090602401602060405180830381865afa158015610cf9573d6000803e3d6000fd5b505050506040513d601f19601f82011682018060405250810190610d1d919061229b565b610d3d5760405163155b906d60e21b81526004810182905260240161027c565b610d6b610d5060808401606085016122b8565b60e084013561010085013561089860a0870160808801611c45565b60408051600080825260208201909252905b610d8a60208501856121de565b9050811015610de157610da361091f60208601866121de565b15610dd957610dd982610dcc610dbf60e0880160c08901611c45565b6109bd60208901896121de565b610a1b60208801886121de565b600101610d7d565b50610dee610a738461228f565b6002546040516304c10ea560e01b81526001600160a01b03909116906304c10ea590610e1e90869060040161251c565b600060405180830381600087803b158015610e3857600080fd5b505af1158015610e4c573d6000803e3d6000fd5b5060009250610e61915050604085018561260d565b90501115610e9657610e96610e79604085018561260d565b610e8660208701876121de565b610bd360e0890160c08a01611c45565b6001546001600160a01b0316633fd9b3ee83610eb184611855565b6040518363ffffffff1660e01b8152600401610ece929190612656565b600060405180830381600087803b158015610ee857600080fd5b505af1158015610efc573d6000803e3d6000fd5b50505050610413836000013533611921565b4280831115906001600160a01b0383163314908503610f4057604051631ece041f60e11b815260040160405180910390fd5b610f5a866002811115610f5557610f55612258565b611966565b15610f8a5781610f8557604051637f5c691b60e11b815242600482015233602482015260440161027c565b61100c565b610fa4866002811115610f9f57610f9f612258565b611983565b15610fdb5780158015610fb5575081155b15610f8557604051637f5c691b60e11b815242600482015233602482015260440161027c565b856002811115610fed57610fed612258565b604051635109fe9b60e11b815260ff909116600482015260240161027c565b505050505050565b6040805160a0810182526000808252602082018190529181018290526060810182905260808101829052819060005b878110156113075788888281811061105d5761105d612226565b905060200281019061106f91906126b1565b61107d906020810190611c45565b600154604051631cf8b73760e11b81526001600160a01b0380841660048301529296509116906339f16e6e90602401602060405180830381865afa1580156110c9573d6000803e3d6000fd5b505050506040513d601f19601f820116820180604052508101906110ed919061229b565b156112ff5788888281811061110457611104612226565b905060200281019061111691906126b1565b60200135925086868481811061112e5761112e612226565b905060a00201803603810190611144919061223c565b915061114f82611790565b61116f576040516335916f2360e11b81526004810184905260240161027c565b836001600160a01b0316630747c995868460400151856080015186606001518e8e888181106111a0576111a0612226565b90506020028101906111b291906126b1565b6111c09060408101906126c7565b6040518763ffffffff1660e01b81526004016111e19695949392919061270d565b600060405180830381600087803b1580156111fb57600080fd5b505af192505050801561120c575060015b6112ff57611218612754565b806308c379a003611252575061122c612770565b8061123757506112b4565b8060405163508b5be960e11b815260040161027c9190612849565b634e487b71036112b45761126461285c565b9061126f57506112b4565b600061127a8261198c565b90508060405160200161128d919061287c565b60408051601f198184030181529082905263508b5be960e11b825261027c91600401612849565b3d8080156112de576040519150601f19603f3d011682016040523d82523d6000602084013e6112e3565b606091505b5080604051635871576160e01b815260040161027c9190612849565b600101611043565b505050505050505050565b60408083015160808401519151632142170760e11b81523060048201526001600160a01b03848116602483015260448201939093529116906342842e0e906064015b600060405180830381600087803b15801561136e57600080fd5b505af115801561100c573d6000803e3d6000fd5b604082810151608084015160608501519251637921219560e11b81523060048201526001600160a01b0385811660248301526044820192909252606481019390935260a06084840152600060a4840152169063f242432a9060c401611354565b60008054604051632d37002d60e21b81526001600160d81b03198416600482015282916001600160a01b03169063b4dc00b490602401602060405180830381865afa158015611435573d6000803e3d6000fd5b505050506040513d601f19601f8201168201806040525081019061145991906128c1565b90506001600160a01b03811661148e57604051635c3fa9cd60e01b81526001600160d81b03198416600482015260240161027c565b92915050565b60008160c001516001600160a01b031663468721a7306000634b251fe360e01b866040516024016114c591906129c8565b60408051601f198184030181529181526020820180516001600160e01b03166001600160e01b03199485161790525160e086901b909216825261150f939291600190600401612a83565b6020604051808303816000875af115801561152e573d6000803e3d6000fd5b505050506040513d601f19601f82011682018060405250810190611552919061229b565b90508061157257604051630fde4bcf60e31b815260040160405180910390fd5b5050565b6000808260200151516001600160401b0381111561159657611596611d4e565b6040519080825280602002602001820160405280156115bf578160200160208202803683370190505b50905060008360400151516001600160401b038111156115e1576115e1611d4e565b60405190808252806020026020018201604052801561160a578160200160208202803683370190505b50905060005b846020015151811015611668576116438560200151828151811061163657611636612226565b60200260200101516119d0565b83828151811061165557611655612226565b6020908102919091010152600101611610565b5060005b8460400151518110156116c45761169f8560400151828151811061169257611692612226565b6020026020010151611a3e565b8282815181106116b1576116b1612226565b602090810291909101015260010161166c565b507f00000000000000000000000000000000000000000000000000000000000000008460000151836040516020016116fc9190612ac4565b60405160208183030381529060405280519060200120836040516020016117239190612ac4565b60405160208183030381529060405280519060200120876060015188608001518960a001518a60c001518b60e001518c61010001516040516020016117719a99989796959493929190612afa565b6040516020818303038152906040528051906020012092505050919050565b600061179b82611aa3565b8061148e575061148e82611aba565b600061180c82846040015185608001516040516bffffffffffffffffffffffff19606085811b8216602084015284901b166034820152604881018290526000906068016040516020818303038152906040528051906020012090509392505050565b9392505050565b825182906118275760208452600084602001525b8351602080860180516040938401885260010190819052820290950191825293810191909152820190915250565b60208101805160609190806001600160401b0381111561187757611877611d4e565b6040519080825280602002602001820160405280156118bc57816020015b60408051808201909152600080825260208201528152602001906001900390816118955790505b50925060005b81811015611919576040818102840160208181015191830151835180850190945282845290830181905286519192909187908590811061190457611904612226565b602090810291909101015250506001016118c2565b505050919050565b604080518381526001600160a01b03831660208201527f93ec3857013e8ed6a6948c31a37c12a335c730d3f5894c07c4474b4fe755c487910160405180910390a15050565b6000805b82600281111561197c5761197c612258565b1492915050565b6000600161196a565b60606080604051019050602081016040526000815280600019835b928101926030600a8206018453600a9004806119a7575050819003601f19909101908152919050565b60007f000000000000000000000000000000000000000000000000000000000000000082600001518360200151846040015185606001518660800151604051602001611a2196959493929190612b60565b604051602081830303815290604052805190602001209050919050565b805160208083015160408085015180519084012081517f0000000000000000000000000000000000000000000000000000000000000000948101949094526001600160a01b03909416908301526060820152608081019190915260009060a001611a21565b6000805b8251600281111561197c5761197c612258565b60006001611aa7565b6003811061070757600080fd5b8035611adb81611ac3565b919050565b6001600160a01b038116811461070757600080fd5b8035611adb81611ae0565b60008060008060808587031215611b1657600080fd5b8435611b2181611ac3565b935060208501359250604085013591506060850135611b3f81611ae0565b939692955090935050565b60008083601f840112611b5c57600080fd5b5081356001600160401b03811115611b7357600080fd5b6020830191508360208260051b8501011115611b8e57600080fd5b9250929050565b600080600080600060608688031215611bad57600080fd5b85356001600160401b0380821115611bc457600080fd5b611bd089838a01611b4a565b90975095506020880135915080821115611be957600080fd5b818801915088601f830112611bfd57600080fd5b813581811115611c0c57600080fd5b89602060a083028501011115611c2157600080fd5b602083019550809450505050611c3960408701611af5565b90509295509295909350565b600060208284031215611c5757600080fd5b813561180c81611ae0565b600060208284031215611c7457600080fd5b81356001600160401b03811115611c8a57600080fd5b8201610120818503121561180c57600080fd5b602080825282518282018190526000919060409081850190868401855b82811015611cf357815180516001600160d81b03191685528601516001600160e01b031916868501529284019290850190600101611cba565b5091979650505050505050565b6020808252825182820181905260009190848201906040850190845b81811015611d425783516001600160d81b03191683529284019291840191600101611d1c565b50909695505050505050565b634e487b7160e01b600052604160045260246000fd5b606081018181106001600160401b0382111715611d8357611d83611d4e565b60405250565b601f8201601f191681016001600160401b0381118282101715611dae57611dae611d4e565b6040525050565b60405161012081016001600160401b0381118282101715611dd857611dd8611d4e565b60405290565b60006001600160401b03821115611df757611df7611d4e565b5060051b60200190565b803560028110611adb57600080fd5b600060a08284031215611e2257600080fd5b60405160a081018181106001600160401b0382111715611e4457611e44611d4e565b6040529050808235611e5581611ac3565b8152611e6360208401611e01565b60208201526040830135611e7681611ae0565b8060408301525060608301356060820152608083013560808201525092915050565b600082601f830112611ea957600080fd5b81356020611eb682611dde565b604051611ec38282611d89565b838152602060a09485028701810194908201925087851115611ee457600080fd5b602087015b85811015611f0857611efb8982611e10565b8452928401928101611ee9565b5090979650505050505050565b600082601f830112611f2657600080fd5b81356020611f3382611dde565b60408051611f418382611d89565b84815260059490941b8601830193838101925087851115611f6157600080fd5b8387015b858110156120575780356001600160401b0380821115611f855760008081fd5b908901906060601f19838d038101821315611fa05760008081fd5b8651611fab81611d64565b89850135611fb881611ae0565b8152848801358a820152918401359183831115611fd55760008081fd5b82850194508d603f860112611fec57600092508283fd5b8985013592508383111561200257612002611d4e565b875193506120178a83601f8601160185611d89565b8284528d8884870101111561202e57600091508182fd5b828886018b86013760009284018a01929092525080860191909152855250928401928401611f65565b50979650505050505050565b6000610120828403121561207657600080fd5b61207e611db5565b90508135815260208201356001600160401b038082111561209e57600080fd5b6120aa85838601611e98565b602084015260408401359150808211156120c357600080fd5b506120d084828501611f15565b6040830152506120e260608301611ad0565b60608201526120f360808301611af5565b608082015261210460a08301611af5565b60a082015261211560c08301611af5565b60c082015260e082013560e082015261010080830135818301525092915050565b60006020828403121561214857600080fd5b81356001600160401b0381111561215e57600080fd5b61216a84828501612063565b949350505050565b6000806020838503121561218557600080fd5b82356001600160401b0381111561219b57600080fd5b6121a785828601611b4a565b90969095509350505050565b801515811461070757600080fd5b6000602082840312156121d357600080fd5b813561180c816121b3565b6000808335601e198436030181126121f557600080fd5b8301803591506001600160401b0382111561220f57600080fd5b602001915060a081023603821315611b8e57600080fd5b634e487b7160e01b600052603260045260246000fd5b600060a0828403121561224e57600080fd5b61180c8383611e10565b634e487b7160e01b600052602160045260246000fd5b6000823561011e1983360301811261228557600080fd5b9190910192915050565b600061148e3683612063565b6000602082840312156122ad57600080fd5b815161180c816121b3565b6000602082840312156122ca57600080fd5b813561180c81611ac3565b6000808335601e198436030181126122ec57600080fd5b83016020810192503590506001600160401b0381111561230b57600080fd5b60a081023603821315611b8e57600080fd5b6003811061070757610707612258565b6002811061070757610707612258565b8183526000602080850194508260005b858110156123c557813561236081611ac3565b6123698161231d565b8752612376828401611e01565b61237f8161232d565b8784015260408281013561239281611ae0565b6001600160a01b031690880152606082810135908801526080808301359088015260a0968701969091019060010161234d565b509495945050505050565b6000808335601e198436030181126123e757600080fd5b83016020810192503590506001600160401b0381111561240657600080fd5b8060051b3603821315611b8e57600080fd5b81835281816020850137506000828201602090810191909152601f909101601f19169091010190565b60008383855260208086019550808560051b8301018460005b87811015611f0857848303601f19018952813536889003605e1901811261248057600080fd5b87016060813561248f81611ae0565b6001600160a01b03168552818601358686015260408083013536849003601e190181126124bb57600080fd5b9092018681019290356001600160401b038111156124d857600080fd5b8036038413156124e757600080fd5b82828801526124f98388018286612418565b9c88019c9650505092850192505060010161245a565b6125188161231d565b9052565b6020815281356020820152600061253660208401846122d5565b61012080604086015261254e6101408601838561233d565b925061255d60408701876123d0565b868503601f190160608801529250612576848483612441565b93505061258560608701611ad0565b9150612594608086018361250f565b6125a060808701611af5565b6001600160a01b03811660a087015291506125bd60a08701611af5565b6001600160a01b03811660c087015291506125da60c08701611af5565b6001600160a01b03811660e08701529150610100915060e086013582860152818601358186015250508091505092915050565b6000808335601e1984360301811261262457600080fd5b8301803591506001600160401b0382111561263e57600080fd5b6020019150600581901b3603821315611b8e57600080fd5b6000604080830185845260206040602086015281865180845260608701915060208801935060005b818110156126a35784518051845284015184840152938301939185019160010161267e565b509098975050505050505050565b60008235605e1983360301811261228557600080fd5b6000808335601e198436030181126126de57600080fd5b8301803591506001600160401b038211156126f857600080fd5b602001915036819003821315611b8e57600080fd5b6001600160a01b03878116825286166020820152604081018590526060810184905260a0608082018190526000906127489083018486612418565b98975050505050505050565b600060033d111561276d5760046000803e5060005160e01c5b90565b600060443d101561277e5790565b6040516003193d81016004833e81513d6001600160401b0381602484011181841117156127ad57505050505090565b82850191508151818111156127c55750505050505090565b843d87010160208285010111156127df5750505050505090565b6127ee60208286010187611d89565b509095945050505050565b60005b838110156128145781810151838201526020016127fc565b50506000910152565b600081518084526128358160208601602086016127f9565b601f01601f19169290920160200192915050565b60208152600061180c602083018461281d565b60008060233d1115612878576020600460003e50506000516001905b9091565b7f486f6f6b2072657665727465643a2050616e696320636f6465200000000000008152600082516128b481601a8501602087016127f9565b91909101601a0192915050565b6000602082840312156128d357600080fd5b815161180c81611ae0565b60008151808452602080850194506020840160005b838110156123c557815180516129088161231d565b8852808401516129178161232d565b888501526040818101516001600160a01b031690890152606080820151908901526080908101519088015260a090960195908201906001016128f3565b600082825180855260208086019550808260051b84010181860160005b84811015611f0857858303601f19018952815180516001600160a01b0316845284810151858501526040908101516060918501829052906129b48186018361281d565b9a86019a9450505090830190600101612971565b6020815281516020820152600060208301516101208060408501526129f16101408501836128de565b91506040850151601f19858403016060860152612a0e8382612954565b9250506060850151612a23608086018261250f565b5060808501516001600160a01b03811660a08601525060a08501516001600160a01b03811660c08601525060c08501516001600160a01b03811660e08601525060e085015161010085810191909152909401519390920192909252919050565b60018060a01b0385168152836020820152608060408201526000612aaa608083018561281d565b9050612ab58361232d565b82606083015295945050505050565b815160009082906020808601845b83811015612aee57815185529382019390820190600101612ad2565b50929695505050505050565b6000610140820190508b82528a6020830152896040830152886060830152612b218861231d565b60808201979097526001600160a01b0395861660a082015293851660c08501529190931660e08301526101008201929092526101200152949350505050565b86815260c08101612b708761231d565b866020830152612b7f8661232d565b60408201959095526001600160a01b03939093166060840152608083019190915260a0909101529291505056fea2646970667358221220bc2132b185f7c75d2f8502df0ecf0746896bf23699c1554ddbf603c90c1bc3b164736f6c63430008160033","linkReferences":{}},"methodIdentifiers":{"ESCRW()":"8dba9561","STORE()":"507f1465","changeKernel(address)":"4657b36c","configureDependencies()":"9459b875","isActive()":"22f3e2d4","kernel()":"d4aae0c4","reclaimRentalOrder((bytes32,(uint8,uint8,address,uint256,uint256)[],(address,uint256,bytes)[],uint8,address,address,address,uint256,uint256))":"4b251fe3","reclaimRentedItems((bytes32,(uint8,uint8,address,uint256,uint256)[],(address,uint256,bytes)[],uint8,address,address,address,uint256,uint256))":"9778e5f1","removeHooks((address,uint256,bytes)[],(uint8,uint8,address,uint256,uint256)[],address)":"1c3dc1d3","requestPermissions()":"5924be70","setActiveStatus(bool)":"ec7404b1","stopRent((bytes32,(uint8,uint8,address,uint256,uint256)[],(address,uint256,bytes)[],uint8,address,address,address,uint256,uint256))":"f1c9e188","stopRentBatch((bytes32,(uint8,uint8,address,uint256,uint256)[],(address,uint256,bytes)[],uint8,address,address,address,uint256,uint256)[])":"ca540d2f","validateRentalCanBeStopped(uint8,uint256,uint256,address)":"0b5bd2e8"},"id":254}