{"abi":[{"type":"function","name":"minimalChange","inputs":[{"name":"value","type":"uint256","internalType":"uint256"},{"name":"numerator","type":"uint256","internalType":"uint256"},{"name":"denominator","type":"uint256","internalType":"uint256"},{"name":"ensureNotHuge","type":"bool","internalType":"bool"}],"outputs":[{"name":"newValue","type":"uint256","internalType":"uint256"}],"stateMutability":"pure"}],"bytecode":{"object":"0x6102dd61003a600b82828239805160001a60731461002d57634e487b7160e01b600052600060045260246000fd5b30600052607381538281f3fe73000000000000000000000000000000000000000030146080604052600436106100355760003560e01c8063318a246c1461003a575b600080fd5b61004d6100483660046101ca565b61005f565b60405190815260200160405180910390f35b6000826000036100c95760405162461bcd60e51b815260206004820152602a60248201527f416476616e6365644f726465724c69623a206e6f2064656e6f6d696e61746f726044820152691039bab8383634b2b21760b11b60648201526084015b60405180910390fd5b81156100e3576100e06001600160d01b0386610226565b94505b6000836100f08688610250565b6100fa9190610226565b90506000610108828661026d565b600093509050818082111561012e576101218782610280565b61012b908961026d565b93505b8360000361014d576101408783610280565b61014a9089610294565b93505b856101588886610250565b6101629190610226565b156101bf5760405162461bcd60e51b815260206004820152602760248201527f416476616e6365644f726465724c69623a206d696e696d616c206368616e67656044820152660819985a5b195960ca1b60648201526084016100c0565b505050949350505050565b600080600080608085870312156101e057600080fd5b8435935060208501359250604085013591506060850135801515811461020557600080fd5b939692955090935050565b634e487b7160e01b600052601260045260246000fd5b60008261023557610235610210565b500690565b634e487b7160e01b600052601160045260246000fd5b80820281158282048414176102675761026761023a565b92915050565b818103818111156102675761026761023a565b60008261028f5761028f610210565b500490565b808201808211156102675761026761023a56fea26469706673582212205a109c490d01543da65434b6da350938e58bf72056c7056a7167d627bf83ae8c64736f6c63430008160033","linkReferences":{}},"methodIdentifiers":{"minimalChange(uint256,uint256,uint256,bool)":"318a246c"},"id":117}