{"abi":[{"type":"constructor","inputs":[{"name":"_stopPolicy","type":"address","internalType":"address"},{"name":"_rentedToken","type":"address","internalType":"address"},{"name":"_tokenToMint","type":"address","internalType":"address"}],"stateMutability":"nonpayable"},{"type":"function","name":"onStart","inputs":[{"name":"safe","type":"address","internalType":"address"},{"name":"token","type":"address","internalType":"address"},{"name":"","type":"uint256","internalType":"uint256"},{"name":"","type":"uint256","internalType":"uint256"},{"name":"","type":"bytes","internalType":"bytes"}],"outputs":[],"stateMutability":"view"},{"type":"function","name":"onStop","inputs":[{"name":"safe","type":"address","internalType":"address"},{"name":"token","type":"address","internalType":"address"},{"name":"","type":"uint256","internalType":"uint256"},{"name":"","type":"uint256","internalType":"uint256"},{"name":"","type":"bytes","internalType":"bytes"}],"outputs":[],"stateMutability":"nonpayable"},{"type":"function","name":"onTransaction","inputs":[{"name":"safe","type":"address","internalType":"address"},{"name":"to","type":"address","internalType":"address"},{"name":"","type":"uint256","internalType":"uint256"},{"name":"data","type":"bytes","internalType":"bytes"}],"outputs":[],"stateMutability":"view"},{"type":"function","name":"rentedToken","inputs":[],"outputs":[{"name":"","type":"address","internalType":"address"}],"stateMutability":"view"},{"type":"function","name":"stopPolicy","inputs":[],"outputs":[{"name":"","type":"address","internalType":"address"}],"stateMutability":"view"},{"type":"function","name":"tokenToMint","inputs":[],"outputs":[{"name":"","type":"address","internalType":"address"}],"stateMutability":"view"}],"bytecode":{"object":"0x608060405234801561001057600080fd5b506040516104c63803806104c683398101604081905261002f9161008d565b600080546001600160a01b039485166001600160a01b0319918216179091556001805493851693821693909317909255600280549190931691161790556100d0565b80516001600160a01b038116811461008857600080fd5b919050565b6000806000606084860312156100a257600080fd5b6100ab84610071565b92506100b960208501610071565b91506100c760408501610071565b90509250925092565b6103e7806100df6000396000f3fe608060405234801561001057600080fd5b50600436106100625760003560e01c80630747c995146100675780631b4bdfcc1461007c578063a5a0b92c146100ab578063c783f6de146100be578063f5aa1eee146100d1578063f957ee78146100e6575b600080fd5b61007a6100753660046102d7565b6100fa565b005b60025461008f906001600160a01b031681565b6040516001600160a01b03909116815260200160405180910390f35b60015461008f906001600160a01b031681565b60005461008f906001600160a01b031681565b61007a6100df3660046102d7565b5050505050565b61007a6100f4366004610349565b50505050565b6000546001600160a01b031633146101595760405162461bcd60e51b815260206004820152601f60248201527f6e6f742063616c6c61626c6520756e6c6573732073746f7020706f6c6963790060448201526064015b60405180910390fd5b60015484906001600160a01b038083169116146101b15760405162461bcd60e51b81526020600482015260166024820152751d1bdad95b881a5cc81b9bdd081cdd5c1c1bdc9d195960521b6044820152606401610150565b6002546040516335313c2160e11b81526001600160a01b03888116600483015290911690636a62784290602401600060405180830381600087803b1580156101f857600080fd5b505af115801561020c573d6000803e3d6000fd5b50505050505050505050565b80356001600160a01b038116811461022f57600080fd5b919050565b634e487b7160e01b600052604160045260246000fd5b600082601f83011261025b57600080fd5b813567ffffffffffffffff8082111561027657610276610234565b604051601f8301601f19908116603f0116810190828211818310171561029e5761029e610234565b816040528381528660208588010111156102b757600080fd5b836020870160208301376000602085830101528094505050505092915050565b600080600080600060a086880312156102ef57600080fd5b6102f886610218565b945061030660208701610218565b93506040860135925060608601359150608086013567ffffffffffffffff81111561033057600080fd5b61033c8882890161024a565b9150509295509295909350565b6000806000806080858703121561035f57600080fd5b61036885610218565b935061037660208601610218565b925060408501359150606085013567ffffffffffffffff81111561039957600080fd5b6103a58782880161024a565b9150509295919450925056fea2646970667358221220ec242784da87a4759f24717fe880e3e59ea7652db737cfb33dc6448da962acb964736f6c63430008160033","linkReferences":{}},"methodIdentifiers":{"onStart(address,address,uint256,uint256,bytes)":"f5aa1eee","onStop(address,address,uint256,uint256,bytes)":"0747c995","onTransaction(address,address,uint256,bytes)":"f957ee78","rentedToken()":"a5a0b92c","stopPolicy()":"c783f6de","tokenToMint()":"1b4bdfcc"},"id":114}