{"abi":[{"type":"constructor","inputs":[{"name":"kernel_","type":"address","internalType":"contract Kernel"}],"stateMutability":"nonpayable"},{"type":"function","name":"INIT","inputs":[],"outputs":[],"stateMutability":"nonpayable"},{"type":"function","name":"KEYCODE","inputs":[],"outputs":[{"name":"","type":"bytes5","internalType":"Keycode"}],"stateMutability":"pure"},{"type":"function","name":"MODULE_PROXY_INSTANTIATION","inputs":[{"name":"kernel_","type":"address","internalType":"contract Kernel"}],"outputs":[],"stateMutability":"nonpayable"},{"type":"function","name":"VERSION","inputs":[],"outputs":[{"name":"major","type":"uint8","internalType":"uint8"},{"name":"minor","type":"uint8","internalType":"uint8"}],"stateMutability":"pure"},{"type":"function","name":"addRentalSafe","inputs":[{"name":"safe","type":"address","internalType":"address"}],"outputs":[],"stateMutability":"nonpayable"},{"type":"function","name":"addRentals","inputs":[{"name":"orderHash","type":"bytes32","internalType":"bytes32"},{"name":"rentalAssetUpdates","type":"tuple[]","internalType":"struct RentalAssetUpdate[]","components":[{"name":"rentalId","type":"bytes32","internalType":"RentalId"},{"name":"amount","type":"uint256","internalType":"uint256"}]}],"outputs":[],"stateMutability":"nonpayable"},{"type":"function","name":"applyFine","inputs":[{"name":"user","type":"address","internalType":"address"},{"name":"amount","type":"uint256","internalType":"uint256"}],"outputs":[],"stateMutability":"nonpayable"},{"type":"function","name":"assetEnabledForRent","inputs":[{"name":"asset","type":"address","internalType":"address"}],"outputs":[{"name":"","type":"bool","internalType":"bool"}],"stateMutability":"view"},{"type":"function","name":"assetRestrictedForPermit","inputs":[{"name":"asset","type":"address","internalType":"address"}],"outputs":[{"name":"","type":"bool","internalType":"bool"}],"stateMutability":"view"},{"type":"function","name":"banUser","inputs":[{"name":"user","type":"address","internalType":"address"},{"name":"duration","type":"uint256","internalType":"uint256"}],"outputs":[],"stateMutability":"nonpayable"},{"type":"function","name":"blacklistThreshold","inputs":[],"outputs":[{"name":"","type":"uint8","internalType":"uint8"}],"stateMutability":"view"},{"type":"function","name":"blacklistUser","inputs":[{"name":"user","type":"address","internalType":"address"}],"outputs":[],"stateMutability":"nonpayable"},{"type":"function","name":"blacklistedUsers","inputs":[{"name":"user","type":"address","internalType":"address"}],"outputs":[{"name":"isBlacklisted","type":"bool","internalType":"bool"}],"stateMutability":"view"},{"type":"function","name":"changeKernel","inputs":[{"name":"newKernel_","type":"address","internalType":"contract Kernel"}],"outputs":[],"stateMutability":"nonpayable"},{"type":"function","name":"clearFine","inputs":[{"name":"user","type":"address","internalType":"address"}],"outputs":[],"stateMutability":"nonpayable"},{"type":"function","name":"contractToHook","inputs":[{"name":"to","type":"address","internalType":"address"}],"outputs":[{"name":"","type":"address","internalType":"address"}],"stateMutability":"view"},{"type":"function","name":"deployedSafes","inputs":[{"name":"safe","type":"address","internalType":"address"}],"outputs":[{"name":"nonce","type":"uint256","internalType":"uint256"}],"stateMutability":"view"},{"type":"function","name":"extensionDisableAllowed","inputs":[{"name":"extension","type":"address","internalType":"address"}],"outputs":[{"name":"","type":"bool","internalType":"bool"}],"stateMutability":"view"},{"type":"function","name":"extensionEnableAllowed","inputs":[{"name":"extension","type":"address","internalType":"address"}],"outputs":[{"name":"","type":"bool","internalType":"bool"}],"stateMutability":"view"},{"type":"function","name":"fineThreshold","inputs":[],"outputs":[{"name":"","type":"uint8","internalType":"uint8"}],"stateMutability":"view"},{"type":"function","name":"freeze","inputs":[],"outputs":[],"stateMutability":"nonpayable"},{"type":"function","name":"guardEmergencyUpgrade","inputs":[],"outputs":[{"name":"","type":"address","internalType":"address"}],"stateMutability":"view"},{"type":"function","name":"hasFine","inputs":[{"name":"user","type":"address","internalType":"address"}],"outputs":[{"name":"","type":"bool","internalType":"bool"}],"stateMutability":"view"},{"type":"function","name":"hasWarning","inputs":[{"name":"user","type":"address","internalType":"address"}],"outputs":[{"name":"","type":"bool","internalType":"bool"}],"stateMutability":"view"},{"type":"function","name":"hookOnStart","inputs":[{"name":"hook","type":"address","internalType":"address"}],"outputs":[{"name":"","type":"bool","internalType":"bool"}],"stateMutability":"view"},{"type":"function","name":"hookOnStop","inputs":[{"name":"hook","type":"address","internalType":"address"}],"outputs":[{"name":"","type":"bool","internalType":"bool"}],"stateMutability":"view"},{"type":"function","name":"hookOnTransaction","inputs":[{"name":"hook","type":"address","internalType":"address"}],"outputs":[{"name":"","type":"bool","internalType":"bool"}],"stateMutability":"view"},{"type":"function","name":"hookStatus","inputs":[{"name":"hook","type":"address","internalType":"address"}],"outputs":[{"name":"enabled","type":"uint8","internalType":"uint8"}],"stateMutability":"view"},{"type":"function","name":"initialized","inputs":[],"outputs":[{"name":"","type":"bool","internalType":"bool"}],"stateMutability":"view"},{"type":"function","name":"isRentedOut","inputs":[{"name":"recipient","type":"address","internalType":"address"},{"name":"token","type":"address","internalType":"address"},{"name":"identifier","type":"uint256","internalType":"uint256"}],"outputs":[{"name":"","type":"uint256","internalType":"uint256"}],"stateMutability":"view"},{"type":"function","name":"isUserBanned","inputs":[{"name":"user","type":"address","internalType":"address"}],"outputs":[{"name":"","type":"bool","internalType":"bool"}],"stateMutability":"view"},{"type":"function","name":"isUserBlacklisted","inputs":[{"name":"user","type":"address","internalType":"address"}],"outputs":[{"name":"","type":"bool","internalType":"bool"}],"stateMutability":"view"},{"type":"function","name":"issueWarning","inputs":[{"name":"user","type":"address","internalType":"address"}],"outputs":[],"stateMutability":"nonpayable"},{"type":"function","name":"kernel","inputs":[],"outputs":[{"name":"","type":"address","internalType":"contract Kernel"}],"stateMutability":"view"},{"type":"function","name":"maxConsiderationItems","inputs":[],"outputs":[{"name":"","type":"uint256","internalType":"uint256"}],"stateMutability":"view"},{"type":"function","name":"maxFinesBeforeBlacklist","inputs":[],"outputs":[{"name":"","type":"uint256","internalType":"uint256"}],"stateMutability":"view"},{"type":"function","name":"maxOfferItems","inputs":[],"outputs":[{"name":"","type":"uint256","internalType":"uint256"}],"stateMutability":"view"},{"type":"function","name":"maxRentDuration","inputs":[],"outputs":[{"name":"","type":"uint256","internalType":"uint256"}],"stateMutability":"view"},{"type":"function","name":"maxWarningsBeforeFine","inputs":[],"outputs":[{"name":"","type":"uint256","internalType":"uint256"}],"stateMutability":"view"},{"type":"function","name":"orders","inputs":[{"name":"orderHash","type":"bytes32","internalType":"bytes32"}],"outputs":[{"name":"isActive","type":"bool","internalType":"bool"}],"stateMutability":"view"},{"type":"function","name":"proxiableUUID","inputs":[],"outputs":[{"name":"","type":"bytes32","internalType":"bytes32"}],"stateMutability":"pure"},{"type":"function","name":"removeRentals","inputs":[{"name":"orderHash","type":"bytes32","internalType":"bytes32"},{"name":"rentalAssetUpdates","type":"tuple[]","internalType":"struct RentalAssetUpdate[]","components":[{"name":"rentalId","type":"bytes32","internalType":"RentalId"},{"name":"amount","type":"uint256","internalType":"uint256"}]}],"outputs":[],"stateMutability":"nonpayable"},{"type":"function","name":"removeRentalsBatch","inputs":[{"name":"orderHashes","type":"bytes32[]","internalType":"bytes32[]"},{"name":"rentalAssetUpdates","type":"tuple[]","internalType":"struct RentalAssetUpdate[]","components":[{"name":"rentalId","type":"bytes32","internalType":"RentalId"},{"name":"amount","type":"uint256","internalType":"uint256"}]}],"outputs":[],"stateMutability":"nonpayable"},{"type":"function","name":"rentedAssets","inputs":[{"name":"itemId","type":"bytes32","internalType":"RentalId"}],"outputs":[{"name":"amount","type":"uint256","internalType":"uint256"}],"stateMutability":"view"},{"type":"function","name":"setGuardEmergencyUpgrade","inputs":[{"name":"guardEmergencyUpgradeAddress","type":"address","internalType":"address"}],"outputs":[],"stateMutability":"nonpayable"},{"type":"function","name":"setMaxConsiderationItems","inputs":[{"name":"newConsiderationLength","type":"uint256","internalType":"uint256"}],"outputs":[],"stateMutability":"nonpayable"},{"type":"function","name":"setMaxOfferItems","inputs":[{"name":"newOfferLength","type":"uint256","internalType":"uint256"}],"outputs":[],"stateMutability":"nonpayable"},{"type":"function","name":"setMaxRentDuration","inputs":[{"name":"newDuration","type":"uint256","internalType":"uint256"}],"outputs":[],"stateMutability":"nonpayable"},{"type":"function","name":"toggleWhitelistAsset","inputs":[{"name":"asset","type":"address","internalType":"address"},{"name":"bitmap","type":"uint8","internalType":"uint8"}],"outputs":[],"stateMutability":"nonpayable"},{"type":"function","name":"toggleWhitelistAssetBatch","inputs":[{"name":"assets","type":"address[]","internalType":"address[]"},{"name":"bitmaps","type":"uint8[]","internalType":"uint8[]"}],"outputs":[],"stateMutability":"nonpayable"},{"type":"function","name":"toggleWhitelistDelegate","inputs":[{"name":"delegate","type":"address","internalType":"address"},{"name":"isEnabled","type":"bool","internalType":"bool"}],"outputs":[],"stateMutability":"nonpayable"},{"type":"function","name":"toggleWhitelistExtension","inputs":[{"name":"extension","type":"address","internalType":"address"},{"name":"bitmap","type":"uint8","internalType":"uint8"}],"outputs":[],"stateMutability":"nonpayable"},{"type":"function","name":"toggleWhitelistPayment","inputs":[{"name":"payment","type":"address","internalType":"address"},{"name":"isEnabled","type":"bool","internalType":"bool"}],"outputs":[],"stateMutability":"nonpayable"},{"type":"function","name":"toggleWhitelistPaymentBatch","inputs":[{"name":"payments","type":"address[]","internalType":"address[]"},{"name":"isEnabled","type":"bool[]","internalType":"bool[]"}],"outputs":[],"stateMutability":"nonpayable"},{"type":"function","name":"totalSafes","inputs":[],"outputs":[{"name":"","type":"uint256","internalType":"uint256"}],"stateMutability":"view"},{"type":"function","name":"unblacklistUser","inputs":[{"name":"user","type":"address","internalType":"address"}],"outputs":[],"stateMutability":"nonpayable"},{"type":"function","name":"updateHookPath","inputs":[{"name":"to","type":"address","internalType":"address"},{"name":"hook","type":"address","internalType":"address"}],"outputs":[],"stateMutability":"nonpayable"},{"type":"function","name":"updateHookStatus","inputs":[{"name":"hook","type":"address","internalType":"address"},{"name":"bitmap","type":"uint8","internalType":"uint8"}],"outputs":[],"stateMutability":"nonpayable"},{"type":"function","name":"upgrade","inputs":[{"name":"newImplementation","type":"address","internalType":"address"}],"outputs":[],"stateMutability":"nonpayable"},{"type":"function","name":"upgradeSuccess","inputs":[],"outputs":[{"name":"","type":"bool","internalType":"bool"}],"stateMutability":"pure"},{"type":"function","name":"userBanExpiry","inputs":[{"name":"user","type":"address","internalType":"address"}],"outputs":[{"name":"banExpiry","type":"uint256","internalType":"uint256"}],"stateMutability":"view"},{"type":"function","name":"userFines","inputs":[{"name":"user","type":"address","internalType":"address"}],"outputs":[{"name":"fines","type":"uint256","internalType":"uint256"}],"stateMutability":"view"},{"type":"function","name":"userSimilarityScores","inputs":[{"name":"user","type":"address","internalType":"address"}],"outputs":[{"name":"similarityScore","type":"uint8","internalType":"uint8"}],"stateMutability":"view"},{"type":"function","name":"userViolations","inputs":[{"name":"user","type":"address","internalType":"address"}],"outputs":[{"name":"violationCount","type":"uint256","internalType":"uint256"}],"stateMutability":"view"},{"type":"function","name":"userWarnings","inputs":[{"name":"user","type":"address","internalType":"address"}],"outputs":[{"name":"warnings","type":"uint256","internalType":"uint256"}],"stateMutability":"view"},{"type":"function","name":"warningThreshold","inputs":[],"outputs":[{"name":"","type":"uint8","internalType":"uint8"}],"stateMutability":"view"},{"type":"function","name":"whitelistedAssets","inputs":[{"name":"asset","type":"address","internalType":"address"}],"outputs":[{"name":"assetBitmap","type":"uint8","internalType":"uint8"}],"stateMutability":"view"},{"type":"function","name":"whitelistedDelegates","inputs":[{"name":"delegate","type":"address","internalType":"address"}],"outputs":[{"name":"isWhitelisted","type":"bool","internalType":"bool"}],"stateMutability":"view"},{"type":"function","name":"whitelistedExtensions","inputs":[{"name":"extension","type":"address","internalType":"address"}],"outputs":[{"name":"enabled","type":"uint8","internalType":"uint8"}],"stateMutability":"view"},{"type":"function","name":"whitelistedPayments","inputs":[{"name":"payment","type":"address","internalType":"address"}],"outputs":[{"name":"isWhitelisted","type":"bool","internalType":"bool"}],"stateMutability":"view"},{"type":"error","name":"KernelAdapter_OnlyKernel","inputs":[{"name":"caller_","type":"address","internalType":"address"}]},{"type":"error","name":"Module_PolicyNotAuthorized","inputs":[{"name":"policy_","type":"address","internalType":"address"}]},{"type":"error","name":"Proxy_AlreadyInitialized","inputs":[]},{"type":"error","name":"Proxy_Frozen","inputs":[]},{"type":"error","name":"Proxy_NotCompatible","inputs":[{"name":"newImplementation","type":"address","internalType":"address"}]},{"type":"error","name":"Proxy_OnlyCallByProxy","inputs":[]},{"type":"error","name":"StorageModule_InvalidHookStatusBitmap","inputs":[{"name":"bitmap","type":"uint8","internalType":"uint8"}]},{"type":"error","name":"StorageModule_InvalidWhitelistBitmap","inputs":[{"name":"bitmap","type":"uint8","internalType":"uint8"}]},{"type":"error","name":"StorageModule_NotContract","inputs":[{"name":"addr","type":"address","internalType":"address"}]},{"type":"error","name":"StorageModule_WhitelistBatchLengthMismatch","inputs":[{"name":"assetLength","type":"uint256","internalType":"uint256"},{"name":"boolLength","type":"uint256","internalType":"uint256"}]}],"bytecode":{"object":"0x60a0604052306080523480156200001557600080fd5b5060405162003c5538038062003c55833981016040819052620000389162000064565b600080546001600160a01b0390921661010002610100600160a81b031990921691909117905562000096565b6000602082840312156200007757600080fd5b81516001600160a01b03811681146200008f57600080fd5b9392505050565b608051613a4c6200020960003960008181610b3901528181610b6201528181610c8d01528181610cb601528181610dc901528181610df201528181610f0501528181610f2e015281816110560152818161107f015281816111e40152818161120d0152818161132001528181611349015281816114e10152818161150a0152818161169d015281816116c6015281816118550152818161187e015281816119bf015281816119e801528181611b2701528181611b5001528181611d0301528181611d2c01528181611e6501528181611e8e015281816120360152818161205f0152818161220a01528181612233015281816123630152818161238c015281816124cb015281816124f40152818161266b01528181612694015281816128af015281816128d801528181612a7301528181612a9c01528181612bd501528181612bfe01528181612dce01528181612df701528181612f9201528181612fbb015281816130a701526130d00152613a4c6000f3fe608060405234801561001057600080fd5b50600436106104115760003560e01c806379f9bd6d11610220578063acbf34a011610130578063d4aae0c4116100b8578063ec3e213311610087578063ec3e213314610ad0578063f6fdddf114610ad9578063fcbca45614610af9578063fd91164814610b0c578063ffa1ad7414610b1957600080fd5b8063d4aae0c414610a94578063df5d25c314610aac578063e78513cf14610ab5578063ea64391414610ac857600080fd5b8063c0c6bbd9116100ff578063c0c6bbd9146109d7578063c3672fda146109fa578063c3accda214610a28578063c9fa121e14610a56578063d393ff7a14610a6957600080fd5b8063acbf34a014610952578063b05c87bf1461095b578063b526a0731461097b578063bf777548146109a957600080fd5b8063945c9e73116101b3578063a210f21c11610182578063a210f21c146108e3578063a40e603d146108f6578063a5fd3f3014610919578063a942d3441461092c578063aa73773e1461093f57600080fd5b8063945c9e731461087b5780639c3f1e90146108825780639e31e8e6146108a55780639ed9b4fd146108b857600080fd5b80638258afc9116101ef5780638258afc91461081e578063844c663b146108315780638a9830d81461085f5780638aa96fac1461086857600080fd5b806379f9bd6d146107a25780637bffb728146107b55780637c58ffb1146107e057806381c89f10146107f357600080fd5b806345204b3c116103265780635d2d8476116102ae5780636c81f4901161027d5780636c81f4901461071a57806373d0c70a1461072d57806373d6125e1461074d57806374a877d414610770578063766c2c7b1461079057600080fd5b80635d2d8476146106cc5780635ec8d3e4146106ec57806362a5af3b146106ff5780636c675c251461070757600080fd5b8063503b8e81116102f5578063503b8e811461064657806352d1902d1461067257806353307d56146106865780635c6a06c1146106a65780635ce33093146106b957600080fd5b806345204b3c146105fa5780634657b36c1461060d57806347f280ff146106205780634dc130b61461063357600080fd5b80632350efdc116103a9578063371510fc11610378578063371510fc1461057057806339f16e6e146105935780633e5fac31146105c15780633fb2ab77146105d45780633fd9b3ee146105e757600080fd5b80632350efdc146105135780632bf796ff146105415780632f8231861461055457806330b6fec11461055d57600080fd5b8063158ef93e116103e5578063158ef93e146104af5780631ae7ec2e146104bc5780632012d363146104dd57806322c0aec7146104f057600080fd5b8062ebd8fb146104165780630393f3c41461045057806304e7b3b1146104835780630900f0101461049a575b600080fd5b61043961042436600461332d565b60096020526000908152604090205460ff1681565b60405160ff90911681526020015b60405180910390f35b61047361045e36600461332d565b600d6020526000908152604090205460ff1681565b6040519015158152602001610447565b61048c60055481565b604051908152602001610447565b6104ad6104a836600461332d565b610b2e565b005b6000546104739060ff1681565b6104c4610c76565b6040516001600160d81b03199091168152602001610447565b6104ad6104eb36600461334a565b610c82565b6104736104fe36600461332d565b60116020526000908152604090205460ff1681565b61047361052136600461332d565b6001600160a01b03166000908152600c6020526040902054600116151590565b6104ad61054f36600461334a565b610dbe565b61048c60075481565b6104ad61056b36600461332d565b610efa565b61043961057e36600461332d565b600c6020526000908152604090205460ff1681565b6104736105a136600461332d565b6001600160a01b0316600090815260096020526040902054600416151590565b6104ad6105cf366004613379565b61104b565b6104ad6105e236600461334a565b6111d9565b6104ad6105f53660046133fa565b611315565b6104ad610608366004613454565b6114d6565b6104ad61061b36600461332d565b611638565b6104ad61062e366004613547565b611692565b6104ad61064136600461332d565b61184a565b61047361065436600461332d565b6001600160a01b031660009081526011602052604090205460ff1690565b6000805160206139f783398151915261048c565b61048c61069436600461332d565b60126020526000908152604090205481565b6104ad6106b43660046135f8565b6119b4565b6017546104399062010000900460ff1681565b61048c6106da36600461332d565b600f6020526000908152604090205481565b6104ad6106fa366004613697565b611b1c565b6104ad611cf8565b6104ad61071536600461375b565b611e5a565b6104ad6107283660046135f8565b61202b565b61048c61073b36600461332d565b60146020526000908152604090205481565b61047361075b36600461332d565b600a6020526000908152604090205460ff1681565b61048c61077e36600461332d565b60106020526000908152604090205481565b60175461043990610100900460ff1681565b61048c6107b0366004613789565b61218c565b600e546107c8906001600160a01b031681565b6040516001600160a01b039091168152602001610447565b6104ad6107ee36600461332d565b6121ff565b61047361080136600461332d565b6001600160a01b03166000908152600f6020526040902054151590565b6104ad61082c36600461332d565b612358565b61047361083f36600461332d565b6001600160a01b0316600090815260096020526040902054600116151590565b61048c60155481565b6104ad61087636600461332d565b6124c0565b6001610473565b61047361089036600461334a565b60016020526000908152604090205460ff1681565b6107c86108b336600461332d565b612618565b6104736108c636600461332d565b6001600160a01b0316600090815260146020526040902054421090565b6104ad6108f13660046137ca565b612660565b61043961090436600461332d565b60136020526000908152604090205460ff1681565b6104ad610927366004613379565b6128a4565b6104ad61093a366004613454565b612a68565b6104ad61094d36600461387d565b612bca565b61048c60045481565b61048c61096936600461334a565b60026020526000908152604090205481565b61047361098936600461332d565b6001600160a01b03166000908152600b6020526040902054600216151590565b6104736109b736600461332d565b6001600160a01b03166000908152600c6020526040902054600216151590565b6104396109e536600461332d565b600b6020526000908152604090205460ff1681565b610473610a0836600461332d565b6001600160a01b0316600090815260096020526040902054600216151590565b610473610a3636600461332d565b6001600160a01b03166000908152600b6020526040902054600116151590565b6104ad610a64366004613379565b612dc3565b610473610a7736600461332d565b6001600160a01b0316600090815260106020526040902054151590565b6000546107c89061010090046001600160a01b031681565b61048c60165481565b6104ad610ac336600461332d565b612f87565b6104ad61306a565b61048c60035481565b61048c610ae736600461332d565b60066020526000908152604090205481565b6104ad610b0736600461332d565b61309c565b6017546104399060ff1681565b60408051600181526000602082015201610447565b306001600160a01b037f0000000000000000000000000000000000000000000000000000000000000000161480610b9e57507f00000000000000000000000000000000000000000000000000000000000000006001600160a01b0316610b926131f7565b6001600160a01b031614155b15610bbc57604051636293f5d160e01b815260040160405180910390fd5b60005461010090046001600160a01b031663f166d9eb610bda610c76565b336000356001600160e01b0319166040518463ffffffff1660e01b8152600401610c0693929190613917565b602060405180830381865afa158015610c23573d6000803e3d6000fd5b505050506040513d601f19601f82011682018060405250810190610c47919061394c565b610c6a57604051622ad7db60e41b81523360048201526024015b60405180910390fd5b610c738161320a565b50565b6453544f524560d81b90565b306001600160a01b037f0000000000000000000000000000000000000000000000000000000000000000161480610cf257507f00000000000000000000000000000000000000000000000000000000000000006001600160a01b0316610ce66131f7565b6001600160a01b031614155b15610d1057604051636293f5d160e01b815260040160405180910390fd5b60005461010090046001600160a01b031663f166d9eb610d2e610c76565b336000356001600160e01b0319166040518463ffffffff1660e01b8152600401610d5a93929190613917565b602060405180830381865afa158015610d77573d6000803e3d6000fd5b505050506040513d601f19601f82011682018060405250810190610d9b919061394c565b610db957604051622ad7db60e41b8152336004820152602401610c61565b600355565b306001600160a01b037f0000000000000000000000000000000000000000000000000000000000000000161480610e2e57507f00000000000000000000000000000000000000000000000000000000000000006001600160a01b0316610e226131f7565b6001600160a01b031614155b15610e4c57604051636293f5d160e01b815260040160405180910390fd5b60005461010090046001600160a01b031663f166d9eb610e6a610c76565b336000356001600160e01b0319166040518463ffffffff1660e01b8152600401610e9693929190613917565b602060405180830381865afa158015610eb3573d6000803e3d6000fd5b505050506040513d601f19601f82011682018060405250810190610ed7919061394c565b610ef557604051622ad7db60e41b8152336004820152602401610c61565b600455565b306001600160a01b037f0000000000000000000000000000000000000000000000000000000000000000161480610f6a57507f00000000000000000000000000000000000000000000000000000000000000006001600160a01b0316610f5e6131f7565b6001600160a01b031614155b15610f8857604051636293f5d160e01b815260040160405180910390fd5b60005461010090046001600160a01b031663f166d9eb610fa6610c76565b336000356001600160e01b0319166040518463ffffffff1660e01b8152600401610fd293929190613917565b602060405180830381865afa158015610fef573d6000803e3d6000fd5b505050506040513d601f19601f82011682018060405250810190611013919061394c565b61103157604051622ad7db60e41b8152336004820152602401610c61565b6001600160a01b0316600090815260106020526040812055565b306001600160a01b037f00000000000000000000000000000000000000000000000000000000000000001614806110bb57507f00000000000000000000000000000000000000000000000000000000000000006001600160a01b03166110af6131f7565b6001600160a01b031614155b156110d957604051636293f5d160e01b815260040160405180910390fd5b60005461010090046001600160a01b031663f166d9eb6110f7610c76565b336000356001600160e01b0319166040518463ffffffff1660e01b815260040161112393929190613917565b602060405180830381865afa158015611140573d6000803e3d6000fd5b505050506040513d601f19601f82011682018060405250810190611164919061394c565b61118257604051622ad7db60e41b8152336004820152602401610c61565b600360ff821611156111ac57604051630af163d960e01b815260ff82166004820152602401610c61565b6001600160a01b03919091166000908152600c60205260409020805460ff191660ff909216919091179055565b306001600160a01b037f000000000000000000000000000000000000000000000000000000000000000016148061124957507f00000000000000000000000000000000000000000000000000000000000000006001600160a01b031661123d6131f7565b6001600160a01b031614155b1561126757604051636293f5d160e01b815260040160405180910390fd5b60005461010090046001600160a01b031663f166d9eb611285610c76565b336000356001600160e01b0319166040518463ffffffff1660e01b81526004016112b193929190613917565b602060405180830381865afa1580156112ce573d6000803e3d6000fd5b505050506040513d601f19601f820116820180604052508101906112f2919061394c565b61131057604051622ad7db60e41b8152336004820152602401610c61565b600555565b306001600160a01b037f000000000000000000000000000000000000000000000000000000000000000016148061138557507f00000000000000000000000000000000000000000000000000000000000000006001600160a01b03166113796131f7565b6001600160a01b031614155b156113a357604051636293f5d160e01b815260040160405180910390fd5b60005461010090046001600160a01b031663f166d9eb6113c1610c76565b336000356001600160e01b0319166040518463ffffffff1660e01b81526004016113ed93929190613917565b602060405180830381865afa15801561140a573d6000803e3d6000fd5b505050506040513d601f19601f8201168201806040525081019061142e919061394c565b61144c57604051622ad7db60e41b8152336004820152602401610c61565b6000838152600160205260408120805460ff191690555b818110156114d057600083838381811061147f5761147f613969565b905060400201803603810190611495919061397f565b90508060200151600260008360000151815260200190815260200160002060008282546114c291906139b1565b909155505050600101611463565b50505050565b306001600160a01b037f000000000000000000000000000000000000000000000000000000000000000016148061154657507f00000000000000000000000000000000000000000000000000000000000000006001600160a01b031661153a6131f7565b6001600160a01b031614155b1561156457604051636293f5d160e01b815260040160405180910390fd5b60005461010090046001600160a01b031663f166d9eb611582610c76565b336000356001600160e01b0319166040518463ffffffff1660e01b81526004016115ae93929190613917565b602060405180830381865afa1580156115cb573d6000803e3d6000fd5b505050506040513d601f19601f820116820180604052508101906115ef919061394c565b61160d57604051622ad7db60e41b8152336004820152602401610c61565b6001600160a01b03919091166000908152600d60205260409020805460ff1916911515919091179055565b60005461010090046001600160a01b0316331461166a5760405163053e900f60e21b8152336004820152602401610c61565b600080546001600160a01b0390921661010002610100600160a81b0319909216919091179055565b306001600160a01b037f000000000000000000000000000000000000000000000000000000000000000016148061170257507f00000000000000000000000000000000000000000000000000000000000000006001600160a01b03166116f66131f7565b6001600160a01b031614155b1561172057604051636293f5d160e01b815260040160405180910390fd5b60005461010090046001600160a01b031663f166d9eb61173e610c76565b336000356001600160e01b0319166040518463ffffffff1660e01b815260040161176a93929190613917565b602060405180830381865afa158015611787573d6000803e3d6000fd5b505050506040513d601f19601f820116820180604052508101906117ab919061394c565b6117c957604051622ad7db60e41b8152336004820152602401610c61565b60008281526001602081905260408220805460ff191690911790555b815181101561184557600082828151811061180257611802613969565b6020026020010151905080602001516002600083600001518152602001908152602001600020600082825461183791906139ca565b9091555050506001016117e5565b505050565b306001600160a01b037f00000000000000000000000000000000000000000000000000000000000000001614806118ba57507f00000000000000000000000000000000000000000000000000000000000000006001600160a01b03166118ae6131f7565b6001600160a01b031614155b156118d857604051636293f5d160e01b815260040160405180910390fd5b60005461010090046001600160a01b031663f166d9eb6118f6610c76565b336000356001600160e01b0319166040518463ffffffff1660e01b815260040161192293929190613917565b602060405180830381865afa15801561193f573d6000803e3d6000fd5b505050506040513d601f19601f82011682018060405250810190611963919061394c565b61198157604051622ad7db60e41b8152336004820152602401610c61565b6000600754600161199291906139ca565b6001600160a01b03909216600090815260066020526040902082905550600755565b306001600160a01b037f0000000000000000000000000000000000000000000000000000000000000000161480611a2457507f00000000000000000000000000000000000000000000000000000000000000006001600160a01b0316611a186131f7565b6001600160a01b031614155b15611a4257604051636293f5d160e01b815260040160405180910390fd5b60005461010090046001600160a01b031663f166d9eb611a60610c76565b336000356001600160e01b0319166040518463ffffffff1660e01b8152600401611a8c93929190613917565b602060405180830381865afa158015611aa9573d6000803e3d6000fd5b505050506040513d601f19601f82011682018060405250810190611acd919061394c565b611aeb57604051622ad7db60e41b8152336004820152602401610c61565b6001600160a01b03821660009081526010602052604081208054839290611b139084906139ca565b90915550505050565b306001600160a01b037f0000000000000000000000000000000000000000000000000000000000000000161480611b8c57507f00000000000000000000000000000000000000000000000000000000000000006001600160a01b0316611b806131f7565b6001600160a01b031614155b15611baa57604051636293f5d160e01b815260040160405180910390fd5b60005461010090046001600160a01b031663f166d9eb611bc8610c76565b336000356001600160e01b0319166040518463ffffffff1660e01b8152600401611bf493929190613917565b602060405180830381865afa158015611c11573d6000803e3d6000fd5b505050506040513d601f19601f82011682018060405250810190611c35919061394c565b611c5357604051622ad7db60e41b8152336004820152602401610c61565b8051825114611c8257815181516040516310978a1d60e11b815260048101929092526024820152604401610c61565b60005b825181101561184557818181518110611ca057611ca0613969565b6020026020010151600d6000858481518110611cbe57611cbe613969565b6020908102919091018101516001600160a01b03168252810191909152604001600020805460ff1916911515919091179055600101611c85565b306001600160a01b037f0000000000000000000000000000000000000000000000000000000000000000161480611d6857507f00000000000000000000000000000000000000000000000000000000000000006001600160a01b0316611d5c6131f7565b6001600160a01b031614155b15611d8657604051636293f5d160e01b815260040160405180910390fd5b60005461010090046001600160a01b031663f166d9eb611da4610c76565b336000356001600160e01b0319166040518463ffffffff1660e01b8152600401611dd093929190613917565b602060405180830381865afa158015611ded573d6000803e3d6000fd5b505050506040513d601f19601f82011682018060405250810190611e11919061394c565b611e2f57604051622ad7db60e41b8152336004820152602401610c61565b611e5860017fb1c430d6858c7d4aa68247671513746f811bc8a08b57cb1afc031d4c886174dc55565b565b306001600160a01b037f0000000000000000000000000000000000000000000000000000000000000000161480611eca57507f00000000000000000000000000000000000000000000000000000000000000006001600160a01b0316611ebe6131f7565b6001600160a01b031614155b15611ee857604051636293f5d160e01b815260040160405180910390fd5b60005461010090046001600160a01b031663f166d9eb611f06610c76565b336000356001600160e01b0319166040518463ffffffff1660e01b8152600401611f3293929190613917565b602060405180830381865afa158015611f4f573d6000803e3d6000fd5b505050506040513d601f19601f82011682018060405250810190611f73919061394c565b611f9157604051622ad7db60e41b8152336004820152602401610c61565b816001600160a01b03163b600003611fc757604051633414aaa160e11b81526001600160a01b0383166004820152602401610c61565b806001600160a01b03163b600003611ffd57604051633414aaa160e11b81526001600160a01b0382166004820152602401610c61565b6001600160a01b03918216600090815260086020526040902080546001600160a01b03191691909216179055565b306001600160a01b037f000000000000000000000000000000000000000000000000000000000000000016148061209b57507f00000000000000000000000000000000000000000000000000000000000000006001600160a01b031661208f6131f7565b6001600160a01b031614155b156120b957604051636293f5d160e01b815260040160405180910390fd5b60005461010090046001600160a01b031663f166d9eb6120d7610c76565b336000356001600160e01b0319166040518463ffffffff1660e01b815260040161210393929190613917565b602060405180830381865afa158015612120573d6000803e3d6000fd5b505050506040513d601f19601f82011682018060405250810190612144919061394c565b61216257604051622ad7db60e41b8152336004820152602401610c61565b61216c81426139ca565b6001600160a01b0390921660009081526014602052604090209190915550565b6000806121e78585856040516bffffffffffffffffffffffff19606085811b8216602084015284901b166034820152604881018290526000906068016040516020818303038152906040528051906020012090509392505050565b60009081526002602052604090205495945050505050565b306001600160a01b037f000000000000000000000000000000000000000000000000000000000000000016148061226f57507f00000000000000000000000000000000000000000000000000000000000000006001600160a01b03166122636131f7565b6001600160a01b031614155b1561228d57604051636293f5d160e01b815260040160405180910390fd5b60005461010090046001600160a01b031663f166d9eb6122ab610c76565b336000356001600160e01b0319166040518463ffffffff1660e01b81526004016122d793929190613917565b602060405180830381865afa1580156122f4573d6000803e3d6000fd5b505050506040513d601f19601f82011682018060405250810190612318919061394c565b61233657604051622ad7db60e41b8152336004820152602401610c61565b600e80546001600160a01b0319166001600160a01b0392909216919091179055565b306001600160a01b037f00000000000000000000000000000000000000000000000000000000000000001614806123c857507f00000000000000000000000000000000000000000000000000000000000000006001600160a01b03166123bc6131f7565b6001600160a01b031614155b156123e657604051636293f5d160e01b815260040160405180910390fd5b60005461010090046001600160a01b031663f166d9eb612404610c76565b336000356001600160e01b0319166040518463ffffffff1660e01b815260040161243093929190613917565b602060405180830381865afa15801561244d573d6000803e3d6000fd5b505050506040513d601f19601f82011682018060405250810190612471919061394c565b61248f57604051622ad7db60e41b8152336004820152602401610c61565b6001600160a01b0381166000908152600f602052604081208054600192906124b89084906139ca565b909155505050565b306001600160a01b037f000000000000000000000000000000000000000000000000000000000000000016148061253057507f00000000000000000000000000000000000000000000000000000000000000006001600160a01b03166125246131f7565b6001600160a01b031614155b1561254e57604051636293f5d160e01b815260040160405180910390fd5b60005461010090046001600160a01b031663f166d9eb61256c610c76565b336000356001600160e01b0319166040518463ffffffff1660e01b815260040161259893929190613917565b602060405180830381865afa1580156125b5573d6000803e3d6000fd5b505050506040513d601f19601f820116820180604052508101906125d9919061394c565b6125f757604051622ad7db60e41b8152336004820152602401610c61565b6001600160a01b03166000908152601160205260409020805460ff19169055565b6001600160a01b0380821660009081526008602090815260408083205490931680835260099091529181205490919060ff168203612657576000612659565b805b9392505050565b306001600160a01b037f00000000000000000000000000000000000000000000000000000000000000001614806126d057507f00000000000000000000000000000000000000000000000000000000000000006001600160a01b03166126c46131f7565b6001600160a01b031614155b156126ee57604051636293f5d160e01b815260040160405180910390fd5b60005461010090046001600160a01b031663f166d9eb61270c610c76565b336000356001600160e01b0319166040518463ffffffff1660e01b815260040161273893929190613917565b602060405180830381865afa158015612755573d6000803e3d6000fd5b505050506040513d601f19601f82011682018060405250810190612779919061394c565b61279757604051622ad7db60e41b8152336004820152602401610c61565b80518251146127c657815181516040516310978a1d60e11b815260048101929092526024820152604401610c61565b60005b825181101561184557600360ff168282815181106127e9576127e9613969565b602002602001015160ff1611156128375781818151811061280c5761280c613969565b6020026020010151604051630af163d960e01b8152600401610c61919060ff91909116815260200190565b81818151811061284957612849613969565b6020026020010151600c600085848151811061286757612867613969565b6020908102919091018101516001600160a01b03168252810191909152604001600020805460ff191660ff929092169190911790556001016127c9565b306001600160a01b037f000000000000000000000000000000000000000000000000000000000000000016148061291457507f00000000000000000000000000000000000000000000000000000000000000006001600160a01b03166129086131f7565b6001600160a01b031614155b1561293257604051636293f5d160e01b815260040160405180910390fd5b60005461010090046001600160a01b031663f166d9eb612950610c76565b336000356001600160e01b0319166040518463ffffffff1660e01b815260040161297c93929190613917565b602060405180830381865afa158015612999573d6000803e3d6000fd5b505050506040513d601f19601f820116820180604052508101906129bd919061394c565b6129db57604051622ad7db60e41b8152336004820152602401610c61565b816001600160a01b03163b600003612a1157604051633414aaa160e11b81526001600160a01b0383166004820152602401610c61565b600360ff82161115612a3b57604051630af163d960e01b815260ff82166004820152602401610c61565b6001600160a01b03919091166000908152600b60205260409020805460ff191660ff909216919091179055565b306001600160a01b037f0000000000000000000000000000000000000000000000000000000000000000161480612ad857507f00000000000000000000000000000000000000000000000000000000000000006001600160a01b0316612acc6131f7565b6001600160a01b031614155b15612af657604051636293f5d160e01b815260040160405180910390fd5b60005461010090046001600160a01b031663f166d9eb612b14610c76565b336000356001600160e01b0319166040518463ffffffff1660e01b8152600401612b4093929190613917565b602060405180830381865afa158015612b5d573d6000803e3d6000fd5b505050506040513d601f19601f82011682018060405250810190612b81919061394c565b612b9f57604051622ad7db60e41b8152336004820152602401610c61565b6001600160a01b03919091166000908152600a60205260409020805460ff1916911515919091179055565b306001600160a01b037f0000000000000000000000000000000000000000000000000000000000000000161480612c3a57507f00000000000000000000000000000000000000000000000000000000000000006001600160a01b0316612c2e6131f7565b6001600160a01b031614155b15612c5857604051636293f5d160e01b815260040160405180910390fd5b60005461010090046001600160a01b031663f166d9eb612c76610c76565b336000356001600160e01b0319166040518463ffffffff1660e01b8152600401612ca293929190613917565b602060405180830381865afa158015612cbf573d6000803e3d6000fd5b505050506040513d601f19601f82011682018060405250810190612ce3919061394c565b612d0157604051622ad7db60e41b8152336004820152602401610c61565b60005b83811015612d4b5760016000868684818110612d2257612d22613969565b60209081029290920135835250810191909152604001600020805460ff19169055600101612d04565b5060005b81811015612dbc576000838383818110612d6b57612d6b613969565b905060400201803603810190612d81919061397f565b9050806020015160026000836000015181526020019081526020016000206000828254612dae91906139b1565b909155505050600101612d4f565b5050505050565b306001600160a01b037f0000000000000000000000000000000000000000000000000000000000000000161480612e3357507f00000000000000000000000000000000000000000000000000000000000000006001600160a01b0316612e276131f7565b6001600160a01b031614155b15612e5157604051636293f5d160e01b815260040160405180910390fd5b60005461010090046001600160a01b031663f166d9eb612e6f610c76565b336000356001600160e01b0319166040518463ffffffff1660e01b8152600401612e9b93929190613917565b602060405180830381865afa158015612eb8573d6000803e3d6000fd5b505050506040513d601f19601f82011682018060405250810190612edc919061394c565b612efa57604051622ad7db60e41b8152336004820152602401610c61565b816001600160a01b03163b600003612f3057604051633414aaa160e11b81526001600160a01b0383166004820152602401610c61565b600760ff82161115612f5a576040516393b628d760e01b815260ff82166004820152602401610c61565b6001600160a01b03919091166000908152600960205260409020805460ff191660ff909216919091179055565b306001600160a01b037f0000000000000000000000000000000000000000000000000000000000000000161480612ff757507f00000000000000000000000000000000000000000000000000000000000000006001600160a01b0316612feb6131f7565b6001600160a01b031614155b1561301557604051636293f5d160e01b815260040160405180910390fd5b60005460ff1615613039576040516358c510a960e11b815260040160405180910390fd5b6000805460ff196001600160a01b0390931661010002929092166001600160a81b0319909216919091176001179055565b60005461010090046001600160a01b03163314611e585760405163053e900f60e21b8152336004820152602401610c61565b306001600160a01b037f000000000000000000000000000000000000000000000000000000000000000016148061310c57507f00000000000000000000000000000000000000000000000000000000000000006001600160a01b03166131006131f7565b6001600160a01b031614155b1561312a57604051636293f5d160e01b815260040160405180910390fd5b60005461010090046001600160a01b031663f166d9eb613148610c76565b336000356001600160e01b0319166040518463ffffffff1660e01b815260040161317493929190613917565b602060405180830381865afa158015613191573d6000803e3d6000fd5b505050506040513d601f19601f820116820180604052508101906131b5919061394c565b6131d357604051622ad7db60e41b8152336004820152602401610c61565b6001600160a01b03166000908152601160205260409020805460ff19166001179055565b6000805160206139f78339815191525490565b7fb1c430d6858c7d4aa68247671513746f811bc8a08b57cb1afc031d4c886174dc541561324a57604051637f2c070d60e01b815260040160405180910390fd5b806001600160a01b03166352d1902d6040518163ffffffff1660e01b8152600401602060405180830381865afa9250505080156132a4575060408051601f3d908101601f191682019092526132a1918101906139dd565b60015b6132cc57604051630a4edb1d60e41b81526001600160a01b0382166004820152602401610c61565b6000805160206139f7833981519152811461330557604051630a4edb1d60e41b81526001600160a01b0383166004820152602401610c61565b506000805160206139f783398151915255565b6001600160a01b0381168114610c7357600080fd5b60006020828403121561333f57600080fd5b813561265981613318565b60006020828403121561335c57600080fd5b5035919050565b803560ff8116811461337457600080fd5b919050565b6000806040838503121561338c57600080fd5b823561339781613318565b91506133a560208401613363565b90509250929050565b60008083601f8401126133c057600080fd5b50813567ffffffffffffffff8111156133d857600080fd5b6020830191508360208260061b85010111156133f357600080fd5b9250929050565b60008060006040848603121561340f57600080fd5b83359250602084013567ffffffffffffffff81111561342d57600080fd5b613439868287016133ae565b9497909650939450505050565b8015158114610c7357600080fd5b6000806040838503121561346757600080fd5b823561347281613318565b9150602083013561348281613446565b809150509250929050565b634e487b7160e01b600052604160045260246000fd5b604051601f8201601f1916810167ffffffffffffffff811182821017156134cc576134cc61348d565b604052919050565b600067ffffffffffffffff8211156134ee576134ee61348d565b5060051b60200190565b60006040828403121561350a57600080fd5b6040516040810181811067ffffffffffffffff8211171561352d5761352d61348d565b604052823581526020928301359281019290925250919050565b600080604080848603121561355b57600080fd5b8335925060208085013567ffffffffffffffff81111561357a57600080fd5b8501601f8101871361358b57600080fd5b803561359e613599826134d4565b6134a3565b8082825260208201915060208360061b8501019250898311156135c057600080fd5b6020840193505b828410156135e8576135d98a856134f8565b825292850192908401906135c7565b8096505050505050509250929050565b6000806040838503121561360b57600080fd5b823561361681613318565b946020939093013593505050565b600082601f83011261363557600080fd5b81356020613645613599836134d4565b8083825260208201915060208460051b87010193508684111561366757600080fd5b602086015b8481101561368c57803561367f81613318565b835291830191830161366c565b509695505050505050565b600080604083850312156136aa57600080fd5b823567ffffffffffffffff808211156136c257600080fd5b6136ce86838701613624565b93506020915081850135818111156136e557600080fd5b85019050601f810186136136f857600080fd5b8035613706613599826134d4565b81815260059190911b8201830190838101908883111561372557600080fd5b928401925b8284101561374c57833561373d81613446565b8252928401929084019061372a565b80955050505050509250929050565b6000806040838503121561376e57600080fd5b823561377981613318565b9150602083013561348281613318565b60008060006060848603121561379e57600080fd5b83356137a981613318565b925060208401356137b981613318565b929592945050506040919091013590565b600080604083850312156137dd57600080fd5b823567ffffffffffffffff808211156137f557600080fd5b61380186838701613624565b935060209150818501358181111561381857600080fd5b85019050601f8101861361382b57600080fd5b8035613839613599826134d4565b81815260059190911b8201830190838101908883111561385857600080fd5b928401925b8284101561374c5761386e84613363565b8252928401929084019061385d565b6000806000806040858703121561389357600080fd5b843567ffffffffffffffff808211156138ab57600080fd5b818701915087601f8301126138bf57600080fd5b8135818111156138ce57600080fd5b8860208260051b85010111156138e357600080fd5b6020928301965094509086013590808211156138fe57600080fd5b5061390b878288016133ae565b95989497509550505050565b6001600160d81b03199390931683526001600160a01b039190911660208301526001600160e01b031916604082015260600190565b60006020828403121561395e57600080fd5b815161265981613446565b634e487b7160e01b600052603260045260246000fd5b60006040828403121561399157600080fd5b61265983836134f8565b634e487b7160e01b600052601160045260246000fd5b818103818111156139c4576139c461399b565b92915050565b808201808211156139c4576139c461399b565b6000602082840312156139ef57600080fd5b505191905056fe360894a13ba1a3210667c828492db98dca3e2076cc3735a920a3ca505d382bbca26469706673582212207d992b227d52412085271bdd5c636d14c8be040c13eef9b50cde62ff325c01cb64736f6c63430008160033","linkReferences":{}},"methodIdentifiers":{"INIT()":"ea643914","KEYCODE()":"1ae7ec2e","MODULE_PROXY_INSTANTIATION(address)":"e78513cf","VERSION()":"ffa1ad74","addRentalSafe(address)":"4dc130b6","addRentals(bytes32,(bytes32,uint256)[])":"47f280ff","applyFine(address,uint256)":"5c6a06c1","assetEnabledForRent(address)":"bf777548","assetRestrictedForPermit(address)":"2350efdc","banUser(address,uint256)":"6c81f490","blacklistThreshold()":"5ce33093","blacklistUser(address)":"fcbca456","blacklistedUsers(address)":"22c0aec7","changeKernel(address)":"4657b36c","clearFine(address)":"30b6fec1","contractToHook(address)":"9e31e8e6","deployedSafes(address)":"f6fdddf1","extensionDisableAllowed(address)":"c3accda2","extensionEnableAllowed(address)":"b526a073","fineThreshold()":"766c2c7b","freeze()":"62a5af3b","guardEmergencyUpgrade()":"7bffb728","hasFine(address)":"d393ff7a","hasWarning(address)":"81c89f10","hookOnStart(address)":"c3672fda","hookOnStop(address)":"39f16e6e","hookOnTransaction(address)":"844c663b","hookStatus(address)":"00ebd8fb","initialized()":"158ef93e","isRentedOut(address,address,uint256)":"79f9bd6d","isUserBanned(address)":"9ed9b4fd","isUserBlacklisted(address)":"503b8e81","issueWarning(address)":"8258afc9","kernel()":"d4aae0c4","maxConsiderationItems()":"04e7b3b1","maxFinesBeforeBlacklist()":"df5d25c3","maxOfferItems()":"acbf34a0","maxRentDuration()":"ec3e2133","maxWarningsBeforeFine()":"8a9830d8","orders(bytes32)":"9c3f1e90","proxiableUUID()":"52d1902d","removeRentals(bytes32,(bytes32,uint256)[])":"3fd9b3ee","removeRentalsBatch(bytes32[],(bytes32,uint256)[])":"aa73773e","rentedAssets(bytes32)":"b05c87bf","setGuardEmergencyUpgrade(address)":"7c58ffb1","setMaxConsiderationItems(uint256)":"3fb2ab77","setMaxOfferItems(uint256)":"2bf796ff","setMaxRentDuration(uint256)":"2012d363","toggleWhitelistAsset(address,uint8)":"3e5fac31","toggleWhitelistAssetBatch(address[],uint8[])":"a210f21c","toggleWhitelistDelegate(address,bool)":"a942d344","toggleWhitelistExtension(address,uint8)":"a5fd3f30","toggleWhitelistPayment(address,bool)":"45204b3c","toggleWhitelistPaymentBatch(address[],bool[])":"5ec8d3e4","totalSafes()":"2f823186","unblacklistUser(address)":"8aa96fac","updateHookPath(address,address)":"6c675c25","updateHookStatus(address,uint8)":"c9fa121e","upgrade(address)":"0900f010","upgradeSuccess()":"945c9e73","userBanExpiry(address)":"73d0c70a","userFines(address)":"74a877d4","userSimilarityScores(address)":"a40e603d","userViolations(address)":"53307d56","userWarnings(address)":"5d2d8476","warningThreshold()":"fd911648","whitelistedAssets(address)":"371510fc","whitelistedDelegates(address)":"73d6125e","whitelistedExtensions(address)":"c0c6bbd9","whitelistedPayments(address)":"0393f3c4"},"id":175}