{"abi":[{"type":"function","name":"blacklistThreshold","inputs":[],"outputs":[{"name":"","type":"uint8","internalType":"uint8"}],"stateMutability":"view"},{"type":"function","name":"blacklistedUsers","inputs":[{"name":"user","type":"address","internalType":"address"}],"outputs":[{"name":"isBlacklisted","type":"bool","internalType":"bool"}],"stateMutability":"view"},{"type":"function","name":"deployedSafes","inputs":[{"name":"safe","type":"address","internalType":"address"}],"outputs":[{"name":"nonce","type":"uint256","internalType":"uint256"}],"stateMutability":"view"},{"type":"function","name":"fineThreshold","inputs":[],"outputs":[{"name":"","type":"uint8","internalType":"uint8"}],"stateMutability":"view"},{"type":"function","name":"guardEmergencyUpgrade","inputs":[],"outputs":[{"name":"","type":"address","internalType":"address"}],"stateMutability":"view"},{"type":"function","name":"hookStatus","inputs":[{"name":"hook","type":"address","internalType":"address"}],"outputs":[{"name":"enabled","type":"uint8","internalType":"uint8"}],"stateMutability":"view"},{"type":"function","name":"maxConsiderationItems","inputs":[],"outputs":[{"name":"","type":"uint256","internalType":"uint256"}],"stateMutability":"view"},{"type":"function","name":"maxFinesBeforeBlacklist","inputs":[],"outputs":[{"name":"","type":"uint256","internalType":"uint256"}],"stateMutability":"view"},{"type":"function","name":"maxOfferItems","inputs":[],"outputs":[{"name":"","type":"uint256","internalType":"uint256"}],"stateMutability":"view"},{"type":"function","name":"maxRentDuration","inputs":[],"outputs":[{"name":"","type":"uint256","internalType":"uint256"}],"stateMutability":"view"},{"type":"function","name":"maxWarningsBeforeFine","inputs":[],"outputs":[{"name":"","type":"uint256","internalType":"uint256"}],"stateMutability":"view"},{"type":"function","name":"orders","inputs":[{"name":"orderHash","type":"bytes32","internalType":"bytes32"}],"outputs":[{"name":"isActive","type":"bool","internalType":"bool"}],"stateMutability":"view"},{"type":"function","name":"rentedAssets","inputs":[{"name":"itemId","type":"bytes32","internalType":"RentalId"}],"outputs":[{"name":"amount","type":"uint256","internalType":"uint256"}],"stateMutability":"view"},{"type":"function","name":"totalSafes","inputs":[],"outputs":[{"name":"","type":"uint256","internalType":"uint256"}],"stateMutability":"view"},{"type":"function","name":"userBanExpiry","inputs":[{"name":"user","type":"address","internalType":"address"}],"outputs":[{"name":"banExpiry","type":"uint256","internalType":"uint256"}],"stateMutability":"view"},{"type":"function","name":"userFines","inputs":[{"name":"user","type":"address","internalType":"address"}],"outputs":[{"name":"fines","type":"uint256","internalType":"uint256"}],"stateMutability":"view"},{"type":"function","name":"userSimilarityScores","inputs":[{"name":"user","type":"address","internalType":"address"}],"outputs":[{"name":"similarityScore","type":"uint8","internalType":"uint8"}],"stateMutability":"view"},{"type":"function","name":"userViolations","inputs":[{"name":"user","type":"address","internalType":"address"}],"outputs":[{"name":"violationCount","type":"uint256","internalType":"uint256"}],"stateMutability":"view"},{"type":"function","name":"userWarnings","inputs":[{"name":"user","type":"address","internalType":"address"}],"outputs":[{"name":"warnings","type":"uint256","internalType":"uint256"}],"stateMutability":"view"},{"type":"function","name":"warningThreshold","inputs":[],"outputs":[{"name":"","type":"uint8","internalType":"uint8"}],"stateMutability":"view"},{"type":"function","name":"whitelistedAssets","inputs":[{"name":"asset","type":"address","internalType":"address"}],"outputs":[{"name":"assetBitmap","type":"uint8","internalType":"uint8"}],"stateMutability":"view"},{"type":"function","name":"whitelistedDelegates","inputs":[{"name":"delegate","type":"address","internalType":"address"}],"outputs":[{"name":"isWhitelisted","type":"bool","internalType":"bool"}],"stateMutability":"view"},{"type":"function","name":"whitelistedExtensions","inputs":[{"name":"extension","type":"address","internalType":"address"}],"outputs":[{"name":"enabled","type":"uint8","internalType":"uint8"}],"stateMutability":"view"},{"type":"function","name":"whitelistedPayments","inputs":[{"name":"payment","type":"address","internalType":"address"}],"outputs":[{"name":"isWhitelisted","type":"bool","internalType":"bool"}],"stateMutability":"view"}],"bytecode":{"object":"0x608060405234801561001057600080fd5b5061047b806100206000396000f3fe608060405234801561001057600080fd5b50600436106101575760003560e01c8063766c2c7b116100c3578063b05c87bf1161007c578063b05c87bf1461037a578063c0c6bbd91461039a578063df5d25c3146103bd578063ec3e2133146103c6578063f6fdddf1146103cf578063fd911648146103ef57600080fd5b8063766c2c7b146102e55780637bffb728146102f75780638a9830d8146103225780639c3f1e901461032b578063a40e603d1461034e578063acbf34a01461037157600080fd5b806353307d561161011557806353307d561461022f5780635ce330931461024f5780635d2d84761461026257806373d0c70a1461028257806373d6125e146102a257806374a877d4146102c557600080fd5b8062ebd8fb1461015c5780630393f3c41461019657806304e7b3b1146101c957806322c0aec7146101e05780632f82318614610203578063371510fc1461020c575b600080fd5b61017f61016a3660046103fc565b60086020526000908152604090205460ff1681565b60405160ff90911681526020015b60405180910390f35b6101b96101a43660046103fc565b600c6020526000908152604090205460ff1681565b604051901515815260200161018d565b6101d260045481565b60405190815260200161018d565b6101b96101ee3660046103fc565b60106020526000908152604090205460ff1681565b6101d260065481565b61017f61021a3660046103fc565b600b6020526000908152604090205460ff1681565b6101d261023d3660046103fc565b60116020526000908152604090205481565b60165461017f9062010000900460ff1681565b6101d26102703660046103fc565b600e6020526000908152604090205481565b6101d26102903660046103fc565b60136020526000908152604090205481565b6101b96102b03660046103fc565b60096020526000908152604090205460ff1681565b6101d26102d33660046103fc565b600f6020526000908152604090205481565b60165461017f90610100900460ff1681565b600d5461030a906001600160a01b031681565b6040516001600160a01b03909116815260200161018d565b6101d260145481565b6101b961033936600461042c565b60006020819052908152604090205460ff1681565b61017f61035c3660046103fc565b60126020526000908152604090205460ff1681565b6101d260035481565b6101d261038836600461042c565b60016020526000908152604090205481565b61017f6103a83660046103fc565b600a6020526000908152604090205460ff1681565b6101d260155481565b6101d260025481565b6101d26103dd3660046103fc565b60056020526000908152604090205481565b60165461017f9060ff1681565b60006020828403121561040e57600080fd5b81356001600160a01b038116811461042557600080fd5b9392505050565b60006020828403121561043e57600080fd5b503591905056fea264697066735822122005f63a225552ff46059c97c9b1a0dd87a6cd277e31cf5420f320734ce6022bbc64736f6c63430008160033","linkReferences":{}},"methodIdentifiers":{"blacklistThreshold()":"5ce33093","blacklistedUsers(address)":"22c0aec7","deployedSafes(address)":"f6fdddf1","fineThreshold()":"766c2c7b","guardEmergencyUpgrade()":"7bffb728","hookStatus(address)":"00ebd8fb","maxConsiderationItems()":"04e7b3b1","maxFinesBeforeBlacklist()":"df5d25c3","maxOfferItems()":"acbf34a0","maxRentDuration()":"ec3e2133","maxWarningsBeforeFine()":"8a9830d8","orders(bytes32)":"9c3f1e90","rentedAssets(bytes32)":"b05c87bf","totalSafes()":"2f823186","userBanExpiry(address)":"73d0c70a","userFines(address)":"74a877d4","userSimilarityScores(address)":"a40e603d","userViolations(address)":"53307d56","userWarnings(address)":"5d2d8476","warningThreshold()":"fd911648","whitelistedAssets(address)":"371510fc","whitelistedDelegates(address)":"73d6125e","whitelistedExtensions(address)":"c0c6bbd9","whitelistedPayments(address)":"0393f3c4"},"id":193}