{"abi":[{"type":"constructor","inputs":[{"name":"kernel_","type":"address","internalType":"contract Kernel"}],"stateMutability":"nonpayable"},{"type":"function","name":"INIT","inputs":[],"outputs":[],"stateMutability":"nonpayable"},{"type":"function","name":"KEYCODE","inputs":[],"outputs":[{"name":"","type":"bytes5","internalType":"Keycode"}],"stateMutability":"pure"},{"type":"function","name":"MODULE_PROXY_INSTANTIATION","inputs":[{"name":"kernel_","type":"address","internalType":"contract Kernel"}],"outputs":[],"stateMutability":"nonpayable"},{"type":"function","name":"VERSION","inputs":[],"outputs":[{"name":"major","type":"uint8","internalType":"uint8"},{"name":"minor","type":"uint8","internalType":"uint8"}],"stateMutability":"pure"},{"type":"function","name":"addRentalSafe","inputs":[{"name":"safe","type":"address","internalType":"address"}],"outputs":[],"stateMutability":"nonpayable"},{"type":"function","name":"addRentals","inputs":[{"name":"orderHash","type":"bytes32","internalType":"bytes32"},{"name":"rentalAssetUpdates","type":"tuple[]","internalType":"struct RentalAssetUpdate[]","components":[{"name":"rentalId","type":"bytes32","internalType":"RentalId"},{"name":"amount","type":"uint256","internalType":"uint256"}]}],"outputs":[],"stateMutability":"nonpayable"},{"type":"function","name":"applyFine","inputs":[{"name":"user","type":"address","internalType":"address"},{"name":"amount","type":"uint256","internalType":"uint256"}],"outputs":[],"stateMutability":"nonpayable"},{"type":"function","name":"assetEnabledForRent","inputs":[{"name":"asset","type":"address","internalType":"address"}],"outputs":[{"name":"","type":"bool","internalType":"bool"}],"stateMutability":"view"},{"type":"function","name":"assetRestrictedForPermit","inputs":[{"name":"asset","type":"address","internalType":"address"}],"outputs":[{"name":"","type":"bool","internalType":"bool"}],"stateMutability":"view"},{"type":"function","name":"banUser","inputs":[{"name":"user","type":"address","internalType":"address"},{"name":"duration","type":"uint256","internalType":"uint256"}],"outputs":[],"stateMutability":"nonpayable"},{"type":"function","name":"blacklistThreshold","inputs":[],"outputs":[{"name":"","type":"uint8","internalType":"uint8"}],"stateMutability":"view"},{"type":"function","name":"blacklistUser","inputs":[{"name":"user","type":"address","internalType":"address"}],"outputs":[],"stateMutability":"nonpayable"},{"type":"function","name":"blacklistedUsers","inputs":[{"name":"user","type":"address","internalType":"address"}],"outputs":[{"name":"isBlacklisted","type":"bool","internalType":"bool"}],"stateMutability":"view"},{"type":"function","name":"changeKernel","inputs":[{"name":"newKernel_","type":"address","internalType":"contract Kernel"}],"outputs":[],"stateMutability":"nonpayable"},{"type":"function","name":"clearFine","inputs":[{"name":"user","type":"address","internalType":"address"}],"outputs":[],"stateMutability":"nonpayable"},{"type":"function","name":"contractToHook","inputs":[{"name":"to","type":"address","internalType":"address"}],"outputs":[{"name":"","type":"address","internalType":"address"}],"stateMutability":"view"},{"type":"function","name":"deployedSafes","inputs":[{"name":"safe","type":"address","internalType":"address"}],"outputs":[{"name":"nonce","type":"uint256","internalType":"uint256"}],"stateMutability":"view"},{"type":"function","name":"extensionDisableAllowed","inputs":[{"name":"extension","type":"address","internalType":"address"}],"outputs":[{"name":"","type":"bool","internalType":"bool"}],"stateMutability":"view"},{"type":"function","name":"extensionEnableAllowed","inputs":[{"name":"extension","type":"address","internalType":"address"}],"outputs":[{"name":"","type":"bool","internalType":"bool"}],"stateMutability":"view"},{"type":"function","name":"fineThreshold","inputs":[],"outputs":[{"name":"","type":"uint8","internalType":"uint8"}],"stateMutability":"view"},{"type":"function","name":"freeze","inputs":[],"outputs":[],"stateMutability":"nonpayable"},{"type":"function","name":"guardEmergencyUpgrade","inputs":[],"outputs":[{"name":"","type":"address","internalType":"address"}],"stateMutability":"view"},{"type":"function","name":"hasFine","inputs":[{"name":"user","type":"address","internalType":"address"}],"outputs":[{"name":"","type":"bool","internalType":"bool"}],"stateMutability":"view"},{"type":"function","name":"hasWarning","inputs":[{"name":"user","type":"address","internalType":"address"}],"outputs":[{"name":"","type":"bool","internalType":"bool"}],"stateMutability":"view"},{"type":"function","name":"hookOnStart","inputs":[{"name":"hook","type":"address","internalType":"address"}],"outputs":[{"name":"","type":"bool","internalType":"bool"}],"stateMutability":"view"},{"type":"function","name":"hookOnStop","inputs":[{"name":"hook","type":"address","internalType":"address"}],"outputs":[{"name":"","type":"bool","internalType":"bool"}],"stateMutability":"view"},{"type":"function","name":"hookOnTransaction","inputs":[{"name":"hook","type":"address","internalType":"address"}],"outputs":[{"name":"","type":"bool","internalType":"bool"}],"stateMutability":"view"},{"type":"function","name":"hookStatus","inputs":[{"name":"hook","type":"address","internalType":"address"}],"outputs":[{"name":"enabled","type":"uint8","internalType":"uint8"}],"stateMutability":"view"},{"type":"function","name":"initialized","inputs":[],"outputs":[{"name":"","type":"bool","internalType":"bool"}],"stateMutability":"view"},{"type":"function","name":"isRentedOut","inputs":[{"name":"recipient","type":"address","internalType":"address"},{"name":"token","type":"address","internalType":"address"},{"name":"identifier","type":"uint256","internalType":"uint256"}],"outputs":[{"name":"","type":"uint256","internalType":"uint256"}],"stateMutability":"view"},{"type":"function","name":"isUserBanned","inputs":[{"name":"user","type":"address","internalType":"address"}],"outputs":[{"name":"","type":"bool","internalType":"bool"}],"stateMutability":"view"},{"type":"function","name":"isUserBlacklisted","inputs":[{"name":"user","type":"address","internalType":"address"}],"outputs":[{"name":"","type":"bool","internalType":"bool"}],"stateMutability":"view"},{"type":"function","name":"issueWarning","inputs":[{"name":"user","type":"address","internalType":"address"}],"outputs":[],"stateMutability":"nonpayable"},{"type":"function","name":"kernel","inputs":[],"outputs":[{"name":"","type":"address","internalType":"contract Kernel"}],"stateMutability":"view"},{"type":"function","name":"maxConsiderationItems","inputs":[],"outputs":[{"name":"","type":"uint256","internalType":"uint256"}],"stateMutability":"view"},{"type":"function","name":"maxFinesBeforeBlacklist","inputs":[],"outputs":[{"name":"","type":"uint256","internalType":"uint256"}],"stateMutability":"view"},{"type":"function","name":"maxOfferItems","inputs":[],"outputs":[{"name":"","type":"uint256","internalType":"uint256"}],"stateMutability":"view"},{"type":"function","name":"maxRentDuration","inputs":[],"outputs":[{"name":"","type":"uint256","internalType":"uint256"}],"stateMutability":"view"},{"type":"function","name":"maxWarningsBeforeFine","inputs":[],"outputs":[{"name":"","type":"uint256","internalType":"uint256"}],"stateMutability":"view"},{"type":"function","name":"orders","inputs":[{"name":"orderHash","type":"bytes32","internalType":"bytes32"}],"outputs":[{"name":"isActive","type":"bool","internalType":"bool"}],"stateMutability":"view"},{"type":"function","name":"proxiableUUID","inputs":[],"outputs":[{"name":"","type":"bytes32","internalType":"bytes32"}],"stateMutability":"pure"},{"type":"function","name":"removeRentals","inputs":[{"name":"orderHash","type":"bytes32","internalType":"bytes32"},{"name":"rentalAssetUpdates","type":"tuple[]","internalType":"struct RentalAssetUpdate[]","components":[{"name":"rentalId","type":"bytes32","internalType":"RentalId"},{"name":"amount","type":"uint256","internalType":"uint256"}]}],"outputs":[],"stateMutability":"nonpayable"},{"type":"function","name":"removeRentalsBatch","inputs":[{"name":"orderHashes","type":"bytes32[]","internalType":"bytes32[]"},{"name":"rentalAssetUpdates","type":"tuple[]","internalType":"struct RentalAssetUpdate[]","components":[{"name":"rentalId","type":"bytes32","internalType":"RentalId"},{"name":"amount","type":"uint256","internalType":"uint256"}]}],"outputs":[],"stateMutability":"nonpayable"},{"type":"function","name":"rentedAssets","inputs":[{"name":"itemId","type":"bytes32","internalType":"RentalId"}],"outputs":[{"name":"amount","type":"uint256","internalType":"uint256"}],"stateMutability":"view"},{"type":"function","name":"setGuardEmergencyUpgrade","inputs":[{"name":"guardEmergencyUpgradeAddress","type":"address","internalType":"address"}],"outputs":[],"stateMutability":"nonpayable"},{"type":"function","name":"setMaxConsiderationItems","inputs":[{"name":"newConsiderationLength","type":"uint256","internalType":"uint256"}],"outputs":[],"stateMutability":"nonpayable"},{"type":"function","name":"setMaxOfferItems","inputs":[{"name":"newOfferLength","type":"uint256","internalType":"uint256"}],"outputs":[],"stateMutability":"nonpayable"},{"type":"function","name":"setMaxRentDuration","inputs":[{"name":"newDuration","type":"uint256","internalType":"uint256"}],"outputs":[],"stateMutability":"nonpayable"},{"type":"function","name":"toggleWhitelistAsset","inputs":[{"name":"asset","type":"address","internalType":"address"},{"name":"bitmap","type":"uint8","internalType":"uint8"}],"outputs":[],"stateMutability":"nonpayable"},{"type":"function","name":"toggleWhitelistAssetBatch","inputs":[{"name":"assets","type":"address[]","internalType":"address[]"},{"name":"bitmaps","type":"uint8[]","internalType":"uint8[]"}],"outputs":[],"stateMutability":"nonpayable"},{"type":"function","name":"toggleWhitelistDelegate","inputs":[{"name":"delegate","type":"address","internalType":"address"},{"name":"isEnabled","type":"bool","internalType":"bool"}],"outputs":[],"stateMutability":"nonpayable"},{"type":"function","name":"toggleWhitelistExtension","inputs":[{"name":"extension","type":"address","internalType":"address"},{"name":"bitmap","type":"uint8","internalType":"uint8"}],"outputs":[],"stateMutability":"nonpayable"},{"type":"function","name":"toggleWhitelistPayment","inputs":[{"name":"payment","type":"address","internalType":"address"},{"name":"isEnabled","type":"bool","internalType":"bool"}],"outputs":[],"stateMutability":"nonpayable"},{"type":"function","name":"toggleWhitelistPaymentBatch","inputs":[{"name":"payments","type":"address[]","internalType":"address[]"},{"name":"isEnabled","type":"bool[]","internalType":"bool[]"}],"outputs":[],"stateMutability":"nonpayable"},{"type":"function","name":"totalSafes","inputs":[],"outputs":[{"name":"","type":"uint256","internalType":"uint256"}],"stateMutability":"view"},{"type":"function","name":"unblacklistUser","inputs":[{"name":"user","type":"address","internalType":"address"}],"outputs":[],"stateMutability":"nonpayable"},{"type":"function","name":"updateHookPath","inputs":[{"name":"to","type":"address","internalType":"address"},{"name":"hook","type":"address","internalType":"address"}],"outputs":[],"stateMutability":"nonpayable"},{"type":"function","name":"updateHookStatus","inputs":[{"name":"hook","type":"address","internalType":"address"},{"name":"bitmap","type":"uint8","internalType":"uint8"}],"outputs":[],"stateMutability":"nonpayable"},{"type":"function","name":"upgrade","inputs":[{"name":"newImplementation","type":"address","internalType":"address"}],"outputs":[],"stateMutability":"nonpayable"},{"type":"function","name":"userBanExpiry","inputs":[{"name":"user","type":"address","internalType":"address"}],"outputs":[{"name":"banExpiry","type":"uint256","internalType":"uint256"}],"stateMutability":"view"},{"type":"function","name":"userFines","inputs":[{"name":"user","type":"address","internalType":"address"}],"outputs":[{"name":"fines","type":"uint256","internalType":"uint256"}],"stateMutability":"view"},{"type":"function","name":"userSimilarityScores","inputs":[{"name":"user","type":"address","internalType":"address"}],"outputs":[{"name":"similarityScore","type":"uint8","internalType":"uint8"}],"stateMutability":"view"},{"type":"function","name":"userViolations","inputs":[{"name":"user","type":"address","internalType":"address"}],"outputs":[{"name":"violationCount","type":"uint256","internalType":"uint256"}],"stateMutability":"view"},{"type":"function","name":"userWarnings","inputs":[{"name":"user","type":"address","internalType":"address"}],"outputs":[{"name":"warnings","type":"uint256","internalType":"uint256"}],"stateMutability":"view"},{"type":"function","name":"warningThreshold","inputs":[],"outputs":[{"name":"","type":"uint8","internalType":"uint8"}],"stateMutability":"view"},{"type":"function","name":"whitelistedAssets","inputs":[{"name":"asset","type":"address","internalType":"address"}],"outputs":[{"name":"assetBitmap","type":"uint8","internalType":"uint8"}],"stateMutability":"view"},{"type":"function","name":"whitelistedDelegates","inputs":[{"name":"delegate","type":"address","internalType":"address"}],"outputs":[{"name":"isWhitelisted","type":"bool","internalType":"bool"}],"stateMutability":"view"},{"type":"function","name":"whitelistedExtensions","inputs":[{"name":"extension","type":"address","internalType":"address"}],"outputs":[{"name":"enabled","type":"uint8","internalType":"uint8"}],"stateMutability":"view"},{"type":"function","name":"whitelistedPayments","inputs":[{"name":"payment","type":"address","internalType":"address"}],"outputs":[{"name":"isWhitelisted","type":"bool","internalType":"bool"}],"stateMutability":"view"},{"type":"error","name":"KernelAdapter_OnlyKernel","inputs":[{"name":"caller_","type":"address","internalType":"address"}]},{"type":"error","name":"Module_PolicyNotAuthorized","inputs":[{"name":"policy_","type":"address","internalType":"address"}]},{"type":"error","name":"Proxy_AlreadyInitialized","inputs":[]},{"type":"error","name":"Proxy_Frozen","inputs":[]},{"type":"error","name":"Proxy_NotCompatible","inputs":[{"name":"newImplementation","type":"address","internalType":"address"}]},{"type":"error","name":"Proxy_OnlyCallByProxy","inputs":[]},{"type":"error","name":"StorageModule_InvalidHookStatusBitmap","inputs":[{"name":"bitmap","type":"uint8","internalType":"uint8"}]},{"type":"error","name":"StorageModule_InvalidWhitelistBitmap","inputs":[{"name":"bitmap","type":"uint8","internalType":"uint8"}]},{"type":"error","name":"StorageModule_NotContract","inputs":[{"name":"addr","type":"address","internalType":"address"}]},{"type":"error","name":"StorageModule_WhitelistBatchLengthMismatch","inputs":[{"name":"assetLength","type":"uint256","internalType":"uint256"},{"name":"boolLength","type":"uint256","internalType":"uint256"}]}],"bytecode":{"object":"0x60a0604052306080523480156200001557600080fd5b5060405162003c4338038062003c43833981016040819052620000389162000064565b600080546001600160a01b0390921661010002610100600160a81b031990921691909117905562000096565b6000602082840312156200007757600080fd5b81516001600160a01b03811681146200008f57600080fd5b9392505050565b608051613a3a6200020960003960008181610b2701528181610b5001528181610c7b01528181610ca401528181610db701528181610de001528181610ef301528181610f1c015281816110440152818161106d015281816111d2015281816111fb0152818161130e01528181611337015281816114cf015281816114f80152818161168b015281816116b4015281816118430152818161186c015281816119ad015281816119d601528181611b1501528181611b3e01528181611cf101528181611d1a01528181611e5301528181611e7c015281816120240152818161204d015281816121f801528181612221015281816123510152818161237a015281816124b9015281816124e201528181612659015281816126820152818161289d015281816128c601528181612a6101528181612a8a01528181612bc301528181612bec01528181612dbc01528181612de501528181612f8001528181612fa90152818161309501526130be0152613a3a6000f3fe608060405234801561001057600080fd5b50600436106104065760003560e01c8063766c2c7b11610220578063acbf34a011610130578063d4aae0c4116100b8578063ec3e213311610087578063ec3e213314610abe578063f6fdddf114610ac7578063fcbca45614610ae7578063fd91164814610afa578063ffa1ad7414610b0757600080fd5b8063d4aae0c414610a82578063df5d25c314610a9a578063e78513cf14610aa3578063ea64391414610ab657600080fd5b8063c0c6bbd9116100ff578063c0c6bbd9146109c5578063c3672fda146109e8578063c3accda214610a16578063c9fa121e14610a44578063d393ff7a14610a5757600080fd5b8063acbf34a014610940578063b05c87bf14610949578063b526a07314610969578063bf7775481461099757600080fd5b80638aa96fac116101b3578063a210f21c11610182578063a210f21c146108d1578063a40e603d146108e4578063a5fd3f3014610907578063a942d3441461091a578063aa73773e1461092d57600080fd5b80638aa96fac1461085d5780639c3f1e90146108705780639e31e8e6146108935780639ed9b4fd146108a657600080fd5b806381c89f10116101ef57806381c89f10146107e85780638258afc914610813578063844c663b146108265780638a9830d81461085457600080fd5b8063766c2c7b1461078557806379f9bd6d146107975780637bffb728146107aa5780637c58ffb1146107d557600080fd5b806345204b3c1161031b5780635ce33093116102ae5780636c675c251161027d5780636c675c25146106fc5780636c81f4901461070f57806373d0c70a1461072257806373d6125e1461074257806374a877d41461076557600080fd5b80635ce33093146106ae5780635d2d8476146106c15780635ec8d3e4146106e157806362a5af3b146106f457600080fd5b8063503b8e81116102ea578063503b8e811461063b57806352d1902d1461066757806353307d561461067b5780635c6a06c11461069b57600080fd5b806345204b3c146105ef5780634657b36c1461060257806347f280ff146106155780634dc130b61461062857600080fd5b80632350efdc1161039e578063371510fc1161036d578063371510fc1461056557806339f16e6e146105885780633e5fac31146105b65780633fb2ab77146105c95780633fd9b3ee146105dc57600080fd5b80632350efdc146105085780632bf796ff146105365780632f8231861461054957806330b6fec11461055257600080fd5b8063158ef93e116103da578063158ef93e146104a45780631ae7ec2e146104b15780632012d363146104d257806322c0aec7146104e557600080fd5b8062ebd8fb1461040b5780630393f3c41461044557806304e7b3b1146104785780630900f0101461048f575b600080fd5b61042e61041936600461331b565b60096020526000908152604090205460ff1681565b60405160ff90911681526020015b60405180910390f35b61046861045336600461331b565b600d6020526000908152604090205460ff1681565b604051901515815260200161043c565b61048160055481565b60405190815260200161043c565b6104a261049d36600461331b565b610b1c565b005b6000546104689060ff1681565b6104b9610c64565b6040516001600160d81b0319909116815260200161043c565b6104a26104e0366004613338565b610c70565b6104686104f336600461331b565b60116020526000908152604090205460ff1681565b61046861051636600461331b565b6001600160a01b03166000908152600c6020526040902054600116151590565b6104a2610544366004613338565b610dac565b61048160075481565b6104a261056036600461331b565b610ee8565b61042e61057336600461331b565b600c6020526000908152604090205460ff1681565b61046861059636600461331b565b6001600160a01b0316600090815260096020526040902054600416151590565b6104a26105c4366004613367565b611039565b6104a26105d7366004613338565b6111c7565b6104a26105ea3660046133e8565b611303565b6104a26105fd366004613442565b6114c4565b6104a261061036600461331b565b611626565b6104a2610623366004613535565b611680565b6104a261063636600461331b565b611838565b61046861064936600461331b565b6001600160a01b031660009081526011602052604090205460ff1690565b6000805160206139e5833981519152610481565b61048161068936600461331b565b60126020526000908152604090205481565b6104a26106a93660046135e6565b6119a2565b60175461042e9062010000900460ff1681565b6104816106cf36600461331b565b600f6020526000908152604090205481565b6104a26106ef366004613685565b611b0a565b6104a2611ce6565b6104a261070a366004613749565b611e48565b6104a261071d3660046135e6565b612019565b61048161073036600461331b565b60146020526000908152604090205481565b61046861075036600461331b565b600a6020526000908152604090205460ff1681565b61048161077336600461331b565b60106020526000908152604090205481565b60175461042e90610100900460ff1681565b6104816107a5366004613777565b61217a565b600e546107bd906001600160a01b031681565b6040516001600160a01b03909116815260200161043c565b6104a26107e336600461331b565b6121ed565b6104686107f636600461331b565b6001600160a01b03166000908152600f6020526040902054151590565b6104a261082136600461331b565b612346565b61046861083436600461331b565b6001600160a01b0316600090815260096020526040902054600116151590565b61048160155481565b6104a261086b36600461331b565b6124ae565b61046861087e366004613338565b60016020526000908152604090205460ff1681565b6107bd6108a136600461331b565b612606565b6104686108b436600461331b565b6001600160a01b0316600090815260146020526040902054421090565b6104a26108df3660046137b8565b61264e565b61042e6108f236600461331b565b60136020526000908152604090205460ff1681565b6104a2610915366004613367565b612892565b6104a2610928366004613442565b612a56565b6104a261093b36600461386b565b612bb8565b61048160045481565b610481610957366004613338565b60026020526000908152604090205481565b61046861097736600461331b565b6001600160a01b03166000908152600b6020526040902054600216151590565b6104686109a536600461331b565b6001600160a01b03166000908152600c6020526040902054600216151590565b61042e6109d336600461331b565b600b6020526000908152604090205460ff1681565b6104686109f636600461331b565b6001600160a01b0316600090815260096020526040902054600216151590565b610468610a2436600461331b565b6001600160a01b03166000908152600b6020526040902054600116151590565b6104a2610a52366004613367565b612db1565b610468610a6536600461331b565b6001600160a01b0316600090815260106020526040902054151590565b6000546107bd9061010090046001600160a01b031681565b61048160165481565b6104a2610ab136600461331b565b612f75565b6104a2613058565b61048160035481565b610481610ad536600461331b565b60066020526000908152604090205481565b6104a2610af536600461331b565b61308a565b60175461042e9060ff1681565b6040805160018152600060208201520161043c565b306001600160a01b037f0000000000000000000000000000000000000000000000000000000000000000161480610b8c57507f00000000000000000000000000000000000000000000000000000000000000006001600160a01b0316610b806131e5565b6001600160a01b031614155b15610baa57604051636293f5d160e01b815260040160405180910390fd5b60005461010090046001600160a01b031663f166d9eb610bc8610c64565b336000356001600160e01b0319166040518463ffffffff1660e01b8152600401610bf493929190613905565b602060405180830381865afa158015610c11573d6000803e3d6000fd5b505050506040513d601f19601f82011682018060405250810190610c35919061393a565b610c5857604051622ad7db60e41b81523360048201526024015b60405180910390fd5b610c61816131f8565b50565b6453544f524560d81b90565b306001600160a01b037f0000000000000000000000000000000000000000000000000000000000000000161480610ce057507f00000000000000000000000000000000000000000000000000000000000000006001600160a01b0316610cd46131e5565b6001600160a01b031614155b15610cfe57604051636293f5d160e01b815260040160405180910390fd5b60005461010090046001600160a01b031663f166d9eb610d1c610c64565b336000356001600160e01b0319166040518463ffffffff1660e01b8152600401610d4893929190613905565b602060405180830381865afa158015610d65573d6000803e3d6000fd5b505050506040513d601f19601f82011682018060405250810190610d89919061393a565b610da757604051622ad7db60e41b8152336004820152602401610c4f565b600355565b306001600160a01b037f0000000000000000000000000000000000000000000000000000000000000000161480610e1c57507f00000000000000000000000000000000000000000000000000000000000000006001600160a01b0316610e106131e5565b6001600160a01b031614155b15610e3a57604051636293f5d160e01b815260040160405180910390fd5b60005461010090046001600160a01b031663f166d9eb610e58610c64565b336000356001600160e01b0319166040518463ffffffff1660e01b8152600401610e8493929190613905565b602060405180830381865afa158015610ea1573d6000803e3d6000fd5b505050506040513d601f19601f82011682018060405250810190610ec5919061393a565b610ee357604051622ad7db60e41b8152336004820152602401610c4f565b600455565b306001600160a01b037f0000000000000000000000000000000000000000000000000000000000000000161480610f5857507f00000000000000000000000000000000000000000000000000000000000000006001600160a01b0316610f4c6131e5565b6001600160a01b031614155b15610f7657604051636293f5d160e01b815260040160405180910390fd5b60005461010090046001600160a01b031663f166d9eb610f94610c64565b336000356001600160e01b0319166040518463ffffffff1660e01b8152600401610fc093929190613905565b602060405180830381865afa158015610fdd573d6000803e3d6000fd5b505050506040513d601f19601f82011682018060405250810190611001919061393a565b61101f57604051622ad7db60e41b8152336004820152602401610c4f565b6001600160a01b0316600090815260106020526040812055565b306001600160a01b037f00000000000000000000000000000000000000000000000000000000000000001614806110a957507f00000000000000000000000000000000000000000000000000000000000000006001600160a01b031661109d6131e5565b6001600160a01b031614155b156110c757604051636293f5d160e01b815260040160405180910390fd5b60005461010090046001600160a01b031663f166d9eb6110e5610c64565b336000356001600160e01b0319166040518463ffffffff1660e01b815260040161111193929190613905565b602060405180830381865afa15801561112e573d6000803e3d6000fd5b505050506040513d601f19601f82011682018060405250810190611152919061393a565b61117057604051622ad7db60e41b8152336004820152602401610c4f565b600360ff8216111561119a57604051630af163d960e01b815260ff82166004820152602401610c4f565b6001600160a01b03919091166000908152600c60205260409020805460ff191660ff909216919091179055565b306001600160a01b037f000000000000000000000000000000000000000000000000000000000000000016148061123757507f00000000000000000000000000000000000000000000000000000000000000006001600160a01b031661122b6131e5565b6001600160a01b031614155b1561125557604051636293f5d160e01b815260040160405180910390fd5b60005461010090046001600160a01b031663f166d9eb611273610c64565b336000356001600160e01b0319166040518463ffffffff1660e01b815260040161129f93929190613905565b602060405180830381865afa1580156112bc573d6000803e3d6000fd5b505050506040513d601f19601f820116820180604052508101906112e0919061393a565b6112fe57604051622ad7db60e41b8152336004820152602401610c4f565b600555565b306001600160a01b037f000000000000000000000000000000000000000000000000000000000000000016148061137357507f00000000000000000000000000000000000000000000000000000000000000006001600160a01b03166113676131e5565b6001600160a01b031614155b1561139157604051636293f5d160e01b815260040160405180910390fd5b60005461010090046001600160a01b031663f166d9eb6113af610c64565b336000356001600160e01b0319166040518463ffffffff1660e01b81526004016113db93929190613905565b602060405180830381865afa1580156113f8573d6000803e3d6000fd5b505050506040513d601f19601f8201168201806040525081019061141c919061393a565b61143a57604051622ad7db60e41b8152336004820152602401610c4f565b6000838152600160205260408120805460ff191690555b818110156114be57600083838381811061146d5761146d613957565b905060400201803603810190611483919061396d565b90508060200151600260008360000151815260200190815260200160002060008282546114b0919061399f565b909155505050600101611451565b50505050565b306001600160a01b037f000000000000000000000000000000000000000000000000000000000000000016148061153457507f00000000000000000000000000000000000000000000000000000000000000006001600160a01b03166115286131e5565b6001600160a01b031614155b1561155257604051636293f5d160e01b815260040160405180910390fd5b60005461010090046001600160a01b031663f166d9eb611570610c64565b336000356001600160e01b0319166040518463ffffffff1660e01b815260040161159c93929190613905565b602060405180830381865afa1580156115b9573d6000803e3d6000fd5b505050506040513d601f19601f820116820180604052508101906115dd919061393a565b6115fb57604051622ad7db60e41b8152336004820152602401610c4f565b6001600160a01b03919091166000908152600d60205260409020805460ff1916911515919091179055565b60005461010090046001600160a01b031633146116585760405163053e900f60e21b8152336004820152602401610c4f565b600080546001600160a01b0390921661010002610100600160a81b0319909216919091179055565b306001600160a01b037f00000000000000000000000000000000000000000000000000000000000000001614806116f057507f00000000000000000000000000000000000000000000000000000000000000006001600160a01b03166116e46131e5565b6001600160a01b031614155b1561170e57604051636293f5d160e01b815260040160405180910390fd5b60005461010090046001600160a01b031663f166d9eb61172c610c64565b336000356001600160e01b0319166040518463ffffffff1660e01b815260040161175893929190613905565b602060405180830381865afa158015611775573d6000803e3d6000fd5b505050506040513d601f19601f82011682018060405250810190611799919061393a565b6117b757604051622ad7db60e41b8152336004820152602401610c4f565b60008281526001602081905260408220805460ff191690911790555b81518110156118335760008282815181106117f0576117f0613957565b6020026020010151905080602001516002600083600001518152602001908152602001600020600082825461182591906139b8565b9091555050506001016117d3565b505050565b306001600160a01b037f00000000000000000000000000000000000000000000000000000000000000001614806118a857507f00000000000000000000000000000000000000000000000000000000000000006001600160a01b031661189c6131e5565b6001600160a01b031614155b156118c657604051636293f5d160e01b815260040160405180910390fd5b60005461010090046001600160a01b031663f166d9eb6118e4610c64565b336000356001600160e01b0319166040518463ffffffff1660e01b815260040161191093929190613905565b602060405180830381865afa15801561192d573d6000803e3d6000fd5b505050506040513d601f19601f82011682018060405250810190611951919061393a565b61196f57604051622ad7db60e41b8152336004820152602401610c4f565b6000600754600161198091906139b8565b6001600160a01b03909216600090815260066020526040902082905550600755565b306001600160a01b037f0000000000000000000000000000000000000000000000000000000000000000161480611a1257507f00000000000000000000000000000000000000000000000000000000000000006001600160a01b0316611a066131e5565b6001600160a01b031614155b15611a3057604051636293f5d160e01b815260040160405180910390fd5b60005461010090046001600160a01b031663f166d9eb611a4e610c64565b336000356001600160e01b0319166040518463ffffffff1660e01b8152600401611a7a93929190613905565b602060405180830381865afa158015611a97573d6000803e3d6000fd5b505050506040513d601f19601f82011682018060405250810190611abb919061393a565b611ad957604051622ad7db60e41b8152336004820152602401610c4f565b6001600160a01b03821660009081526010602052604081208054839290611b019084906139b8565b90915550505050565b306001600160a01b037f0000000000000000000000000000000000000000000000000000000000000000161480611b7a57507f00000000000000000000000000000000000000000000000000000000000000006001600160a01b0316611b6e6131e5565b6001600160a01b031614155b15611b9857604051636293f5d160e01b815260040160405180910390fd5b60005461010090046001600160a01b031663f166d9eb611bb6610c64565b336000356001600160e01b0319166040518463ffffffff1660e01b8152600401611be293929190613905565b602060405180830381865afa158015611bff573d6000803e3d6000fd5b505050506040513d601f19601f82011682018060405250810190611c23919061393a565b611c4157604051622ad7db60e41b8152336004820152602401610c4f565b8051825114611c7057815181516040516310978a1d60e11b815260048101929092526024820152604401610c4f565b60005b825181101561183357818181518110611c8e57611c8e613957565b6020026020010151600d6000858481518110611cac57611cac613957565b6020908102919091018101516001600160a01b03168252810191909152604001600020805460ff1916911515919091179055600101611c73565b306001600160a01b037f0000000000000000000000000000000000000000000000000000000000000000161480611d5657507f00000000000000000000000000000000000000000000000000000000000000006001600160a01b0316611d4a6131e5565b6001600160a01b031614155b15611d7457604051636293f5d160e01b815260040160405180910390fd5b60005461010090046001600160a01b031663f166d9eb611d92610c64565b336000356001600160e01b0319166040518463ffffffff1660e01b8152600401611dbe93929190613905565b602060405180830381865afa158015611ddb573d6000803e3d6000fd5b505050506040513d601f19601f82011682018060405250810190611dff919061393a565b611e1d57604051622ad7db60e41b8152336004820152602401610c4f565b611e4660017fb1c430d6858c7d4aa68247671513746f811bc8a08b57cb1afc031d4c886174dc55565b565b306001600160a01b037f0000000000000000000000000000000000000000000000000000000000000000161480611eb857507f00000000000000000000000000000000000000000000000000000000000000006001600160a01b0316611eac6131e5565b6001600160a01b031614155b15611ed657604051636293f5d160e01b815260040160405180910390fd5b60005461010090046001600160a01b031663f166d9eb611ef4610c64565b336000356001600160e01b0319166040518463ffffffff1660e01b8152600401611f2093929190613905565b602060405180830381865afa158015611f3d573d6000803e3d6000fd5b505050506040513d601f19601f82011682018060405250810190611f61919061393a565b611f7f57604051622ad7db60e41b8152336004820152602401610c4f565b816001600160a01b03163b600003611fb557604051633414aaa160e11b81526001600160a01b0383166004820152602401610c4f565b806001600160a01b03163b600003611feb57604051633414aaa160e11b81526001600160a01b0382166004820152602401610c4f565b6001600160a01b03918216600090815260086020526040902080546001600160a01b03191691909216179055565b306001600160a01b037f000000000000000000000000000000000000000000000000000000000000000016148061208957507f00000000000000000000000000000000000000000000000000000000000000006001600160a01b031661207d6131e5565b6001600160a01b031614155b156120a757604051636293f5d160e01b815260040160405180910390fd5b60005461010090046001600160a01b031663f166d9eb6120c5610c64565b336000356001600160e01b0319166040518463ffffffff1660e01b81526004016120f193929190613905565b602060405180830381865afa15801561210e573d6000803e3d6000fd5b505050506040513d601f19601f82011682018060405250810190612132919061393a565b61215057604051622ad7db60e41b8152336004820152602401610c4f565b61215a81426139b8565b6001600160a01b0390921660009081526014602052604090209190915550565b6000806121d58585856040516bffffffffffffffffffffffff19606085811b8216602084015284901b166034820152604881018290526000906068016040516020818303038152906040528051906020012090509392505050565b60009081526002602052604090205495945050505050565b306001600160a01b037f000000000000000000000000000000000000000000000000000000000000000016148061225d57507f00000000000000000000000000000000000000000000000000000000000000006001600160a01b03166122516131e5565b6001600160a01b031614155b1561227b57604051636293f5d160e01b815260040160405180910390fd5b60005461010090046001600160a01b031663f166d9eb612299610c64565b336000356001600160e01b0319166040518463ffffffff1660e01b81526004016122c593929190613905565b602060405180830381865afa1580156122e2573d6000803e3d6000fd5b505050506040513d601f19601f82011682018060405250810190612306919061393a565b61232457604051622ad7db60e41b8152336004820152602401610c4f565b600e80546001600160a01b0319166001600160a01b0392909216919091179055565b306001600160a01b037f00000000000000000000000000000000000000000000000000000000000000001614806123b657507f00000000000000000000000000000000000000000000000000000000000000006001600160a01b03166123aa6131e5565b6001600160a01b031614155b156123d457604051636293f5d160e01b815260040160405180910390fd5b60005461010090046001600160a01b031663f166d9eb6123f2610c64565b336000356001600160e01b0319166040518463ffffffff1660e01b815260040161241e93929190613905565b602060405180830381865afa15801561243b573d6000803e3d6000fd5b505050506040513d601f19601f8201168201806040525081019061245f919061393a565b61247d57604051622ad7db60e41b8152336004820152602401610c4f565b6001600160a01b0381166000908152600f602052604081208054600192906124a69084906139b8565b909155505050565b306001600160a01b037f000000000000000000000000000000000000000000000000000000000000000016148061251e57507f00000000000000000000000000000000000000000000000000000000000000006001600160a01b03166125126131e5565b6001600160a01b031614155b1561253c57604051636293f5d160e01b815260040160405180910390fd5b60005461010090046001600160a01b031663f166d9eb61255a610c64565b336000356001600160e01b0319166040518463ffffffff1660e01b815260040161258693929190613905565b602060405180830381865afa1580156125a3573d6000803e3d6000fd5b505050506040513d601f19601f820116820180604052508101906125c7919061393a565b6125e557604051622ad7db60e41b8152336004820152602401610c4f565b6001600160a01b03166000908152601160205260409020805460ff19169055565b6001600160a01b0380821660009081526008602090815260408083205490931680835260099091529181205490919060ff168203612645576000612647565b805b9392505050565b306001600160a01b037f00000000000000000000000000000000000000000000000000000000000000001614806126be57507f00000000000000000000000000000000000000000000000000000000000000006001600160a01b03166126b26131e5565b6001600160a01b031614155b156126dc57604051636293f5d160e01b815260040160405180910390fd5b60005461010090046001600160a01b031663f166d9eb6126fa610c64565b336000356001600160e01b0319166040518463ffffffff1660e01b815260040161272693929190613905565b602060405180830381865afa158015612743573d6000803e3d6000fd5b505050506040513d601f19601f82011682018060405250810190612767919061393a565b61278557604051622ad7db60e41b8152336004820152602401610c4f565b80518251146127b457815181516040516310978a1d60e11b815260048101929092526024820152604401610c4f565b60005b825181101561183357600360ff168282815181106127d7576127d7613957565b602002602001015160ff161115612825578181815181106127fa576127fa613957565b6020026020010151604051630af163d960e01b8152600401610c4f919060ff91909116815260200190565b81818151811061283757612837613957565b6020026020010151600c600085848151811061285557612855613957565b6020908102919091018101516001600160a01b03168252810191909152604001600020805460ff191660ff929092169190911790556001016127b7565b306001600160a01b037f000000000000000000000000000000000000000000000000000000000000000016148061290257507f00000000000000000000000000000000000000000000000000000000000000006001600160a01b03166128f66131e5565b6001600160a01b031614155b1561292057604051636293f5d160e01b815260040160405180910390fd5b60005461010090046001600160a01b031663f166d9eb61293e610c64565b336000356001600160e01b0319166040518463ffffffff1660e01b815260040161296a93929190613905565b602060405180830381865afa158015612987573d6000803e3d6000fd5b505050506040513d601f19601f820116820180604052508101906129ab919061393a565b6129c957604051622ad7db60e41b8152336004820152602401610c4f565b816001600160a01b03163b6000036129ff57604051633414aaa160e11b81526001600160a01b0383166004820152602401610c4f565b600360ff82161115612a2957604051630af163d960e01b815260ff82166004820152602401610c4f565b6001600160a01b03919091166000908152600b60205260409020805460ff191660ff909216919091179055565b306001600160a01b037f0000000000000000000000000000000000000000000000000000000000000000161480612ac657507f00000000000000000000000000000000000000000000000000000000000000006001600160a01b0316612aba6131e5565b6001600160a01b031614155b15612ae457604051636293f5d160e01b815260040160405180910390fd5b60005461010090046001600160a01b031663f166d9eb612b02610c64565b336000356001600160e01b0319166040518463ffffffff1660e01b8152600401612b2e93929190613905565b602060405180830381865afa158015612b4b573d6000803e3d6000fd5b505050506040513d601f19601f82011682018060405250810190612b6f919061393a565b612b8d57604051622ad7db60e41b8152336004820152602401610c4f565b6001600160a01b03919091166000908152600a60205260409020805460ff1916911515919091179055565b306001600160a01b037f0000000000000000000000000000000000000000000000000000000000000000161480612c2857507f00000000000000000000000000000000000000000000000000000000000000006001600160a01b0316612c1c6131e5565b6001600160a01b031614155b15612c4657604051636293f5d160e01b815260040160405180910390fd5b60005461010090046001600160a01b031663f166d9eb612c64610c64565b336000356001600160e01b0319166040518463ffffffff1660e01b8152600401612c9093929190613905565b602060405180830381865afa158015612cad573d6000803e3d6000fd5b505050506040513d601f19601f82011682018060405250810190612cd1919061393a565b612cef57604051622ad7db60e41b8152336004820152602401610c4f565b60005b83811015612d395760016000868684818110612d1057612d10613957565b60209081029290920135835250810191909152604001600020805460ff19169055600101612cf2565b5060005b81811015612daa576000838383818110612d5957612d59613957565b905060400201803603810190612d6f919061396d565b9050806020015160026000836000015181526020019081526020016000206000828254612d9c919061399f565b909155505050600101612d3d565b5050505050565b306001600160a01b037f0000000000000000000000000000000000000000000000000000000000000000161480612e2157507f00000000000000000000000000000000000000000000000000000000000000006001600160a01b0316612e156131e5565b6001600160a01b031614155b15612e3f57604051636293f5d160e01b815260040160405180910390fd5b60005461010090046001600160a01b031663f166d9eb612e5d610c64565b336000356001600160e01b0319166040518463ffffffff1660e01b8152600401612e8993929190613905565b602060405180830381865afa158015612ea6573d6000803e3d6000fd5b505050506040513d601f19601f82011682018060405250810190612eca919061393a565b612ee857604051622ad7db60e41b8152336004820152602401610c4f565b816001600160a01b03163b600003612f1e57604051633414aaa160e11b81526001600160a01b0383166004820152602401610c4f565b600760ff82161115612f48576040516393b628d760e01b815260ff82166004820152602401610c4f565b6001600160a01b03919091166000908152600960205260409020805460ff191660ff909216919091179055565b306001600160a01b037f0000000000000000000000000000000000000000000000000000000000000000161480612fe557507f00000000000000000000000000000000000000000000000000000000000000006001600160a01b0316612fd96131e5565b6001600160a01b031614155b1561300357604051636293f5d160e01b815260040160405180910390fd5b60005460ff1615613027576040516358c510a960e11b815260040160405180910390fd5b6000805460ff196001600160a01b0390931661010002929092166001600160a81b0319909216919091176001179055565b60005461010090046001600160a01b03163314611e465760405163053e900f60e21b8152336004820152602401610c4f565b306001600160a01b037f00000000000000000000000000000000000000000000000000000000000000001614806130fa57507f00000000000000000000000000000000000000000000000000000000000000006001600160a01b03166130ee6131e5565b6001600160a01b031614155b1561311857604051636293f5d160e01b815260040160405180910390fd5b60005461010090046001600160a01b031663f166d9eb613136610c64565b336000356001600160e01b0319166040518463ffffffff1660e01b815260040161316293929190613905565b602060405180830381865afa15801561317f573d6000803e3d6000fd5b505050506040513d601f19601f820116820180604052508101906131a3919061393a565b6131c157604051622ad7db60e41b8152336004820152602401610c4f565b6001600160a01b03166000908152601160205260409020805460ff19166001179055565b6000805160206139e58339815191525490565b7fb1c430d6858c7d4aa68247671513746f811bc8a08b57cb1afc031d4c886174dc541561323857604051637f2c070d60e01b815260040160405180910390fd5b806001600160a01b03166352d1902d6040518163ffffffff1660e01b8152600401602060405180830381865afa925050508015613292575060408051601f3d908101601f1916820190925261328f918101906139cb565b60015b6132ba57604051630a4edb1d60e41b81526001600160a01b0382166004820152602401610c4f565b6000805160206139e583398151915281146132f357604051630a4edb1d60e41b81526001600160a01b0383166004820152602401610c4f565b506000805160206139e583398151915255565b6001600160a01b0381168114610c6157600080fd5b60006020828403121561332d57600080fd5b813561264781613306565b60006020828403121561334a57600080fd5b5035919050565b803560ff8116811461336257600080fd5b919050565b6000806040838503121561337a57600080fd5b823561338581613306565b915061339360208401613351565b90509250929050565b60008083601f8401126133ae57600080fd5b50813567ffffffffffffffff8111156133c657600080fd5b6020830191508360208260061b85010111156133e157600080fd5b9250929050565b6000806000604084860312156133fd57600080fd5b83359250602084013567ffffffffffffffff81111561341b57600080fd5b6134278682870161339c565b9497909650939450505050565b8015158114610c6157600080fd5b6000806040838503121561345557600080fd5b823561346081613306565b9150602083013561347081613434565b809150509250929050565b634e487b7160e01b600052604160045260246000fd5b604051601f8201601f1916810167ffffffffffffffff811182821017156134ba576134ba61347b565b604052919050565b600067ffffffffffffffff8211156134dc576134dc61347b565b5060051b60200190565b6000604082840312156134f857600080fd5b6040516040810181811067ffffffffffffffff8211171561351b5761351b61347b565b604052823581526020928301359281019290925250919050565b600080604080848603121561354957600080fd5b8335925060208085013567ffffffffffffffff81111561356857600080fd5b8501601f8101871361357957600080fd5b803561358c613587826134c2565b613491565b8082825260208201915060208360061b8501019250898311156135ae57600080fd5b6020840193505b828410156135d6576135c78a856134e6565b825292850192908401906135b5565b8096505050505050509250929050565b600080604083850312156135f957600080fd5b823561360481613306565b946020939093013593505050565b600082601f83011261362357600080fd5b81356020613633613587836134c2565b8083825260208201915060208460051b87010193508684111561365557600080fd5b602086015b8481101561367a57803561366d81613306565b835291830191830161365a565b509695505050505050565b6000806040838503121561369857600080fd5b823567ffffffffffffffff808211156136b057600080fd5b6136bc86838701613612565b93506020915081850135818111156136d357600080fd5b85019050601f810186136136e657600080fd5b80356136f4613587826134c2565b81815260059190911b8201830190838101908883111561371357600080fd5b928401925b8284101561373a57833561372b81613434565b82529284019290840190613718565b80955050505050509250929050565b6000806040838503121561375c57600080fd5b823561376781613306565b9150602083013561347081613306565b60008060006060848603121561378c57600080fd5b833561379781613306565b925060208401356137a781613306565b929592945050506040919091013590565b600080604083850312156137cb57600080fd5b823567ffffffffffffffff808211156137e357600080fd5b6137ef86838701613612565b935060209150818501358181111561380657600080fd5b85019050601f8101861361381957600080fd5b8035613827613587826134c2565b81815260059190911b8201830190838101908883111561384657600080fd5b928401925b8284101561373a5761385c84613351565b8252928401929084019061384b565b6000806000806040858703121561388157600080fd5b843567ffffffffffffffff8082111561389957600080fd5b818701915087601f8301126138ad57600080fd5b8135818111156138bc57600080fd5b8860208260051b85010111156138d157600080fd5b6020928301965094509086013590808211156138ec57600080fd5b506138f98782880161339c565b95989497509550505050565b6001600160d81b03199390931683526001600160a01b039190911660208301526001600160e01b031916604082015260600190565b60006020828403121561394c57600080fd5b815161264781613434565b634e487b7160e01b600052603260045260246000fd5b60006040828403121561397f57600080fd5b61264783836134e6565b634e487b7160e01b600052601160045260246000fd5b818103818111156139b2576139b2613989565b92915050565b808201808211156139b2576139b2613989565b6000602082840312156139dd57600080fd5b505191905056fe360894a13ba1a3210667c828492db98dca3e2076cc3735a920a3ca505d382bbca2646970667358221220921616f1a9314c98bf597caea56193d5e0efc44bd5b13a236fb6d4585ed926e764736f6c63430008160033","linkReferences":{}},"methodIdentifiers":{"INIT()":"ea643914","KEYCODE()":"1ae7ec2e","MODULE_PROXY_INSTANTIATION(address)":"e78513cf","VERSION()":"ffa1ad74","addRentalSafe(address)":"4dc130b6","addRentals(bytes32,(bytes32,uint256)[])":"47f280ff","applyFine(address,uint256)":"5c6a06c1","assetEnabledForRent(address)":"bf777548","assetRestrictedForPermit(address)":"2350efdc","banUser(address,uint256)":"6c81f490","blacklistThreshold()":"5ce33093","blacklistUser(address)":"fcbca456","blacklistedUsers(address)":"22c0aec7","changeKernel(address)":"4657b36c","clearFine(address)":"30b6fec1","contractToHook(address)":"9e31e8e6","deployedSafes(address)":"f6fdddf1","extensionDisableAllowed(address)":"c3accda2","extensionEnableAllowed(address)":"b526a073","fineThreshold()":"766c2c7b","freeze()":"62a5af3b","guardEmergencyUpgrade()":"7bffb728","hasFine(address)":"d393ff7a","hasWarning(address)":"81c89f10","hookOnStart(address)":"c3672fda","hookOnStop(address)":"39f16e6e","hookOnTransaction(address)":"844c663b","hookStatus(address)":"00ebd8fb","initialized()":"158ef93e","isRentedOut(address,address,uint256)":"79f9bd6d","isUserBanned(address)":"9ed9b4fd","isUserBlacklisted(address)":"503b8e81","issueWarning(address)":"8258afc9","kernel()":"d4aae0c4","maxConsiderationItems()":"04e7b3b1","maxFinesBeforeBlacklist()":"df5d25c3","maxOfferItems()":"acbf34a0","maxRentDuration()":"ec3e2133","maxWarningsBeforeFine()":"8a9830d8","orders(bytes32)":"9c3f1e90","proxiableUUID()":"52d1902d","removeRentals(bytes32,(bytes32,uint256)[])":"3fd9b3ee","removeRentalsBatch(bytes32[],(bytes32,uint256)[])":"aa73773e","rentedAssets(bytes32)":"b05c87bf","setGuardEmergencyUpgrade(address)":"7c58ffb1","setMaxConsiderationItems(uint256)":"3fb2ab77","setMaxOfferItems(uint256)":"2bf796ff","setMaxRentDuration(uint256)":"2012d363","toggleWhitelistAsset(address,uint8)":"3e5fac31","toggleWhitelistAssetBatch(address[],uint8[])":"a210f21c","toggleWhitelistDelegate(address,bool)":"a942d344","toggleWhitelistExtension(address,uint8)":"a5fd3f30","toggleWhitelistPayment(address,bool)":"45204b3c","toggleWhitelistPaymentBatch(address[],bool[])":"5ec8d3e4","totalSafes()":"2f823186","unblacklistUser(address)":"8aa96fac","updateHookPath(address,address)":"6c675c25","updateHookStatus(address,uint8)":"c9fa121e","upgrade(address)":"0900f010","userBanExpiry(address)":"73d0c70a","userFines(address)":"74a877d4","userSimilarityScores(address)":"a40e603d","userViolations(address)":"53307d56","userWarnings(address)":"5d2d8476","warningThreshold()":"fd911648","whitelistedAssets(address)":"371510fc","whitelistedDelegates(address)":"73d6125e","whitelistedExtensions(address)":"c0c6bbd9","whitelistedPayments(address)":"0393f3c4"},"id":193}