{"abi":[{"type":"function","name":"entryAdded","inputs":[],"outputs":[{"name":"","type":"bool","internalType":"bool"}],"stateMutability":"view"},{"type":"function","name":"entryRemoved","inputs":[],"outputs":[{"name":"","type":"bool","internalType":"bool"}],"stateMutability":"view"},{"type":"function","name":"onStart","inputs":[{"name":"recipient","type":"address","internalType":"address"},{"name":"token","type":"address","internalType":"address"},{"name":"identifier","type":"uint256","internalType":"uint256"},{"name":"amount","type":"uint256","internalType":"uint256"},{"name":"extraData","type":"bytes","internalType":"bytes"}],"outputs":[],"stateMutability":"nonpayable"},{"type":"function","name":"onStop","inputs":[{"name":"","type":"address","internalType":"address"},{"name":"","type":"address","internalType":"address"},{"name":"","type":"uint256","internalType":"uint256"},{"name":"","type":"uint256","internalType":"uint256"},{"name":"","type":"bytes","internalType":"bytes"}],"outputs":[],"stateMutability":"pure"},{"type":"function","name":"onTransaction","inputs":[{"name":"recipient","type":"address","internalType":"address"},{"name":"to","type":"address","internalType":"address"},{"name":"value","type":"uint256","internalType":"uint256"},{"name":"data","type":"bytes","internalType":"bytes"}],"outputs":[],"stateMutability":"nonpayable"},{"type":"function","name":"transactionChecked","inputs":[],"outputs":[{"name":"","type":"bool","internalType":"bool"}],"stateMutability":"view"},{"type":"error","name":"OnStopRevert","inputs":[]}],"bytecode":{"object":"0x608060405234801561001057600080fd5b506102d3806100206000396000f3fe608060405234801561001057600080fd5b50600436106100625760003560e01c80630747c995146100675780635209dff31461007c5780637e7cfb38146100a2578063bc02f5a8146100af578063f5aa1eee146100c2578063f957ee78146100d7575b600080fd5b61007a6100753660046101c3565b6100eb565b005b60005461008e90610100900460ff1681565b604051901515815260200160405180910390f35b60005461008e9060ff1681565b60005461008e9062010000900460ff1681565b61007a6100d03660046101c3565b5050505050565b61007a6100e5366004610235565b50505050565b604051630d54ce9160e41b815260040160405180910390fd5b80356001600160a01b038116811461011b57600080fd5b919050565b634e487b7160e01b600052604160045260246000fd5b600082601f83011261014757600080fd5b813567ffffffffffffffff8082111561016257610162610120565b604051601f8301601f19908116603f0116810190828211818310171561018a5761018a610120565b816040528381528660208588010111156101a357600080fd5b836020870160208301376000602085830101528094505050505092915050565b600080600080600060a086880312156101db57600080fd5b6101e486610104565b94506101f260208701610104565b93506040860135925060608601359150608086013567ffffffffffffffff81111561021c57600080fd5b61022888828901610136565b9150509295509295909350565b6000806000806080858703121561024b57600080fd5b61025485610104565b935061026260208601610104565b925060408501359150606085013567ffffffffffffffff81111561028557600080fd5b61029187828801610136565b9150509295919450925056fea2646970667358221220ff100d8f6ec0cc101989f47c9ce86f7ef0b5fa99bb48b4ec9c5305fcbf0668a564736f6c63430008160033","linkReferences":{}},"methodIdentifiers":{"entryAdded()":"5209dff3","entryRemoved()":"bc02f5a8","onStart(address,address,uint256,uint256,bytes)":"f5aa1eee","onStop(address,address,uint256,uint256,bytes)":"0747c995","onTransaction(address,address,uint256,bytes)":"f957ee78","transactionChecked()":"7e7cfb38"},"id":250}