{"abi":[{"type":"function","name":"entryAdded","inputs":[],"outputs":[{"name":"","type":"bool","internalType":"bool"}],"stateMutability":"view"},{"type":"function","name":"entryRemoved","inputs":[],"outputs":[{"name":"","type":"bool","internalType":"bool"}],"stateMutability":"view"},{"type":"function","name":"onStart","inputs":[{"name":"recipient","type":"address","internalType":"address"},{"name":"token","type":"address","internalType":"address"},{"name":"identifier","type":"uint256","internalType":"uint256"},{"name":"amount","type":"uint256","internalType":"uint256"},{"name":"extraData","type":"bytes","internalType":"bytes"}],"outputs":[],"stateMutability":"nonpayable"},{"type":"function","name":"onStop","inputs":[{"name":"recipient","type":"address","internalType":"address"},{"name":"token","type":"address","internalType":"address"},{"name":"identifier","type":"uint256","internalType":"uint256"},{"name":"amount","type":"uint256","internalType":"uint256"},{"name":"extraData","type":"bytes","internalType":"bytes"}],"outputs":[],"stateMutability":"nonpayable"},{"type":"function","name":"onTransaction","inputs":[{"name":"","type":"address","internalType":"address"},{"name":"","type":"address","internalType":"address"},{"name":"","type":"uint256","internalType":"uint256"},{"name":"","type":"bytes","internalType":"bytes"}],"outputs":[],"stateMutability":"pure"},{"type":"function","name":"transactionChecked","inputs":[],"outputs":[{"name":"","type":"bool","internalType":"bool"}],"stateMutability":"view"}],"bytecode":{"object":"0x608060405234801561001057600080fd5b506102dd806100206000396000f3fe608060405234801561001057600080fd5b50600436106100625760003560e01c80630747c995146100675780635209dff31461007e5780637e7cfb38146100a4578063bc02f5a8146100b1578063f5aa1eee14610067578063f957ee78146100c4575b600080fd5b61007c6100753660046101a6565b5050505050565b005b60005461009090610100900460ff1681565b604051901515815260200160405180910390f35b6000546100909060ff1681565b6000546100909062010000900460ff1681565b61007c6100d2366004610218565b60006100df600182610280565b505050505050565b80356001600160a01b03811681146100fe57600080fd5b919050565b634e487b7160e01b600052604160045260246000fd5b600082601f83011261012a57600080fd5b813567ffffffffffffffff8082111561014557610145610103565b604051601f8301601f19908116603f0116810190828211818310171561016d5761016d610103565b8160405283815286602085880101111561018657600080fd5b836020870160208301376000602085830101528094505050505092915050565b600080600080600060a086880312156101be57600080fd5b6101c7866100e7565b94506101d5602087016100e7565b93506040860135925060608601359150608086013567ffffffffffffffff8111156101ff57600080fd5b61020b88828901610119565b9150509295509295909350565b6000806000806080858703121561022e57600080fd5b610237856100e7565b9350610245602086016100e7565b925060408501359150606085013567ffffffffffffffff81111561026857600080fd5b61027487828801610119565b91505092959194509250565b818103818111156102a157634e487b7160e01b600052601160045260246000fd5b9291505056fea26469706673582212202a8f6737163defff5739fefb6006719e36a774fdf24e7ac04729ee829ec4cd5364736f6c63430008160033","linkReferences":{}},"methodIdentifiers":{"entryAdded()":"5209dff3","entryRemoved()":"bc02f5a8","onStart(address,address,uint256,uint256,bytes)":"f5aa1eee","onStop(address,address,uint256,uint256,bytes)":"0747c995","onTransaction(address,address,uint256,bytes)":"f957ee78","transactionChecked()":"7e7cfb38"},"id":250}