{"abi":[{"type":"function","name":"getAggregatedFulfillmentComponents","inputs":[{"name":"orders","type":"tuple[]","internalType":"struct AdvancedOrder[]","components":[{"name":"parameters","type":"tuple","internalType":"struct OrderParameters","components":[{"name":"offerer","type":"address","internalType":"address"},{"name":"zone","type":"address","internalType":"address"},{"name":"offer","type":"tuple[]","internalType":"struct OfferItem[]","components":[{"name":"itemType","type":"uint8","internalType":"enum ItemType"},{"name":"token","type":"address","internalType":"address"},{"name":"identifierOrCriteria","type":"uint256","internalType":"uint256"},{"name":"startAmount","type":"uint256","internalType":"uint256"},{"name":"endAmount","type":"uint256","internalType":"uint256"}]},{"name":"consideration","type":"tuple[]","internalType":"struct ConsiderationItem[]","components":[{"name":"itemType","type":"uint8","internalType":"enum ItemType"},{"name":"token","type":"address","internalType":"address"},{"name":"identifierOrCriteria","type":"uint256","internalType":"uint256"},{"name":"startAmount","type":"uint256","internalType":"uint256"},{"name":"endAmount","type":"uint256","internalType":"uint256"},{"name":"recipient","type":"address","internalType":"address payable"}]},{"name":"orderType","type":"uint8","internalType":"enum OrderType"},{"name":"startTime","type":"uint256","internalType":"uint256"},{"name":"endTime","type":"uint256","internalType":"uint256"},{"name":"zoneHash","type":"bytes32","internalType":"bytes32"},{"name":"salt","type":"uint256","internalType":"uint256"},{"name":"conduitKey","type":"bytes32","internalType":"bytes32"},{"name":"totalOriginalConsiderationItems","type":"uint256","internalType":"uint256"}]},{"name":"numerator","type":"uint120","internalType":"uint120"},{"name":"denominator","type":"uint120","internalType":"uint120"},{"name":"signature","type":"bytes","internalType":"bytes"},{"name":"extraData","type":"bytes","internalType":"bytes"}]}],"outputs":[{"name":"offer","type":"tuple[][]","internalType":"struct FulfillmentComponent[][]","components":[{"name":"orderIndex","type":"uint256","internalType":"uint256"},{"name":"itemIndex","type":"uint256","internalType":"uint256"}]},{"name":"consideration","type":"tuple[][]","internalType":"struct FulfillmentComponent[][]","components":[{"name":"orderIndex","type":"uint256","internalType":"uint256"},{"name":"itemIndex","type":"uint256","internalType":"uint256"}]}],"stateMutability":"nonpayable"},{"type":"function","name":"getAggregatedFulfillmentComponents","inputs":[{"name":"orders","type":"tuple[]","internalType":"struct OrderParameters[]","components":[{"name":"offerer","type":"address","internalType":"address"},{"name":"zone","type":"address","internalType":"address"},{"name":"offer","type":"tuple[]","internalType":"struct OfferItem[]","components":[{"name":"itemType","type":"uint8","internalType":"enum ItemType"},{"name":"token","type":"address","internalType":"address"},{"name":"identifierOrCriteria","type":"uint256","internalType":"uint256"},{"name":"startAmount","type":"uint256","internalType":"uint256"},{"name":"endAmount","type":"uint256","internalType":"uint256"}]},{"name":"consideration","type":"tuple[]","internalType":"struct ConsiderationItem[]","components":[{"name":"itemType","type":"uint8","internalType":"enum ItemType"},{"name":"token","type":"address","internalType":"address"},{"name":"identifierOrCriteria","type":"uint256","internalType":"uint256"},{"name":"startAmount","type":"uint256","internalType":"uint256"},{"name":"endAmount","type":"uint256","internalType":"uint256"},{"name":"recipient","type":"address","internalType":"address payable"}]},{"name":"orderType","type":"uint8","internalType":"enum OrderType"},{"name":"startTime","type":"uint256","internalType":"uint256"},{"name":"endTime","type":"uint256","internalType":"uint256"},{"name":"zoneHash","type":"bytes32","internalType":"bytes32"},{"name":"salt","type":"uint256","internalType":"uint256"},{"name":"conduitKey","type":"bytes32","internalType":"bytes32"},{"name":"totalOriginalConsiderationItems","type":"uint256","internalType":"uint256"}]}],"outputs":[{"name":"offer","type":"tuple[][]","internalType":"struct FulfillmentComponent[][]","components":[{"name":"orderIndex","type":"uint256","internalType":"uint256"},{"name":"itemIndex","type":"uint256","internalType":"uint256"}]},{"name":"consideration","type":"tuple[][]","internalType":"struct FulfillmentComponent[][]","components":[{"name":"orderIndex","type":"uint256","internalType":"uint256"},{"name":"itemIndex","type":"uint256","internalType":"uint256"}]}],"stateMutability":"nonpayable"},{"type":"function","name":"getAggregatedFulfillmentComponents","inputs":[{"name":"orders","type":"tuple[]","internalType":"struct Order[]","components":[{"name":"parameters","type":"tuple","internalType":"struct OrderParameters","components":[{"name":"offerer","type":"address","internalType":"address"},{"name":"zone","type":"address","internalType":"address"},{"name":"offer","type":"tuple[]","internalType":"struct OfferItem[]","components":[{"name":"itemType","type":"uint8","internalType":"enum ItemType"},{"name":"token","type":"address","internalType":"address"},{"name":"identifierOrCriteria","type":"uint256","internalType":"uint256"},{"name":"startAmount","type":"uint256","internalType":"uint256"},{"name":"endAmount","type":"uint256","internalType":"uint256"}]},{"name":"consideration","type":"tuple[]","internalType":"struct ConsiderationItem[]","components":[{"name":"itemType","type":"uint8","internalType":"enum ItemType"},{"name":"token","type":"address","internalType":"address"},{"name":"identifierOrCriteria","type":"uint256","internalType":"uint256"},{"name":"startAmount","type":"uint256","internalType":"uint256"},{"name":"endAmount","type":"uint256","internalType":"uint256"},{"name":"recipient","type":"address","internalType":"address payable"}]},{"name":"orderType","type":"uint8","internalType":"enum OrderType"},{"name":"startTime","type":"uint256","internalType":"uint256"},{"name":"endTime","type":"uint256","internalType":"uint256"},{"name":"zoneHash","type":"bytes32","internalType":"bytes32"},{"name":"salt","type":"uint256","internalType":"uint256"},{"name":"conduitKey","type":"bytes32","internalType":"bytes32"},{"name":"totalOriginalConsiderationItems","type":"uint256","internalType":"uint256"}]},{"name":"signature","type":"bytes","internalType":"bytes"}]}],"outputs":[{"name":"offer","type":"tuple[][]","internalType":"struct FulfillmentComponent[][]","components":[{"name":"orderIndex","type":"uint256","internalType":"uint256"},{"name":"itemIndex","type":"uint256","internalType":"uint256"}]},{"name":"consideration","type":"tuple[][]","internalType":"struct FulfillmentComponent[][]","components":[{"name":"orderIndex","type":"uint256","internalType":"uint256"},{"name":"itemIndex","type":"uint256","internalType":"uint256"}]}],"stateMutability":"nonpayable"},{"type":"function","name":"getNaiveFulfillmentComponents","inputs":[{"name":"orders","type":"tuple[]","internalType":"struct AdvancedOrder[]","components":[{"name":"parameters","type":"tuple","internalType":"struct OrderParameters","components":[{"name":"offerer","type":"address","internalType":"address"},{"name":"zone","type":"address","internalType":"address"},{"name":"offer","type":"tuple[]","internalType":"struct OfferItem[]","components":[{"name":"itemType","type":"uint8","internalType":"enum ItemType"},{"name":"token","type":"address","internalType":"address"},{"name":"identifierOrCriteria","type":"uint256","internalType":"uint256"},{"name":"startAmount","type":"uint256","internalType":"uint256"},{"name":"endAmount","type":"uint256","internalType":"uint256"}]},{"name":"consideration","type":"tuple[]","internalType":"struct ConsiderationItem[]","components":[{"name":"itemType","type":"uint8","internalType":"enum ItemType"},{"name":"token","type":"address","internalType":"address"},{"name":"identifierOrCriteria","type":"uint256","internalType":"uint256"},{"name":"startAmount","type":"uint256","internalType":"uint256"},{"name":"endAmount","type":"uint256","internalType":"uint256"},{"name":"recipient","type":"address","internalType":"address payable"}]},{"name":"orderType","type":"uint8","internalType":"enum OrderType"},{"name":"startTime","type":"uint256","internalType":"uint256"},{"name":"endTime","type":"uint256","internalType":"uint256"},{"name":"zoneHash","type":"bytes32","internalType":"bytes32"},{"name":"salt","type":"uint256","internalType":"uint256"},{"name":"conduitKey","type":"bytes32","internalType":"bytes32"},{"name":"totalOriginalConsiderationItems","type":"uint256","internalType":"uint256"}]},{"name":"numerator","type":"uint120","internalType":"uint120"},{"name":"denominator","type":"uint120","internalType":"uint120"},{"name":"signature","type":"bytes","internalType":"bytes"},{"name":"extraData","type":"bytes","internalType":"bytes"}]}],"outputs":[{"name":"offer","type":"tuple[][]","internalType":"struct FulfillmentComponent[][]","components":[{"name":"orderIndex","type":"uint256","internalType":"uint256"},{"name":"itemIndex","type":"uint256","internalType":"uint256"}]},{"name":"consideration","type":"tuple[][]","internalType":"struct FulfillmentComponent[][]","components":[{"name":"orderIndex","type":"uint256","internalType":"uint256"},{"name":"itemIndex","type":"uint256","internalType":"uint256"}]}],"stateMutability":"pure"},{"type":"function","name":"getNaiveFulfillmentComponents","inputs":[{"name":"orderParameters","type":"tuple[]","internalType":"struct OrderParameters[]","components":[{"name":"offerer","type":"address","internalType":"address"},{"name":"zone","type":"address","internalType":"address"},{"name":"offer","type":"tuple[]","internalType":"struct OfferItem[]","components":[{"name":"itemType","type":"uint8","internalType":"enum ItemType"},{"name":"token","type":"address","internalType":"address"},{"name":"identifierOrCriteria","type":"uint256","internalType":"uint256"},{"name":"startAmount","type":"uint256","internalType":"uint256"},{"name":"endAmount","type":"uint256","internalType":"uint256"}]},{"name":"consideration","type":"tuple[]","internalType":"struct ConsiderationItem[]","components":[{"name":"itemType","type":"uint8","internalType":"enum ItemType"},{"name":"token","type":"address","internalType":"address"},{"name":"identifierOrCriteria","type":"uint256","internalType":"uint256"},{"name":"startAmount","type":"uint256","internalType":"uint256"},{"name":"endAmount","type":"uint256","internalType":"uint256"},{"name":"recipient","type":"address","internalType":"address payable"}]},{"name":"orderType","type":"uint8","internalType":"enum OrderType"},{"name":"startTime","type":"uint256","internalType":"uint256"},{"name":"endTime","type":"uint256","internalType":"uint256"},{"name":"zoneHash","type":"bytes32","internalType":"bytes32"},{"name":"salt","type":"uint256","internalType":"uint256"},{"name":"conduitKey","type":"bytes32","internalType":"bytes32"},{"name":"totalOriginalConsiderationItems","type":"uint256","internalType":"uint256"}]}],"outputs":[{"name":"offer","type":"tuple[][]","internalType":"struct FulfillmentComponent[][]","components":[{"name":"orderIndex","type":"uint256","internalType":"uint256"},{"name":"itemIndex","type":"uint256","internalType":"uint256"}]},{"name":"consideration","type":"tuple[][]","internalType":"struct FulfillmentComponent[][]","components":[{"name":"orderIndex","type":"uint256","internalType":"uint256"},{"name":"itemIndex","type":"uint256","internalType":"uint256"}]}],"stateMutability":"pure"},{"type":"function","name":"getNaiveFulfillmentComponents","inputs":[{"name":"orders","type":"tuple[]","internalType":"struct OrderDetails[]","components":[{"name":"offerer","type":"address","internalType":"address"},{"name":"conduitKey","type":"bytes32","internalType":"bytes32"},{"name":"offer","type":"tuple[]","internalType":"struct SpentItem[]","components":[{"name":"itemType","type":"uint8","internalType":"enum ItemType"},{"name":"token","type":"address","internalType":"address"},{"name":"identifier","type":"uint256","internalType":"uint256"},{"name":"amount","type":"uint256","internalType":"uint256"}]},{"name":"consideration","type":"tuple[]","internalType":"struct ReceivedItem[]","components":[{"name":"itemType","type":"uint8","internalType":"enum ItemType"},{"name":"token","type":"address","internalType":"address"},{"name":"identifier","type":"uint256","internalType":"uint256"},{"name":"amount","type":"uint256","internalType":"uint256"},{"name":"recipient","type":"address","internalType":"address payable"}]},{"name":"isContract","type":"bool","internalType":"bool"},{"name":"orderHash","type":"bytes32","internalType":"bytes32"},{"name":"unavailableReason","type":"uint8","internalType":"enum UnavailableReason"}]}],"outputs":[{"name":"offer","type":"tuple[][]","internalType":"struct FulfillmentComponent[][]","components":[{"name":"orderIndex","type":"uint256","internalType":"uint256"},{"name":"itemIndex","type":"uint256","internalType":"uint256"}]},{"name":"consideration","type":"tuple[][]","internalType":"struct FulfillmentComponent[][]","components":[{"name":"orderIndex","type":"uint256","internalType":"uint256"},{"name":"itemIndex","type":"uint256","internalType":"uint256"}]}],"stateMutability":"pure"},{"type":"function","name":"getNaiveFulfillmentComponents","inputs":[{"name":"orders","type":"tuple[]","internalType":"struct Order[]","components":[{"name":"parameters","type":"tuple","internalType":"struct OrderParameters","components":[{"name":"offerer","type":"address","internalType":"address"},{"name":"zone","type":"address","internalType":"address"},{"name":"offer","type":"tuple[]","internalType":"struct OfferItem[]","components":[{"name":"itemType","type":"uint8","internalType":"enum ItemType"},{"name":"token","type":"address","internalType":"address"},{"name":"identifierOrCriteria","type":"uint256","internalType":"uint256"},{"name":"startAmount","type":"uint256","internalType":"uint256"},{"name":"endAmount","type":"uint256","internalType":"uint256"}]},{"name":"consideration","type":"tuple[]","internalType":"struct ConsiderationItem[]","components":[{"name":"itemType","type":"uint8","internalType":"enum ItemType"},{"name":"token","type":"address","internalType":"address"},{"name":"identifierOrCriteria","type":"uint256","internalType":"uint256"},{"name":"startAmount","type":"uint256","internalType":"uint256"},{"name":"endAmount","type":"uint256","internalType":"uint256"},{"name":"recipient","type":"address","internalType":"address payable"}]},{"name":"orderType","type":"uint8","internalType":"enum OrderType"},{"name":"startTime","type":"uint256","internalType":"uint256"},{"name":"endTime","type":"uint256","internalType":"uint256"},{"name":"zoneHash","type":"bytes32","internalType":"bytes32"},{"name":"salt","type":"uint256","internalType":"uint256"},{"name":"conduitKey","type":"bytes32","internalType":"bytes32"},{"name":"totalOriginalConsiderationItems","type":"uint256","internalType":"uint256"}]},{"name":"signature","type":"bytes","internalType":"bytes"}]}],"outputs":[{"name":"offer","type":"tuple[][]","internalType":"struct FulfillmentComponent[][]","components":[{"name":"orderIndex","type":"uint256","internalType":"uint256"},{"name":"itemIndex","type":"uint256","internalType":"uint256"}]},{"name":"consideration","type":"tuple[][]","internalType":"struct FulfillmentComponent[][]","components":[{"name":"orderIndex","type":"uint256","internalType":"uint256"},{"name":"itemIndex","type":"uint256","internalType":"uint256"}]}],"stateMutability":"pure"}],"bytecode":{"object":"0x608060405234801561001057600080fd5b50611b4c806100206000396000f3fe608060405234801561001057600080fd5b506004361061007d5760003560e01c8063a1afc7731161005b578063a1afc773146100d2578063bd99302b146100e5578063c9a227b3146100f8578063ee8982f41461010b57600080fd5b80637158e4b51461008257806374a7a3dd146100ac5780638f17eea1146100bf575b600080fd5b61009561009036600461142d565b61011e565b6040516100a392919061160f565b60405180910390f35b6100956100ba36600461142d565b6101db565b6100956100cd36600461163d565b61028e565b6100956100e036600461163d565b610632565b6100956100f3366004611861565b61082c565b6100956101063660046119aa565b610a1e565b6100956101193660046119aa565b610ac7565b606080600083516001600160401b0381111561013c5761013c610fbe565b60405190808252806020026020018201604052801561017557816020015b610162610f41565b81526020019060019003908161015a5790505b50905060005b84518110156101c75784818151811061019657610196611aa8565b6020026020010151600001518282815181106101b4576101b4611aa8565b602090810291909101015260010161017b565b506101d18161028e565b9250925050915091565b606080600083516001600160401b038111156101f9576101f9610fbe565b60405190808252806020026020018201604052801561023257816020015b61021f610f41565b8152602001906001900390816102175790505b50905060005b84518110156102845784818151811061025357610253611aa8565b60200260200101516000015182828151811061027157610271611aa8565b6020908102919091010152600101610238565b506101d181610632565b606080610299610b70565b7fec552e4c2db8d63715df88a8f898be51e82588fd0fc8fa68c6dd2a2148bee7745460009081527f3725c8baacb19ab7355177ffeaefd8aaa6cbeb1da18c8f9f82e4e6dc1143b86960205260408120905b845181101561034357600085828151811061030757610307611aa8565b6020026020010151905061032b816040015182600001518361012001518587610bae565b61033a81606001518385610d1d565b506001016102ea565b5060028101546001600160401b0381111561036057610360610fbe565b60405190808252806020026020018201604052801561039357816020015b606081526020019060019003908161037e5790505b50925060005b60028201548110156104c05760008260020182815481106103bc576103bc611aa8565b6000918252602080832060408051608081018252600490940290910180546001600160a01b03908116855260018201548585019081526002830154821686850181905260039093015460608701908152928752898552838720925187529184528286208551909116865283528185209051855282528084208054825181850281018501909352808352939550909390929184015b8282101561049657838290600052602060002090600202016040518060400160405290816000820154815260200160018201548152505081526020019060010190610450565b505050508583815181106104ac576104ac611aa8565b602090810291909101015250600101610399565b5060038101546001600160401b038111156104dd576104dd610fbe565b60405190808252806020026020018201604052801561051057816020015b60608152602001906001900390816104fb5790505b50915060005b600382015481101561062b57600082600301828154811061053957610539611aa8565b6000918252602080832060408051606081018252600390940290910180546001600160a01b0390811680865260018084015483168787019081526002909401548786019081529188528a018552838720925190911686529083528185209051855282528084208054825181850281018501909352808352939550909390929184015b82821015610601578382906000526020600020906002020160405180604001604052908160008201548152602001600182015481525050815260200190600101906105bb565b5050505084838151811061061757610617611aa8565b602090810291909101015250600101610516565b5050915091565b60608060008060005b855181101561069157600086828151811061065857610658611aa8565b60200260200101519050806040015151846106739190611ad4565b9350806060015151836106869190611ad4565b92505060010161063b565b50816001600160401b038111156106aa576106aa610fbe565b6040519080825280602002602001820160405280156106dd57816020015b60608152602001906001900390816106c85790505b509350806001600160401b038111156106f8576106f8610fbe565b60405190808252806020026020018201604052801561072b57816020015b60608152602001906001900390816107165790505b509250505060008060005b855181101561082457600086828151811061075357610753611aa8565b6020026020010151905060005b8160400151518110156107bb5761078a604051806040016040528085815260200183815250610e8d565b87868151811061079c5761079c611aa8565b6020026020010181905250846107b190611ae7565b9450600101610760565b5060005b81606001515181101561081a576107e9604051806040016040528085815260200183815250610e8d565b8685815181106107fb576107fb611aa8565b60200260200101819052508361081090611ae7565b93506001016107bf565b5050600101610736565b505050915091565b60608060008060005b855181101561088b57600086828151811061085257610852611aa8565b602002602001015190508060400151518461086d9190611ad4565b9350806060015151836108809190611ad4565b925050600101610835565b50816001600160401b038111156108a4576108a4610fbe565b6040519080825280602002602001820160405280156108d757816020015b60608152602001906001900390816108c25790505b509350806001600160401b038111156108f2576108f2610fbe565b60405190808252806020026020018201604052801561092557816020015b60608152602001906001900390816109105790505b509250505060008060005b855181101561082457600086828151811061094d5761094d611aa8565b6020026020010151905060005b8160400151518110156109b557610984604051806040016040528085815260200183815250610e8d565b87868151811061099657610996611aa8565b6020026020010181905250846109ab90611ae7565b945060010161095a565b5060005b816060015151811015610a14576109e3604051806040016040528085815260200183815250610e8d565b8685815181106109f5576109f5611aa8565b602002602001018190525083610a0a90611ae7565b93506001016109b9565b5050600101610930565b606080600083516001600160401b03811115610a3c57610a3c610fbe565b604051908082528060200260200182016040528015610a7557816020015b610a62610f41565b815260200190600190039081610a5a5790505b50905060005b845181101561028457848181518110610a9657610a96611aa8565b602002602001015160000151828281518110610ab457610ab4611aa8565b6020908102919091010152600101610a7b565b606080600083516001600160401b03811115610ae557610ae5610fbe565b604051908082528060200260200182016040528015610b1e57816020015b610b0b610f41565b815260200190600190039081610b035790505b50905060005b84518110156101c757848181518110610b3f57610b3f611aa8565b602002602001015160000151828281518110610b5d57610b5d611aa8565b6020908102919091010152600101610b24565b7fec552e4c2db8d63715df88a8f898be51e82588fd0fc8fa68c6dd2a2148bee77480546001908290600090610ba6908490611ad4565b909155505050565b60005b8551811015610d1557600060405180604001604052808581526020018381525090506000878381518110610be757610be7611aa8565b6020026020010151905060006040518060800160405280896001600160a01b0316815260200188815260200183602001516001600160a01b0316815260200183604001518152509050610c3a8186610ef6565b610ca95760028581018054600180820183556000928352602092839020855160049093020180546001600160a01b03199081166001600160a01b039485161782559386015191810191909155604085015193810180549093169390911692909217905560608201516003909101555b6040808201516001600160a01b039081166000908152602088815283822060608601518352815283822085519093168252918252828120938201518152928152908220805460018181018355918452928290208551600290940201928355930151908301555001610bb1565b505050505050565b60005b8351811015610e8757600060405180604001604052808581526020018381525090506000858381518110610d5657610d56611aa8565b6020908102919091018101516040805160608101825260a08301516001600160a01b0390811680835284860151821683870190815284860151848601908152600092835260018c018852858320915190931682528652838120915181529452922054909250610e1f576003858101805460018082018355600092835260209283902085519290940290930180546001600160a01b03199081166001600160a01b039384161782559285015193810180549093169390911692909217905560408201516002909101555b80516001600160a01b039081166000908152600180880160209081526040808420828701519095168452938152838320948401518352938452918120805480840182559082529083902085516002909202019081559390910151928101929092555001610d20565b50505050565b60408051600180825281830190925260609160009190816020015b6040805180820190915260008082526020820152815260200190600190039081610ea85790505090508281600081518110610ee557610ee5611aa8565b602090810291909101015292915050565b6040808301516001600160a01b039081166000908152602084815283822060608701518352815283822086519093168252918252828120828601518252909152205415155b92915050565b60405180610160016040528060006001600160a01b0316815260200160006001600160a01b03168152602001606081526020016060815260200160006004811115610f8e57610f8e611b00565b815260006020820181905260408201819052606082018190526080820181905260a0820181905260c09091015290565b634e487b7160e01b600052604160045260246000fd5b60405160a081016001600160401b0381118282101715610ff657610ff6610fbe565b60405290565b60405160c081016001600160401b0381118282101715610ff657610ff6610fbe565b60405161016081016001600160401b0381118282101715610ff657610ff6610fbe565b604051608081016001600160401b0381118282101715610ff657610ff6610fbe565b60405160e081016001600160401b0381118282101715610ff657610ff6610fbe565b604080519081016001600160401b0381118282101715610ff657610ff6610fbe565b604051601f8201601f191681016001600160401b03811182821017156110cf576110cf610fbe565b604052919050565b60006001600160401b038211156110f0576110f0610fbe565b5060051b60200190565b6001600160a01b038116811461110f57600080fd5b50565b803561111d816110fa565b919050565b80356006811061111d57600080fd5b600082601f83011261114257600080fd5b81356020611157611152836110d7565b6110a7565b82815260a0928302850182019282820191908785111561117657600080fd5b8387015b858110156111e15781818a0312156111925760008081fd5b61119a610fd4565b6111a382611122565b8152858201356111b2816110fa565b81870152604082810135908201526060808301359082015260808083013590820152845292840192810161117a565b5090979650505050505050565b600082601f8301126111ff57600080fd5b8135602061120f611152836110d7565b82815260c0928302850182019282820191908785111561122e57600080fd5b8387015b858110156111e15781818a03121561124a5760008081fd5b611252610ffc565b61125b82611122565b81528582013561126a816110fa565b8187015260408281013590820152606080830135908201526080808301359082015260a08083013561129b816110fa565b908201528452928401928101611232565b80356005811061111d57600080fd5b600061016082840312156112ce57600080fd5b6112d661101e565b90506112e182611112565b81526112ef60208301611112565b602082015260408201356001600160401b038082111561130e57600080fd5b61131a85838601611131565b6040840152606084013591508082111561133357600080fd5b50611340848285016111ee565b606083015250611352608083016112ac565b608082015260a082013560a082015260c082013560c082015260e082013560e082015261010080830135818301525061012080830135818301525061014080830135818301525092915050565b80356effffffffffffffffffffffffffffff8116811461111d57600080fd5b600082601f8301126113cf57600080fd5b81356001600160401b038111156113e8576113e8610fbe565b6113fb601f8201601f19166020016110a7565b81815284602083860101111561141057600080fd5b816020850160208301376000918101602001919091529392505050565b6000602080838503121561144057600080fd5b82356001600160401b038082111561145757600080fd5b818501915085601f83011261146b57600080fd5b8135611479611152826110d7565b81815260059190911b8301840190848101908883111561149857600080fd5b8585015b83811015611578578035858111156114b357600080fd5b860160a0818c03601f190112156114ca5760008081fd5b6114d2610fd4565b88820135878111156114e45760008081fd5b6114f28d8b838601016112bb565b825250604061150281840161139f565b8a830152606061151381850161139f565b8284015260809150818401358981111561152d5760008081fd5b61153b8f8d838801016113be565b82850152505060a0830135888111156115545760008081fd5b6115628e8c838701016113be565b918301919091525084525091860191860161149c565b5098975050505050505050565b600082825180855260208086019550808260051b8401018186016000805b8581101561160157868403601f19018a52825180518086529086019086860190845b818110156115ec5783518051845289015189840152928801926040909201916001016115c5565b50509a86019a945050918401916001016115a3565b509198975050505050505050565b6040815260006116226040830185611585565b82810360208401526116348185611585565b95945050505050565b6000602080838503121561165057600080fd5b82356001600160401b038082111561166757600080fd5b818501915085601f83011261167b57600080fd5b8135611689611152826110d7565b81815260059190911b830184019084810190888311156116a857600080fd5b8585015b83811015611578578035858111156116c45760008081fd5b6116d28b89838a01016112bb565b8452509186019186016116ac565b600082601f8301126116f157600080fd5b81356020611701611152836110d7565b82815260079290921b8401810191818101908684111561172057600080fd5b8286015b84811015611783576080818903121561173d5760008081fd5b611745611041565b61174e82611122565b81528482013561175d816110fa565b818601526040828101359082015260608083013590820152835291830191608001611724565b509695505050505050565b600082601f83011261179f57600080fd5b813560206117af611152836110d7565b82815260a092830285018201928282019190878511156117ce57600080fd5b8387015b858110156111e15781818a0312156117ea5760008081fd5b6117f2610fd4565b6117fb82611122565b81528582013561180a816110fa565b818701526040828101359082015260608083013590820152608080830135611831816110fa565b9082015284529284019281016117d2565b8035801515811461111d57600080fd5b80356007811061111d57600080fd5b6000602080838503121561187457600080fd5b82356001600160401b038082111561188b57600080fd5b818501915085601f83011261189f57600080fd5b81356118ad611152826110d7565b81815260059190911b830184019084810190888311156118cc57600080fd5b8585015b83811015611578578035858111156118e757600080fd5b860160e0818c03601f190112156118fe5760008081fd5b611906611063565b611911898301611112565b81526040808301358a830152606080840135898111156119315760008081fd5b61193f8f8d838801016116e0565b838501525060809150818401358981111561195a5760008081fd5b6119688f8d8388010161178e565b82850152505060a061197b818501611842565b8284015260c0915081840135818401525061199860e08401611852565b908201528452509186019186016118d0565b600060208083850312156119bd57600080fd5b82356001600160401b03808211156119d457600080fd5b818501915085601f8301126119e857600080fd5b81356119f6611152826110d7565b81815260059190911b83018401908481019088831115611a1557600080fd5b8585015b8381101561157857803585811115611a315760008081fd5b86016040818c03601f1901811315611a495760008081fd5b611a51611085565b8983013588811115611a635760008081fd5b611a718e8c838701016112bb565b825250908201359087821115611a875760008081fd5b611a958d8b848601016113be565b818b015285525050918601918601611a19565b634e487b7160e01b600052603260045260246000fd5b634e487b7160e01b600052601160045260246000fd5b80820180821115610f3b57610f3b611abe565b600060018201611af957611af9611abe565b5060010190565b634e487b7160e01b600052602160045260246000fdfea2646970667358221220ccd064586c370ada096d046a5d5077d8b3612bb74f4a9652a1aaadf25b03929164736f6c63430008160033","linkReferences":{}},"methodIdentifiers":{"getAggregatedFulfillmentComponents(((address,address,(uint8,address,uint256,uint256,uint256)[],(uint8,address,uint256,uint256,uint256,address)[],uint8,uint256,uint256,bytes32,uint256,bytes32,uint256),bytes)[])":"ee8982f4","getAggregatedFulfillmentComponents(((address,address,(uint8,address,uint256,uint256,uint256)[],(uint8,address,uint256,uint256,uint256,address)[],uint8,uint256,uint256,bytes32,uint256,bytes32,uint256),uint120,uint120,bytes,bytes)[])":"7158e4b5","getAggregatedFulfillmentComponents((address,address,(uint8,address,uint256,uint256,uint256)[],(uint8,address,uint256,uint256,uint256,address)[],uint8,uint256,uint256,bytes32,uint256,bytes32,uint256)[])":"8f17eea1","getNaiveFulfillmentComponents(((address,address,(uint8,address,uint256,uint256,uint256)[],(uint8,address,uint256,uint256,uint256,address)[],uint8,uint256,uint256,bytes32,uint256,bytes32,uint256),bytes)[])":"c9a227b3","getNaiveFulfillmentComponents(((address,address,(uint8,address,uint256,uint256,uint256)[],(uint8,address,uint256,uint256,uint256,address)[],uint8,uint256,uint256,bytes32,uint256,bytes32,uint256),uint120,uint120,bytes,bytes)[])":"74a7a3dd","getNaiveFulfillmentComponents((address,address,(uint8,address,uint256,uint256,uint256)[],(uint8,address,uint256,uint256,uint256,address)[],uint8,uint256,uint256,bytes32,uint256,bytes32,uint256)[])":"a1afc773","getNaiveFulfillmentComponents((address,bytes32,(uint8,address,uint256,uint256)[],(uint8,address,uint256,uint256,address)[],bool,bytes32,uint8)[])":"bd99302b"},"id":108}