{"abi":[{"type":"constructor","inputs":[{"name":"_createPolicy","type":"address","internalType":"address"},{"name":"_stopPolicy","type":"address","internalType":"address"},{"name":"_gameToken","type":"address","internalType":"address"},{"name":"_rewardToken","type":"address","internalType":"address"}],"stateMutability":"nonpayable"},{"type":"function","name":"accruedRewards","inputs":[{"name":"rewardedAddress","type":"address","internalType":"address"}],"outputs":[{"name":"rewards","type":"uint256","internalType":"uint256"}],"stateMutability":"view"},{"type":"function","name":"claimRewards","inputs":[{"name":"rewardedAddress","type":"address","internalType":"address"}],"outputs":[],"stateMutability":"nonpayable"},{"type":"function","name":"createPolicy","inputs":[],"outputs":[{"name":"","type":"address","internalType":"address"}],"stateMutability":"view"},{"type":"function","name":"gameToken","inputs":[],"outputs":[{"name":"","type":"address","internalType":"address"}],"stateMutability":"view"},{"type":"function","name":"onStart","inputs":[{"name":"safe","type":"address","internalType":"address"},{"name":"token","type":"address","internalType":"address"},{"name":"identifier","type":"uint256","internalType":"uint256"},{"name":"amount","type":"uint256","internalType":"uint256"},{"name":"data","type":"bytes","internalType":"bytes"}],"outputs":[],"stateMutability":"nonpayable"},{"type":"function","name":"onStop","inputs":[{"name":"safe","type":"address","internalType":"address"},{"name":"token","type":"address","internalType":"address"},{"name":"identifier","type":"uint256","internalType":"uint256"},{"name":"amount","type":"uint256","internalType":"uint256"},{"name":"data","type":"bytes","internalType":"bytes"}],"outputs":[],"stateMutability":"nonpayable"},{"type":"function","name":"onTransaction","inputs":[{"name":"safe","type":"address","internalType":"address"},{"name":"to","type":"address","internalType":"address"},{"name":"value","type":"uint256","internalType":"uint256"},{"name":"data","type":"bytes","internalType":"bytes"}],"outputs":[],"stateMutability":"view"},{"type":"function","name":"rentInfo","inputs":[{"name":"assetHash","type":"bytes32","internalType":"bytes32"}],"outputs":[{"name":"amount","type":"uint256","internalType":"uint256"},{"name":"lastRewardBlock","type":"uint256","internalType":"uint256"}],"stateMutability":"view"},{"type":"function","name":"rewardPerBlock","inputs":[],"outputs":[{"name":"","type":"uint256","internalType":"uint256"}],"stateMutability":"view"},{"type":"function","name":"rewardToken","inputs":[],"outputs":[{"name":"","type":"address","internalType":"contract IERC20"}],"stateMutability":"view"},{"type":"function","name":"stopPolicy","inputs":[],"outputs":[{"name":"","type":"address","internalType":"address"}],"stateMutability":"view"}],"bytecode":{"object":"0x60a0604052633b9aca0060805234801561001857600080fd5b50604051610d3f380380610d3f833981016040819052610037916100a6565b600080546001600160a01b039586166001600160a01b03199182161790915560018054948616948216949094179093556002805492851692841692909217909155600380549190931691161790556100fa565b80516001600160a01b03811681146100a157600080fd5b919050565b600080600080608085870312156100bc57600080fd5b6100c58561008a565b93506100d36020860161008a565b92506100e16040860161008a565b91506100ef6060860161008a565b905092959194509250565b608051610c1d6101226000396000818160fb015281816103bf01526107bb0152610c1d6000f3fe608060405234801561001057600080fd5b50600436106100a95760003560e01c8063c3dfdae611610071578063c3dfdae614610184578063c783f6de14610197578063ef5cfb8c146101aa578063f5aa1eee146101bd578063f7c618c1146101d0578063f957ee78146101e357600080fd5b80630747c995146100ae578063128fced1146100c35780638ae39cac146100f6578063a91a0ca31461011d578063ae20f45614610148575b600080fd5b6100c16100bc366004610986565b6101f7565b005b6100e36100d13660046109fc565b60056020526000908152604090205481565b6040519081526020015b60405180910390f35b6100e37f000000000000000000000000000000000000000000000000000000000000000081565b600054610130906001600160a01b031681565b6040516001600160a01b0390911681526020016100ed565b61016f610156366004610a20565b6004602052600090815260409020805460019091015482565b604080519283526020830191909152016100ed565b600254610130906001600160a01b031681565b600154610130906001600160a01b031681565b6100c16101b83660046109fc565b6104cf565b6100c16101cb366004610986565b610635565b600354610130906001600160a01b031681565b6100c16101f1366004610a39565b50505050565b6001546001600160a01b031633146102565760405162461bcd60e51b815260206004820152601f60248201527f6e6f742063616c6c61626c6520756e6c6573732073746f7020706f6c6963790060448201526064015b60405180910390fd5b60025484906001600160a01b038083169116146102ae5760405162461bcd60e51b81526020600482015260166024820152751d1bdad95b881a5cc81b9bdd081cdd5c1c1bdc9d195960521b604482015260640161024d565b6000828060200190518101906102c49190610aa5565b90506064816020015111156102eb5760405162461bcd60e51b815260040161024d90610afd565b604080516001600160a01b03808a1660208301528816918101919091526060810186905260009060800160408051601f198184030181529181528151602092830120600081815260049093529120600181015490549192509081158015906103535750600081115b61039f5760405162461bcd60e51b815260206004820152601860248201527f76616c7565732073686f756c64206265206e6f6e7a65726f0000000000000000604482015260640161024d565b8960006103ac8443610b60565b90506000670de0b6b3a7640000846103e47f000000000000000000000000000000000000000000000000000000000000000085610b79565b6103ee9190610b79565b6103f89190610b90565b90506000606488602001518361040e9190610b79565b6104189190610b90565b905060006104268284610b60565b89516001600160a01b0316600090815260056020526040812080549293508492909190610454908490610bb2565b90915550506001600160a01b03851660009081526005602052604081208054839290610481908490610bb2565b9091555050600088815260046020526040812080548e92906104a4908490610b60565b9091555050506000968752505060046020525050604090922043600190910155505050505050505050565b336001600160a01b03821614808061054a57506040516317aa5fb760e11b81523360048201526001600160a01b03831690632f54bf6e90602401602060405180830381865afa158015610526573d6000803e3d6000fd5b505050506040513d601f19601f8201168201806040525081019061054a9190610bc5565b6105aa5760405162461bcd60e51b815260206004820152602b60248201527f6e6f7420616c6c6f77656420746f20616363657373207265776172647320666f60448201526a722074686973207361666560a81b606482015260840161024d565b6001600160a01b038281166000908152600560205260408082208054929055600354905163a9059cbb60e01b8152336004820152602481018390529192169063a9059cbb906044016020604051808303816000875af1158015610611573d6000803e3d6000fd5b505050506040513d601f19601f820116820180604052508101906101f19190610bc5565b6000546001600160a01b031633146106995760405162461bcd60e51b815260206004820152602160248201527f6e6f742063616c6c61626c6520756e6c6573732063726561746520706f6c69636044820152607960f81b606482015260840161024d565b60025484906001600160a01b038083169116146106f15760405162461bcd60e51b81526020600482015260166024820152751d1bdad95b881a5cc81b9bdd081cdd5c1c1bdc9d195960521b604482015260640161024d565b6000828060200190518101906107079190610aa5565b905060648160200151111561072e5760405162461bcd60e51b815260040161024d90610afd565b604080516001600160a01b03808a1660208301528816918101919091526060810186905260009060800160408051601f198184030181529181528151602092830120600081815260049093529120600181015490549192509081158015906107965750600081115b15610888578960006107a88443610b60565b90506000670de0b6b3a7640000846107e07f000000000000000000000000000000000000000000000000000000000000000085610b79565b6107ea9190610b79565b6107f49190610b90565b90506000606488602001518361080a9190610b79565b6108149190610b90565b905060006108228284610b60565b89516001600160a01b0316600090815260056020526040812080549293508492909190610850908490610bb2565b90915550506001600160a01b0385166000908152600560205260408120805483929061087d908490610bb2565b909155505050505050505b600083815260046020526040812080548992906108a6908490610bb2565b9091555050506000918252506004602052604090204360019091015550505050505050565b6001600160a01b03811681146108e057600080fd5b50565b634e487b7160e01b600052604160045260246000fd5b600082601f83011261090a57600080fd5b813567ffffffffffffffff80821115610925576109256108e3565b604051601f8301601f19908116603f0116810190828211818310171561094d5761094d6108e3565b8160405283815286602085880101111561096657600080fd5b836020870160208301376000602085830101528094505050505092915050565b600080600080600060a0868803121561099e57600080fd5b85356109a9816108cb565b945060208601356109b9816108cb565b93506040860135925060608601359150608086013567ffffffffffffffff8111156109e357600080fd5b6109ef888289016108f9565b9150509295509295909350565b600060208284031215610a0e57600080fd5b8135610a19816108cb565b9392505050565b600060208284031215610a3257600080fd5b5035919050565b60008060008060808587031215610a4f57600080fd5b8435610a5a816108cb565b93506020850135610a6a816108cb565b925060408501359150606085013567ffffffffffffffff811115610a8d57600080fd5b610a99878288016108f9565b91505092959194509250565b600060408284031215610ab757600080fd5b6040516040810181811067ffffffffffffffff82111715610ada57610ada6108e3565b6040528251610ae8816108cb565b81526020928301519281019290925250919050565b6020808252602d908201527f73706c69742076616c7565206d757374206265206c657373207468616e206f7260408201526c020657175616c20746f2031303609c1b606082015260800190565b634e487b7160e01b600052601160045260246000fd5b81810381811115610b7357610b73610b4a565b92915050565b8082028115828204841417610b7357610b73610b4a565b600082610bad57634e487b7160e01b600052601260045260246000fd5b500490565b80820180821115610b7357610b73610b4a565b600060208284031215610bd757600080fd5b81518015158114610a1957600080fdfea2646970667358221220c08905965df3e6dd28a14d213a552aaa6d2b023be95637687c199d3837b4a22664736f6c63430008160033","linkReferences":{}},"methodIdentifiers":{"accruedRewards(address)":"128fced1","claimRewards(address)":"ef5cfb8c","createPolicy()":"a91a0ca3","gameToken()":"c3dfdae6","onStart(address,address,uint256,uint256,bytes)":"f5aa1eee","onStop(address,address,uint256,uint256,bytes)":"0747c995","onTransaction(address,address,uint256,bytes)":"f957ee78","rentInfo(bytes32)":"ae20f456","rewardPerBlock()":"8ae39cac","rewardToken()":"f7c618c1","stopPolicy()":"c783f6de"},"id":118}